:020000042000DA
:10000000000204200D0200200F0200200F02002039
:100010000F0200200F0200200F0200200F0200201C
:100020000F0200200F0200200F020020F1650020C7
:100030000F0200200F0200200F0200200F020020FC
:10004000014000203140002061400020814000201C
:100050000F0200200F0200200F0200200F020020DC
:100060000F0200200F0200200F0200200F020020CC
:100070000F0200200F0200200F0200200F020020BC
:100080000F0200200F0200200F0200200F020020AC
:10009000C13F0020E13F00200F0200200F0200209E
:1000A0000F0200200F0200200F0200200F0200208C
:1000B0000F0200200F0200200F0200200F0200207C
:1000C00072B63E4880F308883D4880F30A883D4870
:1000D00080F309883C4880F30B883C483C49086021
:1000E000022080F31488BFF36F8F03F0E1FE03F06A
:1000F000D7FF4FF055303249304A91423CBF41F86A
:10010000040BFAE730492F4A91423CBF41F8040BF7
:10011000FAE73049304A314B9A423EBF51F8040B5E
:1001200042F8040BF8E700202D492E4A91423CBFCB
:1001300041F8040BFAE703F0F3FE03F0C1FE2A4C8A
:100140002A4DAC4203DA54F8041B8847F9E70AF059
:10015000E7FE274C274DAC4203DA54F8041B8847CE
:10016000F9E703F0B5BE00BF72B6234880F30888F4
:10017000224880F30988022080F31488BFF36F8F30
:1001800012481349086003F0ABFE03F0B1FE4FF0D4
:1001900055301B49184A914202DA08600431FAE7E7
:1001A0001849164A914202DA08600431FAE703F06E
:1001B000A7FE0AF0EDFE14490847000000020420E3
:1001C000000004200004042000020420000000209D
:1001D00008ED00E0A4DE0020A4DE002080DF002087
:1001E00080DF002000F90020C0000020C0000020B7
:1001F000C0000020C00000200012042000140420D1
:100200000010042000120420113F002058E700F0E5
:1002100000F8FEE72DE9F04FC1F80CD0D0F80CD073
:10022000BDE8F08F002383F311882846A047002003
:1002300004F066FBFEE704F08BFA00DFFEE7000047
:10024000844641EA000313F0030349D1403A23D323
:100250000B6803604B6843608B688360CB68C36046
:100260000B6903614B6943618B698361CB69C3612E
:100270000B6A03624B6A43628B6A8362CB6AC36216
:100280000B6B03634B6B43638B6B8363CB6BC363FE
:1002900040304031403ADBD230320BD30B68036040
:1002A0004B6843608B688360CB68C360103010314B
:1002B000103AF3D20C3205D351F8043B40F8043B1A
:1002C000043AF9D2043208D0D2071CBF11F8013B1E
:1002D00000F8013B01D30B8803806046704700BFE4
:1002E000082A13D38B07B1D010F00303AED0C3F1AB
:1002F0000403D21ADB071CBF11F8013B00F8013BD5
:10030000A4D331F8023B20F8023B9FE7043AD9D34B
:10031000013A11F8013B00F8013BF9D20B78037068
:100320004B7843708B7883706046704780EA010C8D
:100330001CF0030F37D110F0030C20F0030021F064
:10034000030150F8042B08BF51F8043B0ED08CF089
:10035000030C6FF07F434FEACC0C23FA0CFC51F8EE
:10036000043B42EA0C0243EA0C0300BFA2F1013C49
:100370009A4201BF2CEA020C1CF0803F50F8042B7B
:1003800051F8043BF2D04FEA02604FEA12220128F2
:1003900028BFB0EB036F08BF1B0AF4D003F0FF03C4
:1003A000000EC01A704710F0030F0AD010F8012B8E
:1003B00011F8013B012A28BF9A42F4D0A2EB0300B6
:1003C00070474DF8045D50F8042B01F0030521F04F
:1003D000030151F8043B022D26D04DD822F07F4571
:1003E000B5EB132FA2F1013C2CEA020C0DD11CF04D
:1003F000803C08BF51F8043B0AD185EA0205B5EB01
:10040000036F0CD150F8042BE8E74FEA13235BE0AD
:100410003CF07F4C54D10B784FEA126554E04FEA20
:10042000126503F0FF034FE04FEA0245A2F1013CE1
:100430004FEA15452CEA020CB5EB134F18D11CF00E
:10044000803C08BF51F8043B07D185EA0205B5EBB3
:10045000034F09D150F8042BE6E75FEA0C4C2FD18B
:100460000B884FEA12452FE04FEA03434FEA12454B
:100470004FEA134328E000BF02F0FF05B5EB136F0E
:10048000A2F1013C2CEA020C0DD11CF0803C08BF0B
:1004900051F8043B0AD185EA0205B5EB032F0AD1D6
:1004A00050F8042BE8E74FEA13630DE012F0FF0F5A
:1004B00006D051F8043B4FEA122523F07F4303E0B6
:1004C0004FF0000020BC704705F0FF0203F0FF0072
:1004D000012828BF904204BF2D0A1B0AF4D0A2EBCA
:1004E000000020BC704700BF0000000000000000BA
:1004F000014B986A704700BF0040054000000000B3
:10050000044B186101225A639A6B42F001029A630C
:10051000704700BF004005400000000000000000E0
:10052000024A936B23F00103936370470040054038
:10053000014B1861704700BF0040054000000000FB
:10054000064B03600123037100238360C3600361D2
:1005500043618361C361036243627047F4DB00203F
:100560008901C9B2074A131883F8001300F01F016C
:10057000400901238B4000F1600142F8213042F82C
:100580002030704700E100E00000000000000000A3
:10059000044B1A6822F020021A601A6822F4807252
:1005A0001A60704700C0004000000000000000001A
:1005B000064B0622DA6200225A601A601A615A61FA
:1005C0009A61DA619A630F225A63704700400540CE
:1005D00008B5002304E0054A002142F82310013346
:1005E000032BF8D9FFF7E4FF08BD00BFA8E2002005
:1005F00038B50B4C2046FFF7A3FF0A4BA3620A4C09
:10060000236843F480032360084D2846FFF798FFD2
:10061000074BAB62236843F40003236038BD00BF7F
:1006200080DF00200040034000C00040ACDF00201D
:1006300000800340000000000000000000000000F7
:1006400008B5FFF7D5FF08BD00000000000000005E
:10065000C26893081B0103F01003D108490101F09F
:1006600020010B43110A890201F480610B43910AB6
:10067000490201F400710B435109090201F4807130
:100680000B439109490101F020010B43520AD201A9
:10069000D2B21343826A9363704700BF0000000028
:1006A00010B4844600201AE0DCF80C3013F0040F7C
:1006B00005D0DCF82820936B43F010039363DCF83B
:1006C0000C3013F4007F12D0DCF82820936B43F039
:1006D000400393630BE01B6801F8013B0130DCF839
:1006E00028309C6914F0100FDED19042F3D310BC77
:1006F000704700BF00000000000000000000000084
:1007000008B5802383F31188FFF7CAFF002383F322
:10071000118808BD0000000000000000000000007B
:1007200010B4844600200DE0DCF80C2012F0080F15
:1007300010D09A6B42F020029A630BE011F8014B43
:100740001C600130DCF828309C6914F0200FEBD1DC
:100750009042F3D310BC704700000000000000007E
:1007600008B5802383F31188FFF7DAFF002383F3B2
:10077000118808BD0000000000000000000000001B
:100780000346826A1068C0B2926912F0100F00D15D
:100790007047DA6812F0040F04D0996A8A6B42F04D
:1007A00010028A63DA6812F4007FF1D09A6A936BC0
:1007B00043F040039363EBE70000000000000000FB
:1007C000836A1960836A9A6912F0200F07D0C268A1
:1007D00012F0080F03D09A6B42F020029A63704720
:1007E0000020704700000000000000000000000032
:1007F00029B108B5012905D0FFF7F2FF03E06FF03A
:1008000013007047002008BD000000000000000039
:100810004FF050431A68334B03EB82035A6810F0D1
:10082000010F0DD01168002301E0013309688A42ED
:10083000FBD1516801E0013B49688A42FBD15BBBB7
:1008400010F0020F31D010B41469002301E001331D
:10085000246802F11001A142F9D1526901E0013B83
:1008600052689142FBD1CBB910F0040F18D01D4B48
:100870001A69002301E0013312681B498A42FAD148
:10088000A1F11002526901E0013B526816498A4207
:10089000FAD143B9002004E001207047012000E0B4
:1008A000002010BC70470120FBE710F0040F14D0AB
:1008B0000C4B1A69002301E0013312680A498A428D
:1008C000FAD1A1F11002526901E0013B52680649D8
:1008D0008A42FAD11BB900207047002070470120DE
:1008E000704700BFD0E10020E0E1002000000000E0
:1008F000EFF3118058B9EFF30583C3F308031BB17D
:10090000802383F311887047802383F31188704715
:10091000024A936903439361704700BFD0E100200E
:1009200000230360704700BF0000000000000000CB
:1009300070B54FF050431A68074B03EB82035E68B3
:10094000FFF7D6FDD6E90A45031B181945F100014A
:10095000C6E90A0170BD00BFD0E100200000000020
:100960004FF050431A68064B03EB82035B68DA686A
:100970001B6898689368984294BF002001207047D4
:10098000D0E1002000000000000000000000000096
:10099000FEE700BF000000000000000000000000B3
:1009A0004B6843618B688361CB6883600223037764
:1009B000002343778B699BB103610023C362036308
:1009C00000F138028263CA68C2648364436401230D
:1009D00083770B68036200F13C03C36303647047D1
:1009E0004FF050431A68034B03EB82035B680361CB
:1009F000E3E700BFD0E1002000000000000000009D
:100A000010B50C46FFF7CCFF8269A2F12401C1604A
:100A1000216942F8241CC26861695160C2680649B4
:100A2000116200F12401054A02F110044462546984
:100A300084622160516110BD25020020D0E10020B8
:100A400010B50446806821466038FFF7A9FFA0F181
:100A50002402C260216940F8241C616940F8201C0E
:100A6000064940F8041C00F12401054A02F1100473
:100A70004462546984622160516110BD25020020E6
:100A8000D0E1002000000000000000000000000095
:100A900008B5802383F31188837F013B8377C36983
:100AA00003F0FF130F2B03D0002383F3118808BD3D
:100AB000826A436A1360826A5A60002383F3118852
:100AC000C36A002BF3D09847F1E700BF0000000095
:100AD000802383F31188437F63F07F0343770023F0
:100AE00083F31188704700BF000000000000000081
:100AF00000604060704700BF000000000000000080
:100B00004FF0FF330360002343608360C360002223
:100B10000023C0E90423704700000000000000002B
:100B2000014B5B6883607047001000E0000000002C
:100B30000D4B5B680D4AD168C2680132C2608268A1
:100B40009B1A5B1A836002694169D21841F1000166
:100B5000026141614268934200D943600268934256
:100B600000D20360704700BF001000E0D0E1002019
:100B7000802383F31188064B1B69A3F1240013F82B
:100B8000062C013203F8062C002383F311887047EA
:100B9000D0E1002000000000000000000000000084
:100BA00010B5802383F31188436A094A93420DD01C
:100BB000A3F1240413F8062C013203F8062C0023B9
:100BC00083F31188FFF764FF204610BD0024F6E789
:100BD000E0E1002000000000000000000000000034
:100BE0000060406000238360704700BF0000000089
:100BF0004FF050431A68074B03EB82035B68DB68D6
:100C000082680AB10020704783609A6CC260986461
:100C100001207047D0E1002000000000000000002B
:100C200008B5802383F31188FFF7E2FF002383F3E5
:100C3000118808BD00000000000000000000000056
:100C400000604060704700BF00000000000000002E
:100C5000006070470000000000000000000000007D
:100C600030B44FF050442568074C04EB850CDCF899
:100C70000440E46805680D6001604C608A600022F1
:100C8000CA600B6130BC7047D0E10020000000005A
:100C900008B54FF0800C8CF31188FFF7E1FF0023BB
:100CA00083F3118808BD00BF0000000000000000B1
:100CB000802383F3118803461A461B68984203D0A9
:100CC0008B42F9D10B681360002383F311887047BE
:100CD0004FF050431A68054B03EB82035B68DA68F8
:100CE000536C23EA0001516418407047D0E10020A2
:100CF00008B5802383F31188FFF7EAFF002383F30D
:100D0000118808BD00000000000000000000000085
:100D1000802383F311884FF050431A68054B03EB8F
:100D200082035B68DB685A6C10435864002383F3CA
:100D300011887047D0E10020000000000000000092
:100D400070B506460D46002400E001346DB125FA69
:100D500004F313F0010FF8D00123A34025EA0305A3
:100D600056F8243020469847EFE770BD0000000099
:100D700010B4844604E000231846C3B90CF1080CF3
:100D8000DCF80040B4F1FF3F10D0DCF80430013B48
:100D90002344501E0818EED28C4203D8834203D25B
:100DA0000023E9E70023E7E70123E5E7002010BC83
:100DB000704700BF000000000000000000000000BD
:100DC00008B5014601220248FFF7D2FF08BD00BF67
:100DD000BCD3002000000000000000000000000064
:100DE000024B034A1A60034A5A607047C8E1002068
:100DF00000F90020000004200000000000000000B6
:100E000010B4094B5C68201A49420840821A1B68DA
:100E10009A4205D3A24205D8034B5A6010BC7047D2
:100E20000020FBE70020F9E7C8E1002000000000F7
:100E300008B5802383F31188FFF7E2FF002383F3D3
:100E4000118808BD00000000000000000000000044
:100E5000034B1A6802605B689B1A4360704700BFCF
:100E6000C8E10020000000000000000000000000B9
:100E700010B5074C2046074B40F8043BFFF7E8FF4E
:100E80000023E360236104F11400FFF7A9FE10BD05
:100E900014E20020310E00200000000000000000DD
:100EA00008B50346006810B102681A6008BDDA6828
:100EB000002AFBD0996858689047F7E700000000C7
:100EC00003680B6001607047000000000000000034
:100ED00010B504460160C160816011444160002387
:100EE000036103758361C3612030FFF779FE04F16C
:100EF0003000FFF775FE04F14000FFF771FE10BDF2
:100F000010B444680368013B8818034004EBC30C29
:100F100054F8330000E00068604506D003698B4256
:100F2000F9D143699342F6D100E0002010BC70472C
:100F300008B503681A1D02601B68984708BD00BF0A
:100F400008B50268131D0360116802F1080303600D
:100F50005068884708BD00BF000000000000000086
:100F600010B503460068011D1960046800F108020D
:100F70001A60406801F108021A604968A04710BD74
:100F800038B503460268111D0160156802F10804B6
:100F9000046050680C321A60496804F108021A6053
:100FA0006268A84738BD00BF0000000000000000D4
:100FB00070B503460068011D1960066800F108025B
:100FC0001A60406801F108051D60496802F10804D3
:100FD0001C60526805F108041C606B68B04770BD66
:100FE00008B50022FFF70CFF08BD00BF000000009D
:100FF00010B40822047801300C700131013A0CB1B0
:10100000002AF7D110BC704700000000000000006B
:1010100002460B4618461B688B4202D09342F9D118
:1010200000E00020704700BF00000000000000004A
:101030000346006802681A60704700BF00000000A5
:10104000802383F3118862B6174AD36823F4E063E0
:101050001B041B0C43F0052343F47A03D360D2F83E
:10106000FC3043F08073C2F8FC30A2F55D42136897
:1010700043F0010313604FF050430C221A65036BD9
:101080003BB90A4BC02283F80F234FF400421A6089
:101090007047012B00D07047044BC02283F8102307
:1010A0004FF480321A60F6E700ED00E000E100E066
:1010B000802383F311880D4B5B6813F4006F03D119
:1010C000002383F31188704710B5EFF30984203CA7
:1010D0004FF08073E36184F30988FFF741FC10B19E
:1010E000034BA36110BD034BA361FBE700ED00E0E0
:1010F000370200203A02002000000000000000003B
:101100000020704700000000000000000000000008
:1011100008B50520FFF7F4FF074B1860074B1A6866
:1011200022F002021A601A6822F400221A601A6879
:1011300022F480221A6008BDD8DF002000C00040E1
:1011400010B504468368002B2ED02379012B2ED0B6
:101150000620FFF7D5FFC000A3681B68B0FBF3F0C3
:10116000C20900F07F0001304008A36A5A62A36AF6
:101170009862A3685B68A26A23F00103D362A36844
:101180009B68A26A23F4417323F003031363A36AE9
:10119000DA6B5A64A3689B68A26A43F4407343F015
:1011A00001031363002010BD0E4B8360CDE70E4B8F
:1011B0009C420CD00D4B9C42CAD10D4A136823F4BB
:1011C0000003136003211520FFF7CAF9C0E7084A9E
:1011D000136823F48003136003211420FFF7C0F980
:1011E000B6E700BFE0D3002080DF0020ACDF0020A6
:1011F00000C00040000000000000000000000000EF
:101200000C4B03EB800253F8203083F0400303F0D3
:10121000C00302F5805CCCF80030C00000F18040D3
:1012200000F52030416002F540524FF480731360A6
:10123000704700BF04800340000000000000000071
:1012400030B51C4603B90C4600F10B0E734608E09E
:1012500001F1370C03F801CDB5FBF2F1B4FBF2F468
:1012600054B10D46B1FBF2FC02FB1C1101F1300C34
:10127000BCF1390FEEDDEBE7AEEB030C197801336F
:1012800001700130BCF1010CF8D130BD000000004C
:1012900008B50023FFF7D4FF08BD00BF0000000021
:1012A0002DE9F04F87B0064689460192002705E0F8
:1012B0003368DB68304698470137A9464D4615F834
:1012C000011B002900F083802529F1D12B782D2BDB
:1012D00046D04FF0000B2B782B2B46D0002095F8F2
:1012E00000A0BAF1300F43D04FF0200A2B782A2B00
:1012F00040D1019B1A1D01921C6805F102096B780F
:101300002E2B47D000226C2B67D04C2B65D0A3F13D
:101310004101C9B219298CBF00210121A3F1440563
:10132000342D00F2CE80DFE805F082CCCCCCCC822C
:10133000CCCCCCCCCC5EC5CCCCCCCCA2CCCCC5CC93
:10134000CCCCCCCCCCCCCCCCCC6082CCCCCCCC82DD
:10135000CCCCCCCCCC5EC5CCCC6CCCA2CCCCC5009F
:1013600009F102054FF0010BB5E701350120B6E7A1
:101370000135BBE70024A94619F8013B3BB3A3F1B3
:101380003002D2B2092ABBD804EB840402EB440435
:101390004D46F0E7494611F8013BC3B12A2B08D16D
:1013A000019B1A1D01921A6899F8013009F102098E
:1013B000A9E70022A3F13005EDB2092D0BD802EB0D
:1013C000820205EB420211F8013B002BF2D13846B4
:1013D00007B0BDE8F08F894695E719F8013B002B6F
:1013E000F5D001219AE7082242E0019B1A1D0192E3
:1013F0001B688DF80C304FF0200A03AD0DF10D0085
:101400003FE0019B191D01911D6815B162B128468D
:1014100002E0424DFAE701300378002B57D0013A41
:10142000F9D54FF0200A2CE047F6FF72EFE761B1E3
:10143000019B1A1D0192196800290BDBA8B12B230F
:101440008DF80C300DF10D000AE0019B1A1D019280
:101450001968F1E72D238DF80C3049420DF10D008C
:101460000A22FFF715FF03AD0BE003A8F8E70A22F5
:1014700011B3019B191D0191196803A8FFF708FF1B
:1014800003ADA0EB0508B4EB080423D4BBF1000FB7
:1014900000D16442002C32DA29782D291CD02B2966
:1014A0001AD03368DB68514630469847013701341B
:1014B000F7D124E01022DBE7019B191D0191196887
:1014C000DBE78DF80C3003AD0DF10D00D9E74FF0DF
:1014D000200AD6E70024D9E7BAF1300FE1D101356F
:1014E0003368DB6830469847013708F1FF38D8E7A2
:1014F0003368DB6815F8011B304698470137B8F1AF
:101500000108F5D506E03368DB6851463046984758
:101510000137013C002CF6D1D0E600BF0CB300200F
:1015200010B50446034B586A0368DB68E1B298477C
:10153000204610BDECE1002000000000000000008B
:10154000024B03F11002DA60704700BFECE10020AB
:1015500010B50446FFF7F4FF054B00225A7163688B
:1015600003B19847E3689847A36803B1984710BD53
:10157000ECE100200000000000000000000000007E
:10158000034A01235371137190601846704700BFDE
:10159000ECE100200000000000000000000000005E
:1015A00030B51D4603B90D4600F10B04234608E093
:1015B0000CF1370E03F801ED91FBF2F195FBF2F51A
:1015C0004DB191FBF2FC02FB1C1C0CF1300EBEF184
:1015D000390FEFDDECE7A4EB030C19780133017050
:1015E0000130BCF1010CF8D130BD00BF000000009B
:1015F00008B50023FFF7D4FF08BD00BF00000000BE
:1016000008B5024B1B6A03B1984708BDECE1002006
:1016100010B5054C03E014F8010BFFF7F1FF034B85
:10162000DB68A342F7D810BDFCE10020ECE100200C
:1016300010B5044602E0FFF7E3FF013420780028EC
:10164000F9D110BD00000000000000000000000003
:1016500010B5002403E02D20FFF7D2FF01344B2CFE
:10166000F9D90248FFF7E4FF10BD00BFCCC200204B
:1016700010B5002403E03D20FFF7C2FF01344B2CDE
:10168000F9D90248FFF7D4FF10BD00BFCCC200203B
:101690002DE9F04786B0804601910026D5E0FFF79E
:1016A000AFFF0136A846D0E008F102054FF0010A6D
:1016B000DAE001350120DCE00135E2E00024A84653
:1016C00018F8013B43B3A3F13002D2B2092A00F269
:1016D000E38004EB840402EB44044546EFE7414613
:1016E00011F8013BC3B12A2B08D1019B1A1D0192AD
:1016F0001A6898F8013008F10208D1E00022A3F13D
:101700003005EDB2092D0BD802EB820205EB420247
:1017100011F8013B002BF2D1304606B0BDE8F0874E
:101720008846BDE018F8013B002BF5D00121C4E04C
:10173000082242E0019B1A1D01921B688DF80C30B3
:101740004FF0200903AD0DF10D003FE0019B191D85
:1017500001911D6815B162B1284602E08F4DFAE78C
:1017600001300378002B56D0013AF9D54FF020090B
:101770002CE047F6FF72EFE761B1019B1A1D019261
:10178000196800290BDBA8B12B238DF80C300DF163
:101790000D000AE0019B1A1D01921968F1E72D2343
:1017A0008DF80C3049420DF10D000A22FFF720FFA1
:1017B00003AD0BE003A8F8E70A2209B3019B191D4A
:1017C0000191196803A8FFF713FF03AD471BE41B42
:1017D00024D4BAF1000F00D16442002C2BDA28780F
:1017E0002D2801D02B2802D1B9F1300F18D048464E
:1017F000FFF706FF01360134F9D11CE01022DCE7C7
:10180000019B191D01911968DCE78DF80C3003ADBF
:101810000DF10D00DAE74FF02009D7E70024D8E7F3
:101820000135FFF7EDFE0136013FE0E715F8010B4A
:10183000FFF7E6FE0136013FF8D504E04846FFF722
:10184000DFFE0136013C002CF8D1454615F8010BAE
:1018500000283FF461AF25287FF421AF2B782D2B92
:101860003FF422AF4FF0000A2B782B2B3FF421AF2F
:10187000002095F80090B9F1300F3FF41DAF4FF004
:1018800020092B782A2B7FF419AF019B1A1D019296
:101890001C6805F102086B782E2B3FF420AF002264
:1018A0006C2B3FF43FAF4C2B3FF43CAFA3F1410115
:1018B000C9B219298CBF00210121A3F14405342D9F
:1018C000A3D801A757F825F0791700200B1800209E
:1018D0000B1800200B1800200B180020791700208F
:1018E0000B1800200B1800200B1800200B180020EC
:1018F0000B18002031170020FD1700200B180020C6
:101900000B1800200B1800200B180020B91700201E
:101910000B1800200B180020FD1700200B180020CA
:101920000B1800200B1800200B1800200B180020AB
:101930000B1800200B1800200B1800200B1800209B
:101940000B18002035170020791700200B180020F5
:101950000B1800200B1800200B180020791700200E
:101960000B1800200B1800200B1800200B1800206B
:101970000B18002031170020FD1700200B18002045
:101980000B1800204D1700200B180020B91700205D
:101990000B1800200B180020FD1700200CB30020AE
:1019A00010B5002400E00134042C07D8044B53F890
:1019B00024000028F7D0FFF78BF8F4E710BD00BF34
:1019C00080EB00200000000000000000000000008C
:1019D000074B01221A60802383F3118862B672B626
:1019E00083F3118862B6002383F3118862B67047CF
:1019F000ECE10020000000000000000000000000FA
:101A000010B5054B01221A60FEF772FD0446FEF781
:101A10006FFD8442FBD010BDECE10020000000000F
:101A2000014B00221A60704794EB00200000000078
:101A300008B50248FFF7D4F808BD00BFB4DE0020A7
:101A400008B50348FFF7CCF80248FFF7C9F808BD0E
:101A5000B4DE0020C4DE0020000000000000000012
:101A600008B50248FFF7BCF808BD00BFB4DE00208F
:101A700008B50348FFF7E4F80248FFF7B1F808BDDE
:101A8000A4DE0020B4DE0020000000000000000002
:101A900008B50348FFF7D4F80248FFF7A1F808BDDE
:101AA000A4DE0020B4DE00200000000000000000E2
:101AB00008B50548FFF7C4F80448FFF791F8044853
:101AC000FFF78EF808BD00BFA4DE0020B4DE0020C2
:101AD000C4DE002000000000000000000000000044
:101AE00008B54FF0FF30FFF703F908BD0000000014
:101AF00008B54FF0FF30FFF7FBF808BD000000000D
:101B000008B54FF0FF30FFF7F3F808BD0000000004
:101B100008B54FF0FF30FFF7EBF808BD00000000FC
:101B200008B54FF0FF30FFF7E3F808BD00000000F4
:101B300008B54FF0FF30FFF7DBF80348FFF788F8F0
:101B40000248FFF785F808BDACDE0020B0DE0020BB
:101B5000704700BF0000000000000000000000000F
:101B600008B50248FFF73CF808BD00BF7CE2002042
:101B700008B5102202490348FFF7AAF908BD00BFC3
:101B8000DCDF0020FCDE0020000000000000000080
:101B900008B5082202490348FFF79AF908BD00BFBB
:101BA000DCDF0020FCDE0020000000000000000060
:101BB000F8B506460C4615460769974200D93D46DA
:101BC0006019FEF7B5FCFEF793FC041BA54203D990
:101BD0003369BB4204D3F8BD01373D460446EFE705
:101BE00037610120FEF794FEF5E700BF000000001A
:101BF00038B54FF050431A681C4B03EB82035C6806
:101C0000236998420FD042680368136042685A60A3
:101C10000268816893680B449360002303604FF06F
:101C2000FF33A36138BD04F1100504F110021968F7
:101C3000216113464A60002202602269934212D059
:101C4000816893680B449360FEF752FC0146E36998
:101C5000C01A226992688242E4D95B1A1A44284663
:101C6000FFF7A6FFDEE7FEF75BFCDBE7D0E1002035
:101C70002DE9F041044616461D46C2608B6048605F
:101C800003680B6059600160D0F81080454500D2B0
:101C90004546E0682844FEF733FCFEF729FC07467A
:101CA000831B9D4204D92369434509D3BDE8F081D4
:101CB00008F101057019FEF73BFCA8463E46ECE72B
:101CC000C4F810800120FEF723FEEFE700000000BB
:101CD000F8B505460E461746FEF70AFC2B689D42EE
:101CE00009D0EC68041B3C1900D33C469B68A34216
:101CF00008D82B680EE03B46024631462846FFF7DF
:101D0000B7FF16E03A4601462846FFF751FFF0E7D5
:101D1000A41A1B689A689442FAD8B46033605A686F
:101D2000726016605E609A68121B9A604FF0FF3313
:101D3000AB60F8BD000000000000000000000000E3
:101D400038B54FF050442568074C04EB850CDCF89F
:101D500004400361C260002343610A46014604F166
:101D60001000FFF7B5FF38BDD0E1002000000000F3
:101D70002DE9F0474FF050431A68364B03EB8203CE
:101D80005E6806F110090BE0002383F31188E36815
:101D9000216920469847802383F311886369C3B97A
:101DA0003469FEF7A5FBF369C21AA568954240D8CD
:101DB0001D44F56162682368136062685A600023FD
:101DC000236006F1100733699F42DDD1FEF7A8FBBF
:101DD000DAE7FEF78DFB8246A0EB05086269424513
:101DE0000AD32B1A1344326997420AD013EB08081E
:101DF00000D243463A680CE00220FEF789FD00233A
:101E0000F1E7524621464846FFF732FF1FE05B1AD2
:101E1000126891688B42FAD8A360226051686160B1
:101E20000C6054609168CB1A93604FF0FF33BB6035
:101E3000B6E706F1100231698A4208D0F0611B1A38
:101E4000A2681A44A26001464846FFF7B1FEBDE809
:101E5000F08700BFD0E1002000000000000000007B
:101E600008B5FFF785FF08BD000000000000000076
:101E70000023037703691B68996882689142FAD24C
:101E800003605A68426010605860704700000000AC
:101E900008B50846802383F311880B7F0C2B19D8D3
:101EA000DFE803F00718180B130F18131818181889
:101EB0001300002383F3118814E04B6B00221A6097
:101EC00008E04A6B936801339360426803681360CB
:101ED00042685A604FF0FF334363FFF7C9FF0023A6
:101EE00083F3118808BD00BF00000000000000005F
:101EF00008B502694FF0504319680A4B03EB8103A0
:101F00005B689A420AD04FF050431B6D13F0020FEA
:101F100004D04FF050434FF0FF325A65FFF7A8FF4F
:101F200008BD00BFD0E1002000000000000000005C
:101F300008B5FEF765FDFFF7DBFF08BD00000000F8
:101F400008B50346006820B100221A604163FFF71C
:101F5000CFFF08BD000000000000000000000000EE
:101F6000F8B5866A356CB76B1DB3044615F4F06F8F
:101F700020D115F0400F11D027F04007A36A9B69CC
:101F800013F0100F2AD0802383F31188002104F16D
:101F90001C00FFF7D5FF002383F3118815F0100F05
:101FA00028D115F0200F35D1B76323690BB1204636
:101FB0009847F8BD4023736427F4F067802383F3C8
:101FC000118801211830FFF7BBFF012104F11C002B
:101FD000FFF7B6FF002383F31188CAE7802383F35A
:101FE0001188002104F11800FFF7AAFF002383F3F2
:101FF0001188C8E74023736427F01007802383F318
:102000001188002104F11800FFF79AFF002383F3E1
:102010001188C6E727F02007802383F31188002169
:1020200004F12000FFF78CFF002383F31188BBE746
:1020300008B503460068834205D002681A60536001
:102040004163FFF755FF08BD0000000000000000DD
:1020500008B5037DCBB9436802689B1A0269B2EBED
:10206000A30F15D083681A1D8260196082684368C7
:102070009A4201D30368836003690133036100213D
:102080002030FFF7D5FF002008BD6FF00100FBE70F
:102090004FF0FF30F8E700BF000000000000000034
:1020A000037DD3B910B542680468A2EB040C036940
:1020B000B3EBAC0F14D0C368043BC360A34201D29E
:1020C000043AC260C36819600369013303610021E7
:1020D0002030FFF7ADFF002010BD6FF0010070470A
:1020E0004FF0FF30F8E700BF0000000000000000E4
:1020F00008B5037DABB90369B3B1C3681A1DC260EB
:102100001B680B60C26843689A4201D30368C360CE
:102110000369013B036100211830FFF789FF0020AC
:1021200008BD6FF00100FBE74FF0FF30F8E700BF9C
:1021300038B504460D4605E0036823605C604563DE
:10214000FFF7D6FE20688442F6D138BD00000000BB
:1021500010B5044603688360C36000230361012354
:1021600003756FF001011830FFF7E2FF6FF0010116
:1021700004F12000FFF7DCFF10BD00BF00000000ED
:1021800038B504461546816006E0606843686360C0
:102190001C60FFF7ADFE45632368A342F5D138BD4F
:1021A000826801328260002A00DD704708B503466C
:1021B000006802681A60536000234363FFF798FECB
:1021C00008BD00BF0000000000000000000000008B
:1021D00038B505460C4600E0013C002C0DDDAB682F
:1021E0000133AB60002BF7DC286803682B605D606F
:1021F000FFF77EFE00234363EEE738BD00000000DA
:1022000010B501464FF050431A68124B03EB82039E
:102210005B68DC68C368A3640268824217D0E06C24
:1022200000E0DB683BB11A689342FAD092689042B2
:10223000F7D21046F5E7A060086803680B605960A4
:102240008860836CCB608164FFF752FE10BD002371
:102250008360FBE7D0E100200000000000000000E8
:1022600008B503460068834206D002681A605360CE
:1022700000234363FFF73CFE08BD00BF00000000E1
:1022800010B5044607E0036823605C60FFF730FE8A
:102290006FF00103436320688442F4D110BD00BF96
:1022A00008B5436C19434164037F0A2B02D00B2B02
:1022B00008D008BD426B1142F9D000234363FFF7F9
:1022C00017FEF6E7436B8B43F3D1F6E700000000FF
:1022D00070B506460D46046804E0A1686068FFF723
:1022E000DFFF2468B44208D0E3682B43E360002D8D
:1022F000F3D023692B42F4D0EFE770BD000000005B
:102300000023037703691B68996882689142FAD8B1
:1023100003605A6842601060586070470000000017
:1023200010B54FF050431A68094B03EB82035B680A
:10233000D8681C6822681A60536001222277DC602A
:10234000FFF796FD01462046FDF764FF10BD00BF74
:10235000D0E10020000000000000000000000000AC
:1023600008B54FF050431A68064B03EB82035B68D5
:10237000D9681B689A688B689A4201D3FFF7D0FF2F
:1023800008BD00BFD0E100200000000000000000F8
:1023900008B5802383F31188FFF7E2FF002383F35E
:1023A000118808BD000000000000000000000000CF
:1023B00010B50446FFF7ECFFFFF7EAFFFFF7E8FF71
:1023C000FFF7E6FF2368043323604FF050431A6899
:1023D000044B03EB82035B68DB6893F91D30002B31
:1023E000E8DA10BDD0E1002000000000000000008D
:1023F00010B54FF050431A68094B03EB82035B683A
:10240000D8681C6822681A60536001222277DC6059
:10241000FFF776FF01462046FDF7FCFE10BD00BF2A
:10242000D0E10020000000000000000000000000DB
:1024300008B54FF050431A68074B03EB82035B6803
:10244000D9680877186802681A6053600122027719
:10245000D860FDF7DFFE08BDD0E1002000000000DD
:1024600030B587B004464FF050431A680D4B03EB6C
:1024700082035B68DD68B1F1FF3F0FD02B460A4A4B
:102480006846FFF75DFC2046FFF7D2FF009B13B1C3
:102490006846FFF7ADFB686B07B030BDFFF7C8FFBC
:1024A000F9E700BFD0E10020911E002000000000ED
:1024B00010B50446802383F31188FEF719F8211A1A
:1024C00002D00820FFF7CCFF002383F3118810BD52
:1024D00008B54FF050431A68074B03EB82035B6863
:1024E000DB6829B1036058630320FFF7B9FF08BD1B
:1024F0004FF0FF30FBE700BFD0E1002000000000FC
:1025000038B5802383F31188836A1B6C13F4F06F52
:1025100014D104460D460022A36A9B6913F0100FE4
:1025200007D0294604F11800FFF7D2FF0246002821
:10253000F2D0002383F31188104638BD002383F3C3
:1025400011880122F8E700BF000000000000000031
:102550002DE9F04107460D4616469846002406E050
:10256000321B29463846FEF7CBF804440544B442F2
:1025700005D241463846FFF7C3FF0028F0D0204679
:10258000BDE8F08100000000000000000000000035
:1025900008B54FF0FF33FFF7DBFF08BD0000000078
:1025A00008B5FFF7D5FF08BD0000000000000000DF
:1025B00010B504464FF0FF31FFF7A2FF00B110BD88
:1025C0002046FEF7DDF8FAE70000000000000000FA
:1025D00010B50446FFF794FF00B110BD2046FEF78A
:1025E000CFF8FAE700000000000000000000000043
:1025F00038B504460D46802383F311880022A36A70
:102600009B6913F0200F07D0294604F12000FFF743
:102610005FFF02460028F2D0002383F311881046A2
:1026200038BD00BF000000000000000000000000F6
:102630002DE9F04107460D4616469846002406E06F
:10264000321B29463846FEF78BF804440544B44251
:1026500005D241463846FFF7CBFF0028F0D0204690
:10266000BDE8F08100000000000000000000000054
:1026700008B54FF0FF33FFF7DBFF08BD0000000097
:1026800008B5FFF7D5FF08BD0000000000000000FE
:1026900070B504460D464FF0FF31FFF7A9FF06461F
:1026A00008B1304670BD29462046FEF789F8F8E7A4
:1026B00070B504460D461146FFF79AFF064608B16D
:1026C000304670BD29462046FEF77AF8F8E700BF8D
:1026D00008B54FF050431A68084B03EB82035B6860
:1026E000DB6841B1186042685A601360436004209F
:1026F000FFF7B6FE08BD4FF0FF30FBE7D0E100204A
:1027000008B58268531E8360002B01DB002008BDE2
:1027100089B14FF050431A68094B03EB82035B68A1
:10272000DB685863186042685A6013604360052094
:10273000FFF796FEEBE782604FF0FF30E7E700BF60
:10274000D0E10020000000000000000000000000B8
:1027500008B5802383F31188FFF7D2FF002383F3AA
:10276000118808BD0000000000000000000000000B
:1027700010B50446FFF7C4FF20B904F10C00FEF7C2
:102780008FFB10BD0020FCE70000000000000000EF
:1027900070B54FF050431A68144B03EB82035B682B
:1027A000DE68802383F31188746C04400ED10546E3
:1027B00021B9002383F311880C4610E070630A20CE
:1027C000FFF74EFE00280CDB746C2C4063421C406B
:1027D000736C23EA04037364002383F31188204697
:1027E00070BD002383F31188F9E700BFD0E100201A
:1027F00070B54FF050431A68134B03EB82035B68CC
:10280000DE68802383F31188746C04400ED1054682
:1028100021B9002383F311880C460EE070630A206F
:10282000FFF71EFE00280ADB746C2C40736C23EA51
:1028300004037364002383F31188204670BD0023D2
:1028400083F31188F9E700BFD0E100200000000009
:1028500038B504464FF050431A68124B03EB82031D
:102860005B68DD68802383F311886B6C30EA0303B7
:102870000BD021B9002383F3118808460DE068636B
:102880000B20FFF7EDFD002808DB6B6C23EA040347
:102890006B64002383F31188204638BD002080F349
:1028A0001188FAE7D0E100200000000000000000DD
:1028B00010B54FF050431A680F4B03EB82035B686F
:1028C000DC68606304F13803A06B834205D1A37F09
:1028D00043B10F20FFF7ACFD10BD0368A363FFF702
:1028E00007FBEFE7E36A002BF3D1A26A636A136088
:1028F000A26A5A60EDE700BFD0E1002000000000AE
:1029000010B50446802383F3118800210348FFF7A4
:10291000DFFC2046FFF7CCFF10BD00BFA4E2002083
:102920008368013B8360002B01DB0020704710B5FA
:102930004FF050431A68084B03EB82035B68DC6876
:1029400060632060436863601C6044600520FFF79B
:102950006FFD606B10BD00BFD0E1002000000000E3
:1029600010B504460BE0002383F3118822234B6249
:10297000236C012220469847802383F3118804F1B9
:102980003000FFF7CDFF216ACA688B689360CA6880
:10299000DA604A6A22F0010048620B6A013B0B626E
:1029A00012F0100FDFD110F0020F05D04B680A684B
:1029B0001A600B684A685A6000234B62084610BDD3
:1029C000F8B504464FF050431A682F4B03EB8203CF
:1029D0005B68DD688068002851D08268AB689A42E5
:1029E00007D28360037F062B15D0072B2AD0002B3C
:1029F0003DD023461B689C4203D09968AA68914247
:102A0000F8D22B605A686A6015605D606C630620BE
:102A1000FFF70EFDF8BD476B06464268036813607A
:102A200042685A603B461B689F4203D09968B2686F
:102A30009142F8D233605A68726016605E60436BF0
:102A40009868CAE7476B06464268036813604268A5
:102A50005A603B461B689F4203D09968B268914216
:102A6000F8D233605A68726016605E60C1E74268EF
:102A70000368136042685A60FFF73AFAB9E7A56045
:102A8000AB6CE360AC64C5E7D0E10020000000005F
:102A900008B5802383F31188FFF792FF002383F3A7
:102AA000118808BD000000000000000000000000C8
:102AB000F8B505460F464FF050410A68144B03EB3A
:102AC00082025268D4680A6803EB82035B68DB68A1
:102AD0009E6C3046FFF794FB65632B461B689D4256
:102AE00003D0A26899689142F8D223605A68626064
:102AF00014605C6039460720FFF7B2FC0446B0F171
:102B0000FF3F01D12046F8BD3046FFF759FFF9E7F6
:102B1000D0E10020000000000000000000000000E4
:102B200008B5802383F31188FFF7C2FF002383F3E6
:102B3000118808BD00000000000000000000000037
:102B400070B505464FF050410A68124B03EB820204
:102B50005268D4680A6803EB82035B68DB689E6C8A
:102B60003046FFF74DFB65632B461B689D4203D043
:102B70009968A2689142F8D223605A686260146032
:102B80005C600720FFF754FC646B3046FFF718FFCA
:102B9000204670BDD0E100200000000000000000D1
:102BA00008B5802383F31188FFF7CAFF002383F35E
:102BB000118808BD000000000000000000000000B7
:102BC00038B54FF050431A680E4B03EB82035B6835
:102BD000DD68802383F311886B6C034009D0584271
:102BE00018406B6C23EA00036B64002383F31188A5
:102BF00038BD044668630A20FFF71AFC6B6C23405B
:102C0000EDE700BFD0E10020000000000000000060
:102C100038B504464FF050431A680D4B03EB82035E
:102C20005B68DD68802383F311886B6C184007D0E4
:102C30006B6C23EA00036B64002383F3118838BDB7
:102C40006C630A20FFF7F4FB6B6C03EA0400EFE708
:102C5000D0E10020000000000000000000000000A3
:102C600038B504464FF050431A680D4B03EB82030E
:102C70005B68DD68802383F311886B6C30EA0303A3
:102C800008D16B6C23EA04036B64002383F311887F
:102C9000204638BD68630B20FFF7CAFBF1E700BF91
:102CA000D0E1002000000000000000000000000053
:102CB00010B54FF050431A680E4B03EB82035B686C
:102CC000DC68802383F31188616300F13C03236097
:102CD000036C63601C600464037F0E2B07D00C2020
:102CE000FFF7A6FB606B002383F3118810BDFFF78D
:102CF000FFF8F4E7D0E10020000000000000000031
:102D000010B504464121FFF7D3FF42212046FFF7CB
:102D1000CFFF43212046FFF7CBFF44212046FFF79A
:102D2000C7FF10BD00000000000000000000000010
:102D300038B54FF050431A680A4B03EB82035B68C7
:102D4000DD682C4654F83C3FA34206D0E86B03688C
:102D5000EB635C600D23037738BD0E20FFF768FB43
:102D6000F4E700BFD0E100200000000000000000F8
:102D700010B54FF050431A68084B03EB82035B68B1
:102D8000DC68802383F311880320FFF751FB636B1A
:102D9000002BF9D0002383F3118810BDD0E100206F
:102DA00038B504464FF050431A68154B03EB8203C5
:102DB0005D68E868616323699D420ED04FF050431F
:102DC0001B6D13F0020F04D04FF050434FF0FF3251
:102DD0005A652046FFF74CF838BDA26883689A42CE
:102DE00009D9FFF78DFA014601232377EC602046CD
:102DF000FDF710FAF0E72046FFF73AF8ECE700BFDE
:102E0000D0E10020000000000000000000000000F1
:102E100008B50346006818B100221A60FFF7C0FF2A
:102E200008BD00BF0000000000000000000000001E
:102E300008B5802383F31188FFF7EAFF002383F3AB
:102E4000118808BD00000000000000000000000024
:102E500008B50346802282F311880068834205D0BA
:102E600002681A6053600021FFF79AFF002383F382
:102E7000118808BD000000000000000000000000F4
:102E800008B5802383F31188FFF78AFF002383F3BB
:102E9000118808BD000000000000000000000000D4
:102EA00010B5802383F31188FFF742FF002282F3DD
:102EB0001188446B2146FFF7E3FF002CF1D110BDD0
:102EC0000EB400B582B003AA52F8041B0192FEF7BB
:102ED000E7F902B05DF804EB03B0704700000000B2
:102EE00038B505460C4604E004492846FFF7E8FFDC
:102EF00008342268002AF7D138BD00BF14B300207F
:102F0000F0B583B00E46174604680D4617E0214918
:102F10002046FFF7D5FF01203AE0B5420FD02368E5
:102F2000DB680821204698472368DB68202120467B
:102F300098472368DB68082120469847013D2368AD
:102F40009B6801220DF1070120469847F8B19DF8D2
:102F500007100429DBD00829DFD07F29DDD00D2917
:102F60000ED01F29EBD97B1E3344AB42E7D923682F
:102F7000DB68204698479DF8073005F8013BDEE7FF
:102F800005492046FFF79CFF0020287000E0012043
:102F900003B0F0BD18B30020CCC200200000000038
:102FA00008B5002903DC0020FFF7AAFC08BD024A8F
:102FB0000249FFF785FFF9E71CB3002024B3002086
:102FC00010B582B0044600292BDC184A1849FFF7D7
:102FD00077FF184A18492046FFF772FF174A184929
:102FE0002046FFF76DFF174A17492046FFF768FF95
:102FF000164A17492046FFF763FF164A164920462E
:10300000FFF75EFF154A16492046FFF759FF154B9B
:103010000093154B154A16492046FFF751FF02B0A1
:1030200010BD144A1449FFF74BFFF8E738B30020EE
:1030300040B3002054B3002074B3002088B30020B4
:103040009CB30020B0B30020BCB30020D0B300205C
:10305000E8B30020FCB30020ECC1002004B4002041
:1030600018B4002054B400202CB4002030B4002048
:103070003CB4002030B3002024B300200000000046
:1030800008B5012904D0054A0549FFF719FF08BD15
:1030900012680449FFF714FFF9E700BF60B400208D
:1030A00024B3002094C100200000000000000000B4
:1030B00010B50446002907DCFDF71AFA0246054957
:1030C0002046FFF7FDFE10BD034A0449FFF7F8FE56
:1030D000F9E700BF78B4002070B4002024B30020CA
:1030E000F0B587B00646002906DC1949FFF7E8FE6F
:1030F000FDF73EFD044617E0164A1749FFF7E0FECC
:1031000007B0F0BD0595CDF810E0CDF80CC00291E8
:103110000197009011493046FFF7D2FE2046FDF797
:103120003FFD04460028EBD023691A6B6369E06811
:103130002746A17F0139D4F808C094F81CE0084D57
:1031400055F82EE0256A002DDCD1064DDAE700BFE8
:1031500080B40020D8D1002024B30020C4B40020C3
:10316000B4DB002064C1002000000000000000006B
:103170000FB400B583B004A951F8040B0191FEF718
:1031800087FA03B05DF804EB04B07047000000005C
:10319000F8B5264B01221A60254D26492846FFF72F
:1031A000E7FF254C25492046FFF7E2FF2449284642
:1031B000FFF7DEFF23492046FFF7DAFF22492846C2
:1031C000FFF7D6FF21492046FFF7D2FF20492846C6
:1031D000FFF7CEFF1F492046FFF7CAFF1E492846CA
:1031E000FFF7C6FF1D4F04213846FFF7C1FF1C4EF5
:1031F00031462046FFF7BCFF1A492846FFF7B8FFC3
:1032000020213846FFF7B4FF31462046FFF7B0FFD4
:1032100015492846FFF7ACFF20213846FFF7A8FFE5
:1032200031462046FFF7A4FFF8BD00BFECE10020C7
:103230001CB50020F0B4002094C1002088B3002009
:1032400020B50020B0B300204CB5002054B30020BE
:1032500078B50020D0B30020A4B50020D0B5002060
:1032600064C10020D4B5002000B60020000000009A
:10327000F8B5224B01221A60214C22492046FFF763
:1032800077FF214D21492846FFF772FF204F00218B
:103290003846FFF76DFF1F4E31462046FFF768FFA7
:1032A0001D492846FFF764FF1C492046FFF760FFD1
:1032B0001B492846FFF75CFF08213846FFF758FFF7
:1032C00031462046FFF754FF16492846FFF750FFC6
:1032D00000213846FFF74CFF31462046FFF748FFF4
:1032E00011492846FFF744FF00213846FFF740FF09
:1032F00031462046FFF73CFFF8BD00BFECE100205F
:1033000094C100202CB600201CB5002060B600201F
:10331000D0B5002064C100208CB6002038B3002056
:10332000B8B60020E4B6002010B70020000000006E
:103330002DE9F0414FF00108D04BC3F80080D04F89
:10334000D0493846FFF714FFCF4E41463046FFF7CD
:103350000FFFCE4DCE4C29462046FFF709FFCD4941
:103360003846FFF705FF00213046FFF701FF2946E9
:103370002046FFF7FDFEC8493846FFF7F9FE202139
:103380003046FFF7F5FE29462046FFF7F1FEC34918
:103390003846FFF7EDFEC2493046FFF7E9FE294601
:1033A0002046FFF7E5FEBF493846FFF7E1FE202142
:1033B0003046FFF7DDFE29462046FFF7D9FEBA4921
:1033C0003846FFF7D5FE20213046FFF7D1FE2946CB
:1033D0002046FFF7CDFEB5493846FFF7C9FE142158
:1033E0003046FFF7C5FE29462046FFF7C1FEB0492B
:1033F0003846FFF7BDFE00213046FFF7B9FE2946EB
:103400002046FFF7B5FEAB493846FFF7B1FE002175
:103410003046FFF7ADFE29462046FFF7A9FEA64934
:103420003846FFF7A5FE41463046FFF7A1FE294684
:103430002046FFF79DFEA1493846FFF799FE414619
:103440003046FFF795FE29462046FFF791FE9C493E
:103450003846FFF78DFE41463046FFF789FE294684
:103460002046FFF785FE97493846FFF781FE414623
:103470003046FFF77DFE29462046FFF779FE924948
:103480003846FFF775FE41463046FFF771FE294684
:103490002046FFF76DFE8D493846FFF769FE41462D
:1034A0003046FFF765FE29462046FFF761FE884952
:1034B0003846FFF75DFE00213046FFF759FE2946EA
:1034C0002046FFF755FE83493846FFF751FE414637
:1034D0003046FFF74DFE29462046FFF749FE7E495C
:1034E0003846FFF745FE00213046FFF741FE2946EA
:1034F0002046FFF73DFE79493846FFF739FE414641
:103500003046FFF735FE29462046FFF731FE744965
:103510003846FFF72DFE41463046FFF729FE294683
:103520002046FFF725FE6F493846FFF721FE41464A
:103530003046FFF71DFE29462046FFF719FE6A496F
:103540003846FFF715FE41463046FFF711FE294683
:103550002046FFF70DFE65493846FFF709FE414654
:103560003046FFF705FE29462046FFF701FE604979
:103570003846FFF7FDFD00213046FFF7F9FD2946EB
:103580002046FFF7F5FD5B493846FFF7F1FD414660
:103590003046FFF7EDFD29462046FFF7E9FD564985
:1035A0003846FFF7E5FD00213046FFF7E1FD2946EB
:1035B0002046FFF7DDFD51493846FFF7D9FD0021D0
:1035C0003046FFF7D5FD29462046FFF7D1FD4C498F
:1035D0003846FFF7CDFD00213046FFF7C9FD2946EB
:1035E0002046FFF7C5FD47493846FFF7C1FD0021DA
:1035F0003046FFF7BDFD29462046FFF7B9FD424999
:103600003846FFF7B5FDFF213046FFF7B1FD2946EB
:103610002046FFF7ADFD3D493846FFF7A9FD802163
:103620003046FFF7A5FD29462046FFF7A1FD3849A2
:103630003846FFF79DFD00213046FFF799FD2946EA
:103640002046FFF795FD33493846FFF791FD0021ED
:103650003046FFF78DFD29462046FFF789FD2E49AC
:103660003846FFF785FD00213046FFF781FD2946EA
:103670002046FFF77DFDBDE8F08100BFECE10020B2
:103680001CB500203CB70020D0B5002064C100204C
:1036900094C1002068B7002094B70020C0B7002074
:1036A00040420F00ECB7002018B8002044B80020BA
:1036B00070B800209CB80020C8B80020F4B80020E2
:1036C00020B900204CB9002078B90020A4B900200E
:1036D000D0B90020FCB9002028BA002054BA00203C
:1036E00080BA0020ACBA0020D8BA002004BB002069
:1036F00030BB00205CBB002088BB0020B4BB002096
:10370000E0BB00200CBC002038BC002064BC0020C2
:1037100090BC0020BCBC0020E8BC002000000000E1
:103720002DE9F843DFF81C810123C8F80030464F2B
:1037300046493846FFF71CFD454EE0213046FFF76D
:1037400017FD444D444C29462046FFF711FD022346
:10375000C8F8003041493846FFF70AFD502130468D
:10376000FFF706FD29462046FFF702FD0323C8F8B0
:1037700000303B493846FFF7FBFC18213046FFF785
:10378000F7FC29462046FFF7F3FC4FF00409C8F880
:10379000009034493846FFF7EBFC0C213046FFF728
:1037A000E7FC29462046FFF7E3FC0523C8F8003074
:1037B0002D493846FFF7DCFC10213046FFF7D8FCD6
:1037C00029462046FFF7D4FC0623C8F800302749D5
:1037D0003846FFF7CDFC08213046FFF7C9FC2946E3
:1037E0002046FFF7C5FC0723C8F8003020493846BB
:1037F000FFF7BEFC49463046FFF7BAFC2946204693
:10380000FFF7B6FC0823C8F800301A493846FFF71E
:10381000AFFC14213046FFF7ABFC29462046FFF7EA
:10382000A7FC0923C8F8003013493846FFF7A0FC6D
:1038300028213046FFF79CFC29462046FFF798FCDC
:10384000BDE8F883ECE100201CB5002014BD002089
:10385000D0B5002024BD002094C100202CBD002044
:103860003CBD00204CBD00205CBD00206CBD002094
:103870007CBD00208CBD00209CBD0020000000000D
:10388000F8B5264B01221A60254D26492846FFF738
:103890006FFC254C25492046FFF76AFC2449284641
:1038A000FFF766FC23492046FFF762FC22492846C1
:1038B000FFF75EFC21492046FFF75AFC20492846C5
:1038C000FFF756FC1F492046FFF752FC1E492846C9
:1038D000FFF74EFC1D4F04213846FFF749FC1C4EF4
:1038E00031462046FFF744FC1A492846FFF740FCC2
:1038F00020213846FFF73CFC31462046FFF738FCD4
:1039000015492846FFF734FC20213846FFF730FCE4
:1039100031462046FFF72CFCF8BD00BFECE100204B
:103920001CB50020F0B4002094C1002088B3002012
:1039300020B50020B0B300204CB5002054B30020C7
:1039400078B50020D0B30020A4B50020D0B5002069
:1039500064C10020D4B5002000B6002000000000A3
:103960002DE9F0414FF00108224BC3F80080224CB2
:1039700022492046FFF7FCFB214D22492846FFF74C
:10398000F7FB214F00213846FFF7F2FB1F4E31466F
:103990002046FFF7EDFB1E492846FFF7E9FB1D49CE
:1039A0002046FFF7E5FB1C492846FFF7E1FB4146AF
:1039B0003846FFF7DDFB31462046FFF7D9FB1749B4
:1039C0002846FFF7D5FB04213846FFF7D1FB3146E7
:1039D0002046FFF7CDFB12492846FFF7C9FB00211F
:1039E0003846FFF7C5FB31462046FFF7C1FBBDE86F
:1039F000F08100BFECE1002094C10020ACBD0020AC
:103A00001CB5002060B60020D0B5002064C10020A5
:103A10008CB60020E0BD0020B8B60020E4B600203F
:103A200010B70020000000000000000000000000AF
:103A30002DE9F0414FF00108704BC3F80080704F42
:103A400070493846FFF794FB6F4E41463046FFF70A
:103A50008FFB6E4D6E4C29462046FFF789FB6D4962
:103A60003846FFF785FB41463046FFF781FB294684
:103A70002046FFF77DFB68493846FFF779FB414652
:103A80003046FFF775FB29462046FFF771FB634977
:103A90003846FFF76DFB00213046FFF769FB2946EA
:103AA0002046FFF765FB5E493846FFF761FB41465C
:103AB0003046FFF75DFB29462046FFF759FB594981
:103AC0003846FFF755FB41463046FFF751FB294684
:103AD0002046FFF74DFB54493846FFF749FB414666
:103AE0003046FFF745FB29462046FFF741FB4F498B
:103AF0003846FFF73DFB41463046FFF739FB294684
:103B00002046FFF735FB4A493846FFF731FB41466F
:103B10003046FFF72DFB29462046FFF729FB454994
:103B20003846FFF725FB41463046FFF721FB294683
:103B30002046FFF71DFB40493846FFF719FB414679
:103B40003046FFF715FB29462046FFF711FB3B499E
:103B50003846FFF70DFB08213046FFF709FB2946E1
:103B60002046FFF705FB36493846FFF701FB414683
:103B70003046FFF7FDFA29462046FFF7F9FA3149AA
:103B80003846FFF7F5FA41463046FFF7F1FA294685
:103B90002046FFF7EDFA2C493846FFF7E9FA41468F
:103BA0003046FFF7E5FA29462046FFF7E1FA2749B4
:103BB0003846FFF7DDFA41463046FFF7D9FA294685
:103BC0002046FFF7D5FA22493846FFF7D1FA414699
:103BD0003046FFF7CDFA29462046FFF7C9FA1D49BE
:103BE0003846FFF7C5FA41463046FFF7C1FA294685
:103BF0002046FFF7BDFABDE8F08100BFECE10020F0
:103C00001CB50020E8BD0020D0B5002064C1002014
:103C100094C1002014BE002040BE00206CBE0020D5
:103C200098BE0020C4BE0020F0BE00201CBF0020B3
:103C300048BF002074BF0020A0BF0020CCBF0020E0
:103C4000F8BF002024C0002050C000207CC000200D
:103C5000A8C00020D4C00020000000000000000028
:103C600070B506460D460C6800E02468AC4207D0EB
:103C700008223146A01807F0D7FA0028F5D100E055
:103C80000024204670BD00BF0000000000000000BE
:103C900008B5FFF7E5FF034610B142680132426004
:103CA000184608BD000000000000000000000000F1
:103CB00038B50D4600B128602C68A4B10F492046E4
:103CC00007F00AFB04442378222B0ED00B49204630
:103CD00007F0E6FA28602B681BB15A1C2A60002204
:103CE0001A70237843B1204638BD01342221204682
:103CF00007F034FA2860EEE70024F4E700C1002062
:103D0000F8B504460F4615461E4600E00834206804
:103D100058B12946FCF70AFB0028F7D16368069AD8
:103D2000314638469847002000E00120F8BD00BF2A
:103D30002DE9F04198B00646056847684FF05043BA
:103D40001A684E4B03EB82035B68DB684C4A1A62CD
:103D50004C492846FFF7B4F84B492846FFF7B0F81E
:103D600025E048492846FFF7ABF848492846FFF7C1
:103D7000A7F80020FEF7C4FD18B0BDE8F08118AA2E
:103D800002EB840141F8583C013417A90020FFF7E9
:103D90008FFF034650B3032CF1DD3D492846FFF762
:103DA0008FF818AB03EB8404002344F8583C4FF021
:103DB00050431A68314B03EB82035B68DB6893F96D
:103DC0001D30002BD5DB33492846FFF779F8002357
:103DD000402207A93046FFF793F80028C1D117A960
:103DE00007A8FFF765FF80460024CEE7002218AB46
:103DF00003EB840343F8582CB8F1000FD7D02649C1
:103E00004046FCF793FAC8B9002C11DC2349284638
:103E1000FFF756F822492846FFF762F81FB13946E6
:103E20002846FFF75DF817492846FFF749F8BEE72F
:103E3000194A1C492846FFF743F8B8E702AB00933C
:103E40002346424629461648FFF75AFF0028AED0BF
:103E50004FB102AB00932346424629463846FFF74E
:103E60004FFF0028A3D042460F492846FFF728F805
:103E70000E492846FFF724F899E700BFD0E100205B
:103E800004C10020CCC200200CC1002028C10020A9
:103E900030C1002020C1002048C1002050C10020B6
:103EA00074DB002024B300201CB5002060C100207A
:103EB000704700BF0000000000000000000000008C
:103EC000704700BF0000000000000000000000007C
:103ED000FEE700BF0000000000000000000000003E
:103EE000704700BF0000000000000000000000005C
:103EF000704700BF0000000000000000000000004C
:103F0000704700BF0000000000000000000000003B
:103F1000FEE700BF000000000000000000000000FD
:103F20000B4A11E050F8041B43F8041B91689942B6
:103F3000F8D802E0002143F8041BD1689942F9D86F
:103F40001032044B9A4202D210685368EEE7704771
:103F500068D60020E8D60020000000000000000025
:103F600008B5FDF7D5F8FCF713FBFCF769FBFCF788
:103F70002FFB08BD00000000000000000000000052
:103F800038B50446802383F311888160FDF7D8F8A3
:103F9000054660B90223237140F2FC73E3602046BA
:103FA000FCF756FB002383F31188284638BD012314
:103FB0002371F1E700000000000000000000000095
:103FC00008B50348FDF7CCFFFDF772F808BD00BF48
:103FD00080DF002000000000000000000000000062
:103FE00008B50348FDF7BCFFFDF762F808BD00BF48
:103FF000ACDF002000000000000000000000000016
:1040000008B5074B01225A63802383F31188FDF71B
:1040100027FF002383F31188FDF74AF808BD00BF8E
:10402000004005400000000000000000000000000B
:1040300008B5074B02225A63802383F31188FDF7EA
:104040000FFF002383F31188FDF732F808BD00BF8E
:1040500000400540000000000000000000000000DB
:1040600008B5054B04225A63044B9B680BB1022030
:104070009847FDF71DF808BD00400540A8E2002064
:1040800008B5054B08225A63044BDB680BB10320CB
:104090009847FDF70DF808BD00400540A8E2002054
:1040A000704700BF0000000000000000000000009A
:1040B000024B1B788342FBD1704700BFD0E1002048
:1040C00008B54FF050431A68064B03EB82035B6858
:1040D000D9681B689A688B689A4201D9FEF788F9FB
:1040E00008BD00BFD0E1002000000000000000007B
:1040F00078B908B5EFF30583C3F308031BB10023B8
:1041000083F3118808BDFFF7DBFF002383F31188D9
:10411000F8E7704700000000000000000000000009
:1041200010B5802383F31188002484F3118883F36E
:104130001188FCF7DDFBFFF7DBFF84F3118810BD6E
:1041400010B54FF050431A680B4B03EB82035B68CA
:10415000DB68802282F31188DC6C9A68A24201D06D
:10416000824200D29860D864FFF7AAFF002383F34D
:104170001188204610BD00BFD0E1002000000000E3
:1041800008B5802383F31188FDF7FAFFFFF798FF46
:10419000002383F3118808BD000000000000000028
:1041A00008B56FF0010200210148FFF7E9FF08BDE3
:1041B0008CE2002000000000000000000000000071
:1041C00038B50C46802282F3118882680132826001
:1041D000002A0BDDA368013BA360002B10DBFFF777
:1041E0006FFF0020002383F3118838BD0346006869
:1041F00002681A605360FDF77BFE00234363E9E722
:104200004FF050431A68084B03EB82035B68DD688C
:104210002C6063686B601D6065606C630520FEF751
:1042200007F9686BDEE700BFD0E100200000000066
:1042300010B501464FF050431A68164B03EB82034A
:104240005B68DC68802383F31188C368A364026819
:1042500082421CD0E06C00E0DB683BB11A689342FC
:10426000FAD092689042F7D21046F5E7A06008684D
:1042700003680B6059608860836CCB608164FDF7D4
:1042800037FEFFF71DFF002383F3118810BD0023C5
:104290008360F8E7D0E1002000000000000000008B
:1042A0002DE9F84305460F46914600F120084046A7
:1042B000FEF7EEFB6E682C68341B2B69E41AA145EF
:1042C00000D84C4623442B61A868361AB44215D353
:1042D000B4421BD932463946FBF7B2FFA4EB0609BC
:1042E0004A46B9192868FBF7ABFF2B684B44AB6013
:1042F0004046FFF79DFF2046BDE8F8832246394639
:10430000FBF79EFFAB682344AB60F1E722463946DA
:10431000FBF796FF2B68AB60EAE700BF00000000E8
:104320002DE9F84305460F46144600F120084046A3
:10433000FEF7AEFB2B699C4200D91C461B1B2B6170
:104340006E68E968761AB44215D3B4421BD9324676
:104350003846FBF775FFA4EB06094A462968B819E9
:10436000FBF76EFF2B684B44EB604046FFF760FFA6
:104370002046BDE8F88322463846FBF761FFEB682C
:104380002344EB60F1E722463846FBF759FF2B68E0
:10439000EB60EAE700000000000000000000000001
:1043A0002DE9F8439846037D13B10020BDE8F8835A
:1043B00005460E46174600F130094846FEF768FBF1
:1043C0003C4606E0241A0644002105F11C00FEF7D5
:1043D0002FFD9CB1224631462846FFF761FF002899
:1043E000F0D1802383F31188414605F11800FEF7D0
:1043F0006FF8002383F311880028EAD04846FFF7BE
:1044000017FF381BD2E700BF0000000000000000CB
:104410002DE9F8439846037D13B10020BDE8F883E9
:1044200005460E46174600F140094846FEF730FBA8
:104430003C4606E0241A0644002105F11800FEF768
:10444000F7FC9CB1224631462846FFF769FF002859
:10445000F0D1802383F31188414605F11C00FEF75B
:1044600037F8002383F311880028EAD04846FFF785
:10447000DFFE381BD2E700BF000000000000000094
:1044800010B54FF050431A68104B03EB82035B6882
:10449000DC68A36C5BB917E002681A60536098602F
:1044A000826CDA608364FDF723FDA36C43B1A36CD7
:1044B000DA68A26418688342EED100229A60F4E7B9
:1044C000E36CA360FFF7FCFD10BD00BFD0E100204E
:1044D00008B5802383F31188FFF7D2FF002383F30D
:1044E000118808BD0000000000000000000000006E
:1044F00008B5802383F31188FDF7C2FEFFF7E0FDC6
:10450000002383F3118808BD0000000000000000B4
:1045100008B5802383F31188FDF7C2FEFFF7D0FDB5
:10452000002383F3118808BD000000000000000094
:1045300008B5802383F31188FDF7CAFEFFF7C0FD9D
:10454000002383F3118808BD000000000000000074
:1045500008B5802383F31188FDF7FAFDFFF7B0FD5E
:10456000002383F3118808BD000000000000000054
:1045700008B50248FFF7ECFF08BD00BFD4DE0020FD
:1045800008B50248FFF7E4FF08BD00BFD4DE0020F5
:1045900008B50248FFF7DCFF08BD00BFD4DE0020ED
:1045A00070B504460E461546237D2BBB6368226812
:1045B0009B1A2069B0EBA30F08D1294604F118001B
:1045C000FEF786F803460028EED017E0A3681A1D10
:1045D000A2601E60A26863689A4201D32368A36048
:1045E000236901332361002104F12000FDF720FD40
:1045F000FFF766FD002301E06FF00103184670BD70
:1046000070B504460D461646237D23BB63682068BB
:104610001A1A2169B1EBA20F08D1314604F1180032
:10462000FEF756F803460028EED016E0E268043A9A
:10463000E260824201D2043BE360E3681D602369CB
:1046400001332361002104F12000FDF7F1FCFFF7A5
:1046500037FD002301E06FF00103184670BD00BF75
:1046600008B5802383F31188FFF7CAFF002383F383
:10467000118808BD000000000000000000000000DC
:1046800070B504460E461546237D0BBB236943B91E
:10469000294604F12000FEF71BF803460028F3D05A
:1046A00018E0E3681A1DE2601B683360E268636823
:1046B0009A4201D32368E3602369013B236100210F
:1046C00004F11800FDF7B4FCFFF7FAFC002301E049
:1046D0006FF00103184670BD0000000000000000EC
:1046E00070B5044600F120052846FEF7D1F923688D
:1046F000A360E3600026266101232375802383F3F2
:1047000011886FF0010104F11800FDF719FC6FF03A
:10471000010104F11C00FDF713FCFFF7D1FC86F347
:1047200011882846FFF784FD70BD00BF000000001F
:1047300008B5802383F311888368002B05DDFFF71C
:10474000BFFC002383F3118808BDFDF729FDF6E7C0
:1047500010B54FF050431A68094B03EB82035B68B6
:10476000D8681C6822681A60536001222277DC60D6
:10477000FDF7C6FD01462046FBF74CFD10BD00BF0E
:10478000D0E1002000000000000000000000000058
:104790002DE9F04188B004460E464FF050431B68A7
:1047A000DFF8A08008EB8302506003634163FCF7ED
:1047B00047FC246064600025A56004F110072761B0
:1047C0007F604FF0FF33BB60FD6014233B61FBF75C
:1047D0008FFE02462B46C7E90623C4F8D8501A4B71
:1047E000019373680293B368039380230493059540
:1047F0000695079401A904F18800FCF7D1F8E06060
:1048000000F1240308F110024262D8F814208262F9
:104810001360C8F81430E268012313770B4A019241
:10482000F2680292326903920493094B059306954C
:10483000079401A904F13800FDF77AFB08B0BDE840
:10484000F08100BFD0E1002068C1002070C10020CD
:10485000910900200000000000000000000000009E
:1048600010B5802383F31188FCF7EAF80446002191
:10487000FEF796FA002383F31188204610BD00BF8F
:10488000F0B589B01E460E9F43181A490191029057
:1048900003930492059606974FF050421268164D06
:1048A00005EB82025268079201A9A3F16000FCF7B0
:1048B00077F80446A0F12403C36040F8246C40F864
:1048C000207C0E4A40F8042C802383F3118800F1E9
:1048D000240305F1100242626A69826213606B610F
:1048E0000021FEF75DFA002383F31188204609B00A
:1048F000F0BD00BF78C10020D0E1002025020020DB
:1049000008B5802383F31188FDF7D2FF08BD00BFEF
:1049100008B5FFF7F5FF08BD00000000000000002B
:1049200038B504464FF050431A680D4B03EB820331
:104930005B68DB68802282F31188027F0F2A05D032
:10494000826B1A6083630920FDF772FD656B00239B
:1049500083F311882046FCF79BF8284638BD00BF3A
:10496000D0E1002000000000000000000000000076
:1049700010B5002400E00134042C0BD8064B53F88A
:1049800024000028F7D0FFF7CBFF034B002243F8A9
:104990002420F0E710BD00BF80EB002000000000E5
:1049A00008B5FFF7E5FF08BD0000000000000000AB
:1049B00008B5FFF7DDFF08BD0000000000000000A3
:1049C00008B5FFF7D5FF08BD00000000000000009B
:1049D00008B50146802383F311880820FDF740FDC8
:1049E000002383F3118808BD0000000000000000D0
:1049F0002DE9F04105464C48FEF7BAFB296800292D
:104A000049D04A48FEF7B4FB494C2046FEF7B0FBBC
:104A100048494948FEF7ACFB48494948FEF7A8FB1E
:104A200048494948FEF7A4FB2046FEF7A1FB474949
:104A3000474BC91A4748FEF79BFB4749474BC91AE2
:104A40004748FEF795FB4749474BC91A4748FEF7C9
:104A50008FFB4749474BC91A4748FEF789FB324845
:104A6000FEF786FB4FF00008444B83F804806B6828
:104A70004FEA880653F82830002B43D0FCF7F8FDA6
:104A800008F101086B689B591A6841463C48FEF7DB
:104A90006FFB002406E03B48FEF76AFBB4E73A48A8
:104AA000FEF766FB6B689B595B68A70053F82430E0
:104AB000002BDCD0FCF7CCFD01346B689B595B68A4
:104AC000DB591B68224641463048FEF751FB30480F
:104AD000FFF77EFF6B689B595B68D859FCF738FD80
:104AE000264B5B79002BDAD0244FBB68294A396802
:104AF0002948FEF73DFBFCF78BFDB9682748FEF718
:104B000037FBCFE7FCF7A4FD0748FEF731FB1B4B53
:104B10001B793BB122492348FEF72AFB174B187932
:104B2000BDE8F0812049F6E7CCC2002090C100200A
:104B3000B0C10020B8C10020D0C10020FCB30020CB
:104B4000E8C1002004B4002000C200200CB3002003
:104B5000C000002018C20020A4DE00200CB30020FA
:104B600038C2002080DF0020A4DE002058C20020D0
:104B700000F9002080DF002078C20020ECE1002056
:104B800098C200209CC10020F8C20020B4C20020BE
:104B9000400D030064C10020D0C20020ECC2002000
:104BA00088C1002010C3002080C100200000000048
:104BB00008B5044B5862044A1A620846FFF718FF0A
:104BC00008BD00BFECE1002021150020000000001E
:104BD00008B50249FFF7ECFF08BD00BF38DB002035
:104BE00008B50249FFF7E4FF08BD00BF24D6002046
:104BF00008B50120FFF7ECFE802383F31188FBF753
:104C000077FC002383F3118808BD00BF000000007B
:104C100070B50546FFF7ECFF064600240121284643
:104C2000FEF746F80134FBF763FC801B044B984207
:104C3000F4D900212846FEF73BF8204670BD00BF9E
:104C40003F420F00000000000000000000000000D4
:104C500070B582B01B4D01232B604FF050431A6892
:104C6000194B03EB82035B68DB689A6800230093AF
:104C7000164B013A4FF4E0711548FFF701FE154B52
:104C8000186002232B60FFF7C3FF0446FFF770FE96
:104C900003232B60104E11493046FEF769FA104D80
:104CA00021462846FEF764FA0E493046FEF760FAC0
:104CB00061002846FEF75CFA0B490C48FEF758FAEB
:104CC00002B070BDECE10020D0E10020A12E002058
:104CD000C0E2002080EB00201CB5002024C300208F
:104CE000D0B5002034C3002040C3002094C1002070
:104CF00070B582B01B4D01232B604FF050431A68F2
:104D0000194B03EB82035B68DB689A68002300930E
:104D1000164B01324FF4E0711548FFF7B1FD154B0A
:104D2000186002232B60FFF773FF0446FFF720FE95
:104D300003232B60104E11493046FEF719FA104D2F
:104D400021462846FEF714FA0E493046FEF710FABF
:104D500061002846FEF70CFA0B490C48FEF708FAEA
:104D600002B070BDECE10020D0E10020A12E0020B7
:104D7000C0E2002080EB00201CB5002024C30020EE
:104D8000D0B5002034C3002040C3002094C10020CF
:104D90002DE9F04782B0DFF810910123C9F8003007
:104DA0004FF05048D8F80030404C04EB83035B6868
:104DB000DB689A683E4E002700973E4B01324FF465
:104DC000E0713046FFF75CFD3B4D28600223C9F8D7
:104DD0000030D8F8003004EB83035B68DB689A6826
:104DE000DFF8D8A000975346023A4FF4E0717018EC
:104DF000FFF746FD6860D8F8003004EB83035B687A
:104E0000DB689A6800975346033A4FF4E07106F561
:104E10006070FFF735FDA860D8F8003004EB83031D
:104E20005B68DB689A6800975346043A4FF4E07178
:104E300006F5A860FFF724FDE860D8F8003004EB21
:104E400083046368DB689A6800975346053A4FF419
:104E5000E07106F5E060FFF713FD28610323C9F850
:104E600000302868FFF7D4FE0446FFF781FD0423D5
:104E7000C9F80030124E13493046FEF779F9124D49
:104E800021462846FEF774F910493046FEF770F9BE
:104E900061002846FEF76CF90D490E48FEF768F9E7
:104EA00002B0BDE8F08700BFECE10020D0E10020B7
:104EB000C0E20020A12E002080EB0020114900203C
:104EC0001CB5002024C30020D0B5002034C300202E
:104ED00040C3002094C1002000000000000000003A
:104EE00070B582B02C4E012333604FF050431A68E6
:104EF0002A4B03EB82035B68DB689A680025009508
:104F0000274B01324FF4E0712648FFF7B9FC044605
:104F1000254B186002233360FFF76AFE06468023A4
:104F200083F3118800212046FDF73AFF0021204637
:104F3000FDF736FF00212046FDF732FF0021204615
:104F4000FDF72EFF002383F311880435FBF7D0FA19
:104F5000801B164B9842E2D90F4E03233360802307
:104F600083F311884FF0FF312046FDF719FF00232E
:104F700083F31188FFF7FCFC042333600C490D48D0
:104F8000FEF7F6F869000C48FEF7F2F80B490C48FA
:104F9000FEF7EEF802B070BDECE10020D0E1002099
:104FA000712D0020C0E2002080EB00203F420F0066
:104FB00024C300201CB50020D0B5002040C3002031
:104FC00094C100200000000000000000000000006C
:104FD00070B582B04FF050431A68184B03EB820350
:104FE0005B68DB689E68013E154B01221A60FFF783
:104FF000FFFD0546002400230093124B32464FF478
:10500000E0711148FFF73CFCFFF78AFC0134FBF725
:105010006FFA401B0D4B9842EDD9094B02221A60E2
:105020000B490C48FEF7A4F821460B48FEF7A0F800
:105030000A490B48FEF79CF802B070BDD0E1002091
:10504000ECE1002011490020C0E200203F420F00A7
:1050500024C300201CB50020D0B500204CC3002084
:1050600094C10020000000000000000000000000CB
:1050700070B582B04FF050431A68184B03EB8203AF
:105080005B68DB689E680136154B01221A60FFF7EA
:10509000AFFD0546002400230093124B32464FF427
:1050A000E0711148FFF7ECFBFBF7F2FC0134FBF772
:1050B0001FFA401B0D4B9842EDD9094B02221A6092
:1050C0000B490C48FEF754F821460B48FEF750F800
:1050D0000A490B48FEF74CF802B070BDD0E1002041
:1050E000ECE1002011490020C0E200203F420F0007
:1050F00024C300201CB50020D0B500204CC30020E4
:1051000094C100200000000000000000000000002A
:105110002DE9F04782B0DFF838A10123CAF800304A
:105120004FF05049D9F800304A4D05EB83035B68D6
:10513000DB689A68DFF82081484F002400944346DA
:1051400005324FF4E0713846FFF79AFB444E306069
:10515000D9F8003005EB83035B68DB689A6800943C
:10516000434604324FF4E0717818FFF789FB706012
:10517000D9F8003005EB83035B68DB689A6800941C
:10518000434603324FF4E07107F56070FFF778FB98
:10519000B060D9F8003005EB83035B68DB689A6880
:1051A0000094434602324FF4E07107F5A860FFF720
:1051B00067FBF060D9F8003005EB83056B68DB68AE
:1051C0009A680094434601324FF4E07107F5E060BD
:1051D000FFF756FB30610223CAF80030FFF708FDE5
:1051E00005466FF0010200211E48FEF7C9FF013499
:1051F000FBF77EF9401B1C4B9842F2D9144D032358
:105200002B60FCF7CDFB6FF0010200211548FEF783
:10521000B7FFFFF7ADFB04232B60144E1449304653
:10522000FDF7A6FF134D21462846FDF7A1FF1249C1
:105230003046FDF79DFF04EB440461002846FDF76E
:1052400097FF0E490E48FDF793FF02B0BDE8F087C7
:10525000ECE10020D0E1002081560020C0E20020D7
:1052600080EB002098E200203F420F001CB5002098
:1052700024C30020D0B5002058C3002040C3002024
:1052800094C10020000000000000000000000000A9
:105290002DE9F0411D4B01221A60FFF7A9FC804661
:1052A0000027802383F31188194E1A4D00233246BC
:1052B00001212846FCF744FD174C0023324642F2F8
:1052C00010712046FCF73CFD2846FCF791FC204677
:1052D000FCF78EFC002383F311880137FBF708F9F4
:1052E000A0EB08000D4B9842DBD9084B02221A6054
:1052F0000B490C48FDF73CFF79000B48FDF738FFE0
:105300000A490B48FDF734FFBDE8F081ECE10020CD
:10531000511B002098EB0020B0EB00203F420F0013
:1053200024C300201CB50020D0B500206CC3002091
:1053300094C10020000000000000000000000000F8
:1053400070B51B4B01221A60FFF752FC0646002580
:10535000184C2046FDF79CFB2046FEF769FF2046CF
:10536000FDF796FB2046FEF763FF2046FDF790FB16
:105370002046FEF75DFF2046FDF78AFB2046FEF73C
:1053800057FF0135FBF7B4F8801B0B4B9842DFD970
:10539000074B02221A6009490948FDF7E9FEA900F6
:1053A0000848FDF7E5FE08490848FDF7E1FE70BD35
:1053B000ECE100207CE200203F420F0024C30020EB
:1053C0001CB50020D0B5002078C3002094C1002077
:1053D00008B54CF25030FFF7FBFA802383F31188B5
:1053E0000448FCF7DDFEFEF76BFE002383F3118813
:1053F00008BD00BF8CE2002000000000000000009B
:1054000010B54CF25030FFF7E3FA044C2046FDF79C
:105410003FFB2046FEF70CFF10BD00BFB4DE0020AE
:1054200010B50948FFF7D4FA802383F31188074C9D
:105430002046FDF7C5FA2046FCF7E2FEFEF740FEE7
:10544000002383F3118810BDF0490200C4DE002060
:1054500010B504464CF25030FFF7BAFA012120464D
:10546000FFF756F810BD00BF00000000000000006C
:1054700008B500210548FFF75BF84CF25030FFF704
:10548000A7FA00210248FFF753F808BDACDE002060
:10549000B0DE00200000000000000000000000005E
:1054A0002DE9F04784B0DFF808A10123CAF80030E5
:1054B00000230393FFF79CFB4FF05049D9F80030CD
:1054C0003C4C04EB83035B68DB689A683A4F3B4EC5
:1054D0000DF10C08CDF800803B46013A4FF4E07125
:1054E0003046FFF7CDF9364D2860D9F8003004EB8F
:1054F00083035B68DB689A68CDF800803B46013A1D
:105500004FF4E0717018FFF7BBF96860D9F800300C
:1055100004EB83035B68DB689A68CDF800803B4648
:10552000013A4FF4E07106F56070FFF7A9F9A86041
:10553000D9F8003004EB83035B68DB689A68CDF828
:1055400000803B46013A4FF4E07106F5A860FFF792
:1055500097F9E860D9F8003004EB83046368DB68EE
:105560009A68CDF800803B46013A4FF4E07106F5A9
:10557000E060FFF785F928610223CAF8003011487E
:10558000FFF726FAFCF70CFAFFF7F2F90323CAF843
:1055900000300D490D48FDF7EBFD03990C48FDF770
:1055A000E7FD0C490C48FDF7E3FD04B0BDE8F087CA
:1055B000ECE10020D0E10020B1230020C0E2002077
:1055C00080EB002040420F0024C300201CB50020C7
:1055D000D0B5002040C3002094C10020000000008E
:1055E0000060406081607047000000000000000023
:1055F00008B501210148FFF7F3FF08BD8CE2002048
:1056000008B500210148FFF7EBFF08BD8CE2002040
:1056100008B500210148FFF7E3FF08BD8CE2002038
:1056200008B500210148FFF7DBFF08BD8CE2002030
:1056300008B500210148FFF7D3FF08BD8CE2002028
:1056400008B500210148FFF7CBFF08BD98E2002014
:1056500008B501210148FFF7C3FF08BD98E200200B
:1056600008B5802383F31188FDF75AF9002383F3EB
:10567000118808BD000000000000000000000000CC
:1056800008B502E00748FFF7EBFF4FF050431A68F8
:10569000054B03EB82035B68DB6893F91D30002B3D
:1056A000F0DA08BD98E20020D0E100200000000000
:1056B00008B5802282F31188826801328260002A54
:1056C00003DD002383F3118808BD034600680268E8
:1056D0001A6053600021FDF763FBF2E70000000051
:1056E00010B5044C2046FFF7BBFF2046FFF7E0FF54
:1056F00010BD00BF8CE20020000000000000000090
:1057000070B51B4B01221A60FFF772FA064600259E
:10571000184C2046FFF7A4FF2046FFF7C9FF20469C
:10572000FFF79EFF2046FFF7C3FF2046FFF798FFD5
:105730002046FFF7BDFF2046FFF792FF2046FFF708
:10574000B7FF0135FAF7D4FE801B0B4B9842DFD927
:10575000074B02221A6009490948FDF709FDA90013
:105760000848FDF705FD08490848FDF701FD70BD33
:10577000ECE1002098E200203F420F0024C300200B
:105780001CB50020D0B5002088C3002094C10020A3
:1057900010B50446016001EB82024260C160816085
:1057A0000023036103751830FBF7A2F904F1200010
:1057B000FBF79EF910BD00BF0000000000000000D4
:1057C00008B5042202490348FFF7E2FF08BD00BF05
:1057D0005CE20020D4DE0020000000000000000099
:1057E00008B5042202490348FFF7D2FF08BD00BFF5
:1057F0005CE20020D4DE0020000000000000000079
:1058000008B5042202490348FFF7C2FF08BD00BFE4
:105810005CE20020D4DE0020000000000000000058
:1058200008B5802383F31188FEF7BAFE002383F3C3
:10583000118808BD0000000000000000000000000A
:1058400008B5802383F31188FEF71AFF002383F342
:10585000118808BD000000000000000000000000EA
:1058600008B5CB1D23F00703591A521A0021016015
:10587000C36001611960083AD2085A6043605B68EE
:105880000133DB0083601430FBF7AAF908BD00BFC9
:1058900008B54FF40C6202490248FFF7E1FF08BD6A
:1058A000C0E2002038E200200000000000000000FC
:1058B0002DE9F8430F4615468046002838D0072DBD
:1058C00000D80825FE1DF60808F114094846FDF722
:1058D000DFF808F10C0421462468002C4AD0631933
:1058E00007336A421340083B6068421C04EBC20263
:1058F0009A42F0D903F1080CA2EB0C024FEAE20C39
:10590000B6EBE20FE7D89C4215D204F108029A1ACE
:10591000D2106260B44521D9701C03EBC001ACEB1E
:105920000602013A4A60226843F83020216015E0FF
:10593000DFF86880C3E7B04218D0013604EBC60236
:10594000236844F836306368013304EBC30302F183
:1059500008001B1ADB1053600A6023465F601C4678
:1059600044F8088B4846FEF763FC13E023680B609D
:105970002346F3E74846FEF75BFCD8F800304BB10E
:1059800008222946F0009847044618B140F8088CD0
:1059900040F8047C2046BDE8F88300BF14E20020F4
:1059A000F0B589B00D4617461E462022FFF780FF4E
:1059B0000446C8B1054401970290039504960E9BD6
:1059C00005930F9B069300250795802383F3118889
:1059D00001A8FBF735F80446054BC3620563294669
:1059E000FDF7DEF985F31188204609B0F0BD00BF50
:1059F000715B0020000000000000000000000000BB
:105A000030B583B00446012921D1156819492846CB
:105A1000FAF78CFC30B318492846FAF787FCD8B956
:105A2000164A4FF050431968154B03EB81035B682E
:105A3000DB689B6801940092124A4FF44071002089
:105A4000FFF7AEFF80B1FEF76BFF03B030BD0E4A2B
:105A50000E49FDF735FAF8E70B4A0C492046FDF7E9
:105A60002FFAF2E70A4ADCE70A492046FDF728FA4E
:105A7000EBE700BFA8C30020A0C30020E14B00203B
:105A8000D0E1002090D0002098C3002024B3002053
:105A9000D14B0020ACC3002000000000000000003B
:105AA000F8B506460F4614461D46FEF7D9F880B9EC
:105AB0002A462146FFF7FCFE044658B100F10801D2
:105AC0003046FBF795FA012363603B6823603C6036
:105AD00000E000242046F8BD0000000000000000A7
