:020000042000DA
:10000000000204200D020020915A00200F0200205F
:100010000F0200200F0200200F0200200F0200201C
:100020000F0200200F0200200F0200200F0200200C
:100030000F0200200F0200200F0200200F020020FC
:10004000A11C0020E11C0020211D0020511D0020CA
:100050000F0200200F0200200F0200200F020020DC
:100060000F0200200F0200200F0200200F020020CC
:100070000F0200200F0200200F020020B15A0020C2
:10008000E15A00200F0200200F0200200F02002082
:1000900031240020512400200F0200200F020020F4
:1000A0000F0200200F0200200F0200200F0200208C
:1000B0000F0200200F0200200F0200200F0200207C
:1000C00072B63E4880F308883D4880F30A883D4870
:1000D00080F309883C4880F30B883C483C49086021
:1000E000022080F31488BFF36F8F01F061FD01F0EF
:1000F000CFFD4FF055303249304A91423CBF41F874
:10010000040BFAE730492F4A91423CBF41F8040BF7
:10011000FAE73049304A314B9A423EBF51F8040B5E
:1001200042F8040BF8E700202D492E4A91423CBFCB
:1001300041F8040BFAE701F073FD01F041FD2A4C90
:100140002A4DAC4203DA54F8041B8847F9E70CF057
:10015000CFF9274C274DAC4203DA54F8041B8847EB
:10016000F9E701F035BD00BF72B6234880F3088877
:10017000224880F30988022080F31488BFF36F8F30
:1001800012481349086001F02BFD01F031FD4FF0DA
:1001900055301B49184A914202DA08600431FAE7E7
:1001A0001849164A914202DA08600431FAE701F070
:1001B00027FD0CF035FB144908470000000204201D
:1001C000000004200004042000020420000000209D
:1001D00008ED00E0CC050120CC050120A806012097
:1001E000A8060120C0180120C0000020C000002087
:1001F000C0000020C00000200012042000140420D1
:100200000010042000120420111C002058E700F008
:1002100000F8FEE7F0B544464D4656465F46F0B45A
:100220006B46CB60C3689D46F0BCA046A946B2466B
:10023000BB46F0BD05F07CFC62B6281CA047002040
:1002400003F07EFAFEE701F02BFE024A024B136038
:10025000FEE7000004ED00E000000080844641EA73
:10026000000313F0030349D1403A23D30B68036022
:100270004B6843608B688360CB68C3600B69036124
:100280004B6943618B698361CB69C3610B6A03620C
:100290004B6A43628B6A8362CB6AC3620B6B0363F4
:1002A0004B6B43638B6B8363CB6BC36340304031D9
:1002B000403ADBD230320BD30B6803604B684360AB
:1002C0008B688360CB68C36010301031103AF3D272
:1002D0000C3205D351F8043B40F8043B043AF9D200
:1002E000043208D0D2071CBF11F8013B00F8013BD3
:1002F00001D30B8803806046704700BF082A13D3E0
:100300008B07B1D010F00303AED0C3F10403D21AAF
:10031000DB071CBF11F8013B00F8013BA4D331F807
:10032000023B20F8023B9FE7043AD9D3013A11F887
:10033000013B00F8013BF9D20B7803704B78437016
:100340008B7883706046704780EA010C1CF0030FC5
:1003500037D110F0030C20F0030021F0030150F816
:10036000042B08BF51F8043B0ED08CF0030C6FF047
:100370007F434FEACC0C23FA0CFC51F8043B42EAD1
:100380000C0243EA0C0300BFA2F1013C9A4201BFF8
:100390002CEA020C1CF0803F50F8042B51F8043B6F
:1003A000F2D04FEA02604FEA1222012828BFB0EBD8
:1003B000036F08BF1B0AF4D003F0FF03000EC01A3E
:1003C000704710F0030F0AD010F8012B11F8013B11
:1003D000012A28BF9A42F4D0A2EB030070474DF8DF
:1003E000045D50F8042B01F0030521F0030151F8DE
:1003F000043B022D26D04DD822F07F45B5EB132FBC
:10040000A2F1013C2CEA020C0DD11CF0803C08BF8B
:1004100051F8043B0AD185EA0205B5EB036F0CD114
:1004200050F8042BE8E74FEA13235BE03CF07F4CE5
:1004300054D10B784FEA126554E04FEA126503F08D
:10044000FF034FE04FEA0245A2F1013C4FEA154598
:100450002CEA020CB5EB134F18D11CF0803C08BFFE
:1004600051F8043B07D185EA0205B5EB034F09D1EA
:1004700050F8042BE6E75FEA0C4C2FD10B884FEACB
:1004800012452FE04FEA03434FEA12454FEA134368
:1004900028E000BF02F0FF05B5EB136FA2F1013CAD
:1004A0002CEA020C0DD11CF0803C08BF51F8043B33
:1004B0000AD185EA0205B5EB032F0AD150F8042BC7
:1004C000E8E74FEA13630DE012F0FF0F06D051F892
:1004D000043B4FEA122523F07F4303E04FF0000076
:1004E00020BC704705F0FF0203F0FF00012828BF81
:1004F000904204BF2D0A1B0AF4D0A2EB000020BCDE
:10050000704700BF00000000000000000000000075
:1005100000290CBF6FF0130000207047000000009E
:10052000EFF31080C3070DD4EFF30583C3F3080383
:100530004BB172B64FF05042D2F87C31002BFBD059
:10054000BFF35F8F704772B64FF05042D2F87C31E4
:10055000002BFBD0BFF35F8FF4E700BF000000006B
:10056000FEE700BF000000000000000000000000E7
:1005700072B64FF05042D2F87C31002BFBD0BFF363
:100580005F8F837F013B8377C36903F0FF130F2BDA
:1005900005D0BFF35F8FC2F87C2162B67047D0E907
:1005A00009310B605960BFF35F8FC2F87C2162B6DE
:1005B000C36A002BF2D018470000000000000000C2
:1005C000016B406972B64FF05042D2F87C31002B7B
:1005D000FBD0BFF35F8F0B6803600860BFF35F8FD2
:1005E000C2F87C2162B670470000000000000000E5
:1005F00010B472B64FF0504CDCF87C31002BFBD0BD
:10060000BFF35F8F0B4B49425C68201A08401968A2
:10061000821A8A420BD3944209D35A60BFF35F8F88
:100620004FF05043C3F87C3162B610BC70470020D5
:10063000F4E700BF100701200000000000000000E8
:1006400003681A1D02601B68184700BF0000000005
:1006500002460368191D0160586853F8081B1360AF
:10066000084700BF0000000000000000000000007C
:100670000346026830B4111D50681960146802F115
:100680000C0591681D60234630BC1847000000002F
:100690000246036830B4D3E901011C1D14601C68D4
:1006A00003F110051560DA68234630BC184700BF17
:1006B0008446036830B4D3E901011C1DDA68CCF824
:1006C00000401C6803F11405CCF800501B69A446D7
:1006D00030BC604700000000000000000000000087
:1006E000064B49425A68101A08401968884203D3D9
:1006F000824201D3586070470020704710070120E4
:1007000030B472B64FF05042D2F87C31002BFBD09F
:10071000BFF35F8FEFF30983A3F1200181F3098811
:100720004FF0807543F8045C12680848084C00EBF1
:100730008200406807490568C268AD6890688542D4
:1007400088BF214630BC43F8081C704718070120B9
:10075000470200204A0200200000000000000000C4
:1007600010B50446034BE1B2586A0368DB6898474A
:10077000204610BD340701200000000000000000EA
:100780004FF050420C4901F1140C51F8040B78B1B0
:1007900072B6D2F87C31002BFBD0BFF35F8F437F62
:1007A00063F07F034377BFF35F8FC2F87C2162B6AB
:1007B0006145EAD1704700BFF80F0120000000003A
:1007C0000123614830B4036072B64FF05042D2F852
:1007D0007C31002BFBD0BFF35F8F5C4C136804EBC4
:1007E000830359680A688A4200F09A8000231268DD
:1007F00001338A42FBD14A688A4275D05268013B74
:100800008A42FBD1002B6FD1BFF35F8F4FF0504274
:10081000C2F87C2162B60223036072B6D2F87C3142
:10082000002BFBD0BFF35F8F136804EB83035D687D
:10083000294651F8102F8A4279D0002312680133DB
:100840008A42FBD16A698A4240D05268013B8A429F
:10085000FBD1002B3AD1BFF35F8F4FF05042C2F86B
:100860007C2162B60323036072B6D2F87C31002B80
:10087000FBD0BFF35F8F364D21691368A9425CD06E
:10088000002309680133A942FBD16269AA4239D029
:100890005268013BAA42FBD1002B33D1BFF35F8FDB
:1008A0004FF05042C2F87C2162B60423036072B656
:1008B000D2F87C31002BFBD0BFF35F8F1368BFF3FE
:1008C0005F8FC2F87C2162B630BC7047BFF35F8F88
:1008D0004FF05043C3F87C3162B640F2011330BC94
:1008E0001C4A838082607047BFF35F8F4FF0504394
:1008F000C3F87C3162B640F2011330BC164A8380E3
:1009000082607047BFF35F8F4FF05043C3F87C3174
:1009100062B640F2011330BC104A83808260704797
:100920004A688A4218BF00237FF468AF6CE76A699F
:10093000914218BF002388D18DE76269AA4218BF8F
:100940000023A5D1AAE700BF340701201807012022
:100950002807012044DA00202CDA002068DA002081
:100960000122034B1A6072B672B672B662B6704755
:10097000340701200000000000000000000000001B
:100980000121044B044A1960916A936A9942FCD090
:10099000704700BF34070120004005400000000000
:1009A0000322014B1A607047340701200000000049
:1009B000054BDA6803F120018A4203D20178501C0A
:1009C000D8601170704700BF34070120000000009C
:1009D0000022014B1A6070470C100120000000003B
:1009E0000122024BC3E900339A607047D40701200B
:1009F0000022024BC3E900339A607047D4070120FC
:100A00000022024BC3E900339A607047D4070120EB
:100A10000022024BC3E900339A607047D4070120DB
:100A20000022024BC3E900339A607047D4070120CB
:100A30000022024BC3E900339A607047DC050120B5
:100A40000022024BC3E900339A607047DC050120A5
:100A50000021044A044BC2E90022C3E9003391603B
:100A600099607047DC050120EC05012000000000C2
:100A70000021044B044AC3E90131C2E900221B6092
:100A8000704700BFDC050120CC05012000000000FC
:100A90000021044B044AC3E90131C2E900221B6072
:100AA000704700BFDC050120CC05012000000000DC
:100AB0000020064A064B0749C3E90033C1E900118B
:100AC0001260526090609860704700BFDC050120A2
:100AD000EC050120CC050120000000000000000012
:100AE000054BDA6803F120018A4203D24121501CF0
:100AF000D8601170704700BF34070120000000006B
:100B0000054BDA6803F120018A4203D24221501CCE
:100B1000D8601170704700BF34070120000000004A
:100B2000054BDA6803F120018A4203D24321501CAD
:100B3000D8601170704700BF34070120000000002A
:100B40000223F0B4604A614C8AB01260236072B62E
:100B50004FF05041D1F87C31002BFBD0BFF35F8FB9
:100B60005B4D0B68002005EB83035B68DB68069335
:100B70000123CDE907304FF0FF331068099305904A
:100B800005A81060BFF35F8FC1F87C1162B672B622
:100B90004FF05041D1F87C31002BFBD0BFF35F8F79
:100BA0000227D1F800C0002605EB8C056D684FF0D8
:100BB000FF33ED68CDE90363CDE901576D46136856
:100BC00015600093BFF35F8FC1F87C1162B672B6F7
:100BD0004FF05041D1F87C31002BFBD0BFF35F8F39
:100BE0001368934259D0BFF35F8FC1F87C1162B68E
:100BF0000323236072B64FF05041D1F87C31002BB3
:100C0000FBD0BFF35F8F304B01E0834252D01946D7
:100C10001B689342F9D1BFF35F8F4FF05041C1F889
:100C20007C1162B672B6D1F87C31002BFBD0BFF3D9
:100C30005F8F1368934230D0BFF35F8FC1F87C1190
:100C400062B60423236072B64FF05041D1F87C3174
:100C5000002BFBD0BFF35F8F1B4B01E0AB4230D0CA
:100C600019461B689342F9D1BFF35F8F4FF0504193
:100C7000C1F87C1162B672B6D1F87C31002BFBD082
:100C8000BFF35F8F1368934217D1BFF35F8FC1F833
:100C90007C1162B60AB0F0BC704740F201130D4AF5
:100CA000A260A380BFF35F8FC1F87C1162B60AB067
:100CB000F0BC7047059B0B60ADE740F20113064A9C
:100CC000EEE7009B0B60CFE7D4050120340701203D
:100CD0001807012084DA002090DA002000000000CC
:100CE00072B64FF05042D2F87C31002BFBD0BFF3EC
:100CF0005F8F00211068064B03EB80035B68DB68A5
:100D00005964BFF35F8FC2F87C2162B6704700BFA1
:100D10001807012000000000000000000000000093
:100D200072B64FF05042D2F87C31002BFBD0BFF3AB
:100D30005F8F00211068064B03EB80035B68DB6864
:100D40005964BFF35F8FC2F87C2162B6704700BF61
:100D50001807012000000000000000000000000053
:100D600072B64FF05042D2F87C31002BFBD0BFF36B
:100D70005F8F00211068064B03EB80035B68DB6824
:100D80005964BFF35F8FC2F87C2162B6704700BF21
:100D90001807012000000000000000000000000013
:100DA00072B64FF05042D2F87C31002BFBD0BFF32B
:100DB0005F8F00211068064B03EB80035B68DB68E4
:100DC0005964BFF35F8FC2F87C2162B6704700BFE1
:100DD00018070120000000000000000000000000D3
:100DE00072B64FF05042D2F87C31002BFBD0BFF3EB
:100DF0005F8F00211068064B03EB80035B68DB68A4
:100E00005964BFF35F8FC2F87C2162B6704700BFA0
:100E10001807012000000000000000000000000092
:100E200072B64FF05042D2F87C31002BFBD0BFF3AA
:100E30005F8F00211068084B03EB80035B68DB6861
:100E40005964BFF35F8FC2F87C2162B6034A044B3A
:100E500012601B60704700BF18070120D4050120F5
:100E6000D805012000000000000000000000000084
:100E7000054BDA6803F120018A4203D20178501C45
:100E8000D8601170704700BF3407012000000000D7
:100E900000200C4B0C4AD91D21F00701CB1AC3F5D9
:100EA000FE63DB08D1604B600133DB00936002F12D
:100EB0001403C2E905335160106010610860D0610D
:100EC000704700BF000801208007012000000000DB
:100ED00000224FF4CC700421024BC3E90020C3E987
:100EE00002127047B407012000000000000000005B
:100EF000704700BF0000000000000000000000007C
:100F00000022024BC3E900339A607047E0070120DA
:100F10000122024BC3E900339A607047E0070120C9
:100F20000022024BC3E900339A607047C4070120D6
:100F3000002130B4094B0A4A03F1180402F11005EC
:100F400003F12000C3E90025C3E9064430BCC3E92E
:100F50000222C3E90800196119757047FC050120D8
:100F6000A4070120000000000000000000000000B5
:100F7000002130B4094B0A4A03F1180402F11005AC
:100F800003F12000C3E90025C3E9064430BCC3E9EE
:100F90000222C3E90800196119757047FC05012098
:100FA000A407012000000000000000000000000075
:100FB000002130B4094B0A4A03F1180402F110056C
:100FC00003F12000C3E90025C3E9064430BCC3E9AE
:100FD0000222C3E90800196119757047FC05012058
:100FE000A407012000000000000000000000000035
:100FF000002230B40E490F4B01F11005C3E9001572
:1010000003F12004C3E9021103F1300003F14001B0
:10101000C3E9084430BCC3E90C00C3E91011C3E9BB
:1010200006221A611A759A629A639A64704700BF21
:10103000000701202406012000000000000000003D
:101040004FF0504CF0B40669DCF80030B24238BFC3
:101050003246154D154C05EB83035B688F181B6BEF
:10106000043344F82370A36A591A8A4298BF32465F
:1010700002D9F0BC70470B46DCF80010013205EBDA
:1010800081014968D718096B043144F82170A16ABD
:10109000CB1A9342EFD29642EBD2AB69026143F096
:1010A0000103AB61F0BC7047180701200040054008
:1010B000F0B50768C260C1E901030F607960076994
:1010C0004FF05046BB4238BF3B464FF0010E9C46A6
:1010D0001B4D3368016005EB83035B68194C196B8A
:1010E0000EFA01F3043102EB0C0E44F821E06363C5
:1010F000A16B0B43A363A36A991A614528BF3946C4
:1011000002D2F0BD1A466346013101EB020E32688D
:1011100005EB820CDCF80420126B02F1040C44F89D
:101120002CE0D4F828C0ACEB03029142EAD98F42FC
:10113000E7D2AB69016143F00103AB61F0BD00BFD1
:1011400018070120004005400000000000000000DA
:101150004FF050432DE9F04F4FF00008DFF81091A9
:101160001B68444E09EB8303D3F804A081B00AF155
:1011700010074FF05044DAF81050B16ADAF81C301A
:10118000AA68C81A82424BD8D5E9001003EB020BBB
:10119000CAF81CB001604860C5F80080DAF8103069
:1011A0009F4231D0BFF35F8FC4F87C4162B62846BE
:1011B000D5E90321904772B6D4F87C31002BFBD0DF
:1011C000BFF35F8F6B69002BD5D0B26AA2EB0B0027
:1011D000834232D3DAF810108F423DD08A689342AE
:1011E00004D909689B1A8A689A42FAD34FF0FF30F3
:1011F000AB608A682960D31A4A686A601560C1E9E1
:101200000153CAF81800B4E701222168B36B09EB57
:1012100081014968096B8A4023EA0203B363C1E78D
:10122000AF4216D0384613445A1ACAF81C10AA60A6
:1012300001B0BDE8F04FFFF703BFD9F81830DAF876
:10124000101043F002038F42C9F818300DD0034646
:10125000C4E701B0BDE8F08F5B449B1A29463846CD
:1012600001B0BDE8F04FFFF723BF0023F6E700BF52
:1012700018070120004005400000000000000000A9
:1012800072B64FF05042D2F87C31002BFBD0BFF346
:101290005F8F0B7F0C2B10D8DFE803F02D0F0F2989
:1012A0000B070F0B0F0F0F0F0B004A6B93680133E7
:1012B0009360D1E9003213605A60002210B44FF0FD
:1012C000FF340B6988684C630A771B689A6882420E
:1012D000FBD25A68C1E9003211605960BFF35F8FD9
:1012E0004FF05043C3F87C3162B610BC7047002207
:1012F0004B6B1A60E1E7BFF35F8F4FF05043C3F8C9
:101300007C3162B6704700BF0000000000000000A2
:1013100072B64FF05042D2F87C31002BFBD0BFF3B5
:101320005F8F1C4B116803EB810149680868C9682D
:1013300080688968884225D34FF0010C10B50024DD
:10134000126803EB82035A681068D168036813605F
:101350005A6080F81CC00B69D0600C778C681B68E1
:101360009A68A242FBD25A68C1E900321160596002
:10137000FEF750FFBFF35F8F4FF05043C3F87C314F
:1013800062B610BDBFF35F8F4FF05043C3F87C319E
:1013900062B670471807012000000000000000003E
:1013A00070B54FF0504604460A4DFFF7B1FFFFF706
:1013B000AFFFFFF7ADFFFFF7ABFF236804332360F8
:1013C000336805EB83035B68DB6893F91D30002B02
:1013D000EBDA70BD180701200000000000000000DB
:1013E0004FF050422DE9F0411368154D05EB830392
:1013F0005B68D3F80C8072B6D2F87C31002BFBD03E
:10140000BFF35F8F4FF0504403270126236805EB9D
:1014100083035B68D9680F77186802681A605360A5
:101420000677D860FEF7F6FED8F83430002BEDD002
:10143000BFF35F8FC4F87C4162B6BDE8F08100BFA6
:10144000180701200000000000000000000000005C
:101450000EB42DE9F04F86B00FAB53F8046B354650
:1014600015F8011BCDE90133002900F0068204467E
:101470004FF000090CE023682046DB6898472E46B1
:1014800009F10109354615F8011B002900F0D98042
:101490002529F0D173782D2B08BFB51C2B780CBFF4
:1014A0004FF0010E4FF0000E2B2B03BF6B784FF067
:1014B000010C01354FF0000C302B03BF01351F46E6
:1014C0002B7820272A2B49D16B78DDF804B02E2BFE
:1014D0005BF8042B05F1020656D0002003F0DF0173
:1014E0004C295FD0A3F14405342D00F2B080DFE831
:1014F00015F0DC00AE00AE00AE00AE00DC00AE00C9
:10150000AE00AE00AE00AE004D011201AE00AE0066
:10151000AE00AE00B501AE00AE001201AE00AE00EE
:10152000AE00AE00AE00AE00AE00AE00AE00AE004B
:101530006F01DC00AE00AE00AE00AE00DC00AE001D
:10154000AE00AE00AE00AE004D011201AE00AE0026
:101550005001AE00B501AE00AE0012016E1C002BB2
:101560006FD0002205E016F8013B01EB4002002B92
:1015700067D0A3F13001C9B2092902EB8200F2D988
:101580002E2BDDF804B0A8D13378002B59D02A2BAC
:1015900047D173785BF8040B03F0DF014C2906F1A7
:1015A00002069FD116F8013B002B4AD0A3F144015B
:1015B00034294CD8DFE811F079004B004B004B0088
:1015C0004B0079004B004B004B004B004B00EA00F6
:1015D000AF004B004B004B004B0052014B004B0047
:1015E000AF004B004B004B004B004B004B004B003F
:1015F0004B004B004B000C0179004B004B004B00A3
:101600004B0079004B004B004B004B004B00EA00B5
:10161000AF004B004B00ED004B0052014B004B0064
:10162000AF0000200136A3F13001C9B2092900EB57
:1016300080053FF653AF16F8013B01EB4500002B48
:10164000F1D1484606B0BDE8F04F03B070478DF8C1
:101650000C30CDF804B0013A22EAE27ABEF1000F74
:1016600004D1002ACAF1000A00F3E48000250DF13C
:101670000C0B05F10108D84423681BF8011B204618
:10168000DB689847C345F7D109F10109A944BAF1CC
:10169000000F3FF4F7AE5546236839462046DB6815
:1016A0009847013DF8D1D144ECE65B4653F8040B72
:1016B00000280193C0F2B680BCF1000F00F0D78083
:1016C0002B230DF10D088DF80C3003AB08F10B0B3B
:1016D0005D466D498246A1FB00C1C9088C4601EBFD
:1016E0008101A0EB41013031C9B2BAF1090F604666
:1016F00005F8011DEDDCABEB0500404401E015F8F9
:10170000011F08F8011B8045F9D1A8EB0305521B06
:101710009B46013D2DE04FF010085B4653F8040B4B
:1017200001930DF1170300E02B468446B0FBF8F05F
:1017300008FB10CA0AF130013929C8BF0AF1370184
:10174000C9B2C44503F1FF3503F8011CECD21846B9
:101750000DF117035D1B03AB9C460DF1170801E06B
:1017600010F8011B40450CF8011BF9D19B46521B98
:10177000013D22EAE27ABEF1000F03D1002ACAF14C
:10178000000A2EDC002DBFF674AF80E74FF008088A
:10179000C3E75B4653F804BB0193BBF1000F60D075
:1017A0009BF8001000284AD000294CD001384AD4B8
:1017B000594601E0C54205D411F8013FABEB0105E4
:1017C000002BF7D1A1EB0B012027521A4D1ED0E7B9
:1017D0005BF8043B2027013ACDF804B08DF80C30BB
:1017E0003AE7D0469BF800102D290FD02B290DD0B9
:1017F000236839462046DB6898471AF1010AF7D179
:10180000002DA9EB0809BFF634AF3BE6302FEFD12E
:1018100022682046D2680BF1010B09F10109013D54
:101820009047E5E72D2340428DF80C300DF10D086F
:1018300003AB4BE77546D0460DF10C0BD2E747F6EC
:10184000FE700029B4D122EAE27ABEF1000F03D182
:10185000002ACAF1000A12DC202718E74FF00A0814
:101860005BE738B947F6FE70DFF820B0A0E703ABBE
:1018700098462BE7DFF814B098E78946E1E6D046B2
:1018800020274FF0FF35ADE7CDCCCCCCA0DA00203F
:1018900000292EDC30B5044683B0184A1849FFF7FA
:1018A000D7FD2046174A1849FFF7D2FD2046174AB0
:1018B0001749FFF7CDFD2046164A1749FFF7C8FD27
:1018C0002046164A1649FFF7C3FD164D2046164A14
:1018D0001649FFF7BDFD2046154A1649FFF7B8FD2A
:1018E0002046154B154A16490095FFF7B1FD03B088
:1018F00030BD144A1449FFF7ABBD00BFBCDA00206D
:10190000C4DA0020D8DA0020F8DA00200CDB00204E
:1019100014DB002028DB002034DB002048DB002023
:1019200068DB0020D4DB00207CDB002000040120E9
:1019300084DB002098DB0020ACDB0020B0DB002043
:10194000BCDB0020A8DA0020B0DA00200000000094
:10195000012903D0034A0449FFF77ABD12680349FD
:10196000FFF776BDE0DB0020B0DA0020A8030120FD
:10197000002904DC044B05499A6AFFF769BD044A53
:101980000449FFF765BD00BF00400540F8DB0020BB
:10199000F0DB0020B0DA00200000000000000000B2
:1019A000002966DC2DE9F04F344987B00646FFF781
:1019B0004FFD72B64FF05042D2F87C31002BFBD075
:1019C000BFF35F8F2E4F57F8103F13F8061CA3F19B
:1019D0002405013103F8061CBFF35F8FC2F87C2198
:1019E00062B64FF05044DFF89CA0DFF89C90DFF81F
:1019F0009C80286A297F002808BF484695F81EC0A9
:101A00002B695AF821B00CF1FF311A6BD5E902CEDF
:101A10006B690291059041463046CDE903CBCDE993
:101A200000E5FFF715FD72B6D4F87C31002BFBD032
:101A3000BFF35F8F6B6ABB4210D013F8062CA3F183
:101A4000240B013203F8062CBFF35F8FC4F87C41EE
:101A500062B62846FEF78CFD5D46CAE7BFF35F8F8E
:101A6000C4F87C4162B6284607B0BDE8F04FFEF7E7
:101A70007FBD074A0749FFF7EBBC00BF00DC002031
:101A800018070120F4000120F4DD002044DC0020D0
:101A900034F70020B0DA0020000000000000000051
:101AA00038B50D46B0B104462860204610490BF009
:101AB000A3FF215C0444222912D020460C490BF0DC
:101AC0007FFF98B10023421C2A600370237823B162
:101AD000204638BD0C68002CE7D10024204638BDD4
:101AE000013420460BF0CAFE0028EBD12860EDE758
:101AF00070DC00200000000000000000000000007A
:101B00000246034B03490448C3E908120BF0A8BC82
:101B10003407012061070020780001200000000048
:101B20000246034B03490448C3E908120BF098BC72
:101B3000340701206107002064FB00200000000042
:101B4000002101480BF0D4BBD407012000000000A5
:101B5000012310B5114C002023600BF059FAB8B9DD
:101B60000BF01EFAA0B90BF0E3F988B902234CF28E
:101B7000503023600BF04CFA50B94CF250300BF05F
:101B80000FFA28B94CF250300BF0D2F900B910BD61
:101B900040F20113024AA380A26010BD3407012065
:101BA00074DC0020000000000000000000000000C5
:101BB000704700BF000000000000000000000000AF
:101BC000704700BF0000000000000000000000009F
:101BD000FEE700BF00000000000000000000000061
:101BE000704700BF0000000000000000000000007F
:101BF000704700BF0000000000000000000000006F
:101C0000704700BF0000000000000000000000005E
:101C1000FEE700BF00000000000000000000000020
:101C2000F8B5154D154F16491648174A05F17004B9
:101C300081420DD90346043A52F8046F43F8046B0D
:101C40009942F9D84B1E1B1A23F00303043318449E
:101C5000874207D97A1E121A22F0030200210432A9
:101C60000BF0BAFDA54205D0D5E90420D5E9061749
:101C70001035DDE7F8BD00BFA8FB0020C01801202B
:101C8000C0180120C0180120C01801200000000069
:101C9000704700BF000000000000000000000000CE
:101CA000012238B50C4B75465A6372B64FF050445A
:101CB000D4F87C31002BFBD0BFF35F8FFFF748FADD
:101CC000BFF35F8FC4F87C4162B60F3503D0BDE827
:101CD0003840FEF715BD38BD00400540000000004B
:101CE000022238B50C4B75465A6372B64FF0504419
:101CF000D4F87C31002BFBD0BFF35F8FFFF728FABD
:101D0000BFF35F8FC4F87C4162B60F3503D0BDE8E6
:101D10003840FEF7F5BC38BD00400540000000002B
:101D20000421084B084A9B6810B5744651630BB1F7
:101D3000022098470F3403D0BDE81040FEF7E0BC06
:101D400010BD00BFF007012000400540000000006A
:101D50000821084B084ADB6810B5744651630BB183
:101D6000032098470F3403D0BDE81040FEF7C8BCED
:101D700010BD00BFF007012000400540000000003A
:101D80002DE9F0414FF0504605464FF0000E306807
:101D90001C4CC5E9043E04EB800466681A4F3369A5
:101DA00006F1100098428C46B96AEA6023D0F469C3
:101DB0009A680C1B1CEB040428BF6446A24215D889
:101DC0009A68944204D91B68A41A9A68A242FAD36A
:101DD0004FF0FF315A68AC60C5E9003215609A686F
:101DE0005D60121B9A60B161BDE8F0816246FFF749
:101DF00027F93369E4E70A4663462946BDE8F0411E
:101E0000FFF756B918070120004005400000000008
:101E10004FF050411F4A0B6870B402EB83035B68BC
:101E20001C69A0420ED00268846891680025214494
:101E300044682260C2E901414FF0FF3205609A61B7
:101E400070BC70470026046803F110051C616560D2
:101E500006601C69A5420FD08168A268D869531832
:101E60000D4AA360916A0A1A9342E9D9421A1A44A8
:101E7000284670BCFFF7E4B801200B68064902EB66
:101E8000830252688B6B126B00FA02F223EA0203A0
:101E90008B63D5E7180701200040054000000000D3
:101EA0004FF050424FF0010C10B4002412680D4B5B
:101EB00003EB82035A681068D168036813605A60A4
:101EC00080F81CC00B69D0600C778C681B689A681E
:101ED000A242FBD85A6810BCC1E9003211605960B7
:101EE000FEF798B91807012000000000000000006C
:101EF0004FF0504270B51368154C04EB83035B68D8
:101F0000DD6872B6D2F87C31002BFBD0BFF35F8F57
:101F1000EE6CAB68B34219D0834217D34FF05043F5
:101F2000E8641B6804EB830463681A68DB689268E2
:101F30009B689A4201D9FFF7B3FFBFF35F8F4FF061
:101F40005043C3F87C3162B6304670BDA860E5E707
:101F50001807012000000000000000000000000041
:101F60002DE9F84301234FF050491C4E1C4F3360BC
:101F7000D9F8003007EB83035B68DB689D6805F1E7
:101F800001084046FFF7B4FFA8421FD1D9F800204E
:101F900007EB82025368DB689B6898450FD10223E8
:101FA00004463360FFF7A4FF80450FD1D9F8003015
:101FB00007EB83035B68DB689B689C4204D040F2BC
:101FC0000113084AB380B260BDE8F88340F2011300
:101FD000054AB380B260BDE8F88300BF3407012032
:101FE00018070120A8DC002084DC0020000000008D
:101FF0002DE9F84301234FF05044414E414D3360E9
:102000002368226805EB830305EB82025B68526854
:10201000DB68D2689F68936807F102080233936017
:10202000236805EB83035B68DB689B6898454CD1AC
:10203000022307F1010948463360FFF759FFB84210
:102040004AD1236805EB83035B68DB689B6898458E
:102050003BD1236805EB83035B68DB68DB6C994548
:1020600041D1032300F1030840463360FFF740FFEE
:10207000814531D1236805EB83035B68DB689B688E
:10208000984522D1236805EB83035B68DB68DB6C32
:1020900098452ED10423336072B6D4F87C31002BDE
:1020A000FBD0BFF35F8F236805EB83035B68DB68BE
:1020B0009F60236805EB83056B68DB68DF64BFF313
:1020C0005F8FC4F87C4162B604E040F201130E4A0F
:1020D000B380B260BDE8F88340F201130B4AB380CD
:1020E000B260BDE8F88340F20113094AB380B260E0
:1020F000F0E740F20113074AB380B260EAE700BF9D
:102100003407012018070120A8DC002084DC00200F
:10211000C4DC0020ECDC0020000000000000000017
:1021200008B572B64FF05042D2F87C31002BFBD08C
:10213000BFF35F8FBFF35F8FC2F87C2162B672B6C8
:102140004FF05041D1F87C31002BFBD0BFF35F8FB3
:10215000FEF7E6F9C30709D4EFF30583C3F30803D9
:1021600063B1BFF35F8FC1F87C1162B6BFF35F8FBD
:102170004FF05043C3F87C3162B608BD0A680A4B81
:1021800003EB82035B681A68DB6892689B689A427B
:1021900001D9FFF785FEBFF35F8F4FF05043C3F8BF
:1021A0007C3162B6E2E700BF1807012000000000A2
:1021B00010B572B64FF05044D4F87C31002BFBD0F0
:1021C000BFF35F8F0AF044FE22680A4B03EB8203E1
:1021D0005B681A68DB6892689B689A4201D9FFF7CE
:1021E0005FFEBFF35F8F4FF05043C3F87C3162B6A0
:1021F00010BD00BF18070120000000000000000013
:1022000010B572B64FF05044D4F87C31002BFBD09F
:10221000BFF35F8F0AF01CFE22680A4B03EB8203B8
:102220005B681A68DB6892689B689A4201D9FFF77D
:1022300037FEBFF35F8F4FF05043C3F87C3162B677
:1022400010BD00BF180701200000000000000000C2
:1022500010B572B64FF05044D4F87C31002BFBD04F
:10226000BFF35F8F0AF0F4FD22680A4B03EB820391
:102270005B681A68DB6892689B689A4201D9FFF72D
:102280000FFEBFF35F8F4FF05043C3F87C3162B64F
:1022900010BD00BF18070120000000000000000072
:1022A0004FF050420D4B116803EB810359680369ED
:1022B0008B4205D0116D890744BF4FF0FF31516546
:1022C0000022816802771B689A688A42FBD25A68AA
:1022D000C0E9003210605860704700BF1807012045
:1022E0002DE9F041856A2E6CAF6B002E00F09D80C9
:1022F00016F4F06F044623D0402327F4F0676B6494
:1023000072B64FF05042D2F87C31002BFBD0BFF3B5
:102310005F8FA06928B10023A36101234363FFF706
:10232000BFFFE06928B10023E36101234363FFF7A6
:10233000B7FFBFF35F8F4FF05043C3F87C3162B6F5
:10234000700633D5A36A27F040079B69D90616D4D7
:1023500072B64FF05042D2F87C31002BFBD0BFF365
:102360005F8FA06920B10023A3614363FFF798FF4B
:10237000BFF35F8F4FF05043C3F87C3162B672B643
:102380004FF05042D2F87C31002BFBD0BFF35F8F6F
:10239000E06920B10023E3614363FFF781FFBFF3EE
:1023A0005F8F4FF05043C3F87C3162B6F2061AD506
:1023B000402327F010076B6472B64FF05042D2F8FA
:1023C0007C31002BFBD0BFF35F8FA06920B10023CD
:1023D000A3614363FFF764FFBFF35F8F4FF0504388
:1023E000C3F87C3162B6B30618D527F0200772B661
:1023F0004FF05042D2F87C31002BFBD0BFF35F8FFF
:10240000206A20B1002323624363FFF749FFBFF333
:102410005F8F4FF05043C3F87C3162B62369AF63DE
:102420001BB12046BDE8F0411847BDE8F08100BF70
:1024300010B574460448FFF753FF0F3403D0BDE8CE
:102440001040FEF75DB910BDA80601200000000095
:1024500010B574460448FFF743FF0F3403D0BDE8BE
:102460001040FEF74DB910BDD40601200000000059
:102470004FF05042144B126810B403EB82035B68B8
:102480000268DC68C3688242A36418D00146E06C2D
:102490004BB11A68934203D09268904238BF1046FD
:1024A000DB68002BF5D1A060086810BC826C036863
:1024B0000B605960C1E902028164FFF7F1BE00239D
:1024C00010BC9360704700BF180701200000000097
:1024D0004FF0504270B513681A4D05EB83035B68EB
:1024E000DC6872B6D2F87C31002BFBD0BFF35F8F73
:1024F000036C00F13C022260616363601C60037F37
:1025000004640E2B1AD04FF050460C224FF0010CF1
:10251000336805EB83056B68D9680A771868026829
:102520001A60536080F81CC0D860FDF773FE606BC2
:10253000BFF35F8FC6F87C6162B670BDFFF7B0FE77
:10254000E1E700BF180701200000000000000000C4
:1025500010B504464121FFF7BBFF42212046FFF79B
:10256000B7FF43212046FFF7B3FF2046BDE81040E8
:102570004421FFF7ADBF00BF0000000000000000D5
:1025800010B5044672B64FF05042D2F87C31002BA1
:10259000FBD0BFF35F8F144B186820B10022426359
:1025A0001A60FFF77DFE4FF05042104B126803EBAC
:1025B00082035B681A68DB6892689B689A4201D95B
:1025C000FFF76EFCBFF35F8F4FF05043C3F87C31D1
:1025D00062B6074BDA6803F120018A4203D2217800
:1025E000501CD860117010BD0C100120180701207C
:1025F000340701200000000000000000000000007F
:1026000030B587B072B64FF05044D4F87C31002B0F
:10261000FBD0BFF35F8F2A4D23684CF2503105EB9E
:1026200083035B686846274ADB68FFF7A9FB08223B
:102630002368012405EB83035B68D9680A7718686F
:1026400002681A6053600477D860FDF7E3FD009BD1
:1026500013B16846FFF7DCFBBFF35F8F4FF05042CA
:10266000C2F87C2162B672B6D2F87C31002BFBD066
:10267000BFF35F8F144A93680133002B936016DD1C
:102680004FF050431B6805EB83056B681A68DB68E5
:1026900092689B689A4201D9FFF702FCBFF35F8FF3
:1026A0004FF05043C3F87C3162B607B030BD002113
:1026B000106803685A6013604163FFF7F1FDDFE7BC
:1026C0001807012081120020D4070120000000001B
:1026D00008B5014672B64FF05042D2F87C31002B5B
:1026E000FBD0BFF35F8F8B68002B16DD4FF050429D
:1026F000104B126803EB82035B681A68DB68926810
:102700009B689A4201D9FFF7CBFBBFF35F8F4FF075
:102710005043C3F87C3162B608BD0133012B8B6096
:10272000E4D00022086803680B6059604263FFF739
:10273000B7FDDBE7180701200000000000000000E3
:10274000F0B54FF050461C4D3368044605EB83034B
:102750005B6887B0DF684B1C1BD03B466846174A56
:10276000FFF70EFB336805EB83056A68D1680C77C9
:1027700001241068036813605A600477D060FDF785
:1027800049FD009B13B16846FFF742FB786B07B029
:10279000F0BD336805EB83056B68D9680877186866
:1027A00002681A60536001220277D860FDF732FD9B
:1027B000786B07B0F0BD00BF180701208112002020
:1027C0002DE9F0410746884672B64FF05042D2F8E4
:1027D0007C31002BFBD0BFF35F8FBB6A196C11F407
:1027E000F06F24D14FF05045164C07F1180607E062
:1027F000BB61414603205E63FFF7A2FF70B9BB6A6D
:102800009B6913F010031AD02B6804EB83035B68F9
:10281000DB68B8F1000FEBD14FF0FF30BFF35F8FF3
:102820004FF05043C3F87C3162B6BDE8F081BFF38E
:102830005F8FC2F87C2162B60120BDE8F0811846A6
:10284000ECE700BF180701200000000000000000B6
:102850002DE9F8439146002A43D004460F46984696
:1028600000264FF0504541462046FFF7A9FF0028BB
:1028700031D1A9EB060172B6D5F87C31002BFBD023
:10288000BFF35F8FA36A9A6912F0100E0FD1BC4696
:10289000394401E0614521D01B680EF1010E0CF8AE
:1028A000013BA36A9A69D206F4D576447744E2687C
:1028B000500703D5996B41F010019963910503D539
:1028C0009A6B42F040029A63BFF35F8FC5F87C5168
:1028D00062B6B145C7D83046BDE8F8837644774440
:1028E000F2E71646F7E700BF000000000000000016
:1028F0004FF0FF33FFF7ACBF000000000000000006
:10290000FFF7A6BF0000000000000000000000006C
:1029100010B54FF0FF310446FFF752FF00B110BD74
:10292000A26A10689169C0B2CB06F8D5E36859076E
:1029300003D5916B41F0100191639B05EFD5936B2B
:1029400043F04003936310BD00000000000000004E
:1029500010B50446FFF734FF00B110BDA26A10683D
:102960009169C0B2CB06F8D5E368590703D5916BDE
:1029700041F0100191639B05EFD5936B43F0400349
:10298000936310BD00000000000000000000000084
:102990002DE9F0410746884672B64FF05042D2F812
:1029A0007C31002BFBD0BFF35F8F4FF05045124CB2
:1029B00007F1200606E03B62414603205E63FFF715
:1029C000BFFE70B9BB6A9B6913F0200312D02B685D
:1029D00004EB83035B68DB68B8F1000FEBD14FF0C9
:1029E000FF30BFF35F8F4FF05043C3F87C3162B6C6
:1029F000BDE8F0811846F4E7180701200000000048
:102A00002DE9F8439146002A3BD007460E469846EA
:102A100000254FF0504441463846FFF7B9FF50BB00
:102A2000A9EB050172B6D4F87C31002BFBD0BFF3C3
:102A30005F8FBA6A936913F0200E0ED1B446314409
:102A400001E08C451AD01CF8013B0EF1010E136019
:102A500093699B06F5D575447644FB68190703D541
:102A6000936B43F020039363BFF35F8FC4F87C4103
:102A700062B6A945CFD82846BDE8F88375447644A8
:102A8000F2E71546F7E700BF000000000000000075
:102A90004FF0FF33FFF7B4BF00000000000000005C
:102AA000FFF7AEBF000000000000000000000000C3
:102AB00038B50D464FF0FF310446FFF769FF00B10E
:102AC00038BDA36A1D609A699106F9D5E2681207BC
:102AD000F6D59A6B42F020029A6338BD00000000E0
:102AE00038B50D4611460446FFF752FF00B138BD18
:102AF000A36A1D609A699106F9D5E2681207F6D5B6
:102B00009A6B42F020029A6338BD00BF00000000BB
:102B1000012330B5704D87B02B60FDF701FDC20772
:102B20000DD4EFF30583C3F30803002B00F0C3803B
:102B3000BFF35F8F4FF05043C3F87C3162B602237E
:102B40002B6072B64FF05041D1F87C31002BFBD096
:102B5000BFF35F8FFDF7E4FCC3070BD4EFF30583EE
:102B6000C3F30803002B00F09180BFF35F8FC1F81F
:102B70007C1162B6BFF35F8F4FF05042C2F87C21E8
:102B800062B603232B60EFF31083DC0706D472B622
:102B9000D2F87C31002BFBD0BFF35F8FEFF31083B3
:102BA000D80708D472B64FF05042D2F87C31002BCF
:102BB000FBD0BFF35F8FBFF35F8F4FF05042C2F87F
:102BC0007C2162B604232B6072B6D2F87C31002BD4
:102BD000FBD0BFF35F8FEFF31083D90704D5BFF3AA
:102BE0005F8FC2F87C2162B6EFF31083DB0706D556
:102BF000BFF35F8F4FF05043C3F87C3162B60522BC
:102C000000232A60009372B64FF05042D2F87C3114
:102C1000002BFBD0BFF35F8F009B6C4613B12046A7
:102C2000FFF7F6F80023012120462C4AFFF7A8F809
:102C3000BFF35F8F4FF05044C4F87C4162B672B668
:102C4000D4F87C31002BFBD0BFF35F8F0A21082022
:102C5000FFF776FDBFF35F8FC4F87C4162B672B6B2
:102C60004FF05042D2F87C31002BFBD0BFF35F8F86
:102C7000009BBFF35F8FC2F87C2162B623B140F2A4
:102C80000113174AAB80AA6007B030BD0A68154B24
:102C900003EB82035B681A68DB6892689B689A4260
:102CA00001D9FFF7FDF8BFF35F8F4FF05043C3F832
:102CB0007C3162B65EE74FF050420A4B126803EB7C
:102CC00082035B681A68DB6892689B689A427FF6A9
:102CD0002FAFFFF7E5F82BE7340701202121002073
:102CE0000CDD00201807012000000000000000009B
:102CF0002DE9F84F0123DFF8F890C9F8003072B6DB
:102D00004FF05041D1F87C31002BFBD0BFF35F8FE7
:102D1000DFF8E0800B68384A08EB8303906AD3F849
:102D200004C0DCE90A23801A861843F10007CCE9C5
:102D30000A67BFF35F8FC1F87C1162B672B64FF0BD
:102D4000504ADAF87C31002BFBD0BFF35F8F0121B2
:102D50000820FFF7F5FCBFF35F8FCAF87CA162B6CD
:102D600072B64FF05042D2F87C31002BFBD0BFF34B
:102D70005F8FDFF884C0DCF828A0BFF35F8FC2F854
:102D80007C2162B64FF05042DFF870E072B6D2F8A4
:102D90007C31002BFBD0BFF35F8F1168DCF828304B
:102DA00008EB8101D1F804B0DBE90A011B1A1C18F9
:102DB00041F10005CBE90A45BFF35F8FC2F87C21E2
:102DC00062B6B44275EB070308D3DCF82830A3EBF6
:102DD0000A03734509D826462F46D7E740F2011368
:102DE000074AA9F80430C9F80820BDE8F88F00BFE9
:102DF0003407012018070120004005403F420F0022
:102E000020DD0020000000000000000000000000A5
:102E10000122F0B55B4D5C4B2A6087B09E6A72B6AA
:102E20004FF05044D4F87C31002BFBD0BFF35F8FC0
:102E3000564F2368642107EB83035B686846DB68B1
:102E4000534AFEF79DFF08222368012407EB8307FE
:102E50007B68D9680A77186802681A60536004773B
:102E6000D860FDF7D7F9009B13B16846FEF7D0FF95
:102E7000BFF35F8F4FF05044C4F87C4162B6424AC2
:102E8000936A643B9B1B142B75D802232B60966AB4
:102E900072B6D4F87C31002BFBD0BFF35F8F3D4975
:102EA0000820FFF74DFCBFF35F8FC4F87C4162B68A
:102EB000354A936AA3F5C333A03B9B1B142B5AD806
:102EC00003232B60966A72B64FF05044D4F87C31DD
:102ED000002BFBD0BFF35F8F2E490820FFF730FC9B
:102EE000BFF35F8FC4F87C4162B6274A936AA3F5AB
:102EF000C333A03B9B1B142B3DD804232B60966A45
:102F000072B64FF05044D4F87C31002BFBD0BFF3A5
:102F10005F8F21490820FFF713FCBFF35F8FC4F8D0
:102F20007C4162B6184A936AA3F57423A3F5107323
:102F30009B1B142B1FD805232B60946A72B64FF08D
:102F40005042D2F87C31002BFBD06434BFF35F8F4A
:102F50000D4B996A611A02D00820FFF7F1FBBFF30D
:102F60005F8F4FF05043C3F87C3162B6064B9B6ACB
:102F70001C1B142C04D940F20113084AAB80AA6030
:102F800007B0F0BD340701200040054018070120BC
:102F900081120020A086010040420F0030DD002099
:102FA00038B5054672B64FF05044D4F87C31002B4A
:102FB000FBD0BFF35F8F4CF250310820FFF7C0FB0E
:102FC000BFF35F8FC4F87C4162B672B64FF05042D7
:102FD000D2F87C31002BFBD0BFF35F8F6B6C2A7F64
:102FE00043F001030A2A6B6422D00B2A16D04FF05B
:102FF0005042144B126803EB82035B681A68DB686B
:1030000092689B689A4201D9FEF74AFFBFF35F8F2F
:103010004FF05043C3F87C3162B638BD6A6B32EA78
:103020000303E4D1002328466B63FFF739F9DEE799
:103030006A6B1342DBD0002328466B63FFF730F93D
:10304000D5E700BF180701200000000000000000C5
:1030500038B572B64FF05044D4F87C31002BFBD019
:10306000BFF35F8F23480AF0BBF8234D236805EBBD
:1030700083035B681A68DB6892689B689A4201D98F
:10308000FEF70EFFBFF35F8F4FF05044C4F87C4152
:1030900062B672B6D4F87C31002BFBD0BFF35F8FE1
:1030A0004CF250310820FFF74BFBBFF35F8FC4F8A1
:1030B0007C4162B672B64FF05044D4F87C31002B9C
:1030C000FBD0BFF35F8F0D480AF08AF8236805EB49
:1030D00083056B681A68DB6892689B689A4201D91D
:1030E000FEF7DEFEBFF35F8F4FF05043C3F87C3135
:1030F00062B638BDD405012018070120D80501208B
:103100002DE9F041054672B64FF05044D4F87C31B9
:10311000002BFBD0BFF35F8F01210820FFF710FBCE
:10312000BFF35F8FC4F87C4162B672B64FF0504275
:10313000D2F87C31002BFBD0BFF35F8F0D4ED6F859
:103140002880BFF35F8FC2F87C2162B600240A4F4B
:1031500001212846FFF7BCF9B36A0134A3EB080349
:10316000BB42F5D900212846FFF7B2F92046BDE859
:10317000F08100BF004005403F420F00000000000A
:103180004FF0504C244BDCF8002010B403EB8203CA
:103190005C680369E2689C42416315D0DCF850200A
:1031A000920744BF4FF0FF32CCF8542000228168D0
:1031B00002771B689A688A42FBD25A68C0E90032DB
:1031C0001060586010BC7047836891688B4217D9B3
:1031D0004FF0000C136982F81CC01B68D3F808C0BC
:1031E0006145FAD34FF0010C5968C2E900310A6019
:1031F0005A60114680F81CC0E06010BCFDF70AB8A8
:10320000002202772468A2689342FBD96368C0E970
:10321000004318606060D5E7180701200000000037
:103220002DE9F8434FF050444FF00E080127224E8D
:1032300072B6D4F87C31002BFBD0BFF35F8F2368CC
:1032400006EB83035B68D3F80C904D4655F83C0FB2
:10325000A8421ED00D220368C9F83C305D60027799
:10326000BFF35F8FC4F87C4162B6456B72B6D4F889
:103270007C31002BFBD0BFF35F8F2946FFF780FF27
:10328000BFF35F8FC4F87C4162B6002DD0D1BDE89A
:10329000F883236806EB83035B68D96881F81C8098
:1032A000186802681A6053600777D860FCF7B2FFAD
:1032B000D9F83C00CEE700BF18070120000000004D
:1032C0002DE9F04F4FF050474FF0FF0903464FF004
:1032D000010E4FF00C0C3C68624AC3E90C4152F8F5
:1032E000340002EBC402566820F0030200F0030829
:1032F00002F1604202F56142B6014FEAC80809FADC
:1033000008F906FA08F8D2F80063574D26EA0906CC
:1033100046EA0806C2F800634209920000F01F0066
:1033200002F160420EFA00F002F5614205EB8406FC
:10333000C2F8800173601060C7F850C0002C40F0E4
:1033400082804A48D0F80C2322F07F4242F040426B
:10335000C0F80C234FF40042026003F11000002279
:10336000C3E904004FF0FF3014248026C3E90602AD
:103370003F481C629A60D0F828B00124D1E901705E
:10338000C3F89060C3E92770C3F8D46017465E465F
:103390004FF0020A3748D5F81490C3F8A80003F19B
:1033A000C400C3E9310003F1880003F1AC0ED8601A
:1033B00003F1C000C3E90A67C3E92D22C3E9332240
:1033C00083F8A52083F8A640C3F8B090C3F8C000E6
:1033D000C3F8D820C3E90033C3F89830C9F800E037
:1033E00083F8A440D1E90316D964234903F1740892
:1033F0009965A6F124015964204903F17007C3E9D6
:103400001922C3E91F22C3E91D881F67A3F854A02E
:103410001E651C649B64C3F8844083F8564046E9EB
:103420000512174A03F15C0C46F8042C154AC3F840
:10343000ACC0C3E9172EC5F814C003F13800BDE8CD
:10344000F04FFEF72DBF012C87D10848D0F810238C
:1034500022F0FF0242F0C002C0F810234FF4803285
:1034600002607AE714F900201807012000E100E06B
:103470000040054044DD00204CDD002061050020B7
:103480003502002028070120000000000000000095
:1034900002462DE9F0410021022483685568A3F11A
:1034A000500043E90F53D56803F8344C03F8331C3C
:1034B000916943F8485C91B31D4C4FF0010E43F8FD
:1034C000401C002103F832EC43E9091143E90311E0
:1034D000A3F11406116843E9056643F8301C11692D
:1034E0005269DFF850C043F8602C134F626943F80B
:1034F000045C43F8641CA3F12C05A3F11808A3F1A4
:10350000740143F8188C43F854CC43F82C7C43F8EE
:10351000282C43F8441C15606561BDE8F0814FF02C
:103520005041034C096804EB81014968C5E700BFBD
:1035300018070120350200202807012000000000A4
:103540004FF0504C70B500264FF0020EDCF80040F2
:103550002C4D014405EB8404646801F8336C41F898
:103560003C0C01F834EC41F8381C41F8482CA1F12E
:103570005006002C40D041F8643C234B012041F818
:10358000543C002341F8042C049A41F8404C41F883
:10359000602CA1F1180241F8182C1C4A41E90933AA
:1035A00041F8302CA1F1140241E90522A1F1740285
:1035B00041F8442C41E9033301F8320C72B64FF064
:1035C0005044D4F87C31002BFBD0BFF35F8F104800
:1035D0006A69A1F12C0341F8282C41F82C0C1360E6
:1035E000002130466B61FFF7CBFDBFF35F8FC4F85E
:1035F0007C4162B6304670BDDCF8000005EB80000F
:103600004468B8E7180701203502002054DD002087
:10361000280701200000000000000000000000005A
:10362000F0B501274FF0504600251A4C1A4A276082
:10363000366883B002EB860252684FF4CC71D268D0
:10364000164B9268164800953A44FFF779FF02231B
:10365000144A2360106009F0A3FE134B1D689D42BD
:1036600011D1AB6843B90323236009F099FE2B689D
:10367000AB4208D19B6823B140F201130B4AA380EF
:10368000A26003B0F0BD40F20113094AA380A2601A
:1036900003B0F0BD34070120180701204148002085
:1036A00000080120F80F0120D40701206CDD002064
:1036B0005CDD0020000000000000000000000000B1
:1036C0004FF0504370B51B68194D05EB83035B68E1
:1036D000DC68A36B04F138069E42606315D1A37FBA
:1036E000F3B14FF050430F2201241B6805EB830513
:1036F0006B68D9680A77186802681A6053600477A3
:10370000BDE87040D860FCF785BD1A681846A26312
:10371000FEF7C6FDA36B9E42F7D1A37F002BE0D13D
:10372000E36A002BDDD1D4E9093213605A60D8E78F
:103730001807012000000000000000000000000049
:1037400072B64FF05042D2F87C31002BFBD0BFF361
:103750005F8FFFF7B5BF00BF000000000000000052
:103760002DE9F04F4FF050448A4D23688A4A05EB0B
:1037700083035B689BB0DB6888498046D0E90070B2
:103780001A6201903846FDF763FE38468449FDF71A
:103790005FFE236805EB83035B68DB6893F91D30EC
:1037A000002BC0F2A080DFF8FCA1DFF8F0910AAE98
:1037B000354651463846FDF74BFED8F800402368A1
:1037C000012220469B680DF10F019847002800F068
:1037D000A7809DF80F10042900F09E8008290DF1A4
:1037E000670310D07F290ED00D291FD01F29E6D9DD
:1037F0009D42E4D223682046DB6898479DF80F304D
:1038000005F8013BDBE7B542D9D023680821DB6826
:103810002046984723682021DB6820469847236884
:1038200008212046DB689847013DC8E74FF0000BB0
:1038300049462046FDF70CFE04A985F800B0304645
:10384000FEF72EF904A90546002005ACFEF728F97D
:1038500060B1BBF1040F58D044F8040B04A9002058
:103860000BF1010BFEF71CF90028F2D11AAB03EBA8
:103870008B0343F8540C4DB328464B49FCF764FDC9
:10388000002856D1BBF1000F64D138464749FDF7F7
:10389000DFFD474C474A484D29463846FDF7D8FDDD
:1038A00054F8082F002AF7D1019B5BB11A684AB17E
:1038B0001C46414D29463846FDF7CAFD54F8082FED
:1038C000002AF7D149463846FDF7C2FD4FF0504374
:1038D000304A1B6802EB83035B68DB6893F91D3099
:1038E000002BBFF665AF72B64FF05042D2F87C3174
:1038F000002BFBD0BFF35F8F304809F071FC002034
:10390000FFF7DEFE1BB0BDE8F08F38462C49FDF70F
:103910009FFD00230993D9E720462A49FDF798FD2A
:1039200038461E49FDF794FD38462749FDF790FDBE
:10393000D9E71F4C1F4802E054F8080F80B1294610
:10394000FCF702FD0028F7D159463846636805AAFE
:103950009847BBE73846144A1C49FDF779FDB5E79F
:10396000019B63B1186850B11C4602E054F8080F7F
:1039700028B12946FCF7E8FC0028F7D1E4E72A46FD
:1039800038461349FDF764FD38461249FDF760FDDE
:103990009CE700BF1807012088DD0020E00401201B
:1039A00090DD0020A4DD0020D0DD0020D8DD002047
:1039B000B400012080DD0020E8DD0020EC070120BC
:1039C000B8DD0020ACDD0020B0DD0020B0DA002042
:1039D000ECDD0020F0DD0020000000000000000011
:1039E000002911DC08B572B64FF05042D2F87C3194
:1039F000002BFBD0BFF35F8F054809F0F1FBBDE85A
:103A000008400020FFF75CBE024A0349FDF720BDD5
:103A1000EC07012080DD0020B0DA0020000000006B
:103A200072B64FF05042D2F87C31002BFBD0BFF37E
:103A30005F8FFFF745BE00BF0000000000000000E0
:103A40004FF0504238B518491368044601EB830320
:103A50005B68D86872B6D2F87C31002BFBD0BFF31C
:103A60005F8F237F0F2B12D01368A26B01EB8301B2
:103A70004B68026009220125D968A0630A7718689B
:103A800002681A6053600577D860FCF7C3FB656B6A
:103A9000BFF35F8F4FF05043C3F87C3162B62046CE
:103AA000FCF766FD284638BD18070120000000001D
:103AB0000123F0B5634C83B0236072B64FF05042DF
:103AC000D2F87C31002BFBD0BFF35F8F5E4D1368C3
:103AD00005EB83035B68D9684B6C43F007034B64C9
:103AE000BFF35F8FC2F87C2162B60223236009F026
:103AF0003FFB012840F08D8009F03AFB022840F09E
:103B0000888009F035FB042840F0838072B64FF0BE
:103B10005042D2F87C31002BFBD0BFF35F8F0020E6
:103B2000136805EB83035B68DB68596C5864BFF36B
:103B30005F8FC2F87C2162B6002977D1032323600E
:103B400072B64FF05046D6F87C31002BFBD0BFF355
:103B50005F8F01210820FEF7F3FDBFF35F8FC6F8EA
:103B60007C6162B672B64FF05042D2F87C31002BC5
:103B7000FBD0BFF35F8F354FBE6ABFF35F8FC2F8D4
:103B80007C2162B61168136805EB8102526805EB6F
:103B90008303D2685B689268DB684FF4CC71009352
:103BA000013A2B4B2B48FFF7CBFC042323602A4B15
:103BB000186009F0DDFABB6AA3F54343503B9B1B39
:103BC000B3F5FA6F2CD2012836D172B64FF05042BD
:103BD000D2F87C31002BFBD0BFF35F8F002113683C
:103BE00005EB83056B68DB685E6C5964BFF35F8F20
:103BF000C2F87C2162B6CEB9174C04F1140554F812
:103C0000040B18B1FFF71CFF44F8046CA542F6D171
:103C100004E040F20113114AA380A26003B0F0BD9A
:103C200040F201130E4AA380A260F7E740F20113AD
:103C30000C4AA380A260F1E740F201130A4AA38074
:103C4000A260EBE73407012018070120004005407F
:103C5000A12F002000080120F80F0120F8DD00202E
:103C600030DD00200CDE002018DE00200000000007
:103C700001222DE9F0434FF050444C4E4C4D326040
:103C800022684C4F05EB8202526883B0D2684FF431
:103C9000CC719268484B0097013A4848FFF750FCB6
:103CA000474B186072B6D4F87C31002BFBD0BFF3C1
:103CB0005F8F03224FF0010C2368424F05EB830313
:103CC0005B68DB685F633B60236805EB83035B68CD
:103CD000D3F80C80236805EB83035B68D9680A7707
:103CE000186802681A60536080F81CC0D860FCF73E
:103CF00091FAD8F83480BFF35F8FC4F87C4162B684
:103D00003B68002B43D1B8F1000F38D12C4C04F1A3
:103D1000140954F8040B18B1FFF792FE44F8048C10
:103D2000A145F6D10223336072B64FF05044D4F867
:103D30007C31002BFBD0BFF35F8FDFF88C9042F219
:103D40001071D9F828802368032005EB83056B6880
:103D5000DB685F633B60FEF7F3FCBFF35F8FC4F883
:103D60007C4162B6D9F82830A3F51C53103BA3EB75
:103D70000803142B13D83B684BB901300CD040F228
:103D80000113124AB380B26003B0BDE8F08340F281
:103D900001130F4AB380B26003B0BDE8F08340F274
:103DA00001130C4AB380B260F6E700BF340701206C
:103DB000180701202CDE00208125002000080120AA
:103DC000F80F01200C100120004005403CDE0020CF
:103DD00030DE002030DD0020000000000000000088
:103DE00070B50026064C04F1140554F8040B18B104
:103DF000FFF726FE44F8046CAC42F6D170BD00BF5C
:103E0000F80F01200000000000000000000000008A
:103E100070B50026064C04F1140554F8040B18B1D3
:103E2000FFF70EFE44F8046CAC42F6D170BD00BF43
:103E3000F80F01200000000000000000000000005A
:103E400070B50026064C04F1140554F8040B18B1A3
:103E5000FFF7F6FD44F8046CAC42F6D170BD00BF2C
:103E6000F80F01200000000000000000000000002A
:103E70000123F0B55F4C83B0236072B64FF050421F
:103E8000D2F87C31002BFBD0BFF35F8F5A4D136803
:103E900005EB83035B68D9684B6C43F005034B6407
:103EA000BFF35F8FC2F87C2162B60223236009F062
:103EB00027F9052840F0838072B64FF05042D2F8BF
:103EC0007C31002BFBD0BFF35F8F0020136805EB24
:103ED00083035B68DB68596C5864BFF35F8FC2F87B
:103EE0007C2162B6002977D10323236072B64FF09C
:103EF0005046D6F87C31002BFBD0BFF35F8F0121F9
:103F00000820FEF71DFCBFF35F8FC6F87C6162B628
:103F100072B64FF05042D2F87C31002BFBD0BFF389
:103F20005F8F364FBE6ABFF35F8FC2F87C2162B6E7
:103F30001168136805EB8102526805EB8303D268B0
:103F40005B689268DB684FF4CC710093013A2C4BAC
:103F50002C48FFF7F5FA042323602B4B186009F077
:103F6000CFF8BB6AA3F54343503B9B1BB3F5FA6FF5
:103F70002CD2012837D172B64FF05042D2F87C31A2
:103F8000002BFBD0BFF35F8F0021136805EB830587
:103F90006B68DB685D6C5964BFF35F8FC2F87C218E
:103FA00062B6CDB9184C04F1140654F8040B18B1DC
:103FB000FFF746FD44F8045CB442F6D104E040F259
:103FC0000113124AA380A26003B0F0BD40F20113B6
:103FD0000F4AA380A260F7E740F201130D4AA380C5
:103FE000A26003B0F0BD40F201130B4AA380A260AF
:103FF000EAE700BF34070120180701200040054010
:10400000A12F002000080120F80F012054DE00201D
:1040100030DD00200CDE002018DE00200000000053
:104020000123F0B56C4C83B0236072B64FF0504260
:10403000D2F87C31002BFBD0BFF35F8F674D136844
:1040400005EB83035B68D9684B6C43F005034B6455
:10405000BFF35F8FC2F87C2162B60223236009F0B0
:1040600017F8052840F09D8072B64FF05042D2F804
:104070007C31002BFBD0BFF35F8F0020136805EB72
:1040800083035B68DB68596C5864BFF35F8FC2F8C9
:104090007C2162B6002940F091800323236072B630
:1040A0004FF05042D2F87C31002BFBD0BFF35F8F32
:1040B000136805EB83035B68D9684B6C43F004031A
:1040C0004B64BFF35F8FC2F87C2162B60423236088
:1040D00072B64FF05046D6F87C31002BFBD0BFF3C0
:1040E0005F8F01210820FEF72BFBBFF35F8FC6F81F
:1040F0007C6162B672B64FF05042D2F87C31002B30
:10410000FBD0BFF35F8F364FBE6ABFF35F8FC2F83D
:104110007C2162B61168136805EB8102526805EBD9
:104120008303D2685B689268DB684FF4CC710093BC
:10413000013A2C4B2C48FFF703FA052323602B4B45
:10414000186008F0A5FFBB6AA3F54343503B9B1BD7
:10415000B3F5FA6F2CD2052837D172B64FF0504222
:10416000D2F87C31002BFBD0BFF35F8F00211368A6
:1041700005EB83056B68DB685D6C5964BFF35F8F8B
:10418000C2F87C2162B6CDB9184C04F1140654F87B
:10419000040B18B1FFF754FC44F8045CB442F6D1A8
:1041A00004E040F20113124AA380A26003B0F0BD04
:1041B00040F201130F4AA380A260F7E740F2011317
:1041C0000D4AA380A26003B0F0BD40F201130B4A78
:1041D000A380A260EAE700BF34070120180701208E
:1041E00000400540A12F002000080120F80F012009
:1041F00054DE002030DD00200CDE00206CDE0020CC
:1042000001232DE9F04F834F8DB03B6072B64FF024
:104210005042D2F87C31002BFBD0BFF35F8F7E4E33
:104220001368002106EB83035B687C4CDB680DF1AF
:104230001C0808930123CDE909314FF0FF332168B1
:104240000B930791C4F80080BFF35F8FC2F87C2105
:1042500062B672B64FF05042D2F87C31002BFBD0E0
:10426000BFF35F8F042500204FF0FF3113680DF17D
:10427000080906EB83035B68DB68CDE90501CDE93E
:104280000335674D2B68C5F800900293BFF35F8F2D
:10429000C2F87C2162B602233B6072B64FF0504AEE
:1042A000DAF87C31002BFBD0BFF35F8F01210820AF
:1042B000FEF746FABFF35F8FCAF87CA162B672B60A
:1042C0004FF05042D2F87C31002BFBD0BFF35F8F10
:1042D000DFF850A1DAF828B0BFF35F8FC2F87C2175
:1042E00062B613684FF4CC7106EB83035B684E48EB
:1042F000DB689A684D4B013A00934D4BFFF720F96C
:1043000003233B604B4B186008F0C2FEDAF82830FC
:10431000A3F54343503BA3EB0B03B3F5FA6F63D212
:1043200072B64FF05042D2F87C31002BFBD0BFF375
:104330005F8F0021136806EB83067368DB68D3F890
:1043400044A05964BFF35F8FC2F87C2162B6BAF112
:10435000000F51D1374E06F1140B56F8040B18B16B
:10436000FFF76EFB46F804AC5E45F6D104233B60D4
:1043700072B64FF05042D2F87C31002BFBD0BFF325
:104380005F8F264B01E0434541D01A461B68A3428C
:10439000F9D1BFF35F8F4FF05042C2F87C2162B673
:1043A00072B6D2F87C31002BFBD0BFF35F8F1C4B71
:1043B00001E04B4528D01A461B68AB42F9D1BFF348
:1043C0005F8F4FF05043C3F87C3162B62368A3423D
:1043D00002D12B68AB420CD040F20113164ABB80CD
:1043E000BA600DB0BDE8F08F40F20113134ABB80F4
:1043F000BA600DB0BDE8F08F40F20113104ABB80E7
:10440000BA600DB0BDE8F08F029B1360D7E7079B41
:104410001360BEE73407012018070120D4050120EE
:10442000D805012000400540000801202CDE0020B6
:1044300051300020F80F012090DA002030DD0020FC
:104440000CDE002000000000000000000000000062
:10445000014B9B6A836070470040054000000000EC
:104460000E4B0F4A9B6AD26881689B1A5B1A10B484
:10447000D0E90342D21841690261426841F100016A
:104480009342026804F1010488BF43609342C0E98B
:104490000234416110BC38BF0360704700400540E2
:1044A00018070120000000000000000000000000CC
:1044B00038B572B64FF05042D2F87C31002BFBD0A9
:1044C000BFF35F8F8368013B002B836008DB002014
:1044D000BFF35F8F4FF05043C3F87C3162B638BDF5
:1044E00011680E4B456803EB81014968CC68606335
:1044F000126803EB820305225B682060D96865605F
:104500002C60012544600A77186802681A605360BD
:104510000577D860FBF77EFE606BD9E718070120AE
:1045200010B504460648FFF7C3FF064BDA6803F1EF
:1045300020018A4203D22178501CD860117010BD2E
:10454000D407012034070120000000000000000013
:1045500001220023F0B58F4D87B003ACCDE90344B1
:104560002A60059372B64FF05042D2F87C31002B8E
:10457000FBD0BFF35F8F059B002B00F3D280BFF30E
:104580005F8FC2F87C2162B60223002120462B6097
:1045900008F0AEFE72B64FF05042D2F87C31002BDC
:1045A000FBD0BFF35F8F059B002B00F3BA80BFF3F6
:1045B0005F8FC2F87C2162B603272F601268764EA7
:1045C0004FF4CC7106EB82025268744BD268744887
:1045D00092680094013AFEF7B3FF0422714B2A60FF
:1045E00018602046FFF764FF72B64FF05042D2F8D1
:1045F0007C31002BFBD0BFF35F8F059B002B00F3BA
:104600009080BFF35F8FC2F87C2162B6002840F033
:10461000A68005232B6072B64FF05042D2F87C3151
:10462000002BFBD0BFF35F8F059B002B40F38980ED
:104630004FF050431B6806EB83035B681A68DB6826
:1046400092689B689A4201D9FDF72AFCBFF35F8FFD
:104650004FF05042C2F87C2162B672B6D2F87C317B
:10466000002BFBD0BFF35F8F059B002B65DDBFF3F5
:104670005F8FC2F87C2162B672B64FF05042D2F81A
:104680007C31002BFBD0BFF35F8F059B012B6CD1DE
:10469000BFF35F8FC2F87C2162B606232B6072B62F
:1046A0004FF05042D2F87C31002BFBD0BFF35F8F2C
:1046B000059B002B61DD4FF050431B6806EB830622
:1046C00073681A68DB6892689B689A4201D9FDF7A3
:1046D000E7FBBFF35F8F4FF05042C2F87C2162B618
:1046E00072B6D2F87C31002BFBD0BFF35F8F059BF5
:1046F000002B3EDDBFF35F8FC2F87C2162B672B63D
:104700004FF05042D2F87C31002BFBD0BFF35F8FCB
:10471000059B012B29D1BFF35F8FC2F87C2162B6C4
:1047200009E040F201132049A960AB80BFF35F8F1D
:10473000C2F87C2162B607B0F0BD40F201131B49FC
:10474000F2E70133012B05933FF472AF039803683E
:104750005C60039300234363FDF7A2FD68E740F22A
:104760000113134AAB80AA60E5E740F20113114937
:10477000DAE740F201131049D6E70133012B059324
:1047800099D00022039803685C6042630393FDF7AD
:1047900087FD90E73407012018070120D12600206B
:1047A00000080120F80F012080DE0020A0DE00209C
:1047B0008CDE0020ACDE002084DE00200000000043
:1047C00070B54FF050440C4D236805EB83035B68D4
:1047D000DB6893F91D30002B0CDB084E3046FFF7E9
:1047E00067FE236805EB83035B68DB6893F91D3084
:1047F000002BF3DA70BD00BF18070120E00701208D
:1048000010B5044672B64FF05042D2F87C31002BFE
:10481000FBD0BFF35F8FA3680133002BA36007DDDC
:10482000BFF35F8F4FF05043C3F87C3162B610BDC9
:1048300020680021036823605C60FEF7A1FCEFE7BD
:1048400010B5044C2046FFF733FE2046BDE810406B
:10485000FFF7D6BFD40701200000000000000000D1
:1048600038B501232B4C2C482360FFF721FE72B68C
:104870004FF05042D2F87C31002BFBD0BFF35F8F5A
:10488000254DAB68002B34D1BFF35F8FC2F87C217C
:1048900062B6002838D1022328462360FFF7B0FF14
:1048A00072B64FF05042D2F87C31002BFBD0BFF3F0
:1048B0005F8FAB68012B1CD1BFF35F8FC2F87C21E7
:1048C00062B6032302211448236008F011FD72B67A
:1048D0004FF05042D2F87C31002BFBD0BFF35F8FFA
:1048E000AB68022B05D1BFF35F8FC2F87C2162B6A3
:1048F00038BD40F201130949A380A160BFF35F8F67
:10490000C2F87C2162B638BD40F20113044AA3808C
:10491000A26038BD34070120D4070120C0DE00208A
:104920003CDE00200000000000000000000000004D
:10493000F8B54FF05043384E1B68044606EB83032E
:104940005B688068DD68002834D0AB6882689A4272
:1049500006D28360037F062B45D0072B2FD013B3DD
:10496000234603E09968AA68914202D31B689C42DF
:10497000F8D14FF050415A68C5E90032156006225F
:104980005D606C6301240B6806EB83067368D9686D
:104990000A77186802681A6053600477D860BDE827
:1049A000F840FBF737BCD0E9003213605A60FDF7DE
:1049B00077FCD5E7AB6CC4E90253AC64F8BD476B38
:1049C000416802683B460A60516003E0996882686A
:1049D000914202D31B689F42F8D15A68036042603B
:1049E00010605860BCE7476B416802683B460A604C
:1049F000516003E099688268914202D31B689F422C
:104A0000F8D15A680360426010605860B868AB68BB
:104A100082689A429DD3A3E7180701200000000096
:104A200030B587B072B64FF05044D4F87C31002BCB
:104A3000FBD0BFF35F8F244D2368684605EB8303EB
:104A40005B68224ADB682249FDF79AF9082223684D
:104A5000012405EB83035B68D9680A77186802684C
:104A60001A6053600477D860FBF7D4FB009B13B146
:104A70006846FDF7CDF9BFF35F8F4FF05044C4F89F
:104A80007C4162B672B6D4F87C31002BFBD0BFF308
:104A90005F8F1048FFF74CFF0E48FDF7E9FC2368D5
:104AA00005EB83056B681A68DB6892689B689A421D
:104AB00001D9FDF7F5F9BFF35F8F4FF05043C3F80D
:104AC0007C3162B607B030BD18070120811200208A
:104AD000F0490200EC050120000000000000000089
:104AE0004FF0504238B5214C1368014604EB830364
:104AF0005B68DD6872B6D2F87C31002BFBD0BFF367
:104B00005F8F0A68CB688A42AB642CD0E86C4BB1EB
:104B10001A68934203D09268904238BF1046DB680F
:104B2000002BF5D1A8600868826C03680B6059609F
:104B3000C1E902028164FDF7B3FB4FF050431B68EB
:104B400004EB830463681A68DB6892689B689A4286
:104B500001D9FDF7A5F9BFF35F8F4FF05043C3F8BC
:104B60007C3162B638BD00238B60F4E71807012062
:104B7000002940DCF8B5064672B64FF05044D4F830
:104B80007C31002BFBD0BFF35F8F1F4D05F114006C
:104B9000FFF7CEFEBFF35F8FC4F87C4162B6EB68CF
:104BA0006BB3002422462746D3E900318C4238BF3C
:104BB0000C4601370A44002BF6D1D500E400134817
:104BC000FFF78EFF124B3046D3E900321149D21A5B
:104BD000FCF73EFC3A4630460F49FCF739FC2A46C2
:104BE00030460E49FCF734FC22463046BDE8F8401A
:104BF0000B49FCF72DBC0B4A0B49FCF729BC1C46A2
:104C00001D461F46DBE700BF5C070120700701203F
:104C100010070120D8DE0020F8DE002010DF002081
:104C200030DF0020D4DE0020B0DA002000000000D9
:104C300038B5054672B64FF05044D4F87C31002B9D
:104C4000FBD0BFF35F8F0B48FFF772FEBFF35F8FA0
:104C5000C4F87C4162B6084BDA6803F120018A424D
:104C600003D22978501CD86011700248BDE8384042
:104C7000FFF736BFDC0501203407012000000000EB
:104C800030B587B072B64FF05044D4F87C31002B69
:104C9000FBD0BFF35F8F1E4D23684CF2503105EB04
:104CA00083035B6868461B4ADB68FDF769F80822E6
:104CB0002368012405EB83056B68D9680A771868B7
:104CC00002681A6053600477D860FBF7A3FA009B70
:104CD00013B16846FDF79CF8BFF35F8F4FF0504467
:104CE000C4F87C4162B672B6D4F87C31002BFBD09C
:104CF000BFF35F8F0848FFF71BFEBFF35F8FC4F859
:104D00007C4162B6044807B0BDE83040FFF7E8BE1A
:104D10001807012081120020DC050120000000009E
:104D20002DE9F041064672B64FF05044D4F87C317C
:104D3000002BFBD0BFF35F8F2D48FFF7F9FDBFF3CA
:104D40005F8FC4F87C4162B672B64FF05042D2F821
:104D50007C31002BFBD0BFF35F8F264F13681268A6
:104D600007EB830307EB820251685A68CB68D4686B
:104D7000D3F84880204D4046FDF77AFB2B4665630B
:104D800003E09968A268914202D31B68AB42F8D154
:104D90004FF0504507204FF0010C5A6823606260C5
:104DA00014605C602B6807EB83077B68D968087721
:104DB000186802681A60536080F81CC0D860FBF75E
:104DC00029FA4046FFF7B4FDBFF35F8FC5F87C5169
:104DD00062B60A4BDA6803F120018A4203D23178C5
:104DE000501CD86011700248BDE8F041FFF778BE52
:104DF000DC05012018070120CC0501203407012023
:104E0000F8B5054672B64FF05044D4F87C31002B0B
:104E1000FBD0BFF35F8F3C48FFF78AFDBFF35F8F86
:104E2000C4F87C4162B672B64FF05044D4F87C317D
:104E3000002BFBD0BFF35F8F3448FFF779FDBFF342
:104E40005F8FC4F87C4162B672B64FF05042D2F820
:104E50007C31002BFBD0BFF35F8F2D4E136812689F
:104E600006EB830306EB820251685A68CB68D4686C
:104E70009F6C3846FDF7FCFA26480346606303E062
:104E80009968A268914202D31B688342F8D14FF01F
:104E9000504107204FF0010C5A6823606260146093
:104EA0000A685C600B6806EB820206EB8306736897
:104EB0005268D968D4680877186802681A60536025
:104EC00080F81CC0D860FBF7A5F9636B013302D0F2
:104ED0003846FFF72DFDBFF35F8F4FF05043C3F807
:104EE0007C3162B60C4BDA6803F120018A4203D2AE
:104EF0002978501CD86011700448FFF7F1FDBDE817
:104F0000F8400148FFF7ECBDEC050120DC0501206D
:104F100018070120CC050120340701200000000003
:104F200038B5054672B64FF05044D4F87C31002BAA
:104F3000FBD0BFF35F8F0B48FFF7FAFCBFF35F8F27
:104F4000C4F87C4162B6084BDA6803F120018A425A
:104F500003D22978501CD86011700248BDE838404F
:104F6000FFF7BEBDEC050120340701200000000062
:104F70002DE9F0474FF05044022622685A4F5B4D0E
:104F800007EB820252682E60D268DFF864C196682F
:104F900082B006F101084246CDF800C04FF4CC7152
:104FA000544B5548FEF7CCFADFF850A1544B06F1AC
:104FB0000209CAF8000000934A464FF4CC71514BE5
:104FC0005148FEF7BDFA0323CAF804002B6072B6FD
:104FD000D4F87C31002BFBD0BFF35F8F4B48FFF739
:104FE000A7FCBFF35F8FC4F87C4162B6236807EB70
:104FF00083035B68DB689B68B3426CD104232B603E
:1050000072B64FF05044D4F87C31002BFBD0BFF384
:105010005F8F3F490820FDF793FBBFF35F8FC4F814
:105020007C4162B6236807EB83035B68DB689B689F
:10503000984550D105232B6072B64FF05044D4F8F8
:105040007C31002BFBD0BFF35F8F3248FFF770FC41
:10505000BFF35F8FC4F87C4162B6236807EB83031C
:105060005B68DB689B68984535D106232B6072B678
:105070004FF05044D4F87C31002BFBD0BFF35F8F4E
:1050800023490820FDF75CFBBFF35F8FC4F87C4128
:1050900062B6236807EB83035B68DB689B6899450E
:1050A00019D107231B482B60FFF71AFD236807EB74
:1050B00083035B68DB689B6898450CD10823134821
:1050C0002B60FFF70DFD236807EB83077B68DB6828
:1050D0009B689E4204D040F201130F4AAB80AA6045
:1050E00002B0BDE8F08700BF180701203407012097
:1050F0002CDE0020814C002000080120F80F012048
:1051000050DF0020214A002098090120DC05012001
:10511000A0860100EC05012054DF00200000000003
:105120002DE9F8434FF0504502222B68524E534C64
:1051300006EB83035B682260DB689F6808F078F801
:1051400000287CD00323236008F072F800287DD16A
:105150000423DFF82C8123604046FFF7C1FCD8F818
:105160000830002B79D1D8F8003043457BD1052396
:1051700023602B6806EB83035B68DB689B689F42B8
:1051800057D10623236008F053F8002857D008F0C1
:105190004FF800285AD172B6D5F87C31002BFBD0DD
:1051A000BFF35F8F2B6806EB83035B68D3F80C902B
:1051B000D9F848302BB300251868DA688342C9F85B
:1051C000482056D002681A605360826CC3E902021C
:1051D0008364FDF765F8D9F84830002BECD14FF027
:1051E0005043D9F84C20C9F808201B6806EB83030C
:1051F0005B681A68DB6892689B689A4201D9FCF781
:105200004FFEBFF35F8F4FF05043C3F87C3162B65F
:10521000D8F808200ABBD8F80020424523D107223D
:1052200022601B6806EB83067368DB689B689F42FD
:105230000AD040F20113134AA380A26004E040F2B6
:105240000113114AA380A260BDE8F88340F2011364
:105250000E4AA380A260BDE8F88340F201130C4A15
:10526000A380A260F0E740F201130A4AA380A26083
:10527000EAE79D601346B0E71807012034070120D4
:10528000DC05012054DF00206CDF00207CDF0020E3
:1052900088DF00205CDD002000000000000000002E
:1052A0002DE9F84304468846914672B64FF05042C5
:1052B000D2F87C31002BFBD0BFF35F8F4FF050460C
:1052C0002A4D04F1180709E0E2694946C3E9007272
:1052D00004201360E361FDF733FA90B9237DCBB965
:1052E000D4E900122369501AB3EBA00F15D133682B
:1052F00005EB83035B68DB68B9F1000FE4D14FF085
:10530000FF30BFF35F8F4FF05043C3F87C3162B67C
:10531000BDE8F8836FF00100F3E7A5680133281DAD
:105320008242A060206A04F12002C5F8008098BF84
:10533000A1608242236106D00021036823625A6083
:105340004163FCF7ADFF4FF05042084B126803EB8E
:1053500082035B681A68DB6892689B689A4203D98B
:10536000FCF79EFD0020CCE70020CAE718070120CB
:105370002DE9F84304468846914672B64FF05042F4
:10538000D2F87C31002BFBD0BFF35F8F4FF050473A
:10539000274E04F1200510E02369E3B93B68626AF7
:1053A00006EB83035B684946DB680420C3E90052CF
:1053B00013606362FDF7C4F920B9237D002BEBD0A5
:1053C0006FF00100BFF35F8F4FF05043C3F87C31A3
:1053D00062B6BDE8F883E168A0690A1D0968E26069
:1053E000C8F800106168013B8A4228BF2268236127
:1053F00028BFE26004F11802824206D0002103684F
:10540000A3615A604163FCF74BFF4FF05042084BD9
:10541000126803EB82035B681A68DB6892689B681A
:105420009A4203D9FCF73CFD0020CBE70020C9E7F6
:10543000180701200000000000000000000000002C
:105440000123F0B54224594E594D83B033602146B3
:105450004FF0FF322846FFF723FF013400283AD1EE
:10546000462CF4D102230122582151483360FFF722
:1054700017FF01302FD172B64FF05042D2F87C3175
:10548000002BFBD0BFF35F8F2B7D002B40F087807C
:10549000D5E900412B69081BB3EBA00F22D0582798
:1054A000A8680133021DAA6091420760414A286A38
:1054B00098BFAC6090422B6106D0002103682B623C
:1054C0005A604163FCF7ECFEBFF35F8F4FF050432F
:1054D000C3F87C3162B640F20113374AB380B26040
:1054E00003B0F0BDBFF35F8FC2F87C2162B601212B
:1054F000582007F045FC0130EDD172B64FF0504412
:10550000D4F87C31002BFBD0BFF35F8F582007F01D
:1055100007FCBFF35F8FC4F87C4162B60130DAD17B
:105520000323336072B64FF05044D4F87C31002B23
:10553000FBD0BFF35F8F07F08BFC22681F4B03EBA0
:1055400082035B681A68DB6892689B689A4201D99B
:10555000FCF7A6FCBFF35F8F4FF05044C4F87C41CA
:1055600062B604230027012211480DEB03012F75B9
:105570003360FFF7FDFE0130ADD172B6D4F87C3157
:10558000002BFBD0BFF35F8F01A807F099FBBFF39F
:105590005F8FC4F87C4162B60130A1D09BE7BFF3B6
:1055A0005F8FC2F87C2162B695E700BF3407012007
:1055B000FC0501201C06012094DF002018070120B3
:1055C0002DE9F8433D4ECF1D002818BF06460D4675
:1055D000FF0806F1140872B64FF05044D4F87C313D
:1055E000002BFBD0BFF35F8F4046FFF7A1F9BFF35D
:1055F0005F8FC4F87C4162B6F36806F10C010BB909
:1056000018E01346586803F10F0C2CF0070C421CED
:1056100003EBC202ACF1080E724507D96446A2EB57
:105620000C0CB7EBEC0F4FEAEC0913D91A681946CA
:10563000002AE6D14046FFF753FA34683CB108220D
:10564000F8001146A047044608B140E9026520462B
:10565000BDE8F883734518D3B84229D09E46013778
:1056600003EBC70404F10800121A1868D21043F8BB
:10567000370062600C6003F108044046CEE9006523
:10568000FFF72EFA2046BDE8F88303F10802AEEBDF
:105690000202D210B9455A60EFD9FA4318680137AF
:1056A0000EEBC7014A444A604EF837001960E4E740
:1056B0001C469E4654F8083B0B60DEE75C07012061
:1056C000F0B5174689B008220D461E46FFF778FF51
:1056D000044610B300230E9A054405920F9ACDE9B3
:1056E0000170CDE90356CDE9062372B64FF050455F
:1056F000D5F87C31002BFBD0BFF35F8F01A8FDF7FD
:10570000C7FE0021064B0446C0E90B31FDF738FD0A
:10571000BFF35F8FC5F87C5162B6204609B0F0BD7B
:105720009158002000000000000000000000000070
:1057300070B50129044682B027D110680378722B16
:105740001BD01949FAF700FEF8B9184D4FF0504632
:10575000174B36684FF4367103EB86035B68002005
:10576000DB68144A9B68CDE90054FFF7A9FFA0B19C
:1057700002B0BDE87040FEF763B94378742BE0D106
:105780008378002BDDD10C4DE0E720460B4A0C4915
:1057900002B0BDE87040FBF75BBE2046094902B08D
:1057A000BDE87040FBF754BEB4DF0020211B002091
:1057B00018070120ECF50020011B0020ACDF0020C1
:1057C000B0DA0020BCDF0020000000000000000074
:1057D0002DE9F041074650E902030733DB08A7F142
:1057E000080447F8043C00F10C0500F1140872B6F7
:1057F0004FF05046D6F87C31002BFBD0BFF35F8FC3
:105800004046FFF795F8BFF35F8FC6F87C6162B63C
:105810002B469D421A6801D0A34202D21AB194428B
:1058200001D31346F5E747F8082C57F8042C1C6001
:1058300057F8081C013204EBC20081420AD05968B3
:105840004A1C03EBC202944211D04046BDE8F0412D
:10585000FFF746B94868024447F8042C0A685968BB
:1058600047F8082C4A1C03EBC2029442EDD157E9D9
:10587000020201321144C3E900014046BDE8F04193
:10588000FFF72EB90000000000000000000000003B
:105890004069FFF79DBF00BF00000000000000004E
:1058A0002DE9F0411C4D0F46002818BF054616464D
:1058B00005F1140872B64FF05044D4F87C31002B37
:1058C000FBD0BFF35F8F4046FFF732F8BFF35F8F27
:1058D000C4F87C4162B6EB68D3B14FF0000CE646E9
:1058E0006546D3E90034A44538BFA4460135A64433
:1058F000002BF6D117B14FEACE033B6016B14FEA49
:10590000CC0333604046FFF7EBF82846BDE8F08152
:105910009C469E461D46EDE75C0701200000000006
:1059200008B5844672B64FF05042D2F87C31002B55
:10593000FBD0BFF35F8FDCF8000050B10368CCF8F8
:105940000030BFF35F8F4FF05043C3F87C3162B635
:1059500008BDDCF80C30002BF3D0DCE901019847DE
:10596000EFE700BF000000000000000000000000A2
:1059700038B5044672B64FF05042D2F87C31002B55
:10598000FBD0BFF35F8FA5686B1E002BA3600BDB02
:10599000E068E8B10368E360BFF35F8F4FF0504306
:1059A000C3F87C3162B638BDC9B110680D4B62686E
:1059B00003EB80035B680520DB68C3E900425C639E
:1059C00013606360FCF7BCFE0028E1D00020E3E731
:1059D000A369002BFAD0D4E904019847DCE7084614
:1059E000A560D9E7180701200000000000000000B2
:1059F0000EB400B584B005AB01AA039253F8042B92
:105A000002A9CDE90132FCF763FD04B05DF804EBB7
:105A100003B070470000000000000000000000001C
:105A20002DE9F0410C680E46A142054617469846FE
:105A300003D10EE02468A6420BD00822294604F1C7
:105A4000080007F081FF0028F4D114B10020BDE860
:105A5000F081424639460020FFF7B2FD0028F5D01C
:105A600000F1080205F1080115F8013B02F8013BBD
:105A70000BB1A942F8D101233268C0E9002330609C
:105A8000BDE8F08100000000000000000000000000
:105A9000EFF30983203383F30988BFF35F8F4FF05F
:105AA0005043C3F87C3162B6704700BF000000006D
:105AB0004FF050430C2200B51A651A6DD10703D57B
:105AC0009A6D1A6DD207FBD440BF1EF10F0F03D0A1
:105AD0005DF804EBFAF714BE5DF804FB000000006B
