:020000042000DA
:10000000000204206D0200206F0200206F02002019
:100010006F0200206F0200206F0200206F0200209C
:100020006F0200206F0200206F0200206F0200208C
:100030006F0200206F020020516200206F0200203A
:10004000213E0020413E0020613E0020813E0020F4
:100050006F0200206F0200206F0200206F0200205C
:100060006F0200206F0200206F0200206F0200204C
:100070006F0200206F0200206F0200206F0200203C
:100080006F0200206F0200206F0200206F0200202C
:100090006F0200206F0200206F0200206F0200201C
:1000A0006F0200206F0200206F0200206F0200200C
:1000B0006F0200206F0200206F0200206F020020FC
:1000C0006F020020013E00206F0200206F0200201E
:1000D0006F0200206F0200206F0200206F020020DC
:1000E0006F0200206F0200206F0200206F020020CC
:1000F0006F0200206F0200206F0200206F020020BC
:100100006F0200206F0200206F0200206F020020AB
:100110006F0200206F0200206F0200206F0200209B
:1001200072B63E4880F308883D4880F30A883D480F
:1001300080F309883C4880F30B883C483C490860C0
:10014000022080F31488BFF36F8F03F0D9FD03F012
:10015000A7FE4FF055303249304A91423CBF41F83A
:10016000040BFAE730492F4A91423CBF41F8040B97
:10017000FAE73049304A314B9A423EBF51F8040BFE
:1001800042F8040BF8E700202D492E4A91423CBF6B
:1001900041F8040BFAE703F0EBFD03F0B9FD2A4C3C
:1001A0002A4DAC4203DA54F8041B8847F9E70AF0F9
:1001B0009FFB274C274DAC4203DA54F8041B8847B9
:1001C000F9E703F0ADBD00BF72B6234880F308889D
:1001D000224880F30988022080F31488BFF36F8FD0
:1001E00012481349086003F0A3FD03F0A9FD4FF086
:1001F00055301B49184A914202DA08600431FAE787
:100200001849164A914202DA08600431FAE703F00D
:100210009FFD0AF0A5FB14490847000000020420D6
:10022000000004200004042000020420000000203C
:1002300008ED00E07CD800207CD8002058D90020B0
:1002400060D90020A0F20020200100202001002021
:1002500020010020200100200012042000140420AE
:100260000010042000120420613D002058E700F037
:1002700000F8FEE7F0B544464D4656465F46F0B4FA
:100280006B46CB60C3689D46F0BCA046A946B2460B
:10029000BB46F0BD05F0E4FF62B62846A04700204B
:1002A00004F0D6F9FEE704F0FBF8024A4FF00043F1
:1002B0001360FEE704ED00E0844641EA000313F01A
:1002C000030349D1403A23D30B6803604B68436072
:1002D0008B688360CB68C3600B6903614B694361C2
:1002E0008B698361CB69C3610B6A03624B6A4362AA
:1002F0008B6A8362CB6AC3620B6B03634B6B436392
:100300008B6B8363CB6BC36340304031403ADBD2AD
:1003100030320BD30B6803604B6843608B6883609B
:10032000CB68C36010301031103AF3D20C3205D3D1
:1003300051F8043B40F8043B043AF9D2043208D0A7
:10034000D2071CBF11F8013B00F8013B01D30B8819
:1003500003806046704700BF082A13D38B07B1D0D3
:1003600010F00303AED0C3F10403D21ADB071CBFA5
:1003700011F8013B00F8013BA4D331F8023B20F80F
:10038000023B9FE7043AD9D3013A11F8013B00F848
:10039000013BF9D20B7803704B7843708B788370F4
:1003A0006046704780EA010C1CF0030F37D110F053
:1003B000030C20F0030021F0030150F8042B08BFC8
:1003C00051F8043B0ED08CF0030C6FF07F434FEAE2
:1003D000CC0C23FA0CFC51F8043B42EA0C0243EA31
:1003E0000C0300BFA2F1013C9A4201BF2CEA020CAF
:1003F0001CF0803F50F8042B51F8043BF2D04FEA38
:1004000002604FEA1222012828BFB0EB036F08BF39
:100410001B0AF4D003F0FF03000EC01A704710F05F
:10042000030F0AD010F8012B11F8013B012A28BF55
:100430009A42F4D0A2EB030070474DF8045D50F8E7
:10044000042B01F0030521F0030151F8043B022DB8
:1004500026D04DD822F07F45B5EB132FA2F1013CF9
:100460002CEA020C0DD11CF0803C08BF51F8043B73
:100470000AD185EA0205B5EB036F0CD150F8042BC5
:10048000E8E74FEA13235BE03CF07F4C54D10B7854
:100490004FEA126554E04FEA126503F0FF034FE0A4
:1004A0004FEA0245A2F1013C4FEA15452CEA020C45
:1004B000B5EB134F18D11CF0803C08BF51F8043B3A
:1004C00007D185EA0205B5EB034F09D150F8042B9B
:1004D000E6E75FEA0C4C2FD10B884FEA12452FE07C
:1004E0004FEA03434FEA12454FEA134328E000BFA7
:1004F00002F0FF05B5EB136FA2F1013C2CEA020CF0
:100500000DD11CF0803C08BF51F8043B0AD185EAAC
:100510000205B5EB032F0AD150F8042BE8E74FEAA8
:1005200013630DE012F0FF0F06D051F8043B4FEAC1
:10053000122523F07F4303E04FF0000020BC7047FA
:1005400005F0FF0203F0FF00012828BF904204BF1E
:100550002D0A1B0AF4D0A2EB000020BC704700BF9C
:10056000014B986A704700BF00000B40000000007C
:10057000044B18610122DA631A6C42F001021A641A
:10058000704700BF00000B400000000000000000AA
:10059000024A136C23F001031364704700000B4000
:1005A000014B1861704700BF00000B4000000000C5
:1005B000064B03600123037100238360C360036162
:1005C00043618361C361036243627047CCD50020FD
:1005D0000901C9B2074A131883F8001300F01F017C
:1005E000400901238B4000F1600142F8213042F8BC
:1005F0002030704700E100E0000000000000000033
:1006000010B5064C2046FFF7D3FF054BA362054A01
:10061000136843F48003136010BD00BF60D900204D
:100620000040034000000240000000000000000005
:1006300008B5FFF7E5FF08BD00000000000000005E
:10064000C26893081B0103F01003D108490101F0AF
:1006500020010B43110A890201F480610B43910AC6
:10066000490201F400710B435109090201F4807140
:100670000B439109490101F020010B43520AD201B9
:10068000D2B21343826A9363704700BF0000000038
:1006900010B4844600201AE0DCF80C3013F0040F8C
:1006A00005D0DCF82820936B43F010039363DCF84B
:1006B0000C3013F4007F12D0DCF82820936B43F049
:1006C000400393630BE01B6801F8013B0130DCF849
:1006D00028309C6914F0100FDED19042F3D310BC87
:1006E000704700BF00000000000000000000000094
:1006F00008B572B6FFF7CCFF62B608BD0000000077
:1007000010B4844600200DE0DCF80C2012F0080F35
:1007100010D09A6B42F020029A630BE011F8014B63
:100720001C600130DCF828309C6914F0200FEBD1FC
:100730009042F3D310BC704700000000000000009E
:1007400008B572B6FFF7DCFF62B608BD0000000016
:100750000346826A1068C0B2926912F0100F00D18D
:100760007047DA6812F0040F04D0996A8A6B42F07D
:1007700010028A63DA6812F4007FF1D09A6A936BF0
:1007800043F040039363EBE700000000000000002B
:10079000836A1960836A9A6912F0200F07D0C268D1
:1007A00012F0080F03D09A6B42F020029A63704750
:1007B0000020704700000000000000000000000062
:1007C00029B108B5012905D0FFF7F2FF03E06FF06A
:1007D00013007047002008BD00000000000000006A
:1007E0000A4A136823F040031360084B9B6813F018
:1007F000400FFAD0054A136823F400731360034BCB
:100800009B6813F4007FFAD0704700BF00000240DD
:10081000064B0622DA6200225A601A601A615A6197
:100820009A61DA611A640F22DA63704700000B40A4
:1008300008B5002304E0054A002142F823100133E3
:10084000032BF8D9FFF7E4FF08BD00BF48DC002008
:100850004FF050431A68334B03EB82035A6810F091
:10086000010F0DD01168002301E0013309688A42AD
:10087000FBD1516801E0013B49688A42FBD15BBB77
:1008800010F0020F31D010B41469002301E00133DD
:10089000246802F11001A142F9D1526901E0013B43
:1008A00052689142FBD1CBB910F0040F18D01D4B08
:1008B0001A69002301E0013312681B498A42FAD108
:1008C000A1F11002526901E0013B526816498A42C7
:1008D000FAD143B9002004E001207047012000E074
:1008E000002010BC70470120FBE710F0040F14D06B
:1008F0000C4B1A69002301E0013312680A498A424D
:10090000FAD1A1F11002526901E0013B5268064997
:100910008A42FAD11BB9002070470020704701209D
:10092000704700BF70DB002080DB0020000000006B
:10093000EFF3108010F0010F07D1EFF30583C3F33D
:1009400008030BB172B6704772B670470000000022
:10095000024A936903439361704700BF70DB002034
:1009600000230360704700BF00000000000000008B
:1009700070B54FF050431A68074B03EB82035E6873
:10098000FFF7EEFDD6E90A45031B181945F10001F2
:10099000C6E90A0170BD00BF70DB00200000000046
:1009A0004FF050431A68064B03EB82035B68DA682A
:1009B0001B6898689368984294BF00200120704794
:1009C00070DB0020000000000000000000000000BC
:1009D000FEE700BF00000000000000000000000073
:1009E0004B6843618B688361CB6883600223037724
:1009F000002343778B699BB103610023C3620363C8
:100A000000F138028263CA68C264836443640123CC
:100A100083770B68036200F13C03C3630364704790
:100A20004FF050431A68034B03EB82035B6803618A
:100A3000E3E700BF70DB00200000000000000000C2
:100A400010B50C46FFF7CCFF8269A2F12401C1600A
:100A5000216942F8241CC26861695160C268064974
:100A6000116200F12401054A02F110044462546944
:100A700084622160516110BD9502002070DB00206E
:100A800010B50446806821466038FFF7A9FFA0F141
:100A90002402C260216940F8241C616940F8201CCE
:100AA000064940F8041C00F12401054A02F1100433
:100AB0004462546984622160516110BD9502002036
:100AC00070DB0020000000000000000000000000BB
:100AD00008B572B6837F013B8377C36903F0FF13C8
:100AE0000F2B01D062B608BD826A436A1360826A26
:100AF0005A6062B6C36A002BF5D09847F3E700BF8F
:100B000072B6437F63F07F03437762B6704700BFDE
:100B100000604060704700BF00000000000000005F
:100B20004FF0FF330360002343608360C360002203
:100B30000023C0E90423704700000000000000000B
:100B4000014B5B6883607047001000E0000000000C
:100B50000D4B5B680D4AD168C2680132C260826881
:100B60009B1A5B1A836002694169D21841F1000146
:100B7000026141614268934200D943600268934236
:100B800000D20360704700BF001000E070DB00205F
:100B900072B6054B1B69A3F1240013F8062C013231
:100BA00003F8062C62B6704770DB002000000000DE
:100BB00010B572B6436A084A93420BD0A3F12404DD
:100BC00013F8062C013203F8062C62B6FFF780FFFB
:100BD000204610BD0024F8E780DB00200000000064
:100BE0000060406000238360704700BF0000000089
:100BF0004FF050431A68074B03EB82035B68DB68D6
:100C000082680AB10020704783609A6CC260986461
:100C10000120704770DB0020000000000000000091
:100C200008B572B6FFF7E4FF62B608BD0000000029
:100C300000604060704700BF00000000000000003E
:100C4000006070470000000000000000000000008D
:100C500030B44FF050442568074C04EB850CDCF8A9
:100C60000440E46805680D6001604C608A60002201
:100C7000CA600B6130BC704770DB002000000000D0
:100C800008B572B6FFF7E4FF62B608BD00000000C9
:100C900072B603461A461B68984203D08B42F9D1BC
:100CA0000B68136062B6704700000000000000008F
:100CB0004FF050431A68054B03EB82035B68DA6818
:100CC000536C23EA000151641840704770DB002028
:100CD00008B572B6FFF7ECFF62B608BD0000000071
:100CE00072B64FF050431A68044B03EB82035B6803
:100CF000DB685A6C1043586462B6704770DB0020A2
:100D000070B506460D46002400E001346DB125FAA9
:100D100004F313F0010FF8D00123A34025EA0305E3
:100D200056F8243020469847EFE770BD00000000D9
:100D300010B4844604E000231846C3B90CF1080C33
:100D4000DCF80040B4F1FF3F10D0DCF80430013B88
:100D50002344501E0818EED28C4203D8834203D29B
:100D60000023E9E70023E7E70123E5E7002010BCC3
:100D7000704700BF000000000000000000000000FD
:100D800008B5014601220248FFF7D2FF08BD00BFA7
:100D900094CD0020000000000000000000000000D2
:100DA000024B034A1A60034A5A60704768DB00200E
:100DB000A0F200200000042000000000000000005D
:100DC00010B4094B5C68201A49420840821A1B681B
:100DD0009A4205D3A24205D8034B5A6010BC704713
:100DE0000020FBE70020F9E768DB0020000000009E
:100DF00008B572B6FFF7E4FF62B608BD0000000058
:100E0000034B1A6802605B689B1A4360704700BF1F
:100E100068DB00200000000000000000000000006F
:100E200010B5074C2046074B40F8043BFFF7E8FF9E
:100E30000023E360236104F11400FFF7D1FE10BD2D
:100E4000B4DB0020F10D00200000000000000000D5
:100E500008B50346006810B102681A6008BDDA6878
:100E6000002AFBD0996858689047F7E70000000017
:100E700003680B6001607047000000000000000084
:100E800010B504460160C1608160114441600023D7
:100E9000036103758361C3612030FFF7A1FE04F194
:100EA0003000FFF79DFE04F14000FFF799FE10BDF2
:100EB00010B444680368013B8818034004EBC30C7A
:100EC00054F8330000E00068604506D003698B42A7
:100ED000F9D143699342F6D100E0002010BC70477D
:100EE00008B503681A1D02601B68984708BD00BF5B
:100EF00008B50268131D0360116802F1080303605E
:100F00005068884708BD00BF0000000000000000D6
:100F100010B503460068011D1960046800F108025D
:100F20001A60406801F108021A604968A04710BDC4
:100F300038B503460268111D0160156802F1080406
:100F4000046050680C321A60496804F108021A60A3
:100F50006268A84738BD00BF000000000000000024
:100F600070B503460068011D1960066800F10802AB
:100F70001A60406801F108051D60496802F1080423
:100F80001C60526805F108041C606B68B04770BDB6
:100F900008B50022FFF714FF08BD00BF00000000E5
:100FA00010B40822047801300C700131013A0CB100
:100FB000002AF7D110BC70470000000000000000BC
:100FC00002460B4618461B688B4202D09342F9D169
:100FD00000E00020704700BF00000000000000009B
:100FE0000346006802681A60704700BF00000000F6
:100FF00072B6164BD96821F4E0610904090C144A51
:101000000A43DA60D3F8FC2042F08072C3F8FC2077
:10101000104A136843F0010313604FF050430C2251
:101020001A65036B3BB90C4BF02283F80F234FF486
:1010300000421A607047012B00D07047064BF02227
:1010400083F810234FF480321A60F6E700ED00E0D9
:101050000003FA05001000E000E100E000000000DD
:1010600072B60C4B5B6813F4006F00D1704710B57B
:10107000EFF30984203C4FF08073E36184F3098827
:10108000FFF78EFC10B1044BA36110BD034BA361AD
:10109000FBE700BF00ED00E0A7020020AA0200204D
:1010A0000020704700000000000000000000000069
:1010B00008B50520FFF7F4FF104B1860104A1368BD
:1010C00023F0020313600E4B9B6813F0020FFAD05B
:1010D0000B4A136823F400231360094B9B6813F435
:1010E000002FFAD0064A136823F480231360044BC0
:1010F0009B6813F4802FFAD008BD00BF8CD9002064
:10110000000002400000000000000000000000009D
:1011100010B504468368002B2ED02379012B2ED0E6
:101120000620FFF7BDFFC000A3681B68B0FBF3F00B
:10113000C20900F07F0001304008A36A5A62A36A26
:101140009862A3685B68A26A23F00103D362A36874
:101150009B68A26A23F4417323F003031363A36A19
:10116000DA6B5A64A3689B68A26A43F4407343F045
:1011700001031363002010BD0A4B8360CDE70A4BC7
:101180009C42CDD1094A136823F480031360074BB6
:101190009B6813F4800FFAD003212120FFF718FA7F
:1011A000BEE700BFB8CD002060D90020000002409B
:1011B0000C4B03EB800253F8203083F0400303F024
:1011C000C00302F5805CCCF80030C00000F1804024
:1011D00000F52030416002F540524FF480731360F7
:1011E000704700BF048003400000000000000000C2
:1011F00030B51C4603B90C4600F10B0E734608E0EF
:1012000001F1370C03F801CDB5FBF2F1B4FBF2F4B8
:1012100054B10D46B1FBF2FC02FB1C1101F1300C84
:10122000BCF1390FEEDDEBE7AEEB030C19780133BF
:1012300001700130BCF1010CF8D130BD000000009C
:1012400008B50023FFF7D4FF08BD00BF0000000071
:101250002DE9F04F87B0064689460192002705E048
:101260003368DB68304698470137A9464D4615F884
:10127000011B002900F083802529F1D12B782D2B2B
:1012800046D04FF0000B2B782B2B46D0002095F842
:1012900000A0BAF1300F43D04FF0200A2B782A2B50
:1012A00040D1019B1A1D01921C6805F102096B785F
:1012B0002E2B47D000226C2B67D04C2B65D0A3F18E
:1012C0004101C9B219298CBF00210121A3F14405B4
:1012D000342D00F2CE80DFE805F082CCCCCCCC827D
:1012E000CCCCCCCCCC5EC5CCCCCCCCA2CCCCC5CCE4
:1012F000CCCCCCCCCCCCCCCCCC6082CCCCCCCC822E
:10130000CCCCCCCCCC5EC5CCCC6CCCA2CCCCC500EF
:1013100009F102054FF0010BB5E701350120B6E7F1
:101320000135BBE70024A94619F8013B3BB3A3F103
:101330003002D2B2092ABBD804EB840402EB440485
:101340004D46F0E7494611F8013BC3B12A2B08D1BD
:10135000019B1A1D01921A6899F8013009F10209DE
:10136000A9E70022A3F13005EDB2092D0BD802EB5D
:10137000820205EB420211F8013B002BF2D1384604
:1013800007B0BDE8F08F894695E719F8013B002BBF
:10139000F5D001219AE7082242E0019B1A1D019233
:1013A0001B688DF80C304FF0200A03AD0DF10D00D5
:1013B0003FE0019B191D01911D6815B162B12846DE
:1013C00002E0424DFAE701300378002B57D0013A92
:1013D000F9D54FF0200A2CE047F6FF72EFE761B134
:1013E000019B1A1D0192196800290BDBA8B12B2360
:1013F0008DF80C300DF10D000AE0019B1A1D0192D1
:101400001968F1E72D238DF80C3049420DF10D00DC
:101410000A22FFF715FF03AD0BE003A8F8E70A2245
:1014200011B3019B191D0191196803A8FFF708FF6B
:1014300003ADA0EB0508B4EB080423D4BBF1000F07
:1014400000D16442002C32DA29782D291CD02B29B6
:101450001AD03368DB68514630469847013701346B
:10146000F7D124E01022DBE7019B191D01911968D7
:10147000DBE78DF80C3003AD0DF10D00D9E74FF02F
:10148000200AD6E70024D9E7BAF1300FE1D10135BF
:101490003368DB6830469847013708F1FF38D8E7F2
:1014A0003368DB6815F8011B304698470137B8F1FF
:1014B0000108F5D506E03368DB68514630469847A9
:1014C0000137013C002CF6D1D0E600BFDCAC002097
:1014D00010B50446034B586A0368DB68E1B29847CD
:1014E000204610BD8CDB0020000000000000000042
:1014F000024B03F11002DA60704700BF8CDB002062
:1015000010B50446FFF7F4FF054B00225A716368DB
:1015100003B19847E3689847A36803B1984710BDA3
:101520008CDB002000000000000000000000000034
:10153000034A01235371137190601846704700BF2E
:101540008CDB002000000000000000000000000014
:1015500030B51D4603B90D4600F10B04234608E0E3
:101560000CF1370E03F801ED91FBF2F195FBF2F56A
:101570004DB191FBF2FC02FB1C1C0CF1300EBEF1D4
:10158000390FEFDDECE7A4EB030C197801330170A0
:101590000130BCF1010CF8D130BD00BF00000000EB
:1015A00008B50023FFF7D4FF08BD00BF000000000E
:1015B00008B5024B1B6A03B1984708BD8CDB0020BD
:1015C00010B5054C03E014F8010BFFF7F1FF034BD6
:1015D000DB68A342F7D810BD9CDB00208CDB002029
:1015E00010B5044602E0FFF7E3FF0134207800283D
:1015F000F9D110BD00000000000000000000000054
:1016000010B5002403E02D20FFF7D2FF01344B2C4E
:10161000F9D90248FFF7E4FF10BD00BFA4BC0020C9
:1016200010B5002403E03D20FFF7C2FF01344B2C2E
:10163000F9D90248FFF7D4FF10BD00BFA4BC0020B9
:101640002DE9F04786B0804601910026D5E0FFF7EE
:10165000AFFF0136A846D0E008F102054FF0010ABD
:10166000DAE001350120DCE00135E2E00024A846A3
:1016700018F8013B43B3A3F13002D2B2092A00F2B9
:10168000E38004EB840402EB44044546EFE7414663
:1016900011F8013BC3B12A2B08D1019B1A1D0192FD
:1016A0001A6898F8013008F10208D1E00022A3F18D
:1016B0003005EDB2092D0BD802EB820205EB420298
:1016C00011F8013B002BF2D1304606B0BDE8F0879F
:1016D0008846BDE018F8013B002BF5D00121C4E09D
:1016E000082242E0019B1A1D01921B688DF80C3004
:1016F0004FF0200903AD0DF10D003FE0019B191DD6
:1017000001911D6815B162B1284602E08F4DFAE7DC
:1017100001300378002B56D0013AF9D54FF020095B
:101720002CE047F6FF72EFE761B1019B1A1D0192B1
:10173000196800290BDBA8B12B238DF80C300DF1B3
:101740000D000AE0019B1A1D01921968F1E72D2393
:101750008DF80C3049420DF10D000A22FFF720FFF1
:1017600003AD0BE003A8F8E70A2209B3019B191D9A
:101770000191196803A8FFF713FF03AD471BE41B92
:1017800024D4BAF1000F00D16442002C2BDA28785F
:101790002D2801D02B2802D1B9F1300F18D048469E
:1017A000FFF706FF01360134F9D11CE01022DCE717
:1017B000019B191D01911968DCE78DF80C3003AD10
:1017C0000DF10D00DAE74FF02009D7E70024D8E744
:1017D0000135FFF7EDFE0136013FE0E715F8010B9B
:1017E000FFF7E6FE0136013FF8D504E04846FFF773
:1017F000DFFE0136013C002CF8D1454615F8010BFF
:1018000000283FF461AF25287FF421AF2B782D2BE2
:101810003FF422AF4FF0000A2B782B2B3FF421AF7F
:10182000002095F80090B9F1300F3FF41DAF4FF054
:1018300020092B782A2B7FF419AF019B1A1D0192E6
:101840001C6805F102086B782E2B3FF420AF0022B4
:101850006C2B3FF43FAF4C2B3FF43CAFA3F1410165
:10186000C9B219298CBF00210121A3F14405342DEF
:10187000A3D801A757F825F029170020BB1700208F
:10188000BB170020BB170020BB1700202917002022
:10189000BB170020BB170020BB170020BB17002080
:1018A000BB170020E1160020AD170020BB17002059
:1018B000BB170020BB170020BB17002069170020B2
:1018C000BB170020BB170020AD170020BB1700205E
:1018D000BB170020BB170020BB170020BB17002040
:1018E000BB170020BB170020BB170020BB17002030
:1018F000BB170020E516002029170020BB17002089
:10190000BB170020BB170020BB17002029170020A1
:10191000BB170020BB170020BB170020BB170020FF
:10192000BB170020E1160020AD170020BB170020D8
:10193000BB170020FD160020BB17002069170020F0
:10194000BB170020BB170020AD170020DCAC002027
:1019500010B5002400E00134042C07D8044B53F8E0
:1019600024000028F7D0FFF7CBF8F4E710BD00BF44
:1019700020E5002000000000000000000000000042
:10198000034B01221A6072B672B672B662B6704725
:101990008CDB0020000000000000000000000000C0
:1019A00010B5054B01221A60FEF7DAFD0446FEF77A
:1019B000D7FD8442FBD010BD8CDB0020000000006E
:1019C000014B00221A60704734E50020000000003F
:1019D00008B50248FFF704F908BD00BF8CD8002005
:1019E00008B50348FFF7FCF80248FFF7F9F808BD0F
:1019F0008CD800209CD800200000000000000000CF
:101A000008B50248FFF7ECF808BD00BF8CD80020ED
:101A100008B50348FFF70CF90248FFF7E1F808BDE5
:101A20007CD800208CD800200000000000000000BE
:101A300008B50348FFF7FCF80248FFF7D1F808BDE6
:101A40007CD800208CD8002000000000000000009E
:101A500008B50548FFF7ECF80448FFF7C1F804485B
:101A6000FFF7BEF808BD00BF7CD800208CD800204E
:101A70009CD80020000000000000000000000000D2
:101A800008B54FF0FF30FFF723F908BD0000000054
:101A900008B54FF0FF30FFF71BF908BD000000004C
:101AA00008B54FF0FF30FFF713F908BD0000000044
:101AB00008B54FF0FF30FFF70BF908BD000000003C
:101AC00008B54FF0FF30FFF703F908BD0000000034
:101AD00008B54FF0FF30FFF7FBF80348FFF7B0F809
:101AE0000248FFF7ADF808BD84D8002088D8002050
:101AF000704700BF00000000000000000000000070
:101B000008B50248FFF76CF808BD00BF1CDC0020D8
:101B100008B5102202490348FFF7B2F908BD00BF1B
:101B200090D90020D4D80020000000000000000060
:101B300008B5082202490348FFF7A2F908BD00BF13
:101B400090D90020D4D80020000000000000000040
:101B5000F8B506460C4615460769974200D93D463A
:101B60006019FEF71DFDFEF7FBFC041BA54203D91F
:101B70003369BB4204D3F8BD01373D460446EFE765
:101B800037610120FEF7E4FEF5E700BF000000002A
:101B900038B54FF050431A681C4B03EB82035C6866
:101BA000236998420FD042680368136042685A6004
:101BB0000268816893680B449360002303604FF0D0
:101BC000FF33A36138BD04F1100504F11002196858
:101BD000216113464A60002202602269934212D0BA
:101BE000816893680B449360FEF7BAFC0146E36991
:101BF000C01A226992688242E4D95B1A1A442846C4
:101C0000FFF7A6FFDEE7FEF7C3FCDBE770DB002093
:101C10002DE9F041044616461D46C2608B604860BF
:101C200003680B6059600160D0F81080454500D210
:101C30004546E0682844FEF79BFCFEF791FC07460A
:101C4000831B9D4204D92369434509D3BDE8F08134
:101C500008F101057019FEF7A3FCA8463E46ECE723
:101C6000C4F810800120FEF773FEEFE700000000CB
:101C7000F8B505460E461746FEF772FC2B689D42E6
:101C800009D0EC68041B3C1900D33C469B68A34276
:101C900008D82B680EE03B46024631462846FFF73F
:101CA000B7FF16E03A4601462846FFF751FFF0E736
:101CB000A41A1B689A689442FAD8B46033605A68D0
:101CC000726016605E609A68121B9A604FF0FF3374
:101CD000AB60F8BD00000000000000000000000044
:101CE00038B54FF050442568074C04EB850CDCF800
:101CF00004400361C260002343610A46014604F1C7
:101D00001000FFF7B5FF38BD70DB002000000000B9
:101D10002DE9F0474FF050431A68344B03EB820330
:101D20005E6806F1100907E062B6E36821692046A3
:101D3000984772B66369C3B93469FEF711FCF36959
:101D4000C21AA568954240D81D44F56162682368AF
:101D5000136062685A600023236006F1100733693C
:101D60009F42E1D1FEF714FCDEE7FEF7F9FB824665
:101D7000A0EB0508626942450AD32B1A1344326965
:101D800097420AD013EB080800D243463A680CE0A9
:101D90000220FEF7DDFD0023F1E7524621464846CA
:101DA000FFF736FF1FE05B1A126891688B42FAD882
:101DB000A3602260516861600C6054609168CB1A26
:101DC00093604FF0FF33BB60B6E706F11002316954
:101DD0008A4208D0F0611B1AA2681A44A260014628
:101DE0004846FFF7B5FEBDE8F08700BF70DB002076
:101DF00008B5FFF78DFF08BD0000000000000000DF
:101E00000023037703691B68996882689142FAD2BC
:101E100003605A684260106058607047000000001C
:101E200008B5084672B60B7F0C2B17D8DFE803F015
:101E300007161609110D161116161616110062B6A0
:101E400012E04B6B00221A6008E04A6B9368013382
:101E5000936042680368136042685A604FF0FF3332
:101E60004363FFF7CDFF62B608BD00BF000000006E
:101E700008B502694FF0504319680A4B03EB810320
:101E80005B689A420AD04FF050431B6D13F0020F6B
:101E900004D04FF050434FF0FF325A65FFF7B0FFC8
:101EA00008BD00BF70DB0020000000000000000043
:101EB00008B5FEF7C5FDFFF7DBFF08BD0000000019
:101EC00008B50346006820B100221A604163FFF79D
:101ED000CFFF08BD0000000000000000000000006F
:101EE000F8B5866A356CB76BFDB1044615F4F06F32
:101EF0001CD115F0400F0DD027F04007A36A9B6955
:101F000013F0100F22D072B6002104F11C00FFF76D
:101F1000D7FF62B615F0100F20D115F0200F29D190
:101F2000B76323690BB120469847F8BD402373641B
:101F300027F4F06772B601211830FFF7C1FF0121C5
:101F400004F11C00FFF7BCFF62B6D2E772B60021B5
:101F500004F11800FFF7B4FF62B6D4E740237364BE
:101F600027F0100772B6002104F11800FFF7A8FF50
:101F700062B6D2E727F0200772B6002104F12000F4
:101F8000FFF79EFF62B6CBE70000000000000000F4
:101F900008B503460068834205D002681A605360A2
:101FA0004163FFF765FF08BD00000000000000006E
:101FB00008B5037DCBB9436802689B1A0269B2EB8E
:101FC000A30F15D083681A1D826019608268436868
:101FD0009A4201D3036883600369013303610021DE
:101FE0002030FFF7D5FF002008BD6FF00100FBE7B0
:101FF0004FF0FF30F8E700BF0000000000000000D5
:10200000037DD3B910B542680468A2EB040C0369E0
:10201000B3EBAC0F14D0C368043BC360A34201D23E
:10202000043AC260C3681960036901330361002187
:102030002030FFF7ADFF002010BD6FF001007047AA
:102040004FF0FF30F8E700BF000000000000000084
:1020500008B5037DABB90369B3B1C3681A1DC2608B
:102060001B680B60C26843689A4201D30368C3606F
:102070000369013B036100211830FFF789FF00204D
:1020800008BD6FF00100FBE74FF0FF30F8E700BF3D
:1020900038B504460D4605E0036823605C6045637F
:1020A000FFF7E6FE20688442F6D138BD000000004C
:1020B00010B5044603688360C360002303610123F5
:1020C00003756FF001011830FFF7E2FF6FF00101B7
:1020D00004F12000FFF7DCFF10BD00BF000000008E
:1020E00038B504461546816006E060684368636061
:1020F0001C60FFF7BDFE45632368A342F5D138BDE0
:10210000826801328260002A00DD704708B503460C
:10211000006802681A60536000234363FFF7A8FE5B
:1021200008BD00BF0000000000000000000000002B
:1021300038B505460C4600E0013C002C0DDDAB68CF
:102140000133AB60002BF7DC286803682B605D600F
:10215000FFF78EFE00234363EEE738BD000000006A
:1021600010B501464FF050431A68124B03EB82033F
:102170005B68DC68C368A3640268824217D0E06CC5
:1021800000E0DB683BB11A689342FAD09268904253
:10219000F7D21046F5E7A060086803680B60596045
:1021A0008860836CCB608164FFF762FE10BD002302
:1021B0008360FBE770DB00200000000000000000EF
:1021C00008B503460068834206D002681A6053606F
:1021D00000234363FFF74CFE08BD00BF0000000072
:1021E00010B5044607E0036823605C60FFF740FE1B
:1021F0006FF00103436320688442F4D110BD00BF37
:1022000008B5436C19434164037F0A2B02D00B2BA2
:1022100008D008BD426B1142F9D000234363FFF799
:1022200027FEF6E7436B8B43F3D1F6E7000000008F
:1022300070B506460D46046804E0A1686068FFF7C3
:10224000DFFF2468B44208D0E3682B43E360002D2D
:10225000F3D023692B42F4D0EFE770BD00000000FB
:102260000023037703691B68996882689142FAD852
:1022700003605A68426010605860704700000000B8
:1022800010B54FF050431A68094B03EB82035B68AB
:10229000D8681C6822681A60536001222277DC60CB
:1022A000FFF7AEFD01462046FDF7E4FF10BD00BF7D
:1022B00070DB0020000000000000000000000000B3
:1022C00008B54FF050431A68064B03EB82035B6876
:1022D000D9681B689A688B689A4201D3FFF7D0FFD0
:1022E00008BD00BF70DB00200000000000000000FF
:1022F00008B572B6FFF7E4FF62B608BD0000000043
:1023000010B50446FFF7F4FFFFF7F2FFFFF7F0FF09
:10231000FFF7EEFF2368043323604FF050431A6841
:10232000044B03EB82035B68DB6893F91D30002BE1
:10233000E8DA10BD70DB00200000000000000000A3
:1023400010B54FF050431A68094B03EB82035B68EA
:10235000D8681C6822681A60536001222277DC600A
:10236000FFF77EFF01462046FDF784FF10BD00BF4A
:1023700070DB0020000000000000000000000000F2
:1023800008B54FF050431A68074B03EB82035B68B4
:10239000D9680877186802681A60536001220277CA
:1023A000D860FDF767FF08BD70DB0020000000006B
:1023B00030B587B004464FF050431A680D4B03EB1D
:1023C00082035B68DD68B1F1FF3F0FD02B460A4AFC
:1023D0006846FFF785FC2046FFF7D2FF009B13B14C
:1023E0006846FFF7D5FB686B07B030BDFFF7C8FF45
:1023F000F9E700BF70DB0020211E00200000000074
:1024000010B5044672B6FEF7ABF8211A02D00820C8
:10241000FFF7CEFF62B610BD000000000000000014
:1024200008B54FF050431A68074B03EB82035B6813
:10243000DB6829B1036058630320FFF7B9FF08BDCB
:102440004FF0FF30FBE700BF70DB00200000000012
:1024500038B572B6836A1B6C13F4F06F12D1044660
:102460000D460022A36A9B6913F0100F07D029467E
:1024700004F11800FFF7D4FF02460028F2D062B63C
:10248000104638BD62B60122FAE700BF0000000026
:102490002DE9F04107460D4616469846002406E011
:1024A000321B29463846FEF723F904440544B4425A
:1024B00005D241463846FFF7CBFF0028F0D0204632
:1024C000BDE8F081000000000000000000000000F6
:1024D00008B54FF0FF33FFF7DBFF08BD0000000039
:1024E00008B5FFF7D5FF08BD0000000000000000A0
:1024F00010B504464FF0FF31FFF7AAFF00B110BD41
:102500002046FEF725F9FAE7000000000000000071
:1025100010B50446FFF79CFF00B110BD2046FEF742
:1025200017F9FAE7000000000000000000000000BA
:1025300038B504460D4672B60022A36A9B6913F0B3
:10254000200F07D0294604F12000FFF769FF02465B
:102550000028F2D062B6104638BD00BF000000006F
:102560002DE9F04107460D4616469846002406E040
:10257000321B29463846FEF7E3F804440544B442CA
:1025800005D241463846FFF7D3FF0028F0D0204659
:10259000BDE8F08100000000000000000000000025
:1025A00008B54FF0FF33FFF7DBFF08BD0000000068
:1025B00008B5FFF7D5FF08BD0000000000000000CF
:1025C00070B504460D464FF0FF31FFF7B1FF0646E8
:1025D00008B1304670BD29462046FEF7D9F8F8E725
:1025E00070B504460D461146FFF7A2FF064608B136
:1025F000304670BD29462046FEF7CAF8F8E700BF0E
:1026000008B54FF050431A68084B03EB82035B6830
:10261000DB6841B1186042685A601360436004206F
:10262000FFF7C6FE08BD4FF0FF30FBE770DB002070
:1026300008B58268531E8360002B01DB002008BDB3
:1026400089B14FF050431A68094B03EB82035B6872
:10265000DB685863186042685A6013604360052065
:10266000FFF7A6FEEBE782604FF0FF30E7E700BF21
:1026700070DB0020000000000000000000000000EF
:1026800008B572B6FFF7D4FF62B608BD00000000BF
:1026900010B50446FFF7CCFF20B904F10C00FEF79B
:1026A000D7FB10BD0020FCE7000000000000000088
:1026B00070B54FF050431A68104B03EB82035B6810
:1026C000DE6872B6746C04400CD1054611B962B66E
:1026D0000C460EE070630A20FFF76AFE00280ADB52
:1026E000746C2C4063421C40736C23EA04037364D3
:1026F00062B6204670BD62B6FBE700BF70DB00200B
:1027000070B54FF050431A680F4B03EB82035B68C0
:10271000DE6872B6746C04400CD1054611B962B61D
:102720000C460CE070630A20FFF742FE002808DB2D
:10273000746C2C40736C23EA0403736462B6204605
:1027400070BD62B6FBE700BF70DB00200000000038
:1027500038B504464FF050431A680F4B03EB820321
:102760005B68DD6872B66B6C30EA030309D011B99F
:1027700062B608460BE068630B20FFF719FE0028DD
:1027800006DB6B6C23EA04036B6462B6204638BD3B
:1027900062B60020FBE700BF70DB002000000000F5
:1027A00010B54FF050431A680F4B03EB82035B6880
:1027B000DC68606304F13803A06B834205D1A37F1A
:1027C00043B10F20FFF7DCFD10BD0368A363FFF7E3
:1027D0004FFBEFE7E36A002BF3D1A26A636A136051
:1027E000A26A5A60EDE700BF70DB00200000000025
:1027F00010B5044672B600210348FFF719FD2046C4
:10280000FFF7CEFF10BD00BF44DC00200000000039
:102810008368013B8360002B01DB0020704710B50B
:102820004FF050431A68084B03EB82035B68DC6887
:1028300060632060436863601C6044600520FFF7AC
:102840009FFD606B10BD00BF70DB0020000000002A
:1028500010B5044607E062B622234B62236C0122C6
:102860002046984772B604F13000FFF7D1FF216A85
:10287000CA688B689360CA68DA604A6A22F001000D
:1028800048620B6A013B0B6212F0100FE3D110F0AB
:10289000020F05D04B680A681A600B684A685A60D4
:1028A00000234B62084610BD00000000000000003D
:1028B000F8B504464FF050431A682F4B03EB8203E0
:1028C0005B68DD688068002851D08268AB689A42F6
:1028D00007D28360037F062B15D0072B2AD0002B4D
:1028E0003DD023461B689C4203D09968AA68914258
:1028F000F8D22B605A686A6015605D606C630620D0
:10290000FFF73EFDF8BD476B06464268036813605B
:1029100042685A603B461B689F4203D09968B26880
:102920009142F8D233605A68726016605E60436B01
:102930009868CAE7476B06464268036813604268B6
:102940005A603B461B689F4203D09968B268914227
:10295000F8D233605A68726016605E60C1E7426800
:102960000368136042685A60FFF782FAB9E7A5600E
:10297000AB6CE360AC64C5E770DB002000000000D6
:1029800008B572B6FFF794FF62B608BD00000000FC
:10299000F8B505460F464FF050410A68144B03EB5B
:1029A00082025268D4680A6803EB82035B68DB68C2
:1029B0009E6C3046FFF7D4FB65632B461B689D4237
:1029C00003D0A26899689142F8D223605A68626085
:1029D00014605C6039460720FFF7EAFC0446B0F15A
:1029E000FF3F01D12046F8BD3046FFF761FFF9E710
:1029F00070DB00200000000000000000000000006C
:102A000008B572B6FFF7C4FF62B608BD000000004B
:102A100070B505464FF050410A68124B03EB820235
:102A20005268D4680A6803EB82035B68DB689E6CBB
:102A30003046FFF795FB65632B461B689D4203D02C
:102A40009968A2689142F8D223605A686260146063
:102A50005C600720FFF794FC646B3046FFF728FFAB
:102A6000204670BD70DB0020000000000000000068
:102A700008B572B6FFF7CCFF62B608BD00000000D3
:102A800038B54FF050431A680C4B03EB82035B6878
:102A9000DD6872B66B6C034007D0584218406B6C0F
:102AA00023EA00036B6462B638BD044668630A20FB
:102AB000FFF766FC6B6C2340EFE700BF70DB002084
:102AC00038B504464FF050431A680B4B03EB8203B2
:102AD0005B68DD6872B66B6C184005D06B6C23EADE
:102AE00000036B6462B638BD6C630A20FFF748FCD4
:102AF0006B6C03EA0400F1E770DB002000000000CB
:102B000038B504464FF050431A680B4B03EB820371
:102B10005B68DD6872B66B6C30EA030306D16B6CE0
:102B200023EA04036B6462B6204638BD68630B2059
:102B3000FFF726FCF3E700BF70DB00200000000079
:102B400010B54FF050431A680C4B03EB82035B68DF
:102B5000DC6872B6616300F13C032360036C636060
:102B60001C600464037F0E2B05D00C20FFF708FCCB
:102B7000606B62B610BDFFF77BF9F6E770DB0020F3
:102B800010B504464121FFF7DBFF42212046FFF745
:102B9000D7FF43212046FFF7D3FF44212046FFF70C
:102BA000CFFF10BD0000000000000000000000008A
:102BB00038B54FF050431A680A4B03EB82035B6849
:102BC000DD682C4654F83C3FA34206D0E86B03680E
:102BD000EB635C600D23037738BD0E20FFF7D0FB5D
:102BE000F4E700BF70DB00200000000000000000E0
:102BF00010B54FF050431A68064B03EB82035B6835
:102C0000DC6872B60320FFF7BBFB636B002BF9D0C7
:102C100062B610BD70DB0020000000000000000064
:102C200038B504464FF050431A68154B03EB820346
:102C30005D68E868616323699D420ED04FF05043A0
:102C40001B6D13F0020F04D04FF050434FF0FF32D2
:102C50005A652046FFF7D4F838BDA26883689A42C7
:102C600009D9FFF7FDFA014601232377EC602046DE
:102C7000FDF700FBF0E72046FFF7C2F8ECE700BFE6
:102C800070DB0020000000000000000000000000D9
:102C900008B50346006818B100221A60FFF7C0FFAC
:102CA00008BD00BF000000000000000000000000A0
:102CB00008B572B6FFF7ECFF62B608BD0000000071
:102CC00008B5034672B60068834205D002681A60F0
:102CD00053600021FFF7A4FF62B608BD00000000AA
:102CE00008B572B6FFF79CFF62B608BD0000000091
:102CF00010B572B6FFF75CFF62B6446B2146FFF772
:102D0000EFFF002CF5D110BD000000000000000016
:102D10000EB400B582B003AA52F8041B0192FEF76C
:102D200097FA02B05DF804EB03B0704700000000B2
:102D300038B505460C4604E004492846FFF7E8FF8D
:102D400008342268002AF7D138BD00BFE4AC002067
:102D5000F0B583B00E46174604680D4617E02149CA
:102D60002046FFF7D5FF01203AE0B5420FD0236897
:102D7000DB680821204698472368DB68202120462D
:102D800098472368DB68082120469847013D23685F
:102D90009B6801220DF1070120469847F8B19DF884
:102DA00007100429DBD00829DFD07F29DDD00D29C9
:102DB0000ED01F29EBD97B1E3344AB42E7D92368E1
:102DC000DB68204698479DF8073005F8013BDEE7B1
:102DD00005492046FFF79CFF0020287000E00120F5
:102DE00003B0F0BDE8AC0020A4BC0020000000004F
:102DF00008B5002903DC0020FFF7FAFC08BD024AF1
:102E00000249FFF785FFF9E7ECAC0020F4AC0020A5
:102E100010B582B0044600292BDC184A1849FFF788
:102E200077FF184A18492046FFF772FF174A1849DA
:102E30002046FFF76DFF174A17492046FFF768FF46
:102E4000164A17492046FFF763FF164A16492046DF
:102E5000FFF75EFF154A16492046FFF759FF154B4D
:102E60000093154B154A16492046FFF751FF02B053
:102E700010BD144A1449FFF74BFFF8E708AD0020D6
:102E800010AD002024AD002044AD002058AD00203E
:102E90006CAD002080AD00208CAD0020A0AD0020E6
:102EA000C0AD0020D4AD0020C4BB0020DCAD0020AC
:102EB000F0AD00202CAE002004AE002008AE0020B3
:102EC00014AE002000AD0020F4AC00200000000093
:102ED00008B5012904D0054A0549FFF719FF08BDC7
:102EE00012680449FFF714FFF9E700BF38AE00206D
:102EF000F4AC00206CBB00200000000000000000CB
:102F000010B50446002907DCFDF72AFB02460549F7
:102F10002046FFF7FDFE10BD034A0449FFF7F8FE07
:102F2000F9E700BF50AE002048AE0020F4AC00200E
:102F3000F0B587B00646002906DC1949FFF7E8FE20
:102F4000FDF726FE044617E0164A1749FFF7E0FE94
:102F500007B0F0BD0595CDF810E0CDF80CC002919A
:102F60000197009011493046FFF7D2FE2046FDF749
:102F70001FFE04460028EBD023691A6B6369E068E2
:102F80002746A17F0139D4F808C094F81CE0084D09
:102F900055F82EE0256A002DDCD1064DDAE700BF9A
:102FA00058AE0020B0CB0020F4AC00209CAE002036
:102FB0008CD500203CBB0020000000000000000079
:102FC0000FB400B583B004A951F8040B0191FEF7CA
:102FD00037FB03B05DF804EB04B07047000000005D
:102FE000F8B5264B01221A60254D26492846FFF7E1
:102FF000E7FF254C25492046FFF7E2FF24492846F4
:10300000FFF7DEFF23492046FFF7DAFF2249284673
:10301000FFF7D6FF21492046FFF7D2FF2049284677
:10302000FFF7CEFF1F492046FFF7CAFF1E4928467B
:10303000FFF7C6FF1D4F04213846FFF7C1FF1C4EA6
:1030400031462046FFF7BCFF1A492846FFF7B8FF74
:1030500020213846FFF7B4FF31462046FFF7B0FF86
:1030600015492846FFF7ACFF20213846FFF7A8FF97
:1030700031462046FFF7A4FFF8BD00BF8CDB0020DF
:10308000F4AE0020C8AE00206CBB002058AD00207C
:10309000F8AE002080AD002024AF002024AD002039
:1030A00050AF0020A0AD00207CAF0020A8AF0020D2
:1030B0003CBB0020ACAF0020D8AF002000000000D7
:1030C000F8B5224B01221A60214C22492046FFF715
:1030D00077FF214D21492846FFF772FF204F00213D
:1030E0003846FFF76DFF1F4E31462046FFF768FF59
:1030F0001D492846FFF764FF1C492046FFF760FF83
:103100001B492846FFF75CFF08213846FFF758FFA8
:1031100031462046FFF754FF16492846FFF750FF77
:1031200000213846FFF74CFF31462046FFF748FFA5
:1031300011492846FFF744FF00213846FFF740FFBA
:1031400031462046FFF73CFFF8BD00BF8CDB002076
:103150006CBB002004B00020F4AE002038B000208A
:10316000A8AF00203CBB002064B0002008AD0020C8
:1031700090B00020BCB00020E8B0002000000000AB
:103180002DE9F0414FF00108D04BC3F80080D04F3B
:10319000D0493846FFF714FFCF4E41463046FFF77F
:1031A0000FFFCE4DCE4C29462046FFF709FFCD49F3
:1031B0003846FFF705FF00213046FFF701FF29469B
:1031C0002046FFF7FDFEC8493846FFF7F9FE2021EB
:1031D0003046FFF7F5FE29462046FFF7F1FEC349CA
:1031E0003846FFF7EDFEC2493046FFF7E9FE2946B3
:1031F0002046FFF7E5FEBF493846FFF7E1FE2021F4
:103200003046FFF7DDFE29462046FFF7D9FEBA49D2
:103210003846FFF7D5FE20213046FFF7D1FE29467C
:103220002046FFF7CDFEB5493846FFF7C9FE142109
:103230003046FFF7C5FE29462046FFF7C1FEB049DC
:103240003846FFF7BDFE00213046FFF7B9FE29469C
:103250002046FFF7B5FEAB493846FFF7B1FE002127
:103260003046FFF7ADFE29462046FFF7A9FEA649E6
:103270003846FFF7A5FE41463046FFF7A1FE294636
:103280002046FFF79DFEA1493846FFF799FE4146CB
:103290003046FFF795FE29462046FFF791FE9C49F0
:1032A0003846FFF78DFE41463046FFF789FE294636
:1032B0002046FFF785FE97493846FFF781FE4146D5
:1032C0003046FFF77DFE29462046FFF779FE9249FA
:1032D0003846FFF775FE41463046FFF771FE294636
:1032E0002046FFF76DFE8D493846FFF769FE4146DF
:1032F0003046FFF765FE29462046FFF761FE884904
:103300003846FFF75DFE00213046FFF759FE29469B
:103310002046FFF755FE83493846FFF751FE4146E8
:103320003046FFF74DFE29462046FFF749FE7E490D
:103330003846FFF745FE00213046FFF741FE29469B
:103340002046FFF73DFE79493846FFF739FE4146F2
:103350003046FFF735FE29462046FFF731FE744917
:103360003846FFF72DFE41463046FFF729FE294635
:103370002046FFF725FE6F493846FFF721FE4146FC
:103380003046FFF71DFE29462046FFF719FE6A4921
:103390003846FFF715FE41463046FFF711FE294635
:1033A0002046FFF70DFE65493846FFF709FE414606
:1033B0003046FFF705FE29462046FFF701FE60492B
:1033C0003846FFF7FDFD00213046FFF7F9FD29469D
:1033D0002046FFF7F5FD5B493846FFF7F1FD414612
:1033E0003046FFF7EDFD29462046FFF7E9FD564937
:1033F0003846FFF7E5FD00213046FFF7E1FD29469D
:103400002046FFF7DDFD51493846FFF7D9FD002181
:103410003046FFF7D5FD29462046FFF7D1FD4C4940
:103420003846FFF7CDFD00213046FFF7C9FD29469C
:103430002046FFF7C5FD47493846FFF7C1FD00218B
:103440003046FFF7BDFD29462046FFF7B9FD42494A
:103450003846FFF7B5FDFF213046FFF7B1FD29469D
:103460002046FFF7ADFD3D493846FFF7A9FD802115
:103470003046FFF7A5FD29462046FFF7A1FD384954
:103480003846FFF79DFD00213046FFF799FD29469C
:103490002046FFF795FD33493846FFF791FD00219F
:1034A0003046FFF78DFD29462046FFF789FD2E495E
:1034B0003846FFF785FD00213046FFF781FD29469C
:1034C0002046FFF77DFDBDE8F08100BF8CDB0020CA
:1034D000F4AE002014B10020A8AF00203CBB0020B7
:1034E0006CBB002040B100206CB1002098B10020DE
:1034F00040420F00C4B10020F0B100201CB20020F7
:1035000048B2002074B20020A0B20020CCB200204B
:10351000F8B2002024B3002050B300207CB3002078
:10352000A8B30020D4B3002000B400202CB40020A5
:1035300058B4002084B40020B0B40020DCB40020D3
:1035400008B5002034B5002060B500208CB50020FF
:10355000B8B50020E4B5002010B600203CB600202D
:1035600068B6002094B60020C0B60020000000001D
:103570002DE9F843DFF81C810123C8F80030464FDD
:1035800046493846FFF71CFD454EE0213046FFF71F
:1035900017FD444D444C29462046FFF711FD0223F8
:1035A000C8F8003041493846FFF70AFD502130463F
:1035B000FFF706FD29462046FFF702FD0323C8F862
:1035C00000303B493846FFF7FBFC18213046FFF737
:1035D000F7FC29462046FFF7F3FC4FF00409C8F832
:1035E000009034493846FFF7EBFC0C213046FFF7DA
:1035F000E7FC29462046FFF7E3FC0523C8F8003026
:103600002D493846FFF7DCFC10213046FFF7D8FC87
:1036100029462046FFF7D4FC0623C8F80030274986
:103620003846FFF7CDFC08213046FFF7C9FC294694
:103630002046FFF7C5FC0723C8F80030204938466C
:10364000FFF7BEFC49463046FFF7BAFC2946204644
:10365000FFF7B6FC0823C8F800301A493846FFF7D0
:10366000AFFC14213046FFF7ABFC29462046FFF79C
:10367000A7FC0923C8F8003013493846FFF7A0FC1F
:1036800028213046FFF79CFC29462046FFF798FC8E
:10369000BDE8F8838CDB0020F4AE0020ECB60020FF
:1036A000A8AF0020FCB600206CBB002004B70020AF
:1036B00014B7002024B7002034B7002044B70020FE
:1036C00054B7002064B7002074B700200000000049
:1036D000F8B5264B01221A60254D26492846FFF7EA
:1036E0006FFC254C25492046FFF76AFC24492846F3
:1036F000FFF766FC23492046FFF762FC2249284673
:10370000FFF75EFC21492046FFF75AFC2049284676
:10371000FFF756FC1F492046FFF752FC1E4928467A
:10372000FFF74EFC1D4F04213846FFF749FC1C4EA5
:1037300031462046FFF744FC1A492846FFF740FC73
:1037400020213846FFF73CFC31462046FFF738FC85
:1037500015492846FFF734FC20213846FFF730FC96
:1037600031462046FFF72CFCF8BD00BF8CDB002063
:10377000F4AE0020C8AE00206CBB002058AD002085
:10378000F8AE002080AD002024AF002024AD002042
:1037900050AF0020A0AD00207CAF0020A8AF0020DB
:1037A0003CBB0020ACAF0020D8AF002000000000E0
:1037B0002DE9F0414FF00108224BC3F80080224C64
:1037C00022492046FFF7FCFB214D22492846FFF7FE
:1037D000F7FB214F00213846FFF7F2FB1F4E314621
:1037E0002046FFF7EDFB1E492846FFF7E9FB1D4980
:1037F0002046FFF7E5FB1C492846FFF7E1FB414661
:103800003846FFF7DDFB31462046FFF7D9FB174965
:103810002846FFF7D5FB04213846FFF7D1FB314698
:103820002046FFF7CDFB12492846FFF7C9FB0021D0
:103830003846FFF7C5FB31462046FFF7C1FBBDE820
:10384000F08100BF8CDB00206CBB002084B700201F
:10385000F4AE002038B00020A8AF00203CBB002010
:1038600064B00020B8B7002090B00020BCB00020A9
:10387000E8B0002000000000000000000000000090
:103880002DE9F0414FF00108704BC3F80080704FF4
:1038900070493846FFF794FB6F4E41463046FFF7BC
:1038A0008FFB6E4D6E4C29462046FFF789FB6D4914
:1038B0003846FFF785FB41463046FFF781FB294636
:1038C0002046FFF77DFB68493846FFF779FB414604
:1038D0003046FFF775FB29462046FFF771FB634929
:1038E0003846FFF76DFB00213046FFF769FB29469C
:1038F0002046FFF765FB5E493846FFF761FB41460E
:103900003046FFF75DFB29462046FFF759FB594932
:103910003846FFF755FB41463046FFF751FB294635
:103920002046FFF74DFB54493846FFF749FB414617
:103930003046FFF745FB29462046FFF741FB4F493C
:103940003846FFF73DFB41463046FFF739FB294635
:103950002046FFF735FB4A493846FFF731FB414621
:103960003046FFF72DFB29462046FFF729FB454946
:103970003846FFF725FB41463046FFF721FB294635
:103980002046FFF71DFB40493846FFF719FB41462B
:103990003046FFF715FB29462046FFF711FB3B4950
:1039A0003846FFF70DFB08213046FFF709FB294693
:1039B0002046FFF705FB36493846FFF701FB414635
:1039C0003046FFF7FDFA29462046FFF7F9FA31495C
:1039D0003846FFF7F5FA41463046FFF7F1FA294637
:1039E0002046FFF7EDFA2C493846FFF7E9FA414641
:1039F0003046FFF7E5FA29462046FFF7E1FA274966
:103A00003846FFF7DDFA41463046FFF7D9FA294636
:103A10002046FFF7D5FA22493846FFF7D1FA41464A
:103A20003046FFF7CDFA29462046FFF7C9FA1D496F
:103A30003846FFF7C5FA41463046FFF7C1FA294636
:103A40002046FFF7BDFABDE8F08100BF8CDB002007
:103A5000F4AE0020C0B70020A8AF00203CBB00207F
:103A60006CBB0020ECB7002018B8002044B8002040
:103A700070B800209CB80020C8B80020F4B800201E
:103A800020B900204CB9002078B90020A4B900204A
:103A9000D0B90020FCB9002028BA002054BA002078
:103AA00080BA0020ACBA0020000000000000000036
:103AB00070B506460D460C6800E02468AC4207D09D
:103AC00008223146A01807F097F80028F5D100E049
:103AD0000024204670BD00BF000000000000000070
:103AE00008B5FFF7E5FF034610B1426801324260B6
:103AF000184608BD000000000000000000000000A3
:103B000038B50D4600B128602C68A4B10F49204695
:103B100007F0CAF804442378222B0ED00B49204624
:103B200007F0A6F828602B681BB15A1C2A600022F7
:103B30001A70237843B1204638BD01342221204633
:103B400006F0F4FF2860EEE70024F4E7D8BA00207E
:103B5000F8B504460F4615461E4600E008342068B6
:103B600058B12946FCF71EFC0028F7D16368069A75
:103B7000314638469847002000E00120F8BD00BFDC
:103B80002DE9F04198B00646056847684FF050436C
:103B90001A684E4B03EB82035B68DB684C4A1A627F
:103BA0004C492846FFF7B4F84B492846FFF7B0F8D0
:103BB00025E048492846FFF7ABF848492846FFF773
:103BC000A7F80020FEF714FE18B0BDE8F08118AA8F
:103BD00002EB840141F8583C013417A90020FFF79B
:103BE0008FFF034650B3032CF1DD3D492846FFF714
:103BF0008FF818AB03EB8404002344F8583C4FF0D3
:103C000050431A68314B03EB82035B68DB6893F91E
:103C10001D30002BD5DB33492846FFF779F8002308
:103C2000402207A93046FFF793F80028C1D117A911
:103C300007A8FFF765FF80460024CEE7002218ABF7
:103C400003EB840343F8582CB8F1000FD7D0264972
:103C50004046FCF7A7FBC8B9002C11DC23492846D5
:103C6000FFF756F822492846FFF762F81FB1394698
:103C70002846FFF75DF817492846FFF749F8BEE7E1
:103C8000194A1C492846FFF743F8B8E702AB0093EE
:103C90002346424629461648FFF75AFF0028AED071
:103CA0004FB102AB00932346424629463846FFF700
:103CB0004FFF0028A3D042460F492846FFF728F8B7
:103CC0000E492846FFF724F899E700BF70DB002073
:103CD000DCBA0020A4BC0020E4BA002000BB002015
:103CE00008BB0020F8BA002020BB002028BB002021
:103CF0004CD50020F4AC0020F4AE002038BB0020EE
:103D0000704700BF0000000000000000000000003D
:103D1000704700BF0000000000000000000000002D
:103D2000FEE700BF000000000000000000000000EF
:103D3000704700BF0000000000000000000000000D
:103D4000704700BF000000000000000000000000FD
:103D5000704700BF000000000000000000000000ED
:103D6000FEE700BF000000000000000000000000AF
:103D70000B4A11E050F8041B43F8041B9168994268
:103D8000F8D802E0002143F8041BD1689942F9D821
:103D90001032044B9A4202D210685368EEE7704723
:103DA00040D00020C0D00020000000000000000033
:103DB00008B5FDF77DF9FCF713FDFCF739FCFCF7BE
:103DC00037FD08BD000000000000000000000000FA
:103DD00038B5044672B68160FDF79AF9054650B9C8
:103DE0000223237140F2FC73E3602046FCF728FCB9
:103DF00062B6284638BD01232371F3E700000000B6
:103E000008B50348FEF76CF8FDF72AF908BD00BFB6
:103E100060D9002000000000000000000000000049
:103E200008B5054B0122DA6372B6FDF7E1FF62B611
:103E3000FDF716F908BD00BF00000B4000000000B0
:103E400008B5054B0222DA6372B6FDF7D1FF62B600
:103E5000FDF706F908BD00BF00000B4000000000A0
:103E600008B5054B0422DA63044B9B680BB10220B2
:103E70009847FDF7F5F808BD00000B4048DC00202E
:103E800008B5054B0822DA63044BDB680BB103204D
:103E90009847FDF7E5F808BD00000B4048DC00201E
:103EA000704700BF0000000000000000000000009C
:103EB000024B1B788342FBD1704700BF70DB0020B0
:103EC00008B54FF050431A68064B03EB82035B685A
:103ED000D9681B689A688B689A4201D9FEF730FA54
:103EE00008BD00BF70DB00200000000000000000E3
:103EF00010F0010F0BD108B5EFF30583C3F30803EE
:103F00000BB162B608BDFFF7DBFF62B6FAE7704798
:103F100008B572B662B672B6FCF70AFDFFF7E8FFA5
:103F200062B608BD000000000000000000000000B4
:103F300010B54FF050431A68094B03EB82035B68DE
:103F4000DB6872B6DC6C9A68A24201D0824200D271
:103F50009860D864FFF7B4FF62B6204610BD00BF7A
:103F600070DB0020000000000000000000000000E6
:103F700008B572B6FEF7B4F8FFF7A2FF62B608BD47
:103F800008B56FF0010200210148FFF7F1FF08BDFD
:103F90002CDC0020000000000000000000000000F9
:103FA00038B50C4672B6826801328260002A09DD9B
:103FB000A368013BA360002B0EDBFFF781FF00200D
:103FC00062B638BD0346006802681A605360FDF7A8
:103FD0004FFF00234363EBE74FF050431A68084B51
:103FE00003EB82035B68DD682C6063686B601D60B7
:103FF00065606C630520FEF7C3F9686BE0E700BFFE
:1040000070DB002000000000000000000000000045
:1040100010B501464FF050431A68144B03EB82036E
:104020005B68DC6872B6C368A364026882421AD017
:10403000E06C00E0DB683BB11A689342FAD092680A
:104040009042F7D21046F5E7A060086803680B605D
:1040500059608860836CCB608164FDF709FFFFF7CE
:104060002FFF62B610BD00238360FAE770DB0020EB
:104070002DE9F84305460F46914600F120084046D9
:10408000FEF77EFC6E682C68341B2B69E41AA14590
:1040900000D84C4623442B61A868361AB44215D385
:1040A000B4421BD932463946FCF706F9A4EB06099F
:1040B0004A46B9192868FCF7FFF82B684B44AB60F7
:1040C0004046FFF7A5FF2046BDE8F8832246394663
:1040D000FCF7F2F8AB682344AB60F1E722463946BF
:1040E000FCF7EAF82B68AB60EAE700BF00000000CD
:1040F0002DE9F84305460F46144600F120084046D6
:10410000FEF73EFC2B699C4200D91C461B1B2B6111
:104110006E68E968761AB44215D3B4421BD93246A8
:104120003846FCF7C9F8A4EB06094A462968B819CD
:10413000FCF7C2F82B684B44EB604046FFF768FF82
:104140002046BDE8F88322463846FCF7B5F8EB6810
:104150002344EB60F1E722463846FCF7ADF82B68C4
:10416000EB60EAE700000000000000000000000033
:104170002DE9F8439846037D13B10020BDE8F8838C
:1041800005460E46174600F130094846FEF7F8FB93
:104190003C4606E0241A0644002105F11C00FEF707
:1041A00087FD7CB1224631462846FFF761FF002893
:1041B000F0D172B6414605F11800FEF731F962B64A
:1041C0000028EED04846FFF723FF381BD6E700BF94
:1041D0002DE9F8439846037D13B10020BDE8F8832C
:1041E00005460E46174600F140094846FEF7C8FB53
:1041F0003C4606E0241A0644002105F11800FEF7AB
:1042000057FD7CB1224631462846FFF771FF002852
:10421000F0D172B6414605F11C00FEF701F962B615
:104220000028EED04846FFF7F3FE381BD6E700BF64
:1042300010B54FF050431A68104B03EB82035B68D4
:10424000DC68A36C5BB917E002681A605360986081
:10425000826CDA608364FDF70BFEA36C43B1A36C40
:10426000DA68A26418688342EED100229A60F4E70B
:10427000E36CA360FFF724FE10BD00BF70DB0020DD
:1042800008B572B6FFF7D4FF62B608BD00000000A3
:1042900008B572B6FDF7A4FFFFF712FE62B608BDBF
:1042A00008B572B6FDF7ACFFFFF70AFE62B608BDAF
:1042B00008B572B6FDF7BCFFFFF702FE62B608BD97
:1042C00008B572B6FDF7F4FEFFF7FAFD62B608BD59
:1042D00008B50248FFF7F4FF08BD00BFACD80020C6
:1042E00008B50248FFF7ECFF08BD00BFACD80020BE
:1042F00008B50248FFF7E4FF08BD00BFACD80020B6
:1043000070B504460E461546237D2BBB63682268B4
:104310009B1A2069B0EBA30F08D1294604F11800BD
:10432000FEF76EF903460028EED017E0A3681A1DC9
:10433000A2601E60A26863689A4201D32368A360EA
:10434000236901332361002104F12000FDF720FEE1
:10435000FFF7B6FD002301E06FF00103184670BDC2
:1043600070B504460D461646237D23BB636820685E
:104370001A1A2169B1EBA20F08D1314604F11800D5
:10438000FEF73EF903460028EED016E0E268043A54
:10439000E260824201D2043BE360E3681D6023696E
:1043A00001332361002104F12000FDF7F1FDFFF747
:1043B00087FD002301E06FF00103184670BD00BFC8
:1043C00008B572B6FFF7CCFF62B608BD000000006A
:1043D00070B504460E461546237D0BBB236943B9D1
:1043E000294604F12000FEF70BF903460028F3D01C
:1043F00018E0E3681A1DE2601B683360E2686368D6
:104400009A4201D32368E3602369013B23610021C1
:1044100004F11800FDF7BCFDFFF752FD002301E099
:104420006FF00103184670BD00000000000000009E
:1044300038B5044600F120052846FEF7A1FA2368A6
:10444000A360E360002323610123237572B66FF03C
:10445000010104F11800FDF733FD6FF0010104F1D3
:104460001C00FDF72DFDFFF72BFD62B62846FFF778
:10447000CFFD38BD0000000000000000000000007B
:1044800008B572B68368002B03DDFFF719FD62B62D
:1044900008BDFDF735FEF8E7000000000000000051
:1044A00010B54FF050431A68094B03EB82035B6869
:1044B000D8681C6822681A60536001222277DC6089
:1044C000FDF7CEFE01462046FBF7D4FE10BD00BF2F
:1044D00070DB002000000000000000000000000071
:1044E0002DE9F04188B004460E464FF050431B685A
:1044F000DFF8A08008EB8302506003634163FCF7A0
:1045000077FD246064600025A56004F11007276131
:104510007F604FF0FF33BB60FD6014233B61FCF70D
:104520001FF802462B46C7E90623C4F8D8501A4B99
:10453000019373680293B3680393802304930595F2
:104540000695079401A904F18800FCF749FAE06098
:1045500000F1240308F110024262D8F814208262AC
:104560001360C8F81430E268012313770B4A0192F4
:10457000F2680292326903920493094B05930695FF
:10458000079401A904F13800FDF792FC08B0BDE8DA
:10459000F08100BF70DB002040BB002048BB002042
:1045A000D109002000000000000000000000000011
:1045B00010B572B6FCF764FA04460021FEF730FB32
:1045C00062B6204610BD00BF0000000000000000E1
:1045D000F0B589B01E460E9F43181849019102900C
:1045E00003930492059606974FF050421268144DBB
:1045F00005EB82025268079201A9A3F16000FCF763
:10460000EFF90446A0F12403C36040F8246C40F89D
:10461000207C0C4A40F8042C72B600F1240305F10A
:10462000100242626A69826213606B610021FEF7C8
:10463000F7FA62B6204609B0F0BD00BF50BB0020BB
:1046400070DB002095020020000000000000000048
:1046500008B572B6FEF7A4F808BD00BF0000000060
:1046600008B5FFF7F5FF08BD0000000000000000DE
:1046700038B504464FF050431A680B4B03EB8203E6
:104680005B68DB6872B6027F0F2A05D0826B1A6006
:1046900083630920FDF774FE656B62B62046FCF764
:1046A00017FA284638BD00BF70DB0020000000006C
:1046B00010B5002400E00134042C0BD8064B53F84D
:1046C00024000028F7D0FFF7D3FF034B002243F864
:1046D0002420F0E710BD00BF20E50020000000000E
:1046E00008B5FFF7E5FF08BD00000000000000006E
:1046F00008B5FFF7DDFF08BD000000000000000066
:1047000008B5FFF7D5FF08BD00000000000000005D
:1047100008B5014672B60820FDF74AFE62B608BD2C
:104720002DE9F04105464C48FEF74AFC296800296E
:1047300049D04A48FEF744FC494C2046FEF740FC6D
:1047400048494948FEF73CFC48494948FEF738FCCF
:1047500048494948FEF734FC2046FEF731FC4749FA
:10476000474BC91A4748FEF72BFC4749474BC91A24
:104770004748FEF725FC4749474BC91A4748FEF70B
:104780001FFC4749474BC91A4748FEF719FC3248F6
:10479000FEF716FC4FF00008444B83F804806B686A
:1047A0004FEA880653F82830002B43D0FCF738FF37
:1047B00008F101086B689B591A6841463C48FEF7AE
:1047C000FFFB002406E03B48FEF7FAFBB4E73A485B
:1047D000FEF7F6FB6B689B595B68A70053F8243023
:1047E000002BDCD0FCF70CFF01346B689B595B6835
:1047F000DB591B68224641463048FEF7E1FB304852
:10480000FFF786FF6B689B595B68D859FCF778FE09
:10481000264B5B79002BDAD0244FBB68294A3968D4
:104820002948FEF7CDFBFCF7CBFEB9682748FEF719
:10483000C7FBCFE7FCF7E4FE0748FEF7C1FB1B4BC5
:104840001B793BB122492348FEF7BAFB174B187975
:10485000BDE8F0812049F6E7A4BC002068BB002039
:1048600088BB002090BB0020A8BB0020D4AD002056
:10487000C0BB0020DCAD0020D8BB0020DCAC002099
:1048800020010020F0BB00207CD80020DCAC002000
:1048900010BC002058D900207CD8002030BC00205B
:1048A000A0F2002060D9002050BC00208CDB00204A
:1048B00070BC002074BB0020D0BC00208CBC002049
:1048C000400D03003CBB0020A8BC0020C4BC00205D
:1048D00060BB0020E8BC002058BB002000000000A6
:1048E00008B5044B5862044A1A620846FFF718FFDD
:1048F00008BD00BF8CDB0020D114002000000000A8
:1049000008B50249FFF7ECFF08BD00BF10D5002035
:1049100008B50249FFF7E4FF08BD00BFFCCF002047
:1049200008B50120FFF7F4FE72B6FBF719FE62B678
:1049300008BD00BF000000000000000000000000F3
:1049400070B50546FFF7ECFF064600240121284616
:10495000FEF7F6F80134FBF703FE801B044B984288
:10496000F4D900212846FEF7EBF8204670BD00BFC1
:104970003F420F00000000000000000000000000A7
:1049800070B582B01B4D01232B604FF050431A6865
:10499000194B03EB82035B68DB689A680023009382
:1049A000164B013A4FF4E0711548FFF711FE154B15
:1049B000186002232B60FFF7C3FF0446FFF778FE61
:1049C00003232B60104E11493046FEF7F9FA104DC3
:1049D00021462846FEF7F4FA0E493046FEF7F0FA73
:1049E00061002846FEF7ECFA0B490C48FEF7E8FA9E
:1049F00002B070BD8CDB002070DB0020F12C0020A9
:104A000060DC002020E50020F4AE0020FCBC00208B
:104A1000A8AF00200CBD002018BD00206CBB0020FA
:104A200070B582B01B4D01232B604FF050431A68C4
:104A3000194B03EB82035B68DB689A6800230093E1
:104A4000164B01324FF4E0711548FFF7C1FD154BCD
:104A5000186002232B60FFF773FF0446FFF728FE60
:104A600003232B60104E11493046FEF7A9FA104D72
:104A700021462846FEF7A4FA0E493046FEF7A0FA72
:104A800061002846FEF79CFA0B490C48FEF798FA9D
:104A900002B070BD8CDB002070DB0020F12C002008
:104AA00060DC002020E50020F4AE0020FCBC0020EB
:104AB000A8AF00200CBD002018BD00206CBB00205A
:104AC0002DE9F04782B0DFF810910123C9F80030DA
:104AD0004FF05048D8F80030404C04EB83035B683B
:104AE000DB689A683E4E002700973E4B01324FF438
:104AF000E0713046FFF76CFD3B4D28600223C9F89A
:104B00000030D8F8003004EB83035B68DB689A68F8
:104B1000DFF8D8A000975346023A4FF4E0717018BE
:104B2000FFF756FD6860D8F8003004EB83035B683C
:104B3000DB689A6800975346033A4FF4E07106F534
:104B40006070FFF745FDA860D8F8003004EB8303E0
:104B50005B68DB689A6800975346043A4FF4E0714B
:104B600006F5A860FFF734FDE860D8F8003004EBE4
:104B700083046368DB689A6800975346053A4FF4EC
:104B8000E07106F5E060FFF723FD28610323C9F813
:104B900000302868FFF7D4FE0446FFF789FD0423A0
:104BA000C9F80030124E13493046FEF709FA124D8B
:104BB00021462846FEF704FA10493046FEF700FA6F
:104BC00061002846FEF7FCF90D490E48FEF7F8F99A
:104BD00002B0BDE8F08700BF8CDB002070DB002056
:104BE00060DC0020F12C002020E500206146002040
:104BF000F4AE0020FCBC0020A8AF00200CBD0020BB
:104C000018BD00206CBB0020000000000000000068
:104C100070B582B0284E012333604FF050431A68BC
:104C2000264B03EB82035B68DB689A6800250095DE
:104C3000234B01324FF4E0712248FFF7C9FC0446D0
:104C4000214B186002233360FFF76AFE064672B6F6
:104C500000212046FDF7E4FF00212046FDF7E0FF9C
:104C600000212046FDF7DCFF00212046FDF7D8FF9C
:104C700062B60435FBF774FC801B144B9842E6D9EE
:104C80000D4E0323336072B64FF0FF312046FDF71F
:104C9000C7FF62B6FFF70CFD042333600C490D48D3
:104CA000FEF78EF969000C48FEF78AF90B490C48AB
:104CB000FEF786F902B070BD8CDB002070DB0020AF
:104CC000F12B002060DC002020E500203F420F0097
:104CD000FCBC0020F4AE0020A8AF002018BD0020CE
:104CE0006CBB00200000000000000000000000007D
:104CF00070B582B04FF050431A68184B03EB820333
:104D00005B68DB689E68013E154B01221A60FFF765
:104D100007FE0546002400230093124B32464FF451
:104D2000E0711148FFF754FCFFF7A2FC0134FBF7D8
:104D300017FC401B0D4B9842EDD9094B02221A601B
:104D40000B490C48FEF73CF921460B48FEF738F9B1
:104D50000A490B48FEF734F902B070BD70DB002041
:104D60008CDB00206146002060DC00203F420F0009
:104D7000FCBC0020F4AE0020A8AF002024BD002021
:104D80006CBB0020000000000000000000000000DC
:104D900070B582B04FF050431A68184B03EB820392
:104DA0005B68DB689E680136154B01221A60FFF7CD
:104DB000B7FD0546002400230093124B32464FF402
:104DC000E0711148FFF704FCFBF782FE0134FBF7AA
:104DD000C7FB401B0D4B9842EDD9094B02221A60CC
:104DE0000B490C48FEF7ECF821460B48FEF7E8F8B3
:104DF0000A490B48FEF7E4F802B070BD70DB0020F2
:104E00008CDB00206146002060DC00203F420F0068
:104E1000FCBC0020F4AE0020A8AF002024BD002080
:104E20006CBB00200000000000000000000000003B
:104E30002DE9F04782B0DFF838A10123CAF800302D
:104E40004FF05049D9F800304A4D05EB83035B68B9
:104E5000DB689A68DFF82081484F002400944346BD
:104E600005324FF4E0713846FFF7B2FB444E306034
:104E7000D9F8003005EB83035B68DB689A6800941F
:104E8000434604324FF4E0717818FFF7A1FB7060DD
:104E9000D9F8003005EB83035B68DB689A680094FF
:104EA000434603324FF4E07107F56070FFF790FB63
:104EB000B060D9F8003005EB83035B68DB689A6863
:104EC0000094434602324FF4E07107F5A860FFF703
:104ED0007FFBF060D9F8003005EB83056B68DB6879
:104EE0009A680094434601324FF4E07107F5E060A0
:104EF000FFF76EFB30610223CAF80030FFF710FDA8
:104F000005466FF0010200211E48FFF731F8013419
:104F1000FBF726FB401B1C4B9842F2D9144D032390
:104F20002B60FCF715FD6FF0010200211548FFF71B
:104F30001FF8FFF7BDFB04232B60144E14493046C5
:104F4000FEF73EF8134D21462846FEF739F8124980
:104F50003046FEF735F804EB440461002846FEF7BE
:104F60002FF80E490E48FEF72BF802B0BDE8F08787
:104F70008CDB002070DB00207153002060DC0020FF
:104F800020E5002038DC00203F420F00F4AE002076
:104F9000FCBC0020A8AF002030BD002018BD0020C0
:104FA0006CBB0020000000000000000000000000BA
:104FB0002DE9F0411B4B01221A60FFF7B1FC80463E
:104FC000002772B6184E194D00233246012128469B
:104FD000FCF786FE164C0023324642F21071204642
:104FE000FCF77EFE2846FCF7D3FD2046FCF7D0FDFB
:104FF00062B60137FBF7B4FAA0EB08000D4B9842FC
:10500000DFD9084B02221A600B490C48FDF7D8FF84
:1050100079000B48FDF7D4FF0A490B48FDF7D0FF94
:10502000BDE8F0818CDB0020F11A002038E500207B
:1050300050E500203F420F00FCBC0020F4AE0020F1
:10504000A8AF002044BD00206CBB00200000000081
:1050500070B51B4B01221A60FFF762FC0646002563
:10506000184C2046FDF78CFC2046FEF7D1FF204669
:10507000FDF786FC2046FEF7CBFF2046FDF780FCBF
:105080002046FEF7C5FF2046FDF77AFC2046FEF7D6
:10509000BFFF0135FBF764FA801B0B4B9842DFD949
:1050A000074B02221A6009490948FDF789FFA90048
:1050B0000848FDF785FF08490848FDF781FF70BDE6
:1050C0008CDB00201CDC00203F420F00FCBC0020D9
:1050D000F4AE0020A8AF002050BD00206CBB002023
:1050E00008B54CF25030FFF713FB72B60348FDF7DA
:1050F00007F8FEF7E5FE62B608BD00BF2CDC002015
:1051000010B54CF25030FFF703FB044C2046FDF77E
:1051100037FC2046FEF77CFF10BD00BF8CD8002076
:1051200010B50748FFF7F4FA72B6064C2046FDF7B3
:10513000BFFB2046FDF714F8FEF7C2FE62B610BDB5
:10514000F04902009CD80020000000000000000090
:1051500010B504464CF25030FFF7DAFA0121204630
:10516000FFF79EF810BD00BF000000000000000027
:1051700008B500210548FFF79BF84CF25030FFF7C7
:10518000C7FA00210248FFF793F808BD84D8002031
:1051900088D800200000000000000000000000008F
:1051A0002DE9F04784B0DFF808A10123CAF80030E8
:1051B00000230393FFF7B4FB4FF05049D9F80030B8
:1051C0003C4C04EB83035B68DB689A683A4F3B4EC8
:1051D0000DF10C08CDF800803B46013A4FF4E07128
:1051E0003046FFF7F5F9364D2860D9F8003004EB6A
:1051F00083035B68DB689A68CDF800803B46013A20
:105200004FF4E0717018FFF7E3F96860D9F80030E7
:1052100004EB83035B68DB689A68CDF800803B464B
:10522000013A4FF4E07106F56070FFF7D1F9A8601C
:10523000D9F8003004EB83035B68DB689A68CDF82B
:1052400000803B46013A4FF4E07106F5A860FFF795
:10525000BFF9E860D9F8003004EB83046368DB68C9
:105260009A68CDF800803B46013A4FF4E07106F5AC
:10527000E060FFF7ADF928610223CAF80030114859
:10528000FFF746FAFCF764FBFFF712FA0323CAF8AC
:1052900000300D490D48FDF793FE03990C48FDF7CA
:1052A0008FFE0C490C48FDF78BFE04B0BDE8F0877B
:1052B0008CDB002070DB00200123002060DC00205C
:1052C00020E5002040420F00FCBC0020F4AE00208E
:1052D000A8AF002018BD00206CBB0020000000001B
:1052E0000060406081607047000000000000000026
:1052F00008B501210148FFF7F3FF08BD2CDC0020B1
:1053000008B500210148FFF7EBFF08BD2CDC0020A9
:1053100008B500210148FFF7E3FF08BD2CDC0020A1
:1053200008B500210148FFF7DBFF08BD2CDC002099
:1053300008B500210148FFF7D3FF08BD2CDC002091
:1053400008B500210148FFF7CBFF08BD38DC00207D
:1053500008B501210148FFF7C3FF08BD38DC002074
:1053600008B572B6FDF754FA62B608BD0000000039
:1053700008B502E00748FFF7F3FF4FF050431A6803
:10538000054B03EB82035B68DB6893F91D30002B50
:10539000F0DA08BD38DC002070DB002000000000DF
:1053A00072B6826801328260002A01DD62B67047FF
:1053B00008B50346006802681A6053600021FDF7D3
:1053C0002FFC62B608BD00BF000000000000000016
:1053D00010B5044C2046FFF7C3FF2046FFF7E0FF5F
:1053E00010BD00BF2CDC0020000000000000000009
:1053F00070B51B4B01221A60FFF792FA0646002592
:10540000184C2046FFF7ACFF2046FFF7C9FF2046A7
:10541000FFF7A6FF2046FFF7C3FF2046FFF7A0FFD8
:105420002046FFF7BDFF2046FFF79AFF2046FFF713
:10543000B7FF0135FBF794F8801B0B4B9842DFD97F
:10544000074B02221A6009490948FDF7B9FDA90076
:105450000848FDF7B5FD08490848FDF7B1FD70BDE6
:105460008CDB002038DC00203F420F00FCBC002019
:10547000F4AE0020A8AF002060BD00206CBB00206F
:1054800010B50446016001EB82024260C160816098
:105490000023036103751830FBF73AFB04F1200089
:1054A000FBF736FB10BD00BF00000000000000004D
:1054B00008B5042202490348FFF7E2FF08BD00BF18
:1054C000FCDB0020ACD80020000000000000000041
:1054D00008B5042202490348FFF7D2FF08BD00BF08
:1054E000FCDB0020ACD80020000000000000000021
:1054F00008B5042202490348FFF7C2FF08BD00BFF8
:10550000FCDB0020ACD80020000000000000000000
:1055100008B572B6FEF7F4FE62B608BD00000000E2
:1055200008B572B6FEF754FF62B608BD0000000071
:1055300008B5CB1D23F00703591A521A0021016048
:10554000C36001611960083AD2085A6043605B6821
:105550000133DB0083601430FBF742FB08BD00BF62
:1055600008B54FF40C6202490248FFF7E1FF08BD9D
:1055700060DC0020D8DB00200000000000000000FC
:105580002DE9F8430F4615468046002838D0072DF0
:1055900000D80825FE1DF60808F114094846FDF755
:1055A000EFF908F10C0421462468002C4AD0631955
:1055B00007336A421340083B6068421C04EBC20296
:1055C0009A42F0D903F1080CA2EB0C024FEAE20C6C
:1055D000B6EBE20FE7D89C4215D204F108029A1A02
:1055E000D2106260B44521D9701C03EBC001ACEB52
:1055F0000602013A4A60226843F83020216015E033
:10560000DFF86880C3E7B04218D0013604EBC60269
:10561000236844F836306368013304EBC30302F1B6
:1056200008001B1ADB1053600A6023465F601C46AB
:1056300044F8088B4846FEF7EBFC13E023680B6048
:105640002346F3E74846FEF7E3FCD8F800304BB1B9
:1056500008222946F0009847044618B140F8088C03
:1056600040F8047C2046BDE8F88300BFB4DB00208E
:10567000F0B589B00D4617461E462022FFF780FF81
:105680000446B0B1054401970290039504960E9B21
:1056900005930F9B06930025079572B601A8FBF7AB
:1056A000EFF90446044BC36205632946FDF7B8FAD7
:1056B00062B6204609B0F0BD31580020000000005D
:1056C00030B583B00446012921D11568194928460F
:1056D000FAF768FE30B318492846FAF763FED8B9DE
:1056E000164A4FF050431968154B03EB81035B6872
:1056F000DB689B6801940092124A4FF440710020CD
:10570000FFF7B6FF80B1FEF7B3FF03B030BD0E4A1E
:105710000E49FDF7FDFAF8E70B4A0C492046FDF764
:10572000F7FAF2E70A4ADCE70A492046FDF7F0FA01
:10573000EBE700BF80BD002078BD002011490020AC
:1057400070DB002068CA002070BD0020F4AC00208F
:105750000149002084BD002000000000000000007E
:10576000F8B506460F4614461D46FEF7A1F980B966
:105770002A462146FFF704FF044658B100F108010C
:105780003046FBF70DFC012363603B6823603C60FF
:1057900000E000242046F8BD0000000000000000EA
:1057A000F8B50646A0F1080450F8087C07F10C058E
:1057B00050F8043C0733DB0840F8043C1437384603
:1057C000FDF7DEF82B4604E01A683AB1944205D39F
:1057D0001B689D42F8D0A342FAD2F5E746F8082CA0
:1057E0001C6056F8041C4A1C04EBC20256F8080C54
:1057F000824209D059684A1C03EBC20294420CD081
:105800003846FEF705FCF8BD42681144013146F800
:10581000041C026846F8082CECE756F8042C1144E6
:105820000131596056F8082C1A60E9E700000000C1
:1058300008B54069FFF7B4FF08BD00BF00000000D5
:1058400038B50546FBF7BCFB50B16C68013C6C6099
:105850000CB1204638BDFBF7C3FBFFF7A1FFF8E70B
:105860000024F6E700000000000000000000000037
:105870002DE9F0410E461546044698B104F114078F
:105880003846FDF77DF804F10C03002214469046DB
:105890001B684BB1586808F1010804448242F7D2F2
:1058A0000246F5E7064CE9E70EB1E40034600DB1BD
:1058B000D2002A603846FEF7ABFB4046BDE8F081D7
:1058C000B4DB002000000000000000000000000029
:1058D00030B585B0044600291EDC02AA03A90020C9
:1058E000FFF7C6FF05466846FBF78AFA019A0D499D
:1058F0002046FDF70DFA2A460B492046FDF708FA27
:10590000039A0A492046FDF703FA029A08492046FD
:10591000FDF7FEF905B030BD064A0749FDF7F8F975
:10592000F8E700BF98BD0020B8BD0020D0BD002022
:10593000F0BD002094BD0020F4AC00200000000069
:1059400038B5044668B1206810B1FBF719FAA0B366
:1059500004F114052846FDF713F804F10C030022A6
:1059600004E0174CEFE700222AB31A461B68C3B1C4
:105970009A421CD213F0070F1BD15A680132D20091
:105980006068A16801390144013A9A18EBD2834258
:1059900003D3914203D20022E6E70022E4E701228A
:1059A000E2E700242846FEF733FB204638BD0124F9
:1059B000F8E70124F6E70124F4E70124F5E700BF46
:1059C000B4DB002000000000000000000000000028
:1059D00010B40024046041608260C36010BC704752
:1059E00038B5124C2046FBF7FBF804F11003236195
:1059F0000F4D2B46042214216018FFF7E9FF04F134
:105A00002403636204F12803A3622B4604221C21B1
:105A100004F12C00FFF7DCFF04F13C03E36304F125
:105A20004003236404F14403636438BD20DB002099
:105A3000910F0020000000000000000000000000A6
:105A400010B586B0194B01221A70002305E0174AE1
:105A500002EB8302002151600133012BF7D9134B74
:105A60000022DA606846FBF75BF804246846FBF71F
:105A700067F86846FBF76CF8013CF7D10B4C009BCC
:105A8000E36004F11003236163610023A361FBF76A
:105A900087F9FBF7C5F9FFF7A3FF05490548FEF7AE
:105AA0001FFD0223237062B606B010BD70DB00201C
:105AB000A4CD0020A0D900200000000000000000BC
:105AC00008B5002304224FF4E0710248FFF780FF7D
:105AD00008BD00BF0CDC002000000000000000003A
