:020000042000DA
:10000000000204200D0200200F0200200F02002039
:100010000F0200200F0200200F0200200F0200201C
:100020000F0200200F0200200F0200200F0200200C
:100030000F0200200F020020116200200F0200209A
:10004000E13D0020013E0020213E0020413E0020F5
:100050000F0200200F0200200F0200200F020020DC
:100060000F0200200F0200200F0200200F020020CC
:100070000F0200200F0200200F0200200F020020BC
:100080000F0200200F0200200F0200200F020020AC
:10009000A13D0020C13D00200F0200200F020020E2
:1000A0000F0200200F0200200F0200200F0200208C
:1000B0000F0200200F0200200F0200200F0200207C
:1000C00072B63E4880F308883D4880F30A883D4870
:1000D00080F309883C4880F30B883C483C49086021
:1000E000022080F31488BFF36F8F03F0D9FD03F073
:1000F000B7FE4FF055303249304A91423CBF41F88B
:10010000040BFAE730492F4A91423CBF41F8040BF7
:10011000FAE73049304A314B9A423EBF51F8040B5E
:1001200042F8040BF8E700202D492E4A91423CBFCB
:1001300041F8040BFAE703F0EBFD03F0B9FD2A4C9C
:100140002A4DAC4203DA54F8041B8847F9E70AF059
:10015000AFFB274C274DAC4203DA54F8041B884709
:10016000F9E703F0ADBD00BF72B6234880F30888FD
:10017000224880F30988022080F31488BFF36F8F30
:1001800012481349086003F0A3FD03F0A9FD4FF0E6
:1001900055301B49184A914202DA08600431FAE7E7
:1001A0001849164A914202DA08600431FAE703F06E
:1001B0009FFD0AF0B5FB1449084700000002042027
:1001C000000004200004042000020420000000209D
:1001D00008ED00E03CD800203CD8002018D90020D1
:1001E00020D90020A0F20020C0000020C000002084
:1001F000C0000020C00000200012042000140420D1
:100200000010042000120420013D002058E700F0F7
:1002100000F8FEE7F0B544464D4656465F46F0B45A
:100220006B46CB60C3689D46F0BCA046A946B2466B
:10023000BB46F0BD05F0F4FF62B62846A04700209B
:1002400004F0E6F9FEE704F00BF9024A4FF0004330
:100250001360FEE704ED00E0844641EA000313F07A
:10026000030349D1403A23D30B6803604B684360D2
:100270008B688360CB68C3600B6903614B69436122
:100280008B698361CB69C3610B6A03624B6A43620A
:100290008B6A8362CB6AC3620B6B03634B6B4363F2
:1002A0008B6B8363CB6BC36340304031403ADBD20E
:1002B00030320BD30B6803604B6843608B688360FC
:1002C000CB68C36010301031103AF3D20C3205D332
:1002D00051F8043B40F8043B043AF9D2043208D008
:1002E000D2071CBF11F8013B00F8013B01D30B887A
:1002F00003806046704700BF082A13D38B07B1D034
:1003000010F00303AED0C3F10403D21ADB071CBF05
:1003100011F8013B00F8013BA4D331F8023B20F86F
:10032000023B9FE7043AD9D3013A11F8013B00F8A8
:10033000013BF9D20B7803704B7843708B78837054
:100340006046704780EA010C1CF0030F37D110F0B3
:10035000030C20F0030021F0030150F8042B08BF28
:1003600051F8043B0ED08CF0030C6FF07F434FEA42
:10037000CC0C23FA0CFC51F8043B42EA0C0243EA91
:100380000C0300BFA2F1013C9A4201BF2CEA020C0F
:100390001CF0803F50F8042B51F8043BF2D04FEA98
:1003A00002604FEA1222012828BFB0EB036F08BF9A
:1003B0001B0AF4D003F0FF03000EC01A704710F0C0
:1003C000030F0AD010F8012B11F8013B012A28BFB6
:1003D0009A42F4D0A2EB030070474DF8045D50F848
:1003E000042B01F0030521F0030151F8043B022D19
:1003F00026D04DD822F07F45B5EB132FA2F1013C5A
:100400002CEA020C0DD11CF0803C08BF51F8043BD3
:100410000AD185EA0205B5EB036F0CD150F8042B25
:10042000E8E74FEA13235BE03CF07F4C54D10B78B4
:100430004FEA126554E04FEA126503F0FF034FE004
:100440004FEA0245A2F1013C4FEA15452CEA020CA5
:10045000B5EB134F18D11CF0803C08BF51F8043B9A
:1004600007D185EA0205B5EB034F09D150F8042BFB
:10047000E6E75FEA0C4C2FD10B884FEA12452FE0DC
:100480004FEA03434FEA12454FEA134328E000BF07
:1004900002F0FF05B5EB136FA2F1013C2CEA020C50
:1004A0000DD11CF0803C08BF51F8043B0AD185EA0D
:1004B0000205B5EB032F0AD150F8042BE8E74FEA09
:1004C00013630DE012F0FF0F06D051F8043B4FEA22
:1004D000122523F07F4303E04FF0000020BC70475B
:1004E00005F0FF0203F0FF00012828BF904204BF7F
:1004F0002D0A1B0AF4D0A2EB000020BC704700BFFD
:10050000014B986A704700BF0040054000000000A2
:10051000044B186101225A639A6B42F001029A63FC
:10052000704700BF004005400000000000000000D0
:10053000024A936B23F00103936370470040054028
:10054000014B1861704700BF0040054000000000EB
:10055000064B03600123037100238360C3600361C2
:1005600043618361C3610362436270478CD500209D
:100570008901C9B2074A131883F8001300F01F015C
:10058000400901238B4000F1600142F8213042F81C
:100590002030704700E100E0000000000000000093
:1005A000044B1A6822F020021A601A6822F4807242
:1005B0001A60704700C0004000000000000000000A
:1005C000064B0622DA6200225A601A601A615A61EA
:1005D0009A61DA619A630F225A63704700400540BE
:1005E00008B5002304E0054A002142F82310013336
:1005F000032BF8D9FFF7E4FF08BD00BF48DC00205B
:1006000038B50B4C2046FFF7A3FF0A4BA3620A4CF8
:10061000236843F480032360084D2846FFF798FFC2
:10062000074BAB62236843F40003236038BD00BF6F
:1006300020D900200040034000C000404CD90020D9
:1006400000800340000000000000000000000000E7
:1006500008B5FFF7D5FF08BD00000000000000004E
:10066000C26893081B0103F01003D108490101F08F
:1006700020010B43110A890201F480610B43910AA6
:10068000490201F400710B435109090201F4807120
:100690000B439109490101F020010B43520AD20199
:1006A000D2B21343826A9363704700BF0000000018
:1006B00010B4844600201AE0DCF80C3013F0040F6C
:1006C00005D0DCF82820936B43F010039363DCF82B
:1006D0000C3013F4007F12D0DCF82820936B43F029
:1006E000400393630BE01B6801F8013B0130DCF829
:1006F00028309C6914F0100FDED19042F3D310BC67
:10070000704700BF00000000000000000000000073
:1007100008B572B6FFF7CCFF62B608BD0000000056
:1007200010B4844600200DE0DCF80C2012F0080F15
:1007300010D09A6B42F020029A630BE011F8014B43
:100740001C600130DCF828309C6914F0200FEBD1DC
:100750009042F3D310BC704700000000000000007E
:1007600008B572B6FFF7DCFF62B608BD00000000F6
:100770000346826A1068C0B2926912F0100F00D16D
:100780007047DA6812F0040F04D0996A8A6B42F05D
:1007900010028A63DA6812F4007FF1D09A6A936BD0
:1007A00043F040039363EBE700000000000000000B
:1007B000836A1960836A9A6912F0200F07D0C268B1
:1007C00012F0080F03D09A6B42F020029A63704730
:1007D0000020704700000000000000000000000042
:1007E00029B108B5012905D0FFF7F2FF03E06FF04A
:1007F00013007047002008BD00000000000000004A
:100800004FF050431A68334B03EB82035A6810F0E1
:10081000010F0DD01168002301E0013309688A42FD
:10082000FBD1516801E0013B49688A42FBD15BBBC7
:1008300010F0020F31D010B41469002301E001332D
:10084000246802F11001A142F9D1526901E0013B93
:1008500052689142FBD1CBB910F0040F18D01D4B58
:100860001A69002301E0013312681B498A42FAD158
:10087000A1F11002526901E0013B526816498A4217
:10088000FAD143B9002004E001207047012000E0C4
:10089000002010BC70470120FBE710F0040F14D0BB
:1008A0000C4B1A69002301E0013312680A498A429D
:1008B000FAD1A1F11002526901E0013B52680649E8
:1008C0008A42FAD11BB900207047002070470120EE
:1008D000704700BF70DB002080DB002000000000BC
:1008E000EFF3108010F0010F07D1EFF30583C3F38E
:1008F00008030BB172B6704772B670470000000073
:10090000024A936903439361704700BF70DB002084
:1009100000230360704700BF0000000000000000DB
:1009200070B54FF050431A68074B03EB82035E68C3
:10093000FFF7E6FDD6E90A45031B181945F100014A
:10094000C6E90A0170BD00BF70DB00200000000096
:100950004FF050431A68064B03EB82035B68DA687A
:100960001B6898689368984294BF002001207047E4
:1009700070DB00200000000000000000000000000C
:10098000FEE700BF000000000000000000000000C3
:100990004B6843618B688361CB6883600223037774
:1009A000002343778B699BB103610023C362036318
:1009B00000F138028263CA68C2648364436401231D
:1009C00083770B68036200F13C03C36303647047E1
:1009D0004FF050431A68034B03EB82035B680361DB
:1009E000E3E700BF70DB0020000000000000000013
:1009F00010B50C46FFF7CCFF8269A2F12401C1605B
:100A0000216942F8241CC26861695160C2680649C4
:100A1000116200F12401054A02F110044462546994
:100A200084622160516110BD3502002070DB00201E
:100A300010B50446806821466038FFF7A9FFA0F191
:100A40002402C260216940F8241C616940F8201C1E
:100A5000064940F8041C00F12401054A02F1100483
:100A60004462546984622160516110BD35020020E6
:100A700070DB00200000000000000000000000000B
:100A800008B572B6837F013B8377C36903F0FF1318
:100A90000F2B01D062B608BD826A436A1360826A76
:100AA0005A6062B6C36A002BF5D09847F3E700BFDF
:100AB00072B6437F63F07F03437762B6704700BF2F
:100AC00000604060704700BF0000000000000000B0
:100AD0004FF0FF330360002343608360C360002254
:100AE0000023C0E90423704700000000000000005C
:100AF000014B5B6883607047001000E0000000005D
:100B00000D4B5B680D4AD168C2680132C2608268D1
:100B10009B1A5B1A836002694169D21841F1000196
:100B2000026141614268934200D943600268934286
:100B300000D20360704700BF001000E070DB0020AF
:100B400072B6054B1B69A3F1240013F8062C013281
:100B500003F8062C62B6704770DB0020000000002E
:100B600010B572B6436A084A93420BD0A3F124042D
:100B700013F8062C013203F8062C62B6FFF780FF4B
:100B8000204610BD0024F8E780DB002000000000B4
:100B90000060406000238360704700BF00000000D9
:100BA0004FF050431A68074B03EB82035B68DB6826
:100BB00082680AB10020704783609A6CC2609864B2
:100BC0000120704770DB00200000000000000000E2
:100BD00008B572B6FFF7E4FF62B608BD000000007A
:100BE00000604060704700BF00000000000000008F
:100BF00000607047000000000000000000000000DE
:100C000030B44FF050442568074C04EB850CDCF8F9
:100C10000440E46805680D6001604C608A60002251
:100C2000CA600B6130BC704770DB00200000000020
:100C300008B572B6FFF7E4FF62B608BD0000000019
:100C400072B603461A461B68984203D08B42F9D10C
:100C50000B68136062B670470000000000000000DF
:100C60004FF050431A68054B03EB82035B68DA6868
:100C7000536C23EA000151641840704770DB002078
:100C800008B572B6FFF7ECFF62B608BD00000000C1
:100C900072B64FF050431A68044B03EB82035B6853
:100CA000DB685A6C1043586462B6704770DB0020F2
:100CB00070B506460D46002400E001346DB125FAFA
:100CC00004F313F0010FF8D00123A34025EA030534
:100CD00056F8243020469847EFE770BD000000002A
:100CE00010B4844604E000231846C3B90CF1080C84
:100CF000DCF80040B4F1FF3F10D0DCF80430013BD9
:100D00002344501E0818EED28C4203D8834203D2EB
:100D10000023E9E70023E7E70123E5E7002010BC13
:100D2000704700BF0000000000000000000000004D
:100D300008B5014601220248FFF7D2FF08BD00BFF7
:100D400054CD002000000000000000000000000062
:100D5000024B034A1A60034A5A60704768DB00205E
:100D6000A0F20020000004200000000000000000AD
:100D700010B4094B5C68201A49420840821A1B686B
:100D80009A4205D3A24205D8034B5A6010BC704763
:100D90000020FBE70020F9E768DB002000000000EE
:100DA00008B572B6FFF7E4FF62B608BD00000000A8
:100DB000034B1A6802605B689B1A4360704700BF70
:100DC00068DB0020000000000000000000000000C0
:100DD00010B5074C2046074B40F8043BFFF7E8FFEF
:100DE0000023E360236104F11400FFF7D1FE10BD7E
:100DF000B4DB0020A10D0020000000000000000076
:100E000008B50346006810B102681A6008BDDA68C8
:100E1000002AFBD0996858689047F7E70000000067
:100E200003680B60016070470000000000000000D4
:100E300010B504460160C160816011444160002327
:100E4000036103758361C3612030FFF7A1FE04F1E4
:100E50003000FFF79DFE04F14000FFF799FE10BD42
:100E600010B444680368013B8818034004EBC30CCA
:100E700054F8330000E00068604506D003698B42F7
:100E8000F9D143699342F6D100E0002010BC7047CD
:100E900008B503681A1D02601B68984708BD00BFAB
:100EA00008B50268131D0360116802F108030360AE
:100EB0005068884708BD00BF000000000000000027
:100EC00010B503460068011D1960046800F10802AE
:100ED0001A60406801F108021A604968A04710BD15
:100EE00038B503460268111D0160156802F1080457
:100EF000046050680C321A60496804F108021A60F4
:100F00006268A84738BD00BF000000000000000074
:100F100070B503460068011D1960066800F10802FB
:100F20001A60406801F108051D60496802F1080473
:100F30001C60526805F108041C606B68B04770BD06
:100F400008B50022FFF714FF08BD00BF0000000035
:100F500010B40822047801300C700131013A0CB150
:100F6000002AF7D110BC704700000000000000000C
:100F700002460B4618461B688B4202D09342F9D1B9
:100F800000E00020704700BF0000000000000000EB
:100F90000346006802681A60704700BF0000000046
:100FA00072B6184AD36823F4E0631B041B0C43F0A9
:100FB000052343F47A03D360D2F8FC3043F0807306
:100FC000C2F8FC30A2F55D42136843F001031360E0
:100FD0004FF050430C221A65036B3BB90A4BC022F9
:100FE00083F80F234FF400421A607047012B00D0A2
:100FF0007047054BC02283F810234FF480321A60EB
:10100000F6E700BF00ED00E000E100E000000000B6
:1010100072B60C4B5B6813F4006F00D1704710B5CB
:10102000EFF30984203C4FF08073E36184F3098877
:10103000FFF78EFC10B1044BA36110BD034BA361FD
:10104000FBE700BF00ED00E0470200204A0200205D
:1010500000207047000000000000000000000000B9
:1010600008B50520FFF7F4FF074B1860074B1A6817
:1010700022F002021A601A6822F400221A601A682A
:1010800022F480221A6008BD78D9002000C00040F8
:1010900010B504468368002B2ED02379012B2ED067
:1010A0000620FFF7D5FFC000A3681B68B0FBF3F074
:1010B000C20900F07F0001304008A36A5A62A36AA7
:1010C0009862A3685B68A26A23F00103D362A368F5
:1010D0009B68A26A23F4417323F003031363A36A9A
:1010E000DA6B5A64A3689B68A26A43F4407343F0C6
:1010F00001031363002010BD0E4B8360CDE70E4B40
:101100009C420CD00D4B9C42CAD10D4A136823F46B
:101110000003136003211520FFF72AFAC0E7084AED
:10112000136823F48003136003211420FFF720FACF
:10113000B6E700BF78CD002020D900204CD9002090
:1011400000C000400000000000000000000000009F
:101150000C4B03EB800253F8203083F0400303F084
:10116000C00302F5805CCCF80030C00000F1804084
:1011700000F52030416002F540524FF48073136057
:10118000704700BF04800340000000000000000022
:1011900030B51C4603B90C4600F10B0E734608E04F
:1011A00001F1370C03F801CDB5FBF2F1B4FBF2F419
:1011B00054B10D46B1FBF2FC02FB1C1101F1300CE5
:1011C000BCF1390FEEDDEBE7AEEB030C1978013320
:1011D00001700130BCF1010CF8D130BD00000000FD
:1011E00008B50023FFF7D4FF08BD00BF00000000D2
:1011F0002DE9F04F87B0064689460192002705E0A9
:101200003368DB68304698470137A9464D4615F8E4
:10121000011B002900F083802529F1D12B782D2B8B
:1012200046D04FF0000B2B782B2B46D0002095F8A2
:1012300000A0BAF1300F43D04FF0200A2B782A2BB0
:1012400040D1019B1A1D01921C6805F102096B78BF
:101250002E2B47D000226C2B67D04C2B65D0A3F1EE
:101260004101C9B219298CBF00210121A3F1440514
:10127000342D00F2CE80DFE805F082CCCCCCCC82DD
:10128000CCCCCCCCCC5EC5CCCCCCCCA2CCCCC5CC44
:10129000CCCCCCCCCCCCCCCCCC6082CCCCCCCC828E
:1012A000CCCCCCCCCC5EC5CCCC6CCCA2CCCCC50050
:1012B00009F102054FF0010BB5E701350120B6E752
:1012C0000135BBE70024A94619F8013B3BB3A3F164
:1012D0003002D2B2092ABBD804EB840402EB4404E6
:1012E0004D46F0E7494611F8013BC3B12A2B08D11E
:1012F000019B1A1D01921A6899F8013009F102093F
:10130000A9E70022A3F13005EDB2092D0BD802EBBD
:10131000820205EB420211F8013B002BF2D1384664
:1013200007B0BDE8F08F894695E719F8013B002B1F
:10133000F5D001219AE7082242E0019B1A1D019293
:101340001B688DF80C304FF0200A03AD0DF10D0035
:101350003FE0019B191D01911D6815B162B128463E
:1013600002E0424DFAE701300378002B57D0013AF2
:10137000F9D54FF0200A2CE047F6FF72EFE761B194
:10138000019B1A1D0192196800290BDBA8B12B23C0
:101390008DF80C300DF10D000AE0019B1A1D019231
:1013A0001968F1E72D238DF80C3049420DF10D003D
:1013B0000A22FFF715FF03AD0BE003A8F8E70A22A6
:1013C00011B3019B191D0191196803A8FFF708FFCC
:1013D00003ADA0EB0508B4EB080423D4BBF1000F68
:1013E00000D16442002C32DA29782D291CD02B2917
:1013F0001AD03368DB6851463046984701370134CC
:10140000F7D124E01022DBE7019B191D0191196837
:10141000DBE78DF80C3003AD0DF10D00D9E74FF08F
:10142000200AD6E70024D9E7BAF1300FE1D101351F
:101430003368DB6830469847013708F1FF38D8E752
:101440003368DB6815F8011B304698470137B8F15F
:101450000108F5D506E03368DB6851463046984709
:101460000137013C002CF6D1D0E600BF9CAC002037
:1014700010B50446034B586A0368DB68E1B298472D
:10148000204610BD8CDB00200000000000000000A2
:10149000024B03F11002DA60704700BF8CDB0020C2
:1014A00010B50446FFF7F4FF054B00225A7163683C
:1014B00003B19847E3689847A36803B1984710BD04
:1014C0008CDB002000000000000000000000000095
:1014D000034A01235371137190601846704700BF8F
:1014E0008CDB002000000000000000000000000075
:1014F00030B51D4603B90D4600F10B04234608E044
:101500000CF1370E03F801ED91FBF2F195FBF2F5CA
:101510004DB191FBF2FC02FB1C1C0CF1300EBEF134
:10152000390FEFDDECE7A4EB030C19780133017000
:101530000130BCF1010CF8D130BD00BF000000004B
:1015400008B50023FFF7D4FF08BD00BF000000006E
:1015500008B5024B1B6A03B1984708BD8CDB00201D
:1015600010B5054C03E014F8010BFFF7F1FF034B36
:10157000DB68A342F7D810BD9CDB00208CDB002089
:1015800010B5044602E0FFF7E3FF0134207800289D
:10159000F9D110BD000000000000000000000000B4
:1015A00010B5002403E02D20FFF7D2FF01344B2CAF
:1015B000F9D90248FFF7E4FF10BD00BF64BC00206A
:1015C00010B5002403E03D20FFF7C2FF01344B2C8F
:1015D000F9D90248FFF7D4FF10BD00BF64BC00205A
:1015E0002DE9F04786B0804601910026D5E0FFF74F
:1015F000AFFF0136A846D0E008F102054FF0010A1E
:10160000DAE001350120DCE00135E2E00024A84603
:1016100018F8013B43B3A3F13002D2B2092A00F219
:10162000E38004EB840402EB44044546EFE74146C3
:1016300011F8013BC3B12A2B08D1019B1A1D01925D
:101640001A6898F8013008F10208D1E00022A3F1ED
:101650003005EDB2092D0BD802EB820205EB4202F8
:1016600011F8013B002BF2D1304606B0BDE8F087FF
:101670008846BDE018F8013B002BF5D00121C4E0FD
:10168000082242E0019B1A1D01921B688DF80C3064
:101690004FF0200903AD0DF10D003FE0019B191D36
:1016A00001911D6815B162B1284602E08F4DFAE73D
:1016B00001300378002B56D0013AF9D54FF02009BC
:1016C0002CE047F6FF72EFE761B1019B1A1D019212
:1016D000196800290BDBA8B12B238DF80C300DF114
:1016E0000D000AE0019B1A1D01921968F1E72D23F4
:1016F0008DF80C3049420DF10D000A22FFF720FF52
:1017000003AD0BE003A8F8E70A2209B3019B191DFA
:101710000191196803A8FFF713FF03AD471BE41BF2
:1017200024D4BAF1000F00D16442002C2BDA2878BF
:101730002D2801D02B2802D1B9F1300F18D04846FE
:10174000FFF706FF01360134F9D11CE01022DCE777
:10175000019B191D01911968DCE78DF80C3003AD70
:101760000DF10D00DAE74FF02009D7E70024D8E7A4
:101770000135FFF7EDFE0136013FE0E715F8010BFB
:10178000FFF7E6FE0136013FF8D504E04846FFF7D3
:10179000DFFE0136013C002CF8D1454615F8010B5F
:1017A00000283FF461AF25287FF421AF2B782D2B43
:1017B0003FF422AF4FF0000A2B782B2B3FF421AFE0
:1017C000002095F80090B9F1300F3FF41DAF4FF0B5
:1017D00020092B782A2B7FF419AF019B1A1D019247
:1017E0001C6805F102086B782E2B3FF420AF002215
:1017F0006C2B3FF43FAF4C2B3FF43CAFA3F14101C6
:10180000C9B219298CBF00210121A3F14405342D4F
:10181000A3D801A757F825F0C91600205B170020B0
:101820005B1700205B1700205B170020C916002003
:101830005B1700205B1700205B1700205B17002060
:101840005B170020811600204D1700205B17002039
:101850005B1700205B1700205B1700200917002092
:101860005B1700205B1700204D1700205B1700203E
:101870005B1700205B1700205B1700205B17002020
:101880005B1700205B1700205B1700205B17002010
:101890005B17002085160020C91600205B1700206A
:1018A0005B1700205B1700205B170020C916002083
:1018B0005B1700205B1700205B1700205B170020E0
:1018C0005B170020811600204D1700205B170020B9
:1018D0005B1700209D1600205B17002009170020D1
:1018E0005B1700205B1700204D1700209CAC0020E8
:1018F00010B5002400E00134042C07D8044B53F841
:1019000024000028F7D0FFF7D3F8F4E710BD00BF9C
:1019100020E50020000000000000000000000000A2
:10192000034B01221A6072B672B672B662B6704785
:101930008CDB002000000000000000000000000020
:1019400010B5054B01221A60FEF7DAFD0446FEF7DA
:10195000D7FD8442FBD010BD8CDB002000000000CE
:10196000014B00221A60704734E50020000000009F
:1019700008B50248FFF70CF908BD00BF4CD800209D
:1019800008B50348FFF704F90248FFF701F908BD5D
:101990004CD800205CD800200000000000000000AF
:1019A00008B50248FFF7F4F808BD00BF4CD8002086
:1019B00008B50348FFF714F90248FFF7E9F808BD36
:1019C0003CD800204CD8002000000000000000009F
:1019D00008B50348FFF704F90248FFF7D9F808BD36
:1019E0003CD800204CD8002000000000000000007F
:1019F00008B50548FFF7F4F80448FFF7C9F80448AC
:101A0000FFF7C6F808BD00BF3CD800204CD8002026
:101A10005CD8002000000000000000000000000072
:101A200008B54FF0FF30FFF72BF908BD00000000AC
:101A300008B54FF0FF30FFF723F908BD00000000A4
:101A400008B54FF0FF30FFF71BF908BD000000009C
:101A500008B54FF0FF30FFF713F908BD0000000094
:101A600008B54FF0FF30FFF70BF908BD000000008C
:101A700008B54FF0FF30FFF703F90348FFF7B8F858
:101A80000248FFF7B5F808BD44D8002048D8002028
:101A9000704700BF000000000000000000000000D0
:101AA00008B50248FFF774F808BD00BF1CDC002031
:101AB00008B5102202490348FFF7BAF908BD00BF74
:101AC0007CD9002094D80020000000000000000015
:101AD00008B5082202490348FFF7AAF908BD00BF6C
:101AE0007CD9002094D800200000000000000000F5
:101AF000F8B506460C4615460769974200D93D469B
:101B00006019FEF71DFDFEF7FBFC041BA54203D97F
:101B10003369BB4204D3F8BD01373D460446EFE7C5
:101B200037610120FEF7ECFEF5E700BF0000000082
:101B300038B54FF050431A681C4B03EB82035C68C6
:101B4000236998420FD042680368136042685A6064
:101B50000268816893680B449360002303604FF030
:101B6000FF33A36138BD04F1100504F110021968B8
:101B7000216113464A60002202602269934212D01A
:101B8000816893680B449360FEF7BAFC0146E369F1
:101B9000C01A226992688242E4D95B1A1A44284624
:101BA000FFF7A6FFDEE7FEF7C3FCDBE770DB0020F4
:101BB0002DE9F041044616461D46C2608B60486020
:101BC00003680B6059600160D0F81080454500D271
:101BD0004546E0682844FEF79BFCFEF791FC07466B
:101BE000831B9D4204D92369434509D3BDE8F08195
:101BF00008F101057019FEF7A3FCA8463E46ECE784
:101C0000C4F810800120FEF77BFEEFE70000000023
:101C1000F8B505460E461746FEF772FC2B689D4246
:101C200009D0EC68041B3C1900D33C469B68A342D6
:101C300008D82B680EE03B46024631462846FFF79F
:101C4000B7FF16E03A4601462846FFF751FFF0E796
:101C5000A41A1B689A689442FAD8B46033605A6830
:101C6000726016605E609A68121B9A604FF0FF33D4
:101C7000AB60F8BD000000000000000000000000A4
:101C800038B54FF050442568074C04EB850CDCF860
:101C900004400361C260002343610A46014604F127
:101CA0001000FFF7B5FF38BD70DB0020000000001A
:101CB0002DE9F0474FF050431A68344B03EB820391
:101CC0005E6806F1100907E062B6E3682169204604
:101CD000984772B66369C3B93469FEF711FCF369BA
:101CE000C21AA568954240D81D44F5616268236810
:101CF000136062685A600023236006F1100733699D
:101D00009F42E1D1FEF714FCDEE7FEF7F9FB8246C5
:101D1000A0EB0508626942450AD32B1A13443269C5
:101D200097420AD013EB080800D243463A680CE009
:101D30000220FEF7E5FD0023F1E752462146484622
:101D4000FFF736FF1FE05B1A126891688B42FAD8E2
:101D5000A3602260516861600C6054609168CB1A86
:101D600093604FF0FF33BB60B6E706F110023169B4
:101D70008A4208D0F0611B1AA2681A44A260014688
:101D80004846FFF7B5FEBDE8F08700BF70DB0020D6
:101D900008B5FFF78DFF08BD00000000000000003F
:101DA0000023037703691B68996882689142FAD21D
:101DB00003605A684260106058607047000000007D
:101DC00008B5084672B60B7F0C2B17D8DFE803F076
:101DD00007161609110D161116161616110062B601
:101DE00012E04B6B00221A6008E04A6B93680133E3
:101DF000936042680368136042685A604FF0FF3393
:101E00004363FFF7CDFF62B608BD00BF00000000CE
:101E100008B502694FF0504319680A4B03EB810380
:101E20005B689A420AD04FF050431B6D13F0020FCB
:101E300004D04FF050434FF0FF325A65FFF7B0FF28
:101E400008BD00BF70DB00200000000000000000A3
:101E500008B5FEF7CDFDFFF7DBFF08BD0000000071
:101E600008B50346006820B100221A604163FFF7FD
:101E7000CFFF08BD000000000000000000000000CF
:101E8000F8B5866A356CB76BFDB1044615F4F06F92
:101E90001CD115F0400F0DD027F04007A36A9B69B5
:101EA00013F0100F22D072B6002104F11C00FFF7CE
:101EB000D7FF62B615F0100F20D115F0200F29D1F1
:101EC000B76323690BB120469847F8BD402373647C
:101ED00027F4F06772B601211830FFF7C1FF012126
:101EE00004F11C00FFF7BCFF62B6D2E772B6002116
:101EF00004F11800FFF7B4FF62B6D4E7402373641F
:101F000027F0100772B6002104F11800FFF7A8FFB0
:101F100062B6D2E727F0200772B6002104F1200054
:101F2000FFF79EFF62B6CBE7000000000000000054
:101F300008B503460068834205D002681A60536002
:101F40004163FFF765FF08BD0000000000000000CE
:101F500008B5037DCBB9436802689B1A0269B2EBEE
:101F6000A30F15D083681A1D8260196082684368C8
:101F70009A4201D30368836003690133036100213E
:101F80002030FFF7D5FF002008BD6FF00100FBE710
:101F90004FF0FF30F8E700BF000000000000000035
:101FA000037DD3B910B542680468A2EB040C036941
:101FB000B3EBAC0F14D0C368043BC360A34201D29F
:101FC000043AC260C36819600369013303610021E8
:101FD0002030FFF7ADFF002010BD6FF0010070470B
:101FE0004FF0FF30F8E700BF0000000000000000E5
:101FF00008B5037DABB90369B3B1C3681A1DC260EC
:102000001B680B60C26843689A4201D30368C360CF
:102010000369013B036100211830FFF789FF0020AD
:1020200008BD6FF00100FBE74FF0FF30F8E700BF9D
:1020300038B504460D4605E0036823605C604563DF
:10204000FFF7E6FE20688442F6D138BD00000000AC
:1020500010B5044603688360C36000230361012355
:1020600003756FF001011830FFF7E2FF6FF0010117
:1020700004F12000FFF7DCFF10BD00BF00000000EE
:1020800038B504461546816006E0606843686360C1
:102090001C60FFF7BDFE45632368A342F5D138BD40
:1020A000826801328260002A00DD704708B503466D
:1020B000006802681A60536000234363FFF7A8FEBC
:1020C00008BD00BF0000000000000000000000008C
:1020D00038B505460C4600E0013C002C0DDDAB6830
:1020E0000133AB60002BF7DC286803682B605D6070
:1020F000FFF78EFE00234363EEE738BD00000000CB
:1021000010B501464FF050431A68124B03EB82039F
:102110005B68DC68C368A3640268824217D0E06C25
:1021200000E0DB683BB11A689342FAD092689042B3
:10213000F7D21046F5E7A060086803680B605960A5
:102140008860836CCB608164FFF762FE10BD002362
:102150008360FBE770DB002000000000000000004F
:1021600008B503460068834206D002681A605360CF
:1021700000234363FFF74CFE08BD00BF00000000D2
:1021800010B5044607E0036823605C60FFF740FE7B
:102190006FF00103436320688442F4D110BD00BF97
:1021A00008B5436C19434164037F0A2B02D00B2B03
:1021B00008D008BD426B1142F9D000234363FFF7FA
:1021C00027FEF6E7436B8B43F3D1F6E700000000F0
:1021D00070B506460D46046804E0A1686068FFF724
:1021E000DFFF2468B44208D0E3682B43E360002D8E
:1021F000F3D023692B42F4D0EFE770BD000000005C
:102200000023037703691B68996882689142FAD8B2
:1022100003605A6842601060586070470000000018
:1022200010B54FF050431A68094B03EB82035B680B
:10223000D8681C6822681A60536001222277DC602B
:10224000FFF7AEFD01462046FDF7E4FF10BD00BFDD
:1022500070DB002000000000000000000000000013
:1022600008B54FF050431A68064B03EB82035B68D6
:10227000D9681B689A688B689A4201D3FFF7D0FF30
:1022800008BD00BF70DB002000000000000000005F
:1022900008B572B6FFF7E4FF62B608BD00000000A3
:1022A00010B50446FFF7F4FFFFF7F2FFFFF7F0FF6A
:1022B000FFF7EEFF2368043323604FF050431A68A2
:1022C000044B03EB82035B68DB6893F91D30002B42
:1022D000E8DA10BD70DB0020000000000000000004
:1022E00010B54FF050431A68094B03EB82035B684B
:1022F000D8681C6822681A60536001222277DC606B
:10230000FFF77EFF01462046FDF784FF10BD00BFAA
:1023100070DB002000000000000000000000000052
:1023200008B54FF050431A68074B03EB82035B6814
:10233000D9680877186802681A605360012202772A
:10234000D860FDF767FF08BD70DB002000000000CB
:1023500030B587B004464FF050431A680D4B03EB7D
:1023600082035B68DD68B1F1FF3F0FD02B460A4A5C
:102370006846FFF785FC2046FFF7D2FF009B13B1AC
:102380006846FFF7D5FB686B07B030BDFFF7C8FFA5
:10239000F9E700BF70DB0020C11D00200000000035
:1023A00010B5044672B6FEF7ABF8211A02D0082029
:1023B000FFF7CEFF62B610BD000000000000000075
:1023C00008B54FF050431A68074B03EB82035B6874
:1023D000DB6829B1036058630320FFF7B9FF08BD2C
:1023E0004FF0FF30FBE700BF70DB00200000000073
:1023F00038B572B6836A1B6C13F4F06F12D10446C1
:102400000D460022A36A9B6913F0100F07D02946DE
:1024100004F11800FFF7D4FF02460028F2D062B69C
:10242000104638BD62B60122FAE700BF0000000086
:102430002DE9F04107460D4616469846002406E071
:10244000321B29463846FEF763F904440544B4427A
:1024500005D241463846FFF7CBFF0028F0D0204692
:10246000BDE8F08100000000000000000000000056
:1024700008B54FF0FF33FFF7DBFF08BD0000000099
:1024800008B5FFF7D5FF08BD000000000000000000
:1024900010B504464FF0FF31FFF7AAFF00B110BDA1
:1024A0002046FEF765F9FAE7000000000000000092
:1024B00010B50446FFF79CFF00B110BD2046FEF7A3
:1024C00057F9FAE7000000000000000000000000DB
:1024D00038B504460D4672B60022A36A9B6913F014
:1024E000200F07D0294604F12000FFF769FF0246BC
:1024F0000028F2D062B6104638BD00BF00000000D0
:102500002DE9F04107460D4616469846002406E0A0
:10251000321B29463846FEF723F904440544B442E9
:1025200005D241463846FFF7D3FF0028F0D02046B9
:10253000BDE8F08100000000000000000000000085
:1025400008B54FF0FF33FFF7DBFF08BD00000000C8
:1025500008B5FFF7D5FF08BD00000000000000002F
:1025600070B504460D464FF0FF31FFF7B1FF064648
:1025700008B1304670BD29462046FEF719F9F8E744
:1025800070B504460D461146FFF7A2FF064608B196
:10259000304670BD29462046FEF70AF9F8E700BF2D
:1025A00008B54FF050431A68084B03EB82035B6891
:1025B000DB6841B1186042685A60136043600420D0
:1025C000FFF7C6FE08BD4FF0FF30FBE770DB0020D1
:1025D00008B58268531E8360002B01DB002008BD14
:1025E00089B14FF050431A68094B03EB82035B68D3
:1025F000DB685863186042685A60136043600520C6
:10260000FFF7A6FEEBE782604FF0FF30E7E700BF81
:1026100070DB00200000000000000000000000004F
:1026200008B572B6FFF7D4FF62B608BD000000001F
:1026300010B50446FFF7CCFF20B904F10C00FEF7FB
:10264000DFFB10BD0020FCE70000000000000000E0
:1026500070B54FF050431A68104B03EB82035B6870
:10266000DE6872B6746C04400CD1054611B962B6CE
:102670000C460EE070630A20FFF76AFE00280ADBB2
:10268000746C2C4063421C40736C23EA0403736433
:1026900062B6204670BD62B6FBE700BF70DB00206B
:1026A00070B54FF050431A680F4B03EB82035B6821
:1026B000DE6872B6746C04400CD1054611B962B67E
:1026C0000C460CE070630A20FFF742FE002808DB8E
:1026D000746C2C40736C23EA0403736462B6204666
:1026E00070BD62B6FBE700BF70DB00200000000099
:1026F00038B504464FF050431A680F4B03EB820382
:102700005B68DD6872B66B6C30EA030309D011B9FF
:1027100062B608460BE068630B20FFF719FE00283D
:1027200006DB6B6C23EA04036B6462B6204638BD9B
:1027300062B60020FBE700BF70DB00200000000055
:1027400010B54FF050431A680F4B03EB82035B68E0
:10275000DC68606304F13803A06B834205D1A37F7A
:1027600043B10F20FFF7DCFD10BD0368A363FFF743
:102770004FFBEFE7E36A002BF3D1A26A636A1360B1
:10278000A26A5A60EDE700BF70DB00200000000085
:1027900010B5044672B600210348FFF719FD204624
:1027A000FFF7CEFF10BD00BF44DC0020000000009A
:1027B0008368013B8360002B01DB0020704710B56C
:1027C0004FF050431A68084B03EB82035B68DC68E8
:1027D00060632060436863601C6044600520FFF70D
:1027E0009FFD606B10BD00BF70DB0020000000008B
:1027F00010B5044607E062B622234B62236C012227
:102800002046984772B604F13000FFF7D1FF216AE5
:10281000CA688B689360CA68DA604A6A22F001006D
:1028200048620B6A013B0B6212F0100FE3D110F00B
:10283000020F05D04B680A681A600B684A685A6034
:1028400000234B62084610BD00000000000000009D
:10285000F8B504464FF050431A682F4B03EB820340
:102860005B68DD688068002851D08268AB689A4256
:1028700007D28360037F062B15D0072B2AD0002BAD
:102880003DD023461B689C4203D09968AA689142B8
:10289000F8D22B605A686A6015605D606C63062030
:1028A000FFF73EFDF8BD476B0646426803681360BC
:1028B00042685A603B461B689F4203D09968B268E1
:1028C0009142F8D233605A68726016605E60436B62
:1028D0009868CAE7476B0646426803681360426817
:1028E0005A603B461B689F4203D09968B268914288
:1028F000F8D233605A68726016605E60C1E7426861
:102900000368136042685A60FFF782FAB9E7A5606E
:10291000AB6CE360AC64C5E770DB00200000000036
:1029200008B572B6FFF794FF62B608BD000000005C
:10293000F8B505460F464FF050410A68144B03EBBB
:1029400082025268D4680A6803EB82035B68DB6822
:102950009E6C3046FFF7D4FB65632B461B689D4297
:1029600003D0A26899689142F8D223605A686260E5
:1029700014605C6039460720FFF7EAFC0446B0F1BA
:10298000FF3F01D12046F8BD3046FFF761FFF9E770
:1029900070DB0020000000000000000000000000CC
:1029A00008B572B6FFF7C4FF62B608BD00000000AC
:1029B00070B505464FF050410A68124B03EB820296
:1029C0005268D4680A6803EB82035B68DB689E6C1C
:1029D0003046FFF795FB65632B461B689D4203D08D
:1029E0009968A2689142F8D223605A6862601460C4
:1029F0005C600720FFF794FC646B3046FFF728FF0C
:102A0000204670BD70DB00200000000000000000C8
:102A100008B572B6FFF7CCFF62B608BD0000000033
:102A200038B54FF050431A680C4B03EB82035B68D8
:102A3000DD6872B66B6C034007D0584218406B6C6F
:102A400023EA00036B6462B638BD044668630A205B
:102A5000FFF766FC6B6C2340EFE700BF70DB0020E4
:102A600038B504464FF050431A680B4B03EB820312
:102A70005B68DD6872B66B6C184005D06B6C23EA3E
:102A800000036B6462B638BD6C630A20FFF748FC34
:102A90006B6C03EA0400F1E770DB0020000000002B
:102AA00038B504464FF050431A680B4B03EB8203D2
:102AB0005B68DD6872B66B6C30EA030306D16B6C41
:102AC00023EA04036B6462B6204638BD68630B20BA
:102AD000FFF726FCF3E700BF70DB002000000000DA
:102AE00010B54FF050431A680C4B03EB82035B6840
:102AF000DC6872B6616300F13C032360036C6360C1
:102B00001C600464037F0E2B05D00C20FFF708FC2B
:102B1000606B62B610BDFFF77BF9F6E770DB002053
:102B200010B504464121FFF7DBFF42212046FFF7A5
:102B3000D7FF43212046FFF7D3FF44212046FFF76C
:102B4000CFFF10BD000000000000000000000000EA
:102B500038B54FF050431A680A4B03EB82035B68A9
:102B6000DD682C4654F83C3FA34206D0E86B03686E
:102B7000EB635C600D23037738BD0E20FFF7D0FBBD
:102B8000F4E700BF70DB0020000000000000000040
:102B900010B54FF050431A68064B03EB82035B6895
:102BA000DC6872B60320FFF7BBFB636B002BF9D028
:102BB00062B610BD70DB00200000000000000000C5
:102BC00038B504464FF050431A68154B03EB8203A7
:102BD0005D68E868616323699D420ED04FF0504301
:102BE0001B6D13F0020F04D04FF050434FF0FF3233
:102BF0005A652046FFF7D4F838BDA26883689A4228
:102C000009D9FFF7FDFA014601232377EC6020463E
:102C1000FDF700FBF0E72046FFF7C2F8ECE700BF46
:102C200070DB002000000000000000000000000039
:102C300008B50346006818B100221A60FFF7C0FF0C
:102C400008BD00BF00000000000000000000000000
:102C500008B572B6FFF7ECFF62B608BD00000000D1
:102C600008B5034672B60068834205D002681A6050
:102C700053600021FFF7A4FF62B608BD000000000A
:102C800008B572B6FFF79CFF62B608BD00000000F1
:102C900010B572B6FFF75CFF62B6446B2146FFF7D2
:102CA000EFFF002CF5D110BD000000000000000077
:102CB0000EB400B582B003AA52F8041B0192FEF7CD
:102CC00097FA02B05DF804EB03B070470000000013
:102CD00038B505460C4604E004492846FFF7E8FFEE
:102CE00008342268002AF7D138BD00BFA4AC002008
:102CF000F0B583B00E46174604680D4617E021492B
:102D00002046FFF7D5FF01203AE0B5420FD02368F7
:102D1000DB680821204698472368DB68202120468D
:102D200098472368DB68082120469847013D2368BF
:102D30009B6801220DF1070120469847F8B19DF8E4
:102D400007100429DBD00829DFD07F29DDD00D2929
:102D50000ED01F29EBD97B1E3344AB42E7D9236841
:102D6000DB68204698479DF8073005F8013BDEE711
:102D700005492046FFF79CFF0020287000E0012055
:102D800003B0F0BDA8AC002064BC0020000000002F
:102D900008B5002903DC0020FFF7FAFC08BD024A51
:102DA0000249FFF785FFF9E7ACAC0020B4AC002086
:102DB00010B582B0044600292BDC184A1849FFF7E9
:102DC00077FF184A18492046FFF772FF174A18493B
:102DD0002046FFF76DFF174A17492046FFF768FFA7
:102DE000164A17492046FFF763FF164A1649204640
:102DF000FFF75EFF154A16492046FFF759FF154BAE
:102E00000093154B154A16492046FFF751FF02B0B3
:102E100010BD144A1449FFF74BFFF8E7C8AC002077
:102E2000D0AC0020E4AC002004AD002018AD0020A0
:102E30002CAD002040AD00204CAD002060AD002046
:102E400080AD002094AD002084BB00209CAD00200C
:102E5000B0AD0020ECAD0020C4AD0020C8AD002016
:102E6000D4AD0020C0AC0020B4AC002000000000B5
:102E700008B5012904D0054A0549FFF719FF08BD27
:102E800012680449FFF714FFF9E700BFF8AD00200E
:102E9000B4AC00202CBB00200000000000000000AB
:102EA00010B50446002907DCFDF72AFB0246054958
:102EB0002046FFF7FDFE10BD034A0449FFF7F8FE68
:102EC000F9E700BF10AE002008AE0020B4AC00202F
:102ED000F0B587B00646002906DC1949FFF7E8FE81
:102EE000FDF72EFE044617E0164A1749FFF7E0FEED
:102EF00007B0F0BD0595CDF810E0CDF80CC00291FB
:102F00000197009011493046FFF7D2FE2046FDF7A9
:102F100027FE04460028EBD023691A6B6369E0683A
:102F20002746A17F0139D4F808C094F81CE0084D69
:102F300055F82EE0256A002DDCD1064DDAE700BFFA
:102F400018AE002070CB0020B4AC00205CAE002096
:102F50004CD50020FCBA002000000000000000005A
:102F60000FB400B583B004A951F8040B0191FEF72A
:102F700037FB03B05DF804EB04B0704700000000BD
:102F8000F8B5264B01221A60254D26492846FFF741
:102F9000E7FF254C25492046FFF7E2FF2449284654
:102FA000FFF7DEFF23492046FFF7DAFF22492846D4
:102FB000FFF7D6FF21492046FFF7D2FF20492846D8
:102FC000FFF7CEFF1F492046FFF7CAFF1E492846DC
:102FD000FFF7C6FF1D4F04213846FFF7C1FF1C4E07
:102FE00031462046FFF7BCFF1A492846FFF7B8FFD5
:102FF00020213846FFF7B4FF31462046FFF7B0FFE7
:1030000015492846FFF7ACFF20213846FFF7A8FFF7
:1030100031462046FFF7A4FFF8BD00BF8CDB00203F
:10302000B4AE002088AE00202CBB002018AD0020DC
:10303000B8AE002040AD0020E4AE0020E4AC00209B
:1030400010AF002060AD00203CAF002068AF002032
:10305000FCBA00206CAF002098AF002000000000F8
:10306000F8B5224B01221A60214C22492046FFF775
:1030700077FF214D21492846FFF772FF204F00219D
:103080003846FFF76DFF1F4E31462046FFF768FFB9
:103090001D492846FFF764FF1C492046FFF760FFE3
:1030A0001B492846FFF75CFF08213846FFF758FF09
:1030B00031462046FFF754FF16492846FFF750FFD8
:1030C00000213846FFF74CFF31462046FFF748FF06
:1030D00011492846FFF744FF00213846FFF740FF1B
:1030E00031462046FFF73CFFF8BD00BF8CDB0020D7
:1030F0002CBB0020C4AF0020B4AE0020F8AF0020ED
:1031000068AF0020FCBA002024B00020C8AC00202A
:1031100050B000207CB00020A8B0002000000000CB
:103120002DE9F0414FF00108D04BC3F80080D04F9B
:10313000D0493846FFF714FFCF4E41463046FFF7DF
:103140000FFFCE4DCE4C29462046FFF709FFCD4953
:103150003846FFF705FF00213046FFF701FF2946FB
:103160002046FFF7FDFEC8493846FFF7F9FE20214B
:103170003046FFF7F5FE29462046FFF7F1FEC3492A
:103180003846FFF7EDFEC2493046FFF7E9FE294613
:103190002046FFF7E5FEBF493846FFF7E1FE202154
:1031A0003046FFF7DDFE29462046FFF7D9FEBA4933
:1031B0003846FFF7D5FE20213046FFF7D1FE2946DD
:1031C0002046FFF7CDFEB5493846FFF7C9FE14216A
:1031D0003046FFF7C5FE29462046FFF7C1FEB0493D
:1031E0003846FFF7BDFE00213046FFF7B9FE2946FD
:1031F0002046FFF7B5FEAB493846FFF7B1FE002188
:103200003046FFF7ADFE29462046FFF7A9FEA64946
:103210003846FFF7A5FE41463046FFF7A1FE294696
:103220002046FFF79DFEA1493846FFF799FE41462B
:103230003046FFF795FE29462046FFF791FE9C4950
:103240003846FFF78DFE41463046FFF789FE294696
:103250002046FFF785FE97493846FFF781FE414635
:103260003046FFF77DFE29462046FFF779FE92495A
:103270003846FFF775FE41463046FFF771FE294696
:103280002046FFF76DFE8D493846FFF769FE41463F
:103290003046FFF765FE29462046FFF761FE884964
:1032A0003846FFF75DFE00213046FFF759FE2946FC
:1032B0002046FFF755FE83493846FFF751FE414649
:1032C0003046FFF74DFE29462046FFF749FE7E496E
:1032D0003846FFF745FE00213046FFF741FE2946FC
:1032E0002046FFF73DFE79493846FFF739FE414653
:1032F0003046FFF735FE29462046FFF731FE744978
:103300003846FFF72DFE41463046FFF729FE294695
:103310002046FFF725FE6F493846FFF721FE41465C
:103320003046FFF71DFE29462046FFF719FE6A4981
:103330003846FFF715FE41463046FFF711FE294695
:103340002046FFF70DFE65493846FFF709FE414666
:103350003046FFF705FE29462046FFF701FE60498B
:103360003846FFF7FDFD00213046FFF7F9FD2946FD
:103370002046FFF7F5FD5B493846FFF7F1FD414672
:103380003046FFF7EDFD29462046FFF7E9FD564997
:103390003846FFF7E5FD00213046FFF7E1FD2946FD
:1033A0002046FFF7DDFD51493846FFF7D9FD0021E2
:1033B0003046FFF7D5FD29462046FFF7D1FD4C49A1
:1033C0003846FFF7CDFD00213046FFF7C9FD2946FD
:1033D0002046FFF7C5FD47493846FFF7C1FD0021EC
:1033E0003046FFF7BDFD29462046FFF7B9FD4249AB
:1033F0003846FFF7B5FDFF213046FFF7B1FD2946FE
:103400002046FFF7ADFD3D493846FFF7A9FD802175
:103410003046FFF7A5FD29462046FFF7A1FD3849B4
:103420003846FFF79DFD00213046FFF799FD2946FC
:103430002046FFF795FD33493846FFF791FD0021FF
:103440003046FFF78DFD29462046FFF789FD2E49BE
:103450003846FFF785FD00213046FFF781FD2946FC
:103460002046FFF77DFDBDE8F08100BF8CDB00202A
:10347000B4AE0020D4B0002068AF0020FCBA002019
:103480002CBB002000B100202CB1002058B100203E
:1034900040420F0084B10020B0B10020DCB1002018
:1034A00008B2002034B2002060B200208CB20020AC
:1034B000B8B20020E4B2002010B300203CB30020DA
:1034C00068B3002094B30020C0B30020ECB3002008
:1034D00018B4002044B4002070B400209CB4002034
:1034E000C8B40020F4B4002020B500204CB5002062
:1034F00078B50020A4B50020D0B50020FCB5002090
:1035000028B6002054B6002080B60020000000003D
:103510002DE9F843DFF81C810123C8F80030464F3D
:1035200046493846FFF71CFD454EE0213046FFF77F
:1035300017FD444D444C29462046FFF711FD022358
:10354000C8F8003041493846FFF70AFD502130469F
:10355000FFF706FD29462046FFF702FD0323C8F8C2
:1035600000303B493846FFF7FBFC18213046FFF797
:10357000F7FC29462046FFF7F3FC4FF00409C8F892
:10358000009034493846FFF7EBFC0C213046FFF73A
:10359000E7FC29462046FFF7E3FC0523C8F8003086
:1035A0002D493846FFF7DCFC10213046FFF7D8FCE8
:1035B00029462046FFF7D4FC0623C8F800302749E7
:1035C0003846FFF7CDFC08213046FFF7C9FC2946F5
:1035D0002046FFF7C5FC0723C8F8003020493846CD
:1035E000FFF7BEFC49463046FFF7BAFC29462046A5
:1035F000FFF7B6FC0823C8F800301A493846FFF731
:10360000AFFC14213046FFF7ABFC29462046FFF7FC
:10361000A7FC0923C8F8003013493846FFF7A0FC7F
:1036200028213046FFF79CFC29462046FFF798FCEE
:10363000BDE8F8838CDB0020B4AE0020ACB60020DF
:1036400068AF0020BCB600202CBB0020C4B6002010
:10365000D4B60020E4B60020F4B6002004B7002061
:1036600014B7002024B7002034B700200000000069
:10367000F8B5264B01221A60254D26492846FFF74A
:103680006FFC254C25492046FFF76AFC2449284653
:10369000FFF766FC23492046FFF762FC22492846D3
:1036A000FFF75EFC21492046FFF75AFC20492846D7
:1036B000FFF756FC1F492046FFF752FC1E492846DB
:1036C000FFF74EFC1D4F04213846FFF749FC1C4E06
:1036D00031462046FFF744FC1A492846FFF740FCD4
:1036E00020213846FFF73CFC31462046FFF738FCE6
:1036F00015492846FFF734FC20213846FFF730FCF7
:1037000031462046FFF72CFCF8BD00BF8CDB0020C3
:10371000B4AE002088AE00202CBB002018AD0020E5
:10372000B8AE002040AD0020E4AE0020E4AC0020A4
:1037300010AF002060AD00203CAF002068AF00203B
:10374000FCBA00206CAF002098AF00200000000001
:103750002DE9F0414FF00108224BC3F80080224CC4
:1037600022492046FFF7FCFB214D22492846FFF75E
:10377000F7FB214F00213846FFF7F2FB1F4E314681
:103780002046FFF7EDFB1E492846FFF7E9FB1D49E0
:103790002046FFF7E5FB1C492846FFF7E1FB4146C1
:1037A0003846FFF7DDFB31462046FFF7D9FB1749C6
:1037B0002846FFF7D5FB04213846FFF7D1FB3146F9
:1037C0002046FFF7CDFB12492846FFF7C9FB002131
:1037D0003846FFF7C5FB31462046FFF7C1FBBDE881
:1037E000F08100BF8CDB00202CBB002044B7002000
:1037F000B4AE0020F8AF002068AF0020FCBA002073
:1038000024B0002078B7002050B000207CB0002009
:10381000A8B0002000000000000000000000000030
:103820002DE9F0414FF00108704BC3F80080704F54
:1038300070493846FFF794FB6F4E41463046FFF71C
:103840008FFB6E4D6E4C29462046FFF789FB6D4974
:103850003846FFF785FB41463046FFF781FB294696
:103860002046FFF77DFB68493846FFF779FB414664
:103870003046FFF775FB29462046FFF771FB634989
:103880003846FFF76DFB00213046FFF769FB2946FC
:103890002046FFF765FB5E493846FFF761FB41466E
:1038A0003046FFF75DFB29462046FFF759FB594993
:1038B0003846FFF755FB41463046FFF751FB294696
:1038C0002046FFF74DFB54493846FFF749FB414678
:1038D0003046FFF745FB29462046FFF741FB4F499D
:1038E0003846FFF73DFB41463046FFF739FB294696
:1038F0002046FFF735FB4A493846FFF731FB414682
:103900003046FFF72DFB29462046FFF729FB4549A6
:103910003846FFF725FB41463046FFF721FB294695
:103920002046FFF71DFB40493846FFF719FB41468B
:103930003046FFF715FB29462046FFF711FB3B49B0
:103940003846FFF70DFB08213046FFF709FB2946F3
:103950002046FFF705FB36493846FFF701FB414695
:103960003046FFF7FDFA29462046FFF7F9FA3149BC
:103970003846FFF7F5FA41463046FFF7F1FA294697
:103980002046FFF7EDFA2C493846FFF7E9FA4146A1
:103990003046FFF7E5FA29462046FFF7E1FA2749C6
:1039A0003846FFF7DDFA41463046FFF7D9FA294697
:1039B0002046FFF7D5FA22493846FFF7D1FA4146AB
:1039C0003046FFF7CDFA29462046FFF7C9FA1D49D0
:1039D0003846FFF7C5FA41463046FFF7C1FA294697
:1039E0002046FFF7BDFABDE8F08100BF8CDB002068
:1039F000B4AE002080B7002068AF0020FCBA0020E1
:103A00002CBB0020ACB70020D8B7002004B80020A1
:103A100030B800205CB8002088B80020B4B800207E
:103A2000E0B800200CB9002038B9002064B90020AB
:103A300090B90020BCB90020E8B9002014BA0020D9
:103A400040BA00206CBA0020000000000000000016
:103A500070B506460D460C6800E02468AC4207D0FD
:103A600008223146A01807F0A7F80028F5D100E099
:103A70000024204670BD00BF0000000000000000D0
:103A800008B5FFF7E5FF034610B142680132426016
:103A9000184608BD00000000000000000000000003
:103AA00038B50D4600B128602C68A4B10F492046F6
:103AB00007F0DAF804442378222B0ED00B49204675
:103AC00007F0B6F828602B681BB15A1C2A60002248
:103AD0001A70237843B1204638BD01342221204694
:103AE00007F004F82860EEE70024F4E798BA002015
:103AF000F8B504460F4615461E4600E00834206817
:103B000058B12946FCF71EFC0028F7D16368069AD5
:103B1000314638469847002000E00120F8BD00BF3C
:103B20002DE9F04198B00646056847684FF05043CC
:103B30001A684E4B03EB82035B68DB684C4A1A62DF
:103B40004C492846FFF7B4F84B492846FFF7B0F830
:103B500025E048492846FFF7ABF848492846FFF7D3
:103B6000A7F80020FEF714FE18B0BDE8F08118AAEF
:103B700002EB840141F8583C013417A90020FFF7FB
:103B80008FFF034650B3032CF1DD3D492846FFF774
:103B90008FF818AB03EB8404002344F8583C4FF033
:103BA00050431A68314B03EB82035B68DB6893F97F
:103BB0001D30002BD5DB33492846FFF779F8002369
:103BC000402207A93046FFF793F80028C1D117A972
:103BD00007A8FFF765FF80460024CEE7002218AB58
:103BE00003EB840343F8582CB8F1000FD7D02649D3
:103BF0004046FCF7A7FBC8B9002C11DC2349284636
:103C0000FFF756F822492846FFF762F81FB13946F8
:103C10002846FFF75DF817492846FFF749F8BEE741
:103C2000194A1C492846FFF743F8B8E702AB00934E
:103C30002346424629461648FFF75AFF0028AED0D1
:103C40004FB102AB00932346424629463846FFF760
:103C50004FFF0028A3D042460F492846FFF728F817
:103C60000E492846FFF724F899E700BF70DB0020D3
:103C70009CBA002064BC0020A4BA0020C0BA002076
:103C8000C8BA0020B8BA0020E0BA0020E8BA002084
:103C90000CD50020B4AC0020B4AE0020F8BA00204F
:103CA000704700BF0000000000000000000000009E
:103CB000704700BF0000000000000000000000008E
:103CC000FEE700BF00000000000000000000000050
:103CD000704700BF0000000000000000000000006E
:103CE000704700BF0000000000000000000000005E
:103CF000704700BF0000000000000000000000004E
:103D0000FEE700BF0000000000000000000000000F
:103D10000B4A11E050F8041B43F8041B91689942C8
:103D2000F8D802E0002143F8041BD1689942F9D881
:103D30001032044B9A4202D210685368EEE7704783
:103D400000D0002080D00020000000000000000013
:103D500008B5FDF785F9FCF723FCFCF779FCFCF7C7
:103D60003FFC08BD00000000000000000000000053
:103D700038B5044672B68160FDF78AF9054650B938
:103D80000223237140F2FC73E3602046FCF768FCD9
:103D900062B6284638BD01232371F3E70000000016
:103DA00008B50348FEF76CF8FDF732F908BD00BF0F
:103DB00020D90020000000000000000000000000EA
:103DC00008B50348FEF75CF8FDF722F908BD00BF0F
:103DD0004CD900200000000000000000000000009E
:103DE00008B5054B01225A6372B6FDF7D1FF62B6E2
:103DF000FDF70EF908BD00BF0040054000000000BF
:103E000008B5054B02225A6372B6FDF7C1FF62B6D0
:103E1000FDF7FEF808BD00BF0040054000000000AF
:103E200008B5054B04225A63044B9B680BB1022072
:103E30009847FDF7EDF808BD0040054048DC00203C
:103E400008B5054B08225A63044BDB680BB103200D
:103E50009847FDF7DDF808BD0040054048DC00202C
:103E6000704700BF000000000000000000000000DC
:103E7000024B1B788342FBD1704700BF70DB0020F0
:103E800008B54FF050431A68064B03EB82035B689A
:103E9000D9681B689A688B689A4201D9FEF720FAA4
:103EA00008BD00BF70DB0020000000000000000023
:103EB00010F0010F0BD108B5EFF30583C3F308032E
:103EC0000BB162B608BDFFF7DBFF62B6FAE77047D9
:103ED00008B572B662B672B6FCF702FDFFF7E8FFEE
:103EE00062B608BD000000000000000000000000F5
:103EF00010B54FF050431A68094B03EB82035B681F
:103F0000DB6872B6DC6C9A68A24201D0824200D2B1
:103F10009860D864FFF7B4FF62B6204610BD00BFBA
:103F200070DB002000000000000000000000000026
:103F300008B572B6FEF7A4F8FFF7A2FF62B608BD97
:103F400008B56FF0010200210148FFF7F1FF08BD3D
:103F50002CDC002000000000000000000000000039
:103F600038B50C4672B6826801328260002A09DDDB
:103F7000A368013BA360002B0EDBFFF781FF00204D
:103F800062B638BD0346006802681A605360FDF7E8
:103F90003FFF00234363EBE74FF050431A68084BA1
:103FA00003EB82035B68DD682C6063686B601D60F7
:103FB00065606C630520FEF7B3F9686BE0E700BF4E
:103FC00070DB002000000000000000000000000086
:103FD00010B501464FF050431A68144B03EB8203AF
:103FE0005B68DC6872B6C368A364026882421AD058
:103FF000E06C00E0DB683BB11A689342FAD092684B
:104000009042F7D21046F5E7A060086803680B609D
:1040100059608860836CCB608164FDF7F9FEFFF71F
:104020002FFF62B610BD00238360FAE770DB00202B
:104030002DE9F84305460F46914600F12008404619
:10404000FEF76EFC6E682C68341B2B69E41AA145E0
:1040500000D84C4623442B61A868361AB44215D3C5
:10406000B4421BD932463946FCF7F6F8A4EB0609F0
:104070004A46B9192868FCF7EFF82B684B44AB6047
:104080004046FFF7A5FF2046BDE8F88322463946A3
:10409000FCF7E2F8AB682344AB60F1E7224639460F
:1040A000FCF7DAF82B68AB60EAE700BF000000001D
:1040B0002DE9F84305460F46144600F12008404616
:1040C000FEF72EFC2B699C4200D91C461B1B2B6162
:1040D0006E68E968761AB44215D3B4421BD93246E9
:1040E0003846FCF7B9F8A4EB06094A462968B8191E
:1040F000FCF7B2F82B684B44EB604046FFF768FFD3
:104100002046BDE8F88322463846FCF7A5F8EB6860
:104110002344EB60F1E722463846FCF79DF82B6814
:10412000EB60EAE700000000000000000000000073
:104130002DE9F8439846037D13B10020BDE8F883CC
:1041400005460E46174600F130094846FEF7E8FBE3
:104150003C4606E0241A0644002105F11C00FEF747
:1041600077FD7CB1224631462846FFF761FF0028E3
:10417000F0D172B6414605F11800FEF721F962B69A
:104180000028EED04846FFF723FF381BD6E700BFD4
:104190002DE9F8439846037D13B10020BDE8F8836C
:1041A00005460E46174600F140094846FEF7B8FBA3
:1041B0003C4606E0241A0644002105F11800FEF7EB
:1041C00047FD7CB1224631462846FFF771FF0028A3
:1041D000F0D172B6414605F11C00FEF7F1F862B667
:1041E0000028EED04846FFF7F3FE381BD6E700BFA5
:1041F00010B54FF050431A68104B03EB82035B6815
:10420000DC68A36C5BB917E002681A6053609860C1
:10421000826CDA608364FDF7FBFDA36C43B1A36C91
:10422000DA68A26418688342EED100229A60F4E74B
:10423000E36CA360FFF724FE10BD00BF70DB00201D
:1042400008B572B6FFF7D4FF62B608BD00000000E3
:1042500008B572B6FDF794FFFFF712FE62B608BD0F
:1042600008B572B6FDF79CFFFFF70AFE62B608BDFF
:1042700008B572B6FDF7ACFFFFF702FE62B608BDE7
:1042800008B572B6FDF7E4FEFFF7FAFD62B608BDA9
:1042900008B50248FFF7F4FF08BD00BF6CD8002046
:1042A00008B50248FFF7ECFF08BD00BF6CD800203E
:1042B00008B50248FFF7E4FF08BD00BF6CD8002036
:1042C00070B504460E461546237D2BBB63682268F5
:1042D0009B1A2069B0EBA30F08D1294604F11800FE
:1042E000FEF75EF903460028EED017E0A3681A1D1A
:1042F000A2601E60A26863689A4201D32368A3602B
:10430000236901332361002104F12000FDF710FE31
:10431000FFF7B6FD002301E06FF00103184670BD02
:1043200070B504460D461646237D23BB636820689E
:104330001A1A2169B1EBA20F08D1314604F1180015
:10434000FEF72EF903460028EED016E0E268043AA4
:10435000E260824201D2043BE360E3681D602369AE
:1043600001332361002104F12000FDF7E1FDFFF797
:1043700087FD002301E06FF00103184670BD00BF08
:1043800008B572B6FFF7CCFF62B608BD00000000AA
:1043900070B504460E461546237D0BBB236943B911
:1043A000294604F12000FEF7FBF803460028F3D06D
:1043B00018E0E3681A1DE2601B683360E268636816
:1043C0009A4201D32368E3602369013B2361002102
:1043D00004F11800FDF7ACFDFFF752FD002301E0EA
:1043E0006FF00103184670BD0000000000000000DF
:1043F00038B5044600F120052846FEF791FA2368F7
:10440000A360E360002323610123237572B66FF07C
:10441000010104F11800FDF723FD6FF0010104F123
:104420001C00FDF71DFDFFF72BFD62B62846FFF7C8
:10443000CFFD38BD000000000000000000000000BB
:1044400008B572B68368002B03DDFFF719FD62B66D
:1044500008BDFDF725FEF8E70000000000000000A1
:1044600010B54FF050431A68094B03EB82035B68A9
:10447000D8681C6822681A60536001222277DC60C9
:10448000FDF7BEFE01462046FBF7C4FE10BD00BF8F
:1044900070DB0020000000000000000000000000B1
:1044A0002DE9F04188B004460E464FF050431B689A
:1044B000DFF8A08008EB8302506003634163FCF7E0
:1044C0006FFD246064600025A56004F1100727617A
:1044D0007F604FF0FF33BB60FD6014233B61FCF74E
:1044E0000FF802462B46C7E90623C4F8D8501A4BEA
:1044F000019373680293B368039380230493059533
:104500000695079401A904F18800FCF741FAE060E0
:1045100000F1240308F110024262D8F814208262EC
:104520001360C8F81430E268012313770B4A019234
:10453000F2680292326903920493094B059306953F
:10454000079401A904F13800FDF782FC08B0BDE82A
:10455000F08100BF70DB002000BB002008BB002002
:1045600081090020000000000000000000000000A1
:1045700010B572B6FCF75CFA04460021FEF720FB8A
:1045800062B6204610BD00BF000000000000000021
:10459000F0B589B01E460E9F43181849019102904C
:1045A00003930492059606974FF050421268144DFB
:1045B00005EB82025268079201A9A3F16000FCF7A3
:1045C000E7F90446A0F12403C36040F8246C40F8E6
:1045D000207C0C4A40F8042C72B600F1240305F14B
:1045E000100242626A69826213606B610021FEF709
:1045F000E7FA62B6204609B0F0BD00BF10BB00204C
:1046000070DB0020350200200000000000000000E8
:1046100008B572B6FEF794F808BD00BF00000000B0
:1046200008B5FFF7F5FF08BD00000000000000001E
:1046300038B504464FF050431A680B4B03EB820326
:104640005B68DB6872B6027F0F2A05D0826B1A6046
:1046500083630920FDF764FE656B62B62046FCF7B4
:104660000FFA284638BD00BF70DB002000000000B4
:1046700010B5002400E00134042C0BD8064B53F88D
:1046800024000028F7D0FFF7D3FF034B002243F8A4
:104690002420F0E710BD00BF20E50020000000004E
:1046A00008B5FFF7E5FF08BD0000000000000000AE
:1046B00008B5FFF7DDFF08BD0000000000000000A6
:1046C00008B5FFF7D5FF08BD00000000000000009E
:1046D00008B5014672B60820FDF73AFE62B608BD7D
:1046E0002DE9F04105464C48FEF73AFC29680029BF
:1046F00049D04A48FEF734FC494C2046FEF730FCCE
:1047000048494948FEF72CFC48494948FEF728FC2F
:1047100048494948FEF724FC2046FEF721FC47495A
:10472000474BC91A4748FEF71BFC4749474BC91A74
:104730004748FEF715FC4749474BC91A4748FEF75B
:104740000FFC4749474BC91A4748FEF709FC324856
:10475000FEF706FC4FF00008444B83F804806B68BA
:104760004FEA880653F82830002B43D0FCF728FF87
:1047700008F101086B689B591A6841463C48FEF7EE
:10478000EFFB002406E03B48FEF7EAFBB4E73A48BB
:10479000FEF7E6FB6B689B595B68A70053F8243073
:1047A000002BDCD0FCF7FCFE01346B689B595B6886
:1047B000DB591B68224641463048FEF7D1FB3048A2
:1047C000FFF786FF6B689B595B68D859FCF768FE5A
:1047D000264B5B79002BDAD0244FBB68294A396815
:1047E0002948FEF7BDFBFCF7BBFEB9682748FEF77A
:1047F000B7FBCFE7FCF7D4FE0748FEF7B1FB1B4B36
:104800001B793BB122492348FEF7AAFB174B1879C5
:10481000BDE8F0812049F6E764BC002028BB0020F9
:1048200048BB002050BB002068BB002094AD002096
:1048300080BB00209CAD002098BB00209CAC0020D9
:10484000C0000020B0BB00203CD800209CAC002061
:10485000D0BB002018D900203CD80020F0BB00209D
:10486000A0F2002020D9002010BC00208CDB00200A
:1048700030BC002034BB002090BC00204CBC002089
:10488000400D0300FCBA002068BC002084BC00205E
:1048900020BB0020A8BC002018BB002000000000A6
:1048A00008B5044B5862044A1A620846FFF718FF1D
:1048B00008BD00BF8CDB0020711400200000000048
:1048C00008B50249FFF7ECFF08BD00BFD0D40020B7
:1048D00008B50249FFF7E4FF08BD00BFBCCF0020C8
:1048E00008B50120FFF7F4FE72B6FBF709FE62B6C9
:1048F00008BD00BF00000000000000000000000034
:1049000070B50546FFF7ECFF064600240121284656
:10491000FEF7E6F80134FBF7F3FD801B044B9842E9
:10492000F4D900212846FEF7DBF8204670BD00BF11
:104930003F420F00000000000000000000000000E7
:1049400070B582B01B4D01232B604FF050431A68A5
:10495000194B03EB82035B68DB689A6800230093C2
:10496000164B013A4FF4E0711548FFF711FE154B55
:10497000186002232B60FFF7C3FF0446FFF778FEA1
:1049800003232B60104E11493046FEF7E9FA104D13
:1049900021462846FEF7E4FA0E493046FEF7E0FAD3
:1049A00061002846FEF7DCFA0B490C48FEF7D8FAFE
:1049B00002B070BD8CDB002070DB0020912C002049
:1049C00060DC002020E50020B4AE0020BCBC00204C
:1049D00068AF0020CCBC0020D8BC00202CBB00203D
:1049E00070B582B01B4D01232B604FF050431A6805
:1049F000194B03EB82035B68DB689A680023009322
:104A0000164B01324FF4E0711548FFF7C1FD154B0D
:104A1000186002232B60FFF773FF0446FFF728FEA0
:104A200003232B60104E11493046FEF799FA104DC2
:104A300021462846FEF794FA0E493046FEF790FAD2
:104A400061002846FEF78CFA0B490C48FEF788FAFD
:104A500002B070BD8CDB002070DB0020912C0020A8
:104A600060DC002020E50020B4AE0020BCBC0020AB
:104A700068AF0020CCBC0020D8BC00202CBB00209C
:104A80002DE9F04782B0DFF810910123C9F800301A
:104A90004FF05048D8F80030404C04EB83035B687B
:104AA000DB689A683E4E002700973E4B01324FF478
:104AB000E0713046FFF76CFD3B4D28600223C9F8DA
:104AC0000030D8F8003004EB83035B68DB689A6839
:104AD000DFF8D8A000975346023A4FF4E0717018FF
:104AE000FFF756FD6860D8F8003004EB83035B687D
:104AF000DB689A6800975346033A4FF4E07106F575
:104B00006070FFF745FDA860D8F8003004EB830320
:104B10005B68DB689A6800975346043A4FF4E0718B
:104B200006F5A860FFF734FDE860D8F8003004EB24
:104B300083046368DB689A6800975346053A4FF42C
:104B4000E07106F5E060FFF723FD28610323C9F853
:104B500000302868FFF7D4FE0446FFF789FD0423E0
:104B6000C9F80030124E13493046FEF7F9F9124DDC
:104B700021462846FEF7F4F910493046FEF7F0F9D1
:104B800061002846FEF7ECF90D490E48FEF7E8F9FA
:104B900002B0BDE8F08700BF8CDB002070DB002096
:104BA00060DC0020912C002020E500202146002020
:104BB000B4AE0020BCBC002068AF0020CCBC0020FC
:104BC000D8BC00202CBB002000000000000000002A
:104BD00070B582B0284E012333604FF050431A68FD
:104BE000264B03EB82035B68DB689A68002500951F
:104BF000234B01324FF4E0712248FFF7C9FC044611
:104C0000214B186002233360FFF76AFE064672B636
:104C100000212046FDF7D4FF00212046FDF7D0FFFC
:104C200000212046FDF7CCFF00212046FDF7C8FFFC
:104C300062B60435FBF764FC801B144B9842E6D93E
:104C40000D4E0323336072B64FF0FF312046FDF75F
:104C5000B7FF62B6FFF70CFD042333600C490D4823
:104C6000FEF77EF969000C48FEF77AF90B490C480B
:104C7000FEF776F902B070BD8CDB002070DB0020FF
:104C8000912B002060DC002020E500203F420F0037
:104C9000BCBC0020B4AE002068AF0020D8BC00200F
:104CA0002CBB0020000000000000000000000000FD
:104CB00070B582B04FF050431A68184B03EB820373
:104CC0005B68DB689E68013E154B01221A60FFF7A6
:104CD00007FE0546002400230093124B32464FF492
:104CE000E0711148FFF754FCFFF7A2FC0134FBF719
:104CF00007FC401B0D4B9842EDD9094B02221A606C
:104D00000B490C48FEF72CF921460B48FEF728F911
:104D10000A490B48FEF724F902B070BD70DB002091
:104D20008CDB00202146002060DC00203F420F0089
:104D3000BCBC0020B4AE002068AF0020E4BC002062
:104D40002CBB00200000000000000000000000005C
:104D500070B582B04FF050431A68184B03EB8203D2
:104D60005B68DB689E680136154B01221A60FFF70D
:104D7000B7FD0546002400230093124B32464FF442
:104D8000E0711148FFF704FCFBF77AFE0134FBF7F2
:104D9000B7FB401B0D4B9842EDD9094B02221A601C
:104DA0000B490C48FEF7DCF821460B48FEF7D8F813
:104DB0000A490B48FEF7D4F802B070BD70DB002042
:104DC0008CDB00202146002060DC00203F420F00E9
:104DD000BCBC0020B4AE002068AF0020E4BC0020C2
:104DE0002CBB0020000000000000000000000000BC
:104DF0002DE9F04782B0DFF838A10123CAF800306E
:104E00004FF05049D9F800304A4D05EB83035B68F9
:104E1000DB689A68DFF82081484F002400944346FD
:104E200005324FF4E0713846FFF7B2FB444E306074
:104E3000D9F8003005EB83035B68DB689A6800945F
:104E4000434604324FF4E0717818FFF7A1FB70601D
:104E5000D9F8003005EB83035B68DB689A6800943F
:104E6000434603324FF4E07107F56070FFF790FBA3
:104E7000B060D9F8003005EB83035B68DB689A68A3
:104E80000094434602324FF4E07107F5A860FFF743
:104E90007FFBF060D9F8003005EB83056B68DB68B9
:104EA0009A680094434601324FF4E07107F5E060E0
:104EB000FFF76EFB30610223CAF80030FFF710FDE8
:104EC00005466FF0010200211E48FFF731F801345A
:104ED000FBF716FB401B1C4B9842F2D9144D0323E1
:104EE0002B60FCF705FD6FF0010200211548FFF76C
:104EF0001FF8FFF7BDFB04232B60144E1449304606
:104F0000FEF72EF8134D21462846FEF729F81249E0
:104F10003046FEF725F804EB440461002846FEF70E
:104F20001FF80E490E48FEF71BF802B0BDE8F087E7
:104F30008CDB002070DB00203153002060DC00207F
:104F400020E5002038DC00203F420F00B4AE0020F6
:104F5000BCBC002068AF0020F0BC0020D8BC002002
:104F60002CBB00200000000000000000000000003A
:104F70002DE9F0411B4B01221A60FFF7B1FC80467E
:104F8000002772B6184E194D0023324601212846DB
:104F9000FCF776FE164C0023324642F21071204692
:104FA000FCF76EFE2846FCF7C3FD2046FCF7C0FD6B
:104FB00062B60137FBF7A4FAA0EB08000D4B98424C
:104FC000DFD9084B02221A600B490C48FDF7C8FFD5
:104FD00079000B48FDF7C4FF0A490B48FDF7C0FFF5
:104FE000BDE8F0818CDB0020911A002038E500201C
:104FF00050E500203F420F00BCBC0020B4AE0020B2
:1050000068AF002004BD00202CBB00200000000081
:1050100070B51B4B01221A60FFF762FC06460025A3
:10502000184C2046FDF77CFC2046FEF7D1FF2046B9
:10503000FDF776FC2046FEF7CBFF2046FDF770FC1F
:105040002046FEF7C5FF2046FDF76AFC2046FEF726
:10505000BFFF0135FBF754FA801B0B4B9842DFD999
:10506000074B02221A6009490948FDF779FFA90098
:105070000848FDF775FF08490848FDF771FF70BD46
:105080008CDB00201CDC00203F420F00BCBC002059
:10509000B4AE002068AF002010BD00202CBB002063
:1050A00008B54CF25030FFF713FB72B60348FCF71B
:1050B000F7FFFEF7E5FE62B608BD00BF2CDC00205E
:1050C00010B54CF25030FFF703FB044C2046FDF7BF
:1050D00027FC2046FEF77CFF10BD00BF4CD8002007
:1050E00010B50748FFF7F4FA72B6064C2046FDF7F4
:1050F000AFFB2046FDF704F8FEF7C2FE62B610BD16
:10510000F04902005CD80020000000000000000010
:1051100010B504464CF25030FFF7DAFA0121204670
:10512000FFF79EF810BD00BF000000000000000067
:1051300008B500210548FFF79BF84CF25030FFF707
:10514000C7FA00210248FFF793F808BD44D80020B1
:1051500048D800200000000000000000000000000F
:105160002DE9F04784B0DFF808A10123CAF8003028
:1051700000230393FFF7B4FB4FF05049D9F80030F8
:105180003C4C04EB83035B68DB689A683A4F3B4E08
:105190000DF10C08CDF800803B46013A4FF4E07168
:1051A0003046FFF7F5F9364D2860D9F8003004EBAA
:1051B00083035B68DB689A68CDF800803B46013A60
:1051C0004FF4E0717018FFF7E3F96860D9F8003028
:1051D00004EB83035B68DB689A68CDF800803B468C
:1051E000013A4FF4E07106F56070FFF7D1F9A8605D
:1051F000D9F8003004EB83035B68DB689A68CDF86C
:1052000000803B46013A4FF4E07106F5A860FFF7D5
:10521000BFF9E860D9F8003004EB83046368DB6809
:105220009A68CDF800803B46013A4FF4E07106F5EC
:10523000E060FFF7ADF928610223CAF80030114899
:10524000FFF746FAFCF754FBFFF712FA0323CAF8FC
:1052500000300D490D48FDF783FE03990C48FDF71A
:105260007FFE0C490C48FDF77BFE04B0BDE8F087DB
:105270008CDB002070DB0020A122002060DC0020FD
:1052800020E5002040420F00BCBC0020B4AE00204E
:1052900068AF0020D8BC00202CBB0020000000001C
:1052A0000060406081607047000000000000000066
:1052B00008B501210148FFF7F3FF08BD2CDC0020F1
:1052C00008B500210148FFF7EBFF08BD2CDC0020EA
:1052D00008B500210148FFF7E3FF08BD2CDC0020E2
:1052E00008B500210148FFF7DBFF08BD2CDC0020DA
:1052F00008B500210148FFF7D3FF08BD2CDC0020D2
:1053000008B500210148FFF7CBFF08BD38DC0020BD
:1053100008B501210148FFF7C3FF08BD38DC0020B4
:1053200008B572B6FDF744FA62B608BD0000000089
:1053300008B502E00748FFF7F3FF4FF050431A6843
:10534000054B03EB82035B68DB6893F91D30002B90
:10535000F0DA08BD38DC002070DB0020000000001F
:1053600072B6826801328260002A01DD62B670473F
:1053700008B50346006802681A6053600021FDF713
:105380001FFC62B608BD00BF000000000000000066
:1053900010B5044C2046FFF7C3FF2046FFF7E0FF9F
:1053A00010BD00BF2CDC0020000000000000000049
:1053B00070B51B4B01221A60FFF792FA06460025D2
:1053C000184C2046FFF7ACFF2046FFF7C9FF2046E8
:1053D000FFF7A6FF2046FFF7C3FF2046FFF7A0FF19
:1053E0002046FFF7BDFF2046FFF79AFF2046FFF754
:1053F000B7FF0135FBF784F8801B0B4B9842DFD9D0
:10540000074B02221A6009490948FDF7A9FDA900C6
:105410000848FDF7A5FD08490848FDF7A1FD70BD46
:105420008CDB002038DC00203F420F00BCBC002099
:10543000B4AE002068AF002020BD00202CBB0020AF
:1054400010B50446016001EB82024260C1608160D8
:105450000023036103751830FBF732FB04F12000D1
:10546000FBF72EFB10BD00BF000000000000000095
:1054700008B5042202490348FFF7E2FF08BD00BF58
:10548000FCDB00206CD800200000000000000000C1
:1054900008B5042202490348FFF7D2FF08BD00BF48
:1054A000FCDB00206CD800200000000000000000A1
:1054B00008B5042202490348FFF7C2FF08BD00BF38
:1054C000FCDB00206CD80020000000000000000081
:1054D00008B572B6FEF7F4FE62B608BD0000000023
:1054E00008B572B6FEF754FF62B608BD00000000B2
:1054F00008B5CB1D23F00703591A521A0021016089
:10550000C36001611960083AD2085A6043605B6861
:105510000133DB0083601430FBF73AFB08BD00BFAA
:1055200008B54FF40C6202490248FFF7E1FF08BDDD
:1055300060DC0020D8DB002000000000000000003C
:105540002DE9F8430F4615468046002838D0072D30
:1055500000D80825FE1DF60808F114094846FDF795
:10556000DFF908F10C0421462468002C4AD06319A5
:1055700007336A421340083B6068421C04EBC202D6
:105580009A42F0D903F1080CA2EB0C024FEAE20CAC
:10559000B6EBE20FE7D89C4215D204F108029A1A42
:1055A000D2106260B44521D9701C03EBC001ACEB92
:1055B0000602013A4A60226843F83020216015E073
:1055C000DFF86880C3E7B04218D0013604EBC602AA
:1055D000236844F836306368013304EBC30302F1F7
:1055E00008001B1ADB1053600A6023465F601C46EC
:1055F00044F8088B4846FEF7EBFC13E023680B6089
:105600002346F3E74846FEF7E3FCD8F800304BB1F9
:1056100008222946F0009847044618B140F8088C43
:1056200040F8047C2046BDE8F88300BFB4DB0020CE
:10563000F0B589B00D4617461E462022FFF780FFC1
:105640000446B0B1054401970290039504960E9B61
:1056500005930F9B06930025079572B601A8FBF7EB
:10566000E7F90446044BC36205632946FDF7A8FA2F
:1056700062B6204609B0F0BDF157002000000000DE
:1056800030B583B00446012921D11568194928464F
:10569000FAF758FE30B318492846FAF753FED8B93E
:1056A000164A4FF050431968154B03EB81035B68B2
:1056B000DB689B6801940092124A4FF4407100200D
:1056C000FFF7B6FF80B1FEF7B3FF03B030BD0E4A5F
:1056D0000E49FDF7EDFAF8E70B4A0C492046FDF7B5
:1056E000E7FAF2E70A4ADCE70A492046FDF7E0FA62
:1056F000EBE700BF40BD002038BD0020D1480020AE
:1057000070DB002028CA002030BD0020B4AC00208F
:10571000C148002044BD002000000000000000003F
:10572000F8B506460F4614461D46FEF791F980B9B6
:105730002A462146FFF704FF044658B100F108014C
:105740003046FBF705FC012363603B6823603C6047
:1057500000E000242046F8BD00000000000000002A
:10576000F8B50646A0F1080450F8087C07F10C05CE
:1057700050F8043C0733DB0840F8043C1437384643
:10578000FDF7CEF82B4604E01A683AB1944205D3EF
:105790001B689D42F8D0A342FAD2F5E746F8082CE0
:1057A0001C6056F8041C4A1C04EBC20256F8080C94
:1057B000824209D059684A1C03EBC20294420CD0C1
:1057C0003846FEF705FCF8BD42681144013146F841
:1057D000041C026846F8082CECE756F8042C114427
:1057E0000131596056F8082C1A60E9E70000000002
:1057F00008B54069FFF7B4FF08BD00BF0000000016
:1058000038B50546FBF7B4FB50B16C68013C6C60E1
:105810000CB1204638BDFBF7BBFBFFF7A1FFF8E753
:105820000024F6E700000000000000000000000077
:105830002DE9F0410E461546044698B104F11407CF
:105840003846FDF76DF804F10C030022144690462B
:105850001B684BB1586808F1010804448242F7D232
:105860000246F5E7064CE9E70EB1E40034600DB1FD
:10587000D2002A603846FEF7ABFB4046BDE8F08117
:10588000B4DB002000000000000000000000000069
:1058900030B585B0044600291EDC02AA03A9002009
:1058A000FFF7C6FF05466846FBF782FA019A0D49E5
:1058B0002046FDF7FDF92A460B492046FDF7F8F989
:1058C000039A0A492046FDF7F3F9029A084920464F
:1058D000FDF7EEF905B030BD064A0749FDF7E8F9D6
:1058E000F8E700BF58BD002078BD002090BD002023
:1058F000B0BD002054BD0020B4AC0020000000006A
:1059000038B5044668B1206810B1FBF711FAA0B3AE
:1059100004F114052846FDF703F804F10C030022F6
:1059200004E0174CEFE700222AB31A461B68C3B104
:105930009A421CD213F0070F1BD15A680132D200D1
:105940006068A16801390144013A9A18EBD2834298
:1059500003D3914203D20022E6E70022E4E70122CA
:10596000E2E700242846FEF733FB204638BD012439
:10597000F8E70124F6E70124F4E70124F5E700BF86
:10598000B4DB002000000000000000000000000068
:1059900010B40024046041608260C36010BC704792
:1059A00038B5124C2046FBF7F3F804F110032361DD
:1059B0000F4D2B46042214216018FFF7E9FF04F174
:1059C0002403636204F12803A3622B4604221C21F2
:1059D00004F12C00FFF7DCFF04F13C03E36304F166
:1059E0004003236404F14403636438BD20DB0020DA
:1059F000410F002000000000000000000000000037
:105A000010B586B0194B01221A70002305E0174A21
:105A100002EB8302002151600133012BF7D9134BB4
:105A20000022DA606846FBF753F804246846FBF767
:105A30005FF86846FBF764F8013CF7D10B4C009B1C
:105A4000E36004F11003236163610023A361FBF7AA
:105A50007FF9FBF7BDF9FFF7A3FF05490548FEF7FE
:105A60001FFD0223237062B606B010BD70DB00205C
:105A700064CD002090D9002000000000000000004C
:105A800008B5002304224FF4E0710248FFF780FFBD
:105A900008BD00BF0CDC002000000000000000007A
:105AA00008B572B6FBF7ACF962B608BD000000009D
:105AB0002DE9F04188B00546884617461E46FFF797
:105AC000EFFF0446B8B16B680344CDF80480029040
:105AD0000393049705960E9B06930026079672B6CD
