:020000042000DA
:100000000002042001020020315D002003020020D4
:10001000030200200302002003020020030200204C
:10002000030200200302002003020020030200203C
:10003000030200200302002003020020030200202C
:10004000F11C0020311D0020711D0020A11D002089
:10005000030200200302002003020020030200200C
:1000600003020020030200200302002003020020FC
:10007000030200200302002003020020515D002043
:10008000815D002003020020030200200302002003
:10009000B1240020D124002003020020030200200C
:1000A00003020020030200200302002003020020BC
:1000B00003020020030200200302002003020020AC
:1000C00072B6394880F30888384880F309880220DE
:1000D00080F31488BFF36F8F35483649086001F00C
:1000E0008FFD01F0FDFD344834492F4A914202DA78
:1000F00008600431FAE732492C4A914202DA08607A
:100100000431FAE72F49304A304B9A4204DA086842
:10011000106004310432F8E700202D492D4A914245
:1001200002DA08600431FAE701F0A2FD01F070FD87
:10013000294C2A4DAC4203DA216888470434F9E798
:100140000CF076FC264C274DAC4203DA2168884738
:100150000434F9E72449084772B6244880F3088834
:10016000234880F30988022080F31488BFF36F8F3F
:100170000F481049086001F05BFD01F061FD0E4879
:100180001C491A4A914202DA08600431FAE71A4916
:10019000174A914202DA08600431FAE701F058FD8B
:1001A0000CF0D6FD15490847000204200004042085
:1001B0000000002008ED00E05555555500000420D2
:1001C00000020420940F0120940F012070100120E0
:1001D0007010012088220120C0000020C0000020F3
:1001E000C0000020C0000020211C002000120420BC
:1001F000001404200010042000120420611C0020C0
:100200005EE700F000F8FEE7F0B544464D4656467E
:100210005F46F0B46B46CB60C3689D46F0BCA04619
:10022000A946B246BB46F0BD05F0D2FD62B6281C19
:10023000A047002003F0FCFAFEE701F059FE024A55
:10024000024B1360FEE7000004ED00E000000080B8
:10025000024670B50A4392072AD11E4DEE0104C82A
:1002600008C9541B9443344017D0D0B2D9B2401AB5
:100270002106014310D190B299B2401A21040143E2
:100280000AD110021902000A090A401A2102014388
:1002900002D1100E190E401A70BD9A42DFD010BA6A
:1002A00019BA884201D9012070BD0020C04370BD39
:1002B00002780B7801300131002A09D09A4207D127
:1002C00002780B7801300131002A01D09A42EFD038
:1002D000D01A70BD01010101002243088B4274D382
:1002E00003098B425FD3030A8B4244D3030B8B4237
:1002F00028D3030C8B420DD3FF22090212BA030C40
:100300008B4202D31212090265D0030B8B4219D320
:1003100000E0090AC30B8B4201D3CB03C01A524140
:10032000830B8B4201D38B03C01A5241430B8B4288
:1003300001D34B03C01A5241030B8B4201D30B0371
:10034000C01A5241C30A8B4201D3CB02C01A524198
:10035000830A8B4201D38B02C01A5241430A8B425B
:1003600001D34B02C01A5241030A8B4201D30B0244
:10037000C01A5241CDD2C3098B4201D3CB01C01A5E
:10038000524183098B4201D38B01C01A5241430968
:100390008B4201D34B01C01A524103098B4201D356
:1003A0000B01C01A5241C3088B4201D3CB00C01AC3
:1003B000524183088B4201D38B00C01A524143083B
:1003C0008B4201D34B00C01A5241411A00D2014660
:1003D000524110467047FFE701B5002000F0F0F8E9
:1003E00002BDC0460029F7D076E7704703460B43AD
:1003F0007FD4002243088B4274D303098B425FD31E
:10040000030A8B4244D3030B8B4228D3030C8B4249
:100410000DD3FF22090212BA030C8B4202D312122F
:10042000090265D0030B8B4219D300E0090AC30B04
:100430008B4201D3CB03C01A5241830B8B4201D3B1
:100440008B03C01A5241430B8B4201D34B03C01A9A
:100450005241030B8B4201D30B03C01A5241C30A12
:100460008B4201D3CB02C01A5241830A8B4201D383
:100470008B02C01A5241430A8B4201D34B02C01A6D
:100480005241030A8B4201D30B02C01A5241CDD212
:10049000C3098B4201D3CB01C01A524183098B425D
:1004A00001D38B01C01A524143098B4201D34B0146
:1004B000C01A524103098B4201D30B01C01A5241A9
:1004C000C3088B4201D3CB00C01A524183088B4230
:1004D00001D38B00C01A524143088B4201D34B0019
:1004E000C01A5241411A00D201465241104670478B
:1004F0005DE0CA0F00D04942031000D34042534090
:1005000000229C4603098B422DD3030A8B4212D34F
:10051000FC22890112BA030A8B420CD38901921181
:100520008B4208D3890192118B4204D389013AD0BE
:10053000921100E08909C3098B4201D3CB01C01A93
:10054000524183098B4201D38B01C01A52414309A6
:100550008B4201D34B01C01A524103098B4201D394
:100560000B01C01A5241C3088B4201D3CB00C01A01
:10057000524183088B4201D38B00C01A5241D9D219
:1005800043088B4201D34B00C01A5241411A00D29A
:100590000146634652415B10104601D34042002B96
:1005A00000D54942704763465B1000D3404201B515
:1005B000002000F005F802BD0029F8D016E77047CA
:1005C0007047C0460000000000000000000000006E
:1005D0004B1E994114204942084014387047C046C8
:1005E000EFF31080C3070DD4EFF30583DB050AD0CA
:1005F00072B6D021BE22090652008B58002BFCD0C7
:10060000BFF35F8F704772B6D021BE220906520039
:100610008B58002BFCD0BFF35F8FF3E70000000086
:10062000FEE7C046000000000000000000000000DF
:1006300010B572B6D022BE21120649005358002BC5
:10064000FCD0BFF35F8F837F013B8377C4690B4B83
:1006500023400F2B04D0BFF35F8F525062B610BD02
:10066000846A436A23605C60BFF35F8F525062B656
:10067000C36A002BF3D09847F1E7C046FF00FF00A4
:1006800010B5046B406972B6D022BE211206490033
:100690005358002BFCD0BFF35F8F236803602060AA
:1006A000BFF35F8F525062B610BDC046000000001D
:1006B00030B572B6D025BE242D0664002B59002B10
:1006C000FCD0BFF35F8F0B4C65682B1A4842184073
:1006D0002368821A9A420BD3954209D36260BFF312
:1006E0005F8FD023BE221B0652009B5062B630BDE6
:1006F0000020F4E7D81001200000000000000000F6
:10070000036810B51A1D02601B68984710BDC046EB
:10071000036810B519001A1D026008311A680160DB
:100720005868904710BDC04600000000000000005F
:100730000200036810B5191D016008311C68586873
:1007400011609968A04710BD000000000000000083
:10075000036870B51D000200191D016010351C688A
:10076000586899681560DA68A04770BD00000000FD
:10077000036870B51E0004001A1D026014361D685F
:100780009968DA68586826601B69A84770BDC0463A
:10079000074A10B55468231A484218401368984213
:1007A00003D3844201D3506010BD0020FCE7C04653
:1007B000D810012000000000000000000000000030
:1007C00072B6D022BE21120649005358002BFCD02D
:1007D000BFF35F8FEFF30983203B83F30988802108
:1007E0004904D9611168074A890052185268116892
:1007F000D26889689268914202D9034A9A61704727
:10080000024AFBE7E01001203B0200203E020020EC
:1008100010B50400034BE1B2586A0368DB689847DF
:10082000200010BDFC1001200000000000000000AE
:100830000E4870B5D0220500BE2180261435120660
:10084000490076420468002C0CD072B65358002B35
:10085000FCD0BFF35F8F637F33436377BFF35F8F5A
:10086000525062B60430A842ECD170BDC0190120CC
:100870000123624830B5036072B6D022BE21120651
:1008800049005358002BFCD0BFF35F8F13685C4CBA
:100890009B00E31859680A688A4200D19CE0002353
:1008A000126801338A42FBD14A688A4200D177E05C
:1008B0005268013B8A42FBD1002B00D070E0BFF3AD
:1008C0005F8FD022BE2112064900525062B6022329
:1008D000036072B65358002BFCD0BFF35F8F1368D0
:1008E0009B00E3185D6829002A6910318A4200D113
:1008F00078E00023126801338A42FBD16A698A4298
:1009000040D05268013B8A42FBD1002B3AD1BFF361
:100910005F8FD022BE2112064900525062B60323D7
:10092000036072B65358002BFCD0BFF35F8F2100D9
:100930001368226910318A425AD0002312680133A9
:100940008A42FBD16169914238D010344968013B39
:10095000A142FBD1002B31D1BFF35F8FD022BE214A
:1009600012064900525062B60423036072B653580F
:10097000002BFCD0BFF35F8F1368BFF35F8F525023
:1009800062B60CE0BFF35F8FD023BE221B0652007D
:100990009B5062B60223FF3383801A4B836030BDC5
:1009A000BFF35F8FD023BE221B0652009B5062B65E
:1009B0000223FF338380144B8360F0E7BFF35F8F24
:1009C000D023BE221B0652009B5062B60223FF3387
:1009D00083800E4B8360E2E74A6800238A4200D09E
:1009E00066E76CE76A690023914200D089E78EE7E9
:1009F000616900239142A8D1AEE7C046FC100120F6
:100A0000E010012088E0002070E00020ACE0002031
:100A10000122034B1A6072B672B672B662B67047A4
:100A2000FC10012000000000000000000000000099
:100A30000122044B1A60044A916A936A9942FCD0DD
:100A40007047C046FC100120004005400000000037
:100A50000322014B1A607047FC10012000000000C7
:100A6000054B1900DA6820318A4203D20178501C04
:100A7000D86011707047C046FC10012000000000D3
:100A80000022014B1A607047D419012000000000B9
:100A90000122024B1B605B609A6070479C11012031
:100AA0000022024B1B605B609A6070479C11012022
:100AB0000022024B1B605B609A6070479C11012012
:100AC0000022024B1B605B609A6070479C11012002
:100AD0000022024B1B605B609A6070479C110120F2
:100AE0000022024B1B605B609A607047A40F0120DC
:100AF0000022024B1B605B609A607047A40F0120CC
:100B00000022044B1B605B609A60034B1B605B60C0
:100B10009A607047A40F0120B40F0120000000006C
:100B20000022044B1B605B60034B1B605B609A60A0
:100B30007047C046940F0120A40F01200000000060
:100B40000022044B1B605B60034B1B605B609A6080
:100B50007047C046940F0120A40F01200000000040
:100B60000022064B1B605B60054B1B605B609A605C
:100B7000044B1B605B609A607047C046940F012075
:100B8000A40F0120B40F01200000000000000000AD
:100B9000054B1900DA6820318A4203D2511CD96012
:100BA000412313707047C046FC1001200000000074
:100BB000054B1900DA6820318A4203D2511CD960F2
:100BC000422313707047C046FC1001200000000053
:100BD000054B1900DA6820318A4203D2511CD960D2
:100BE000432313707047C046FC1001200000000032
:100BF0000223F0B5604A614C8BB01260236072B67C
:100C0000D021BE20090640000B58002BFCD0BFF3BA
:100C10005F8F0B685A4E9B00F3185B6805ADDB686D
:100C200017686B600123AB600023EB60013B059705
:100C300015602B61BFF35F8F095062B672B6D02189
:100C4000BE20090640000B58002BFCD0BFF35F8F7D
:100C50000B6817689B00F61873686E46DB68009790
:100C600073600223B3600023F360013B16603361BD
:100C7000BFF35F8F095062B672B6D021BE2009065D
:100C800040000B58002BFCD0BFF35F8F13689342DA
:100C900056D0BFF35F8F095062B60323236072B64C
:100CA000D020BE21000649004358002BFCD0BFF3E2
:100CB0005F8F130001E0AB424DD019001B689342D7
:100CC000F9D1BFF35F8FD021BE2009064000095043
:100CD00062B672B60B58002BFCD0BFF35F8F13685F
:100CE00093422DD0BFF35F8F095062B60423236077
:100CF00072B6D020BE21000649004358002BFCD01C
:100D0000BFF35F8F130001E0B34231D019001B68BD
:100D10009342F9D1BFF35F8FD021BE200906400076
:100D2000095062B672B60B58002BFCD0BFF35F8F30
:100D30001368934212D1BFF35F8F095062B608E087
:100D40000223FF33A3800F4BA360BFF35F8F0950D3
:100D500062B60BB0F0BD1B680B60B2E70223FF3335
:100D6000A380094BA360BFF35F8F095062B6F0E721
:100D70001B680B60CEE7C0469C0F0120FC100120D1
:100D8000E0100120C8E00020D4E0002000000000B6
:100D900072B6D022BE21120649005358002BFCD057
:100DA000BFF35F8F1068064B80001B1800205B6844
:100DB000DB685864BFF35F8F525062B67047C0461D
:100DC000E010012000000000000000000000000012
:100DD00072B6D022BE21120649005358002BFCD017
:100DE000BFF35F8F1068064B80001B1800205B6804
:100DF000DB685864BFF35F8F525062B67047C046DD
:100E0000E0100120000000000000000000000000D1
:100E100072B6D022BE21120649005358002BFCD0D6
:100E2000BFF35F8F1068064B80001B1800205B68C3
:100E3000DB685864BFF35F8F525062B67047C0469C
:100E4000E010012000000000000000000000000091
:100E500072B6D022BE21120649005358002BFCD096
:100E6000BFF35F8F1068064B80001B1800205B6883
:100E7000DB685864BFF35F8F525062B67047C0465C
:100E8000E010012000000000000000000000000051
:100E900072B6D022BE21120649005358002BFCD056
:100EA000BFF35F8F1068064B80001B1800205B6843
:100EB000DB685864BFF35F8F525062B67047C0461C
:100EC000E010012000000000000000000000000011
:100ED00072B6D022BE21120649005358002BFCD016
:100EE000BFF35F8F1068084B80001B1800205B6801
:100EF000DB685864BFF35F8F525062B6034B1B60D0
:100F0000034B1B607047C046E01001209C0F01207E
:100F1000A00F012000000000000000000000000001
:100F2000054B1900DA6820318A4203D20178501C3F
:100F3000D86011707047C046FC100120000000000E
:100F400010B5FE240722E400A44600200A4BD91D58
:100F500091435B1A094A6344DB08D16010614B601E
:100F60000133DB001060086093601300143351609C
:100F700053619361D06110BDC81101204811012057
:100F8000CC210022044B490059609539FF391A6081
:100F90009960DA607047C0467C11012000000000B3
:100FA0007047C04600000000000000000000000084
:100FB0000022024B1B605B609A607047A811012001
:100FC0000122024B1B605B609A607047A8110120F0
:100FD0000022024B1B605B609A6070478C110120FD
:100FE000094B0A4A11001A60DA609A6000221A61FD
:100FF0001A751A0018329A61DA611A00103120321B
:1010000059601A625A627047C40F01206C110120A6
:10101000094B0A4A11001A60DA609A6000221A61CC
:101020001A751A0018329A61DA611A0010312032EA
:1010300059601A625A627047C40F01206C11012076
:10104000094B0A4A11001A60DA609A6000221A619C
:101050001A751A0018329A61DA611A0010312032BA
:1010600059601A625A627047C40F01206C11012046
:101070000D4B0E4A190020311962596219003031A6
:101080001A60DA609A6019631032596319005A6065
:10109000002240311A611A759A61DA619A629A6384
:1010A000196459649A647047EC0F0120C81001203C
:1010B000F0B5C646056900B52C00954200D2140073
:1010C0000F19BC46D02366461B0698461B68154A76
:1010D0009B00D3185B68144F1B6B04339B00DE51DD
:1010E000BB6A591A8C4202D980BCB846F0BD2900AF
:1010F000444624680131A40014196468CE18246B96
:101100000434A4003E51BC6AE31A8B4207D28D42DC
:10111000EAD20123016191690B439361E4E7230063
:10112000E6E7C046E0100120004005400000000056
:10113000F0B5CE4647460468056980B5C2608B604D
:1011400048600C6061600160AB4200D22B00D0218E
:101150000906894609681F4E8900711849681E4CA6
:10116000096B8C46D1188846614647460431890090
:101170000F5167460121B9406163A76B3943A163F1
:10118000A16A8F1A9F4203D2C0BCB946B046F0BDD7
:101190002B004F463F689046BF00BC46B4446746AC
:1011A0007F6801333F6B98443A004746043292000F
:1011B000A750A26A9446521A934207D99D42E3D29D
:1011C00003610123B2691343B361DDE70A0061469D
:1011D000DFE7C046E01001200040054000000000AD
:1011E000D0234B4A1B0694461B68F0B59B00634412
:1011F0005B68454698461023434457469A46454BFC
:101200004E4699460023DE469B46E0B583B0D02487
:10121000240643461E694B46996A4346B268DF6915
:10122000CB1B9A424BD84346BF18DF6172683368C4
:1012300013605A605B46336043461B699A452FD062
:10124000BFF35F8FBE256D00645162B63000316917
:10125000F368984772B66359002BFCD0BFF35F8FD9
:101260007369002BD5D04A46926AD01B834237D38C
:10127000414609698A4502D140E009689B1A8A689B
:101280009A42FAD34A68B3607260316016608A6825
:101290004E60D31A8B60012342465B429361B6E7EE
:1012A0001B4923688C469B0063445B684A46196B64
:1012B00001238B40926B9A434B469A63C0E7B24539
:1012C00007D04346BA18521AD9615046B260FFF7A8
:1012D000EFFE03B0F0BCBB46B246A946A046F0BD47
:1012E0000B4B9B690193022301990B4308498B61C6
:1012F000434619698A4508D00300C0E7DB199B1AE9
:1013000031005046FFF714FFE3E70023F8E7C0463B
:10131000E010012000400540000000000000000037
:1013200072B6D020BE22000652008358002BFCD09B
:10133000BFF35F8F0B7F0C2B0BD8144A9B00D35845
:101340009F464A6B9368013393604A680B68136049
:101350005A6001235B424B6300238A680B770B6959
:101360001B6898689042FBD25A680B604A60116013
:101370005960BFF35F8FD023BE221B0652009B50E3
:1013800062B6704700224B6B1A60E2E7E4E000208F
:1013900010B572B6D022BE21120649005358002B58
:1013A000FCD0BFF35F8F136816499B00CB185B68B6
:1013B0001868DB6880689B6898421AD313689B00A2
:1013C000C9184B681868D96802681A60536001220E
:1013D0000277D86000238A680B770B691B689C68CA
:1013E0009442FBD25A680B604A6011605960FEF764
:1013F0000BFFBFF35F8FD023BE221B0652009B5012
:1014000062B610BDE01001200000000000000000E6
:1014100070B5D02504000B4E2D06FFF7B9FFFFF77E
:10142000B7FFFFF7B5FFFFF7B3FF2368043323606F
:101430002B689B00F3185B68DB685B7F7F2BECD924
:1014400070BDC046E0100120000000000000000058
:10145000D022F0B5C64612061368174D9B00EB1854
:101460005B6800B5DB68984672B6BE2149005358E8
:10147000002BFCD0BFF35F8FD02403270126240666
:1014800023689B00EB185B68D9680F7718680268BF
:101490001A6053600677D860FEF7B6FE43465B6B72
:1014A000002BEDD0BFF35F8FBE235B00E45062B62C
:1014B00080BCB846F0BDC046E0100120000000002E
:1014C0000EB4F0B54E464546DE465746E0B588B008
:1014D00011AB04CB05000493029300231178561C32
:1014E0000093002900D182E017000BE037002B6841
:1014F0002800DB689847009B0133009339787E1CF5
:10150000002974D02529F1D100227B7801922D2B5E
:1015100002D12C3BBE1C01930022337891462B2B29
:1015200003D1013291467378013620229046302B48
:1015300002D19846013633782A2B15D10298737858
:10154000002210C8B71C2E2B26D020261900B1432C
:101550004C292FD01E00413E033EF6B2342E52D805
:10156000C649B6008E59B7460136002B3FD000243D
:1015700008E0A30001361C19731E1B7864001419BF
:10158000002B34D01A00303AD2B23700092AF0D9F1
:10159000002202982E2BD8D13B78002B27D0791C23
:1015A0002A2B15D17B782026190004C80237B143B5
:1015B0004C29CFD17B1C9C463B78002B17D01E00BA
:1015C000443EF6B2342E1DD8AD4FB600BE59B746D4
:1015D0001E00303EF6B20F00092EB6D8930001313E
:1015E0009A184B1E1B785200B218002BF0D10098AD
:1015F00008B0F0BCBB46B246A946A046F0BC08BC49
:1016000003B018476746013C04AA1371E343DB1794
:1016100023409946019B0290002B24D000239A4638
:1016200005AE53463400F6182B682178DB68280095
:10163000984723000134B342F6D1009B0133534451
:1016400000934B46002B00D158E74C4646462B688A
:1016500031002800DB68013C9847002CF7D1009B43
:101660004B4400934AE74B465B429946002C00DD11
:10167000F2E0002305AE9A46D3E76746030001CBAC
:101680000293002800DADEE005AB03934B46002B03
:1016900006D02B2304AA94461371263B634403937C
:1016A0000B229446039BA14663449A461E00AB4618
:1016B0000A210500FEF796FE3031CCB2013E0A2128
:1016C00028003470FEF708FE092DF1DC23004C469B
:1016D000994653465D469A1B49460023039800E00D
:1016E000F15CC15401339342FAD1039AD61805AB89
:1016F000F61A731EA41B9A4605AE2DE0674610230A
:101700009A46030001CB04AA944602930F23634434
:101710009B461E002B00A14655469A462900040010
:10172000FEF760FE0B003033392B00DD0733013E3E
:10173000DBB23370AC42F1D25A464C46911B55464F
:1017400005AA00E033780136137001325E45F9D105
:101750004B1E9A46641A05AEE343DB1723409946B5
:10176000019B002B04D14B465B429946002C37DC91
:101770005346002B00DB54E763E7674608239A468D
:10178000BFE76746030040CB0293002E71D0337849
:10179000002A66D0002B79D0013A77D4330002E0DA
:1017A000F11AD14203D4597801330029F8D19B1B97
:1017B000E41A013B9A4620239846CDE7674602008B
:1017C00008CA013C029204AA137120239846E343FD
:1017D000DB1723409946019B002B00D01EE742E710
:1017E0001C003178FD230A002B3A1A421BD04346D5
:1017F0002200B0464C461E0091462B68310028005E
:10180000DB6801349847002CF7D14B46A1461C00F9
:10181000009B32001B1B0093534646469046002B0C
:1018200000DBFEE66AE64346302BE0D12B68280059
:10183000DB689847009B01360133009301235B422C
:101840009C46E244D3E72D2304AA94461371283B17
:1018500063444042039323E700234C469A4605AE77
:10186000BFE7002B12D0074A98E767460A239A463B
:1018700047E7054E002A8FD1024A8FE720E100207A
:10188000F4E10020FE7F000018E10020E343DB17B5
:1018900023409946019B002B04D14B465B4299465D
:1018A000002C02DC20239846CBE620239846213BDF
:1018B0004C469A4695E7C046000000000000000034
:1018C00010B5040082B000292BDC184A1849FFF734
:1018D000F7FD184A18492000FFF7F2FD174A18498A
:1018E0002000FFF7EDFD174A17492000FFF7E8FD3C
:1018F000164A17492000FFF7E3FD164A1649200053
:10190000FFF7DEFD154A16492000FFF7D9FD154BFC
:1019100020000093144A154B1549FFF7D1FD02B082
:1019200010BD144A1449FFF7CBFDF8E7DCE20020B4
:10193000E4E20020F8E2002018E300202CE300207D
:1019400034E3002048E3002054E3002068E3002053
:1019500088E300209CE30020C80D0120A4E30020C0
:10196000B8E30020F4E30020D0E30020CCE3002023
:10197000DCE30020C8E20020D0E2002000000000EC
:1019800010B5012904D0054A0549FFF799FD10BD9E
:1019900012680449FFF794FDF9E7C04600E400200F
:1019A000D0E20020700D01200000000000000000C7
:1019B00010B5002905DC054B05499A6AFFF780FD43
:1019C00010BD044A0449FFF77BFDF9E700400540DC
:1019D00018E4002010E40020D0E200200000000005
:1019E000F0B54546DE4657464E46E0B5804689B0DE
:1019F000002963DC3449FFF763FD72B6D022BE21B3
:101A0000120649005358002BFCD0BFF35F8F2F4BB9
:101A10001C699946243CA37F0133A377BFF35F8FF2
:101A2000525062B62A4BD025BE269A462D06760025
:101A30002369A0681A6B636984460793207F254B4E
:101A400080001B58A17F206A9B46E7680139002867
:101A500024D05B460493634605900393029140466D
:101A60005146079B01940097FFF72AFD72B6AB59C8
:101A7000002BFCD0BFF35F8F4B46676A10339F4249
:101A80000ED0243FBB7F0133BB77BFF35F8FAD51D7
:101A900062B62000FEF7CCFD3C00C9E70E48D8E74F
:101AA000BFF35F8FAD5162B62000FEF7C1FD09B0F4
:101AB000F0BCBB46B246A946A046F0BD074A08495D
:101AC000FFF7FEFCF3E7C04620E40020E010012011
:101AD00064E40020BC0A012014E60020FC00012080
:101AE000D0E2002000000000000000000000000024
:101AF000F8B504000D00002818D00860124E200030
:101B000031000CF09BFA235C2718222B13D03100F4
:101B100038000CF075FA002814D0431C2B60002309
:101B200003703B78002B04D03800F8BD0C68002C03
:101B3000E4D10027F8E70137222138000CF0C6F97C
:101B40000028EAD12860ECE790E4002000000000C3
:101B500010B5044B044A586204481A620BF048FF5F
:101B600010BDC046FC10012011080020400A0120D1
:101B700010B5044B044A586204481A620BF038FF4F
:101B800010BDC046FC100120110800202C050120CA
:101B900010B5002101480BF06BFE10BD9C11012017
:101BA000012310B5134C002023600BF0F1FC00283A
:101BB00019D10BF0B5FC002815D100200BF078FCF2
:101BC000002810D102230C4823600BF0E1FC002810
:101BD00009D109480BF0A4FC002804D106480BF0F9
:101BE00067FC002804D00223FF33A380034BA360CB
:101BF00010BDC046FC10012050C3000094E400203A
:101C00007047C04600000000000000000000000017
:101C10007047C04600000000000000000000000007
:101C2000FEE7C046000000000000000000000000C9
:101C30007047C046000000000000000000000000E7
:101C40007047C046000000000000000000000000D7
:101C50007047C046000000000000000000000000C7
:101C6000FEE7C04600000000000000000000000089
:101C7000F8B5134C134F2500134A14481449803506
:101C800082420AD9030040C940C39A42FBD8013AB4
:101C9000131A9B0801339B00C018874207D9013FE4
:101CA0003A1A92080132002192000CF0BBF810346D
:101CB000AC4204D021686068A268E768E0E7F8BD3C
:101CC000700501208822012088220120882201201D
:101CD0008822012000000000000000000000000039
:101CE0007047C04600000000000000000000000037
:101CF00001220C4B70B576465A6372B6D024BE25CD
:101D000024066D006359002BFCD0BFF35F8FFFF7F3
:101D100067FABFF35F8F645162B60F3601D0FEF7EA
:101D20004FFD70BD004005400000000000000000B5
:101D300002220C4B70B576465A6372B6D024BE258B
:101D400024066D006359002BFCD0BFF35F8FFFF7B3
:101D500047FABFF35F8F645162B60F3601D0FEF7CA
:101D60002FFD70BD00400540000000000000000095
:101D70000422074B10B55A63064B74469B68002B30
:101D800001D0022098470F3401D0FEF719FD10BD95
:101D900000400540B81101200000000000000000D4
:101DA0000822074B10B55A63064B7446DB68002BBC
:101DB00001D0032098470F3401D0FEF701FD10BD7C
:101DC00000400540B81101200000000000000000A4
:101DD000F8B50F00D0210500090608681C498000ED
:101DE00009182B6100234E686B613000194B1030CD
:101DF000996A3369EA60984223D0F2698A1ABC185A
:101E0000A24215D89A68A24202D915E01B68A41A0A
:101E10009A68A242FAD35A68AC602B606A60156077
:101E20009A685D60141B9C6001235B42B361F8BD3E
:101E30009A683C00A242EBD93A00FFF739F93369BE
:101E4000E6E70A003B002900FFF772F9EFE7C0461A
:101E5000E0100120004005400000000000000000EC
:101E6000D02109060B681E4A9B00D3185B6870B529
:101E70001C69A0420DD084680268A44641680A60CB
:101E8000516091686144916000220260013A9A6158
:101E900070BD1D00046810351C616560002404607D
:101EA0001C69A54210D0A16882688C460D49624425
:101EB000A260896ADB69C81A8242E9D95B1A2800E4
:101EC0009A18FFF7F5F8E3E7096806488900521801
:101ED0005268836B116B01228A4093438363D7E777
:101EE000E01001200040054000000000000000005C
:101EF000D0231B061A680E4B92009B185B6810B526
:101F00001868D96802681A60536001220277D860A5
:101F100000238A680B770B691B689C689442FBD886
:101F20005A680B604A6011605960FEF76DF910BD88
:101F3000E010012000000000000000000000000090
:101F4000D0221206136870B5164C9B00E3185B682C
:101F5000DD6872B6BE2149005358002BFCD0BFF398
:101F60005F8FEE6CAB68B3421AD0834218D3D02394
:101F7000E8641B061B689B00E41863681A68DB684A
:101F800092689B689A4201D9FFF7B2FFBFF35F8F57
:101F9000D023BE221B0652009B5062B6300070BD9B
:101FA000A860E4E7E010012000000000000000004D
:101FB000F8B5CE464746012380B5D0271C4D3F06D5
:101FC0002B603B681B4E9B00F3185B68DB689B68CB
:101FD000994601234B4418009846FFF7B1FF0400CF
:101FE00048451ED13B689B00F3185B68DB689B6823
:101FF00098450DD102232B60FFF7A2FF804510D139
:102000003B689B00F6187368DB689B689C4204D0B1
:102010000223FF33AB80084BAB60C0BCB946B0466F
:10202000F8BD0223FF33AB80044BAB60F5E7C0463D
:10203000FC100120E0100120C8E40020A4E40020EE
:10204000F8B547460123CE46D024424E80B524063B
:1020500033602368404D9B00EB185B68DB689F682A
:1020600023689B00EB185B68DA689368023393601F
:102070002368BA1C9B00EB185B689046DB689B6882
:102080009A424CD1022333607B1C18009946FFF71B
:1020900057FFB8424CD123689B00EB185B68DB68A4
:1020A0009B6898453BD123689B00EB185B68DB6815
:1020B000DB6C994542D103233360C31C180098465A
:1020C000FFF73EFF814533D123689B00EB185B6827
:1020D000DB689B68984522D123689B00EB185B68FE
:1020E000DB68DB6C98452FD10423336072B6BE22C7
:1020F0005200A358002BFCD0BFF35F8F23689B00D6
:10210000EB185B68DB689F6023689B00ED186B68C9
:10211000DB68DF64BFF35F8FA45062B604E0022384
:10212000FF33B3800D4BB360C0BCB946B046F8BDB9
:102130000223FF33B3800A4BB360F5E70223FF337A
:10214000B380084BB360EFE70223FF33B380064B45
:10215000B360E9E7FC100120E0100120C8E4002092
:10216000A4E40020E4E400200CE5002000000000CE
:1021700070B572B6D022BE21120649005358002B0A
:10218000FCD0BFF35F8FBFF35F8F525062B672B661
:10219000D024BE2524066D006359002BFCD0BFF36C
:1021A0005F8FFEF71DFAC30707D4EFF30583DB0546
:1021B0000CD0BFF35F8F645162B6BFF35F8FD02343
:1021C000BE221B0652009B5062B670BD22680A4BAD
:1021D00092009B185B681A68DB6892689B689A4259
:1021E00001D9FFF785FEBFF35F8FD023BE221B0608
:1021F00052009B5062B6E0E7E010012000000000B2
:1022000010B572B6D024BE2224065200A358002B6B
:10221000FCD0BFF35F8F0BF0DBF822680A4B920013
:102220009B185B681A68DB6892689B689A4201D9C0
:10223000FFF75EFEBFF35F8FD023BE221B06520066
:102240009B5062B610BDC046E010012000000000A7
:1022500010B572B6D024BE2224065200A358002B1B
:10226000FCD0BFF35F8F0BF0B3F822680A4B9200EB
:102270009B185B681A68DB6892689B689A4201D970
:10228000FFF736FEBFF35F8FD023BE221B0652003E
:102290009B5062B610BDC046E01001200000000057
:1022A00010B572B6D024BE2224065200A358002BCB
:1022B000FCD0BFF35F8F0BF08BF822680A4B9200C3
:1022C0009B185B681A68DB6892689B689A4201D920
:1022D000FFF70EFEBFF35F8FD023BE221B06520016
:1022E0009B5062B610BDC046E01001200000000007
:1022F00010B5D024240621680D4A890052180369BC
:102300005268934202D0226D92070CD400220277C9
:1023100082681B6899689142FBD25A6803604260E8
:102320001060586010BD012252426265EEE7C0465F
:10233000E01001200000000000000000000000008C
:10234000F8B5856A04002E6CAF6B002E00D1ABE0AF
:10235000F023DB001E4227D040236B64534B1F4009
:1023600072B6D021BE22090652008B58002BFCD039
:10237000BFF35F8FA069002805D00023A36101335C
:102380004363FFF7B5FFE069002805D00023E36150
:1023900001334363FFF7ACFFBFF35F8FD023BE224F
:1023A0001B0652009B5062B64023334238D09F43F5
:1023B000A36A9B69DB0619D472B6D021BE22090636
:1023C00052008B58002BFCD0BFF35F8FA069002810
:1023D00004D00023A3614363FFF78AFFBFF35F8F3D
:1023E000D023BE221B0652009B5062B672B6D0218B
:1023F000BE22090652008B58002BFCD0BFF35F8F22
:10240000E069002804D00023E3614363FFF770FF15
:10241000BFF35F8FD023BE221B0652009B5062B6D3
:10242000102333421CD040229F436A6472B6D021ED
:102430003D320906FF328B58002BFCD0BFF35F8F73
:10244000A069002804D00023A3614363FFF750FF75
:10245000BFF35F8FD023BE221B0652009B5062B693
:10246000202333421AD09F4372B6D021BE220906E0
:1024700052008B58002BFCD0BFF35F8F206A0028DE
:1024800004D0002323624363FFF732FFBFF35F8F63
:10249000D023BE221B0652009B5062B62369AF6355
:1024A000002B01D020009847F8BDC0467FF8FFFF01
:1024B00010B574460348FFF743FF0F3401D0FEF711
:1024C0007FF910BD70100120000000000000000026
:1024D00010B574460348FFF733FF0F3401D0FEF701
:1024E0006FF910BD9C1001200000000000000000EA
:1024F000D0231B061A68144B92009B185B6810B51A
:102500000268DC68C3680100A364824218D0E06CF2
:10251000002B09D01A68934203D09268904200D2EF
:102520001000DB68002BF5D1A060086803680B6021
:102530005960836C8860CB608164FFF7D9FE10BD61
:1025400000239360FBE7C046E0100120000000007C
:10255000D0221206136870B51A4E9B00F3185B6800
:10256000DD6872B6BE2464001359002BFCD0BFF3A3
:102570005F8F03003C332B60036C69636B601D60ED
:10258000037F05640E2B19D0D0240C222406236867
:102590009B00F6187368D9680A77186802681A6091
:1025A000536001220277D860FDF72EFE686BBFF3FF
:1025B0005F8FBE235B00E45062B670BDFFF798FEEC
:1025C000E2E7C046E010012000000000000000002B
:1025D00010B504004121FFF7BBFF42212000FFF7A7
:1025E000B7FF43212000FFF7B3FF44212000FFF78E
:1025F000AFFF10BD00000000000000000000000060
:1026000010B5040072B6D021BE22090652008B58C4
:10261000002BFCD0BFF35F8F154B1868002804D047
:10262000002242631A60FFF763FED0231B061A687C
:10263000104B92009B185B681A68DB6892689B6875
:102640009A4201D9FFF754FCBFF35F8FD023BE221B
:102650001B0652009B5062B6074B1900DA68203106
:102660008A4203D22178501CD860117010BDC04638
:10267000D4190120E0100120FC100120000000000E
:1026800030B587B072B6D024BE2224065200A358BB
:10269000002BFCD0BFF35F8F23682A4D9B00EB1803
:1026A0005B686846DB68284A2849FFF791FB0822E7
:1026B00023689B00EB185B68D9680A771868026882
:1026C0001A60536001220277D860FDF79DFD009BE0
:1026D000002B02D06846FFF7C3FBBFF35F8FD02209
:1026E000BE2112064900525062B672B65358002BF2
:1026F000FCD0BFF35F8F164A936801339360002BC1
:1027000017DDD0231B061B689B00ED186B681A6849
:10271000DB6892689B689A4201D9FFF7E9FBBFF337
:102720005F8FD023BE221B0652009B5062B607B0BB
:1027300030BD106803685A60136000234363FFF7DD
:10274000D7FDDEE7E01001202113002050C3000078
:102750009C110120000000000000000000000000AB
:1027600010B572B6D021BE22090652008B58002B3C
:10277000FCD0BFF35F8F8368002B17DDD0231B06CF
:102780001A68114B92009B185B681A68DB689268A4
:102790009B689A4201D9FFF7ABFBBFF35F8FD02351
:1027A000BE221B0652009B5062B610BD01338360EF
:1027B000012BE3D003681A68026050600022180001
:1027C0005A63FFF795FDD9E7E010012000000000F3
:1027D000F0B5D0273F063B681A4D9B00EB185B68AD
:1027E0000400DE6887B04B1C1CD033006846164AD4
:1027F000FFF7EEFA3B689B00EB185B68D9680C7733
:10280000186802681A60536001220277D860FDF7E9
:10281000FBFC009B002B02D06846FFF721FB706B8E
:1028200007B0F0BD3B689B00EB185B68D968087780
:10283000186802681A60536001220277D860FDF7B9
:10284000E3FCECE7E0100120211300200000000071
:10285000F0B5C646040000B50D0072B6D022BE2108
:10286000120649005358002BFCD0BFF35F8FF020B5
:10287000A36AC0001E6C064228D11822904610267A
:10288000164FA04409E04246A361290003205A6381
:10289000FFF79EFF00280ED1A36A9B691E421BD042
:1028A000D0231B061B689B00FB185B68DB68002DB0
:1028B000E9D101204042BFF35F8FD023BE221B0627
:1028C00052009B5062B680BCB846F0BDBFF35F8F2C
:1028D000525062B60120F6E70020ECE7E01001203C
:1028E000F8B55746DE464E4645460400E0B59246EA
:1028F0000F009B46002A46D0002399467D33D02501
:10290000FF33984610262D0659462000FFF7A0FFFA
:1029100000282ED153464A46981A72B64346EB58C1
:10292000002BFBD0BFF35F8F3300A26A91690B408D
:102930000E4202D00AE0984222D01268FA54A26AEB
:10294000013391690E42F6D09944FF18E3685907A4
:1029500002D5916B314391639B0503D54021936B65
:102960000B439363BFF35F8F4346ED5062B6CA4596
:10297000CAD84846F0BCBB46B246A946A046F8BDF8
:1029800081443F18EEE700239946F2E7000000007B
:10299000012310B55B42FFF7A3FF10BD000000004C
:1029A00010B5FFF79DFF10BD000000000000000003
:1029B000012110B549420400FFF74AFF002800D06A
:1029C00010BDA36AFF301A689969104010220A42AC
:1029D000F6D0E1684C0702D59C6B22439A638A05C6
:1029E000EED540219A6B0A439A63E9E700000000A4
:1029F00010B50400FFF72CFF002800D010BDA36A1B
:102A0000FF301A689969104010220A42F6D0E16836
:102A10004C0702D59C6B22439A638A05EED5402170
:102A20009A6B0A439A63E9E7000000000000000087
:102A3000F0B5C646040000B50D0072B6D021BE2226
:102A4000090652008B58002BFCD0BFF35F8F202368
:102A500098462026134FA04408E0424623622900EE
:102A600003205A63FFF7B4FE00280ED1A36A9B69C6
:102A70001E4215D0D0231B061B689B00FB185B6809
:102A8000DB68002DE9D101204042BFF35F8FD023E6
:102A9000BE221B0652009B5062B680BCB846F0BDF9
:102AA0000020F2E7E010012000000000000000001C
:102AB000F8B54E46DE46574645468146E0B5924655
:102AC0000E009B46002A3ED00023D024BE27984605
:102AD000202524067F0059464846FFF7A9FF002815
:102AE00027D153464246981A72B6E359002BFCD0C0
:102AF000BFF35F8F4B469A6A2B0091690B400D42E2
:102B000002D009E098421BD0F15C01331160916959
:102B10000D42F7D09844F6184B46DB681B0702D5E8
:102B2000936B2B439363BFF35F8FE45162B6C2454F
:102B3000D1D84046F0BCBB46B246A946A046F8BD37
:102B400080443618EFE700239846F2E700000000C3
:102B5000012310B55B42FFF7ABFF10BD0000000082
:102B600010B5FFF7A5FF10BD000000000000000039
:102B700070B50D00012149420400FFF759FF0028FC
:102B800000D070BD2022A36A1D6099690A42F8D066
:102B9000E1680907F5D5996B0A439A63F1E7C046E6
:102BA00070B50D0011000400FFF742FF002800D0AF
:102BB00070BD2022A36A1D6099690A42F8D0E168BD
:102BC0000907F5D5996B0A439A63F1E70000000005
:102BD00070B50124704D86B02C60FDF701FD844373
:102BE0000CD0EFF30583DB0500D1C4E0BFF35F8FAA
:102BF000D023BE221B0652009B5062B602232B60DC
:102C000072B6D024BE2624067600A359002BFCD031
:102C1000BFF35F8FFDF7E4FCC30708D4EFF3058330
:102C2000DB0500D191E0BFF35F8FA45162B6BFF323
:102C30005F8FD022BE2112064900525062B6032394
:102C40002B60EFF31083DB0705D472B65358002BCB
:102C5000FCD0BFF35F8FEFF31083DB0709D472B6AC
:102C6000D021BE22090652008B58002BFCD0BFF3A6
:102C70005F8FBFF35F8FD022BE21120649005250F2
:102C800062B604232B6072B65358002BFCD0BFF3FE
:102C90005F8FEFF31083DB0703D5BFF35F8F5250D5
:102CA00062B6EFF31083DB0707D5BFF35F8FD02346
:102CB000BE221B0652009B5062B605232B600023E8
:102CC000009372B6D021BE22090652008B58002B09
:102CD000FCD0BFF35F8F009B002B02D06846FFF74C
:102CE000BFF80023012168462C4AFFF771F8BFF3B3
:102CF0005F8FD024BE2624067600A45162B672B639
:102D0000A359002BFCD0BFF35F8F0A210820FFF7E7
:102D10005FFDBFF35F8FA45162B672B6D022BE21B1
:102D2000120649005358002BFCD0BFF35F8F009B65
:102D3000BFF35F8F525062B6002B04D00223FF33E3
:102D4000AB80174BAB6006B070BD2268154B92008C
:102D50009B185B681A68DB6892689B689A4201D985
:102D6000FFF7C6F8BFF35F8FD023BE221B065200C9
:102D70009B5062B65BE7D0231B061A68094B920092
:102D80009B185B681A68DB6892689B689A4200D857
:102D90002CE7FFF7ADF829E7FC1001207121002096
:102DA0002CE50020E01001200000000000000000E1
:102DB000F0B5DE4657464E4645460123E0B5504A3B
:102DC00087B0136072B6D021009E019FBE20090615
:102DD00040000B58002BFCD000960197BFF35F8F8B
:102DE000484A0B6892469B0053445B6800259C460A
:102DF000454B9B6A9846634646469A6ADB6AB41A14
:102E0000A4185D4163469C62DD62BFF35F8F095089
:102E100062B672B6D0231B069846BE235B00994665
:102E200043464A469B58002BFAD0BFF35F8F0121DF
:102E30000820FFF7CDFCBFF35F8F43464A469B5007
:102E400062B672B6D022BE21120649005358002B3A
:102E5000FCD0BFF35F8F2C4B98469B6A0593BFF362
:102E60005F8F525062B62949D023BE228B4602940E
:102E700003951B06520072B6029C039D99580029C7
:102E8000FCD002940395BFF35F8F19680027890077
:102E90005144496889464146896A8C464946644698
:102EA000886AC96A261A801979414C4600900191B6
:102EB000A062E162BFF35F8F9B5062B60198029CF3
:102EC000039D85420FD80AD04446059DA46A641B21
:102ED0005C450ED80098019902900391CBE70299C6
:102EE00000988142F0D90223054AFF339380084BB2
:102EF000936007B0F0BCBB46B246A946A046F0BD01
:102F0000FC100120E0100120004005403F420F006E
:102F100040E500200000000000000000000000006C
:102F20000123F0B55D4E87B033605D4B9F6A72B68A
:102F3000D024BE2224065200A358002BFCD0BFF39D
:102F40005F8F2368574D9B00EB185B6864216846D0
:102F5000DB68554AFEF73CFF082223689B00ED180A
:102F60006B68D9680A77186802681A605360012292
:102F70000277D860FDF748F9009B002B02D0684625
:102F8000FEF76EFFBFF35F8FD024BE2524066D00D1
:102F9000645162B6424A936A643BDB1B142B75D8BA
:102FA00002233360976A72B66359002BFCD0BFF3DB
:102FB0005F8F3E490820FFF70BFCBFF35F8F645122
:102FC00062B63B49364A8C46936A6344DB1B142B3A
:102FD0005CD803233360976A72B6D024BE252406DA
:102FE0006D006359002BFCD0BFF35F8F2F49082081
:102FF000FFF7EEFBBFF35F8F645162B62C49284A9E
:103000008C46936A6344DB1B142B3FD80423336044
:10301000976A72B6D024BE2524066D006359002B32
:10302000FCD0BFF35F8F23490820FFF7D1FBBFF32C
:103030005F8F645162B62049194A8C46936A634493
:10304000DB1B142B22D805233360946A72B6D0217F
:10305000BE22090652008B58002BFCD06434BFF30B
:103060005F8F0F4B9B6AE11A9C4202D00820FFF74A
:10307000AFFBBFF35F8FD023BE221B0652009B50D5
:1030800062B6074B9B6A1C1B142C04D90223FF3326
:10309000B3800A4BB36007B0F0BDC046FC100120FE
:1030A00000400540E010012021130020A08601000F
:1030B0006079FEFF40420F00C0BDF0FF50E50020E8
:1030C00070B5060072B6D024BE2524066D00635983
:1030D000002BFCD0BFF35F8F22490820FFF778FB5D
:1030E000BFF35F8F645162B672B6D021BE2209066B
:1030F00052008B58002BFCD0BFF35F8F0123726C02
:103100001343327F73640A2A23D00B2A17D0D023AB
:103110001B061A68144B92009B185B681A68DB68E0
:1031200092689B689A4201D9FEF7E2FEBFF35F8F77
:10313000D023BE221B0652009B5062B670BD726B3C
:1031400013409A42E3D1002330007363FFF7D0F8B5
:10315000DDE7726B1A42DAD0002330007363FFF7A9
:10316000C7F8D4E750C30000E010012000000000C1
:1031700070B572B6D024BE2224065200A358002B8C
:10318000FCD0BFF35F8F24480AF0EAFA2368234E8D
:103190009B00F3185B681A68DB6892689B689A4228
:1031A00001D9FEF7A5FEBFF35F8FD024BE2524060C
:1031B0006D00645162B672B66359002BFCD0BFF348
:1031C0005F8F17490820FFF703FBBFF35F8F645140
:1031D00062B672B6D024BE2224065200A358002B39
:1031E000FCD0BFF35F8F0F480AF0BAFA23689B0048
:1031F000F61873681A68DB6892689B689A4201D96E
:10320000FEF776FEBFF35F8FD023BE221B0652006F
:103210009B5062B670BDC0469C0F0120E01001209B
:1032200050C30000A00F01200000000000000000BB
:10323000F0B5C646050000B572B6D024BE262406F9
:103240007600A359002BFCD0BFF35F8F012108202B
:10325000FFF7BEFABFF35F8FA45162B672B6D022F9
:10326000BE21120649005358002BFCD0BFF35F8FDC
:103270000C4EB76ABFF35F8F525062B60A4B002400
:10328000984601212800FFF763F9B36A0134DB1B7C
:103290004345F6D928000021FFF75AF9200080BCE9
:1032A000B846F0BD004005403F420F00000000005E
:1032B00070B5D0252D062A681F4B92009B185C68BC
:1032C0000369E26841639C4213D02A6D92070CD4D3
:1032D0000022027782681B6899689142FBD25A6883
:1032E000036042601060586070BD012252426A65FE
:1032F000EEE7836891688B4212D900231377136934
:103300001B689D68A942FBD35968136051600A602D
:103310005A60012311000377E060FCF775FFE3E7D3
:10332000002202772468A2689342FBD96368046094
:10333000436018606060D7E7E010012000000000E3
:10334000F8B5254BCE4699460E234746D024BE25D8
:10335000984680B524066D0072B66359002BFCD0E8
:10336000BFF35F8F23689B004B445B68DE683700C8
:10337000F06B3C37B8421CD00368F3635F600D23E9
:103380000377BFF35F8F645162B6476B72B66359C0
:10339000002BFCD0BFF35F8F3900FFF789FFBFF32D
:1033A0005F8F645162B6002FD6D1C0BCB946B0461B
:1033B000F8BD424623689B004B445B68D9680A7796
:1033C000186802681A60536001220277D860FCF71F
:1033D0001BFFF06BD0E7C046E010012000000000AA
:1033E000D022F0B557464E464546DE461206E0B5B9
:1033F00015686C4E9446AA00B2180563416350608C
:1034000003006948EA0091461258684C9008800011
:10341000A0460400C020444480008046205883B069
:103420008346FF200094032407001440E400A740D3
:1034300082465846B84383465B48484447685846E6
:10344000BF01A7403C0004434046009F3C501F245E
:1034500001201440A040554C5209A046C0249200BF
:1034600042446400105110600C2260460265002D39
:1034700000D087E0C3254046C024AD004259240651
:103480001202120A224342518022120202601A00E2
:1034900010321A615A610122002052429A6115329B
:1034A0001A62434A9860D861926A1B6000920022B7
:1034B0000192D8325B60009C019D9C62DD629D5050
:1034C0001A008C6888324D68946180245561A44646
:1034D0009460009C019D1C005077C020C034136193
:1034E000D56215631C506046009C019DD064314834
:1034F000012410621800C427C43095645564947781
:10350000D8511F0040607069AC37DA60786007609E
:1035100014770A69C9680025D96400980199596629
:10352000996619007031196784211A651C649B64BF
:103530005C5061465D50DD675421022518005D52E4
:103540001D49383084779965190074315967996736
:103550001A49243A5A6411610021516118491162D3
:1035600031001A001031D965AC215C321F665A5007
:103570007261FEF7BDFE03B0F0BCBB46B246A94681
:10358000A046F0BD012D00D081E7C4255046074A72
:10359000AD0054598443C020204350518020400244
:1035A000106074E7E0100120DC02012000E100E07F
:1035B0000040054064E500206CE500202106002065
:1035C00029020020000000000000000000000000B0
:1035D0008368020018005168503870B541610221BB
:1035E000D568017700214177916983618560002961
:1035F00023D0164C1E0001610021183EC1620163F8
:10360000366081644164013181771168C56401626B
:103610001900156914395269496009606039C1603F
:103620004A610B4A2C3B0A62220010320D611A607B
:1036300062695A601360636170BDD0210906096830
:10364000024C890061184968D4E7C046E0100120A7
:10365000290200200000000000000000000000001F
:10366000F8B5D02641180C0036063568234FAD005A
:10367000503C7D196D686061022020770020A161B7
:10368000A2606077002D34D025610D000020183D28
:10369000E06220632D60E2640122A277184AA064F0
:1036A00022620A00143A606412605260603AE2607A
:1036B0001361069B5361134B136272B6D025BE266D
:1036C0002D067600AB59002BFCD0BFF35F8F3B007B
:1036D0002C3910330B607B6920004B6019607961D5
:1036E0000021FFF7E5FDBFF35F8FAD5162B620000B
:1036F000F8BD3068800038184568C5E7E010012043
:1037000074E50020290200200000000000000000F5
:10371000012330B51C4CCC212360D0231B061A6832
:103720001A4B92009B185B6883B0DB6849009A686B
:103730000023013200931648164BFFF791FF164BFA
:103740001860022323600AF0F3F8144B1D689D42B1
:1037500013D1AB68002B09D1032323600AF0E8F8EA
:103760002B68AB4209D19B68002B04D00223FF33A6
:10377000A3800B4BA36003B030BD0223FF33A380B3
:10378000084BA360F7E7C046FC100120E0100120C1
:10379000C8110120314A0020C01901209C110120CC
:1037A0008CE500207CE50020000000000000000007
:1037B000D0231B061B6870B5194D9B00EB185B6886
:1037C000DC6826006063A06B3836864215D1A37F83
:1037D000002B1CD0D0230F221B061B689B00ED186A
:1037E0006B68D9680A77186802681A60536001220A
:1037F0000277D860FCF708FD70BD0368A363FEF78D
:1038000077FDA06B8642F8D1A37F002BE2D1E36A5B
:10381000002BDFD1A26A636A13605A60DAE7C04600
:10382000E010012000000000000000000000000087
:1038300010B572B6D021BE22090652008B58002B5B
:10384000FCD0BFF35F8FFFF7B3FF10BD0000000097
:10385000F0B5DE4657464E464546D024954A0368A5
:1038600094469A46E0B543689BB0240601932368CA
:10387000914A9B0063445B689049DB6883461A6207
:103880005046FDF71DFE50468D49FDF719FE894A49
:10389000236894469B0063445B68DB685B7F7F2BF7
:1038A00041D802AB02AA9446DC1D5F2363449846CC
:1038B0000AAF50468349FDF703FE5B463E001D6894
:1038C0002B680122210028009B689847002822D0FD
:1038D000217804291BD008293CD07F293AD00D2912
:1038E0004BD01F29ECD94645EAD22B682800DB686B
:1038F00098472378012233702B68210028009B68A9
:1039000001369847002806D021780429E3D1280001
:103910006D49FDF7D5FD69495046FDF7D1FD50468B
:103920006A49FDF7CDFD72B6D021BE2209065200CC
:103930008B58002BFCD0BFF35F8F654809F010FF58
:103940000020FFF735FF1BB0F0BCBB46B246A946CE
:10395000A046F0BDBE42B3D02B680821DB6828002A
:1039600098472B682021DB68280098472B6808219E
:103970002800DB689847013EA2E728004F49FDF781
:103980009FFD002304A933703800FEF7B1F804A9A5
:1039900081460020002505AEFEF7AAF8002809D0D0
:1039A000042D44D001C604A900200135FEF7A0F87B
:1039B0000028F5D10C2102AAAB005218D0504B467A
:1039C000002B1DD048464349FCF742FC002835D166
:1039D000002D48D150464049FDF772FD3F4D404A09
:1039E000404E310050460835FDF76AFD2A68002A2E
:1039F000F7D1019D002D16D150463049FDF760FDED
:103A0000D0232C4A1B0694461B689B0063445B68CA
:103A1000DB685B7F7F2B00D84BE784E731005046A3
:103A2000FDF74EFD08352A68002AF7D1E4E7504635
:103A30002D49FDF745FD00230993E1E74B46274E4D
:103A4000A94627481D0003E0B0680836002810D0BA
:103A50002900FCF7FDFB0028F6D149465046736863
:103A600005AA9847CCE750461A4A2049FDF728FD99
:103A7000C6E72B00019E4D469946002E10D03068B7
:103A800000280DD0A9461D0003E0B06808360028C4
:103A900005D02900FCF7DCFB0028F6D1DDE7A946BC
:103AA0004A4650461249FDF70BFD50461149FDF7B5
:103AB00007FDA5E7E0100120A8E50020A80E0120E1
:103AC000B0E50020C4E50020CCE50020D0E50020D2
:103AD000B4110120F0E50020F8E500207C0A012067
:103AE000A0E5002008E60020D8E50020D0E2002074
:103AF0000CE6002010E6002000000000000000009E
:103B000010B5002910DC72B6D021BE220906520081
:103B10008B58002BFCD0BFF35F8F064809F020FEC6
:103B20000020FFF745FE10BD034A0449FDF7C8FC1D
:103B3000F9E7C046B4110120A0E50020D0E2002042
:103B400010B572B6D021BE22090652008B58002B48
:103B5000FCD0BFF35F8FFFF72BFE10BD000000000D
:103B6000D0221206136870B5040018489B00C318D1
:103B70005B68DD6872B6BE2149005358002BFCD04B
:103B8000BFF35F8F237F0F2B12D0A36B2B601368C3
:103B900009229B00C0184368A563D9680A77186892
:103BA00002681A60536001220277D860FCF72CFB90
:103BB000656BBFF35F8FD023BE221B0652009B5064
:103BC00062B62000FCF734FD280070BDE010012033
:103BD000F0B5C646012300B5664C82B0236072B6CC
:103BE000D022BE21120649005358002BFCD0BFF34F
:103BF0005F8F1368604D9B00EB185B68D8680723E4
:103C0000466C33434364BFF35F8F525062B6022366
:103C1000236009F06DFD012800D090E009F068FDF7
:103C2000022800D08BE009F063FD042800D086E074
:103C300072B6D022BE21120649005358002BFCD088
:103C4000BFF35F8F002613689B00EB185B68DB688F
:103C5000586C5E64BFF35F8F525062B6002800D08C
:103C60007CE00323236072B6D026BE2736067F0091
:103C7000F359002BFCD0BFF35F8F01210820FEF722
:103C8000A7FDBFF35F8FF65162B672B6D022BE2198
:103C9000120649005358002BFCD0BFF35F8F374BFF
:103CA00098469E6ABFF35F8F525062B611681368E0
:103CB0008A00CC21AA1852689B00EB18D2685B6876
:103CC0009268DB68013A009349002D4B2D48FFF7BD
:103CD000C7FC04232C4F2360386009F009FD2B4AF0
:103CE00043469446FA229B6AD20063449B1B93424C
:103CF0002ED2012838D172B6D022BE211206490038
:103D00005358002BFCD0BFF35F8F13689B00ED1856
:103D10006B680025DB68586C5D64BFF35F8F5250A1
:103D200062B600281AD13C0014343868002802D04A
:103D3000FFF716FF3D600437BC42F6D104E00223D2
:103D4000FF33A380124BA36002B080BCB846F0BD25
:103D50000223FF33A3800F4BA360F5E70223FF3359
:103D6000A3800D4BA360EFE70223FF33A3800B4B2F
:103D7000A360E9E7FC100120E010012000400540AD
:103D8000C1300020C8110120C0190120B03CFFFF44
:103D900018E6002050E500202CE6002038E6002040
:103DA000534BF0B546469846D6464F464246012309
:103DB000D024CC21C0B52406136023684D4F9B004E
:103DC000FB185B6882B0DB6849009A684A4B013A8D
:103DD00000934A484A4BFFF743FC4A4E306072B6A4
:103DE000BE256D006359002BFCD0BFF35F8F2368A5
:103DF000454A9B00FB185B689146DB685A63136079
:103E0000032223689B00FB185B68DB689A462368E3
:103E10009B00FB185B68D9680A77186802681A600B
:103E2000536001220277D860FCF7EEF953465B6BD2
:103E3000BFF35F8F645162B64A461268002A43D1CD
:103E40003500340014350026002B36D120680028B8
:103E500002D0FFF785FE26600434A542F6D1022386
:103E60004246136072B6D024BE2524066D00635905
:103E7000002BFCD0BFF35F8F4A46244B24499E6A37
:103E80009A46236803209B00FF187B68DB685A630F
:103E90001360FEF79DFCBFF35F8F645162B61D4A4D
:103EA000534694469B6A63449B1B142B18D84B467D
:103EB0001B68002B08D1431C0CD002234246FF3361
:103EC0009380154B936005E002234246FF339380B5
:103ED000124B936002B0E0BCBA46B146A846F0BDB2
:103EE00002234246FF3393800D4B9360F2E7C046B6
:103EF000FC100120E01001204CE60020C811012038
:103F000001260020C0190120D419012000400540DD
:103F100010270000F0D8FFFF5CE6002050E60020EC
:103F200050E500200000000000000000000000003C
:103F300070B5074C0026250014352068002802D0F3
:103F4000FFF70EFE26600434AC42F6D170BDC046C9
:103F5000C019012000000000000000000000000067
:103F600070B5074C0026250014352068002802D0C3
:103F7000FFF7F6FD26600434AC42F6D170BDC046B2
:103F8000C019012000000000000000000000000037
:103F900070B5074C0026250014352068002802D093
:103FA000FFF7DEFD26600434AC42F6D170BDC0469A
:103FB000C019012000000000000000000000000007
:103FC000F0B5C646012300B5614C82B0236072B6DD
:103FD000D022BE21120649005358002BFCD0BFF35B
:103FE0005F8F13685B4D9B00EB185B68D8680523F7
:103FF000466C33434364BFF35F8F525062B6022373
:10400000236009F03DFB052800D086E072B6D0227F
:10401000BE21120649005358002BFCD0BFF35F8F1E
:10402000002613689B00EB185B68DB68586C5E64C5
:10403000BFF35F8F525062B6002800D07CE00323AC
:10404000236072B6D026BE2736067F00F359002BB8
:10405000FCD0BFF35F8F01210820FEF7B9FBBFF34F
:104060005F8FF65162B672B6D022BE2112064900A9
:104070005358002BFCD0BFF35F8F374B98469E6A96
:10408000BFF35F8F525062B6116813688A00CC216B
:10409000AA1852689B00EB18D2685B689268DB68CC
:1040A000013A009349002D4B2D48FFF7D9FA04231C
:1040B0002C4F2360386009F0E3FA2B4A43469446BC
:1040C000FA229B6AD20063449B1B93422ED20128A2
:1040D00038D172B6D022BE21120649005358002BA7
:1040E000FCD0BFF35F8F13689B00ED186B68002551
:1040F000DB68586C5D64BFF35F8F525062B6002876
:104100001AD13C0014343868002802D0FFF728FD8B
:104110003D600437A742F6D104E00223FF33A380B9
:10412000124BA36002B080BCB846F0BD0223FF333F
:10413000A3800F4BA360F5E70223FF33A3800D4B51
:10414000A360EFE70223FF33A3800B4BA360E9E7F3
:10415000FC100120E010012000400540C13000208B
:10416000C8110120C0190120B03CFFFF74E60020F7
:1041700050E500202CE6002038E60020000000007A
:10418000F0B5C646012300B56D4C82B0236072B60F
:10419000D022BE21120649005358002BFCD0BFF399
:1041A0005F8F1368674D9B00EB185B68D868052329
:1041B000466C33434364BFF35F8F525062B60223B1
:1041C000236009F025FA052800D09EE072B6D022BF
:1041D000BE21120649005358002BFCD0BFF35F8F5D
:1041E000002613689B00EB185B68DB68586C5E6404
:1041F000BFF35F8F525062B6002800D094E00323D3
:10420000236072B6D022BE21120649005358002BFB
:10421000FCD0BFF35F8F042013689B00EB185B6832
:10422000DE68736C03437364BFF35F8F525062B6F2
:10423000206072B6D026BE2736067F00F359002BC9
:10424000FCD0BFF35F8F01210820FEF7C1FABFF356
:104250005F8FF65162B672B6D022BE2112064900B7
:104260005358002BFCD0BFF35F8F374B98469E6AA4
:10427000BFF35F8F525062B6116813688A00CC2179
:10428000AA1852689B00EB18D2685B689268DB68DA
:10429000013A009349002D4B2D48FFF7E1F9052322
:1042A0002C4F2360386009F0B3F92B4A43469446FB
:1042B000FA229B6AD20063449B1B93422ED20528AC
:1042C00038D172B6D022BE21120649005358002BB5
:1042D000FCD0BFF35F8F13689B00ED186B6800255F
:1042E000DB68586C5D64BFF35F8F525062B6002884
:1042F0001AD13C0014343868002802D0FFF730FC93
:104300003D600437A742F6D104E00223FF33A380C7
:10431000124BA36002B080BCB846F0BD0223FF334D
:10432000A3800F4BA360F5E70223FF33A3800D4B5F
:10433000A360EFE70223FF33A3800B4BA360E9E701
:10434000FC100120E010012000400540C130002099
:10435000C8110120C0190120B03CFFFF74E6002005
:1043600050E500202CE600208CE600200000000034
:104370008D4BF0B557469A46DE464E4645460123DC
:104380005246E0B513608DB072B6D022BE2112063F
:1043900049005358002BFCD0BFF35F8F834813684C
:1043A00081469B004B445B6807AEDB68804F7360BF
:1043B0000123B36000233868F360013B07903E603F
:1043C0003361BFF35F8F525062B672B6D022BE2106
:1043D000120649005358002BFCD0BFF35F8F1368BF
:1043E00002AD9B004B445B687248DB6880466B60A3
:1043F00004230068AB60002302904046EB60013B61
:1044000005602B61BFF35F8F525062B65246033393
:10441000136072B67B33D024FF339B4624065B4681
:10442000E358002BFBD0BFF35F8F01210820FEF77C
:10443000CFF9BFF35F8F5B46E45062B672B6D0220D
:10444000BE21120649005358002BFCD0BFF35F8FEA
:10445000594B9B469B6A1C00BFF35F8F525062B65C
:10446000CC21136849009B004B445B685348DB68D0
:104470009A68534B013A0093524BFFF7F1F8524BB5
:104480005146186003230B6009F0C2F859468B6A45
:104490004E49FA228C4663441B1BD200934268D2D9
:1044A00072B6D022BE21120649005358002BFCD010
:1044B000BFF35F8F002413689B004B445B68DB688D
:1044C000586C5C64BFF35F8F525062B614239946F8
:1044D00000233D4C9B46A144002857D1206800286A
:1044E00003D0FFF73DFB5B46236004344C45F5D118
:1044F00004235246136072B6D021BE220906520030
:104500008B58002BFCD0BFF35F8F3B0001E0B34220
:1045100046D01A001B68BB42F9D1BFF35F8FD0228F
:10452000BE2112064900525062B672B65358002B93
:10453000FCD0BFF35F8F434601E0AB422DD01A00A1
:104540001B684345F9D1BFF35F8FD023BE221B0602
:1045500052009B5062B63B68BB4203D143461B6886
:1045600043450CD002235246FF339380184B93608F
:1045700005E002235246FF339380164B93600DB043
:10458000F0BCBB46B246A946A046F0BD0223524647
:10459000FF339380104B9360F1E71B681360D2E701
:1045A0001B681360B9E7C046FC100120E010012031
:1045B0009C0F0120A00F012000400540C8110120E0
:1045C0004CE6002071310020C0190120B03CFFFFF3
:1045D000D4E0002050E500202CE600200000000080
:1045E000014B9B6A8360704700400540000000005B
:1045F0000E4A0F4BD168C2689B6A0132C260826862
:104600005B1A9B1A30B5016942691C0000256418C9
:1046100055414268046145618360934200D943601B
:104620000268934200D2036030BDC046E010012012
:1046300000400540000000000000000000000000F5
:1046400070B5040072B6D022BE211206490053583C
:10465000002BFCD0BFF35F8FA3680020013BA36059
:10466000002B08DBBFF35F8FD023BE221B06520056
:104670009B5062B670BD13680E499B00CB185B68F7
:10468000DD6863686C636B602C601D6013680522D5
:104690009B00C9184B686560D9680A77186802687A
:1046A0001A60536001220277D860FBF7ADFD686B9A
:1046B000D8E7C046E0100120000000000000000024
:1046C00010B504000648FFF7BBFF064B1900DA6877
:1046D00020318A4203D22178501CD860117010BD5D
:1046E0009C110120FC1001200000000000000000CF
:1046F000012330B59E4C89B0236005AB059306932A
:104700000023079372B6D022BE21120649005358E7
:10471000002BFCD0BFF35F8F079B0393002B00DDC2
:10472000D9E0BFF35F8F525062B60223002105A883
:10473000236009F09DF872B6D022BE21120649000E
:104740005358002BFCD0BFF35F8F079B0393002BC4
:1047500000DDC0E0BFF35F8F525062B60323CC216F
:1047600023601368834D9B00EB185B684900DB688E
:1047700081489A6805AB013A0093804BFEF770FFC1
:104780007F4B1860042305A82360FFF759FF72B61A
:10479000D022BE21120649005358002BFCD0BFF393
:1047A0005F8F079B0393002B00DD94E0BFF35F8FC7
:1047B000525062B6002800D0B1E00523236072B6E3
:1047C000D021BE22090652008B58002BFCD0BFF32B
:1047D0005F8F079B002B00DC92E0D0231B061B6839
:1047E0009B00EB185B681A68DB6892689B689A42CA
:1047F00001D9FDF77DFBBFF35F8FD022BE211206EA
:104800004900525062B672B65358002BFCD0BFF329
:104810005F8F079B0393002B00DC67E0BFF35F8F84
:10482000525062B672B6D022BE21120649005358C9
:10483000002BFCD0BFF35F8F079B0393012B00D0AD
:1048400073E0BFF35F8F525062B60623236072B6E7
:10485000D021BE22090652008B58002BFCD0BFF39A
:104860005F8F079B002B00DC73E0D0231B061B68C7
:104870009B00ED186B681A68DB6892689B689A4227
:1048800001D9FDF735FBBFF35F8FD022BE211206A1
:104890004900525062B672B65358002BFCD0BFF399
:1048A0005F8F079B0393002B49DDBFF35F8F52504F
:1048B00062B672B6D022BE21120649005358002BB0
:1048C000FCD0BFF35F8F079B012B2ED1BFF35F8F0F
:1048D000525062B608E00223FF33A380294BA36045
:1048E000BFF35F8F525062B609B030BD0223FF3371
:1048F000A380254BA360BFF35F8F525062B6F3E7EE
:1049000001330793012B00D167E7059805AA0368D7
:104910005A60059300234363FDF7EAFC5DE7022339
:10492000FF33A380194BA360DEE70223FF33A3808C
:10493000174BA360BFF35F8F525062B6D4E70223D8
:10494000FF33A380134BA360BFF35F8F525062B657
:10495000CAE701330793012B00D186E7059805AA22
:1049600003685A60059300234363FDF7C1FC7CE7AD
:10497000FC100120E0100120C81101206127002057
:10498000C0190120A0E60020C0E60020ACE600200F
:10499000CCE60020A4E6002000000000000000009B
:1049A00070B5D024240623680A4D9B00EB185B6881
:1049B000DB685B7F7F2B0BD8074E3000FFF740FE94
:1049C00023689B00EB185B68DB685B7F7F2BF4D967
:1049D00070BDC046E0100120A811012000000000B9
:1049E00010B572B6D021BE22090652008B58002B9A
:1049F000FCD0BFF35F8F836801338360002B08DD39
:104A0000BFF35F8FD023BE221B0652009B5062B6BD
:104A100010BD036800211A68026050601800FEF79C
:104A200047FCEDE70000000000000000000000006F
:104A300010B5044C2000FFF703FE2000FFF7D0FF65
:104A400010BDC0469C1101200000000000000000C5
:104A5000012370B52A4D2B4C28002360FFF7F0FD91
:104A600072B6D022BE21120649005358002BFCD04A
:104A7000BFF35F8FAB68002B33D1BFF35F8F525012
:104A800062B60223002836D128002360FFF7A8FF72
:104A900072B6D022BE21120649005358002BFCD01A
:104AA000BFF35F8FAB68012B1BD1BFF35F8F5250F9
:104AB00062B6032302212800236008F0D9FE72B6F3
:104AC000D022BE21120649005358002BFCD0BFF360
:104AD0005F8FAB68022B04D1BFF35F8F525062B679
:104AE00008E00223FF33A380074BA360BFF35F8F6F
:104AF000525062B670BDFF33A380044BA360F9E748
:104B00009C110120FC100120E0E600205CE6002062
:104B1000D0231B061B6870B5384E9B00F3180400A9
:104B20005B688068DD68002834D0AB6882689A4290
:104B300007D28360037F062B46D0072B2FD0002B94
:104B400021D0230003E09A68A9688A4202D31B6837
:104B50009C42F8D15A682B606A6015605D60D02372
:104B600006226C631B061B689B00F6187368D968E5
:104B70000A77186802681A60536001220277D860C9
:104B8000FBF742FB70BD4268036813605A60FDF793
:104B9000AFFBD6E7AB6CA560E360AC64F2E7426BB9
:104BA000036841680B605960130004E099688C4603
:104BB00081688C4502D31B689A42F7D15A6803601A
:104BC000426010605860BCE7426B036841680B604C
:104BD0005960130004E099688C4681688C4502D3C3
:104BE0001B689A42F7D159680360416008605860B9
:104BF0009068AB6882689A429BD3A2E7E0100120DC
:104C000070B586B072B6D024BE2224065200A358D6
:104C1000002BFCD0BFF35F8F2368254D9B00EB1862
:104C20005B686846DB68234A2349FDF7D1F8082210
:104C300023689B00EB185B68D9680A7718680268DC
:104C40001A60536001220277D860FBF7DDFA009BFF
:104C5000002B02D06846FDF703F9BFF35F8FD02425
:104C6000BE2224065200A45062B672B6A358002B8E
:104C7000FCD0BFF35F8F114E3000FFF749FF3000CB
:104C8000FDF736FC23689B00ED186B681A68DB683B
:104C900092689B689A4201D9FDF72AF9BFF35F8FAA
:104CA000D023BE221B0652009B5062B606B070BDD8
:104CB000E010012021130020F0490200B40F012070
:104CC000D0221206136870B5224C9B00E3185B6873
:104CD0000100DD6872B6BE2040001358002BFCD0E6
:104CE000BFF35F8FCB680A68AB648A422ED0E86C52
:104CF000002B09D01A68934203D09268904200D2E8
:104D00001000DB68002BF5D1A860086803680B6011
:104D10005960836C8860CB608164FDF7E9FAD02329
:104D20001B061B689B00E41863681A68DB689268BE
:104D30009B689A4201D9FDF7DBF8BFF35F8FD02360
:104D4000BE221B0652009B5062B670BD00238B60D2
:104D5000F3E7C046E0100120000000000000000062
:104D6000F0B5C646070000B5002943DC72B6D02472
:104D7000BE2524066D006359002BFCD0BFF35F8F66
:104D80001F4B180014309846FFF7C2FEBFF35F8F29
:104D9000645162B64346DB68002600240025002BE0
:104DA0000AD05968013564188E4200D20E001B6883
:104DB000002BF6D1E400F60040461430FFF780FFE8
:104DC000104B11495A681B683800D21AFCF778FB5F
:104DD0002A000E493800FCF773FB22000C4938000A
:104DE000FCF76EFB320038000A49FCF769FB80BC17
:104DF000B846F0BD084A0949FCF762FBF7E7C04630
:104E000024110120D8100120F8E6002018E7002026
:104E100030E7002050E70020F4E60020D0E2002038
:104E2000F8B5060072B6D024BE2524066D0063597D
:104E3000002BFCD0BFF35F8F0A4F3800FFF768FEEE
:104E4000BFF35F8F645162B6074B1900DA682031F7
:104E50008A4203D23178501CD86011703800FFF7B5
:104E60002FFFF8BDA40F0120FC100120000000005E
:104E700070B586B072B6D024BE2224065200A35864
:104E8000002BFCD0BFF35F8F23681D4D9B00EB18F8
:104E90005B686846DB681B4A1B49FCF799FF0822E0
:104EA00023689B00ED186B68D9680A771868026858
:104EB0001A60536001220277D860FBF7A5F9009BC6
:104EC000002B02D06846FCF7CBFFBFF35F8FD024E6
:104ED000BE2524066D00645162B672B66359002B7C
:104EE000FCD0BFF35F8F094E3000FFF711FEBFF318
:104EF0005F8F645162B63000FFF7E2FE06B070BD0E
:104F0000E01001202113002050C30000A40F012055
:104F1000F0B5C646804600B572B6D024BE2724063A
:104F20007F00E359002BFCD0BFF35F8F2E4E300083
:104F3000FFF7EEFDBFF35F8FE45162B672B6D02289
:104F4000BE21120649005358002BFCD0BFF35F8FDF
:104F50001368264F9B00FB185B68DC6813689B0096
:104F6000FB185B68DB689D6C2800FDF7C1FA204ADE
:104F70001300626303E09968A068814202D31B6852
:104F80009342F8D15A682360626014605C60D02458
:104F90000722240623689B00FF187B68D9680A77DC
:104FA000186802681A60536001220277D860FBF724
:104FB0002BF92800FFF7ACFDBFF35F8FBE235B002A
:104FC000E45062B60B4B1900DA6820318A4204D2F1
:104FD00041460978501CD86011703000FFF770FE10
:104FE00080BCB846F0BDC046A40F0120E0100120EF
:104FF000940F0120FC1001200000000000000000C0
:10500000F8B5CE464746814680B572B6D024BE2755
:1050100024067F00E359002BFCD0BFF35F8F3F4E87
:105020003000FFF775FDBFF35F8FE45162B672B6D3
:10503000D024BE2524066D006359002BFCD0BFF39D
:105040005F8F374F3800FFF763FDBFF35F8F645109
:1050500062B672B6D022BE21120649005358002B08
:10506000FCD0BFF35F8F2F49136888469B004344F1
:105070005B68DC6813689B0043445B68DB689D6C7D
:105080002800FDF735FA284A1300626303E09968A7
:10509000A068814202D31B689342F8D15A6823600A
:1050A00062601460D02212065C6013689B00434467
:1050B0005B68DC68136807229B0043445B68D9681F
:1050C0000A77186802681A60536001220277D86074
:1050D000FBF79AF8636B013302D02800FFF718FD45
:1050E000BFF35F8FD023BE221B0652009B5062B6D7
:1050F0000E4B1900DA6820318A4204D249460978F9
:10510000501CD86011703800FFF7DAFD3000FFF74F
:10511000D7FDC0BCB946B046F8BDC046B40F0120AB
:10512000A40F0120E0100120940F0120FC100120A9
:10513000F8B5060072B6D024BE2524066D0063596A
:10514000002BFCD0BFF35F8F0A4F3800FFF7E0FC65
:10515000BFF35F8F645162B6074B1900DA682031E4
:105160008A4203D23178501CD86011703800FFF7A2
:10517000A7FDF8BDB40F0120FC10012000000000C5
:10518000F0B5DE4657464E464546E0B5D027694A5B
:105190003F0694463B68684C9B0063445B68CC21A7
:1051A000DB6883B09D6849006B1C9846AB1C9A462F
:1051B00002232360614B42469946614B4846009367
:1051C000604BFEF74DFA604ECC21306048465F4B95
:1051D0009930009352465E4B4900FF30FEF740FA8B
:1051E00003237060236072B6BE267600BB59002B85
:1051F000FCD0BFF35F8F574B18009B46FFF788FC2E
:10520000BFF35F8FBF5162B64A4A3B6894469B002A
:1052100063445B68DB689B68AB4200D07EE004239C
:10522000236072B67933D027FF3399463F064B4649
:10523000FB58002BFBD0BFF35F8F47490820FDF7D9
:10524000C7FABFF35F8F4B46FF5062B6394A3B68DF
:1052500094469B0063445B68DB689B6898455DD11E
:105260000523236072B67833D027FF3399463F0673
:105270004B46FB58002BFBD0BFF35F8F3748FFF73F
:1052800047FCBFF35F8F4B46FF5062B6294A3B682D
:1052900094469B0063445B68DB689B6898453DD1FE
:1052A0000623236072B67733D027FF3399463F0633
:1052B0004B46FB58002BFBD0BFF35F8F26490820DD
:1052C000FDF786FABFF35F8F4B46FF5062B6194A6F
:1052D0003B6894469B0063445B68DB689B689A4527
:1052E0001CD107231D482360FFF7EAFC114A3B68E5
:1052F00094469B0063445B68DB689B6898450DD1CE
:10530000082358462360FFF7DBFC3B68094A9B00F3
:10531000D6187368DB689B689D4204D00223FF3374
:10532000A3800F4BA36003B0F0BCBB46B246A946B6
:10533000A046F0BDE0100120FC100120C8110120A2
:105340004CE60020714E0020C019012070E70020BB
:10535000014C0020A40F0120A0860100B40F012001
:1053600074E70020000000000000000000000000C2
:10537000F8B5D0254746CE462D062B68554E9B00E6
:10538000F3185B6880B5DB68534C9F680223236089
:1053900008F00EFA002851D00323236008F008FA21
:1053A000002854D1042323604C4B98461800FFF783
:1053B00087FC43469B68002B4FD143461B684345FF
:1053C00051D1052323602B689B00F3185B68DB68D1
:1053D0009B689F4200D076E00623236008F0E8F93E
:1053E00000282BD008F0E4F9002830D172B6BE2294
:1053F0005200AB58002BFCD0BFF35F8F00222B680C
:1054000091469B00F3185B68DD68AB6C002B0CD1F8
:105410003FE002681A605360826C9860DA608364CF
:10542000FCF766FFAB6C002B23D0DA681868AA641F
:105430008342EED1494699601300F4E70223FF331B
:10544000A380274BA360C0BCB946B046F8BD022379
:10545000FF33A380234BA360F5E70223FF33A38030
:10546000214BA360EFE70223FF33A3801F4BA36010
:10547000E9E7EB6CAB60D0231B061B689B00F318BD
:105480005B681A68DB6892689B689A4201D9FCF7EE
:105490002FFDBFF35F8FD023BE221B0652009B500F
:1054A00062B642469268002AD7D142461268424507
:1054B000D9D1072222601B689B00F6187368DB684D
:1054C0009B689F42BFD00223FF33A380084BA36099
:1054D000B9E7C046E0100120FC100120A40F012014
:1054E0008CE700209CE70020A8E700207CE5002056
:1054F00074E7002000000000000000000000000031
:10550000F8B5CE464746040080B58946150072B608
:10551000D021BE22090652008B58002BFCD0BFF3CD
:105520005F8F1823D02798462D4EA0443F060BE0EE
:1055300042461A60E26929005A6004201360E36160
:10554000FDF746F9002812D1237D002B1BD161689D
:10555000206822690B1A9B10934217D13B689B006D
:10556000F3185B68DB68002DE2D101204042BFF3F5
:105570005F8FD023BE221B0652009B5062B6C0BC78
:10558000B946B046F8BD02204042F0E74E46A56855
:105590002B1DA3602E60994200D8A0602300206AD2
:1055A000013220332261834206D0026822625360B6
:1055B00000234363FCF79CFED0231B061A68084BAC
:1055C00092009B185B681A68DB6892689B689A4235
:1055D00003D9FCF78DFC0020C9E70020C7E7C046CF
:1055E000E0100120000000000000000000000000AA
:1055F000F8B5CE464746040080B58946150072B618
:10560000D021BE22090652008B58002BFCD0BFF3DC
:105610005F8FD02326001B0698462A4F203613E0C2
:105620002369002B21D143461B68626A9B00FB184B
:105630005B682900DB6804201E605A6013606362A7
:10564000FDF7C6F8002804D1237D002BE8D0022006
:105650004042BFF35F8FD023BE221B0652009B50F7
:1056600062B6C0BCB946B046F8BD4846E1680A1DFE
:105670000968E260016061688A4201D32268E260E1
:10568000013B23612300A0691833834206D00268DE
:10569000A261536000234363FCF72AFED0231B065C
:1056A0001A68084B92009B185B681A68DB6892685E
:1056B0009B689A4203D9FCF71BFC0020C9E7002035
:1056C000C7E7C046E0100120000000000000000015
:1056D0000123F0B54224594E594D83B03360012265
:1056E000210028005242FFF70BFF00283ED1013471
:1056F000462CF4D102230122582128003360FFF701
:10570000FFFE431C32D172B6D022BE2112064900E0
:105710005358002BFCD0BFF35F8F2B7D002B00D0A4
:1057200086E06C682F682B69E01B8010984224D0BB
:105730005820A9680A1DAA600860944200D8AF608A
:1057400001332B612B00286A2033984206D002686F
:105750002A62536000234363FCF7CAFDBFF35F8FE7
:10576000D023BE221B0652009B5062B60223FF3399
:10577000B380344BB36003B0F0BDBFF35F8F5250C2
:1057800062B60121582007F0B3FD431CEED172B67A
:10579000D024BE2724067F00E359002BFCD0BFF3A2
:1057A0005F8F582007F074FDBFF35F8FE45162B63E
:1057B000431CDBD10323336072B6D024BE222406FF
:1057C0005200A358002BFCD0BFF35F8F07F000FE00
:1057D00022681D4B92009B185B681A68DB68926810
:1057E0009B689A4201D9FCF783FBBFF35F8FD024FB
:1057F000BE2724067F00E45162B6002301222B75E8
:105800002800043301A93360FFF7F2FE431CADD139
:1058100072B6E359002BFCD0BFF35F8F01A807F0ED
:1058200007FDBFF35F8FE45162B6431CA3D09DE731
:10583000BFF35F8F525062B698E7C046FC1001205C
:10584000C40F0120B4E70020E01001200000000098
:10585000F0B54646D6464F4605008846C0B50028F6
:1058600067D04346DC1DE3089A4614239946A944B1
:1058700072B6D026BE24360664003359002BFCD005
:10588000BFF35F8F4846FFF743F9BFF35F8F365191
:1058900062B62F00EA680C37002A18D007239C460E
:1058A00000E01A00100063460F309843010054686E
:1058B0000839631CDB00D3188B4204D90600181A80
:1058C000C01050451BD213681700002BE9D1484681
:1058D000FFF7F6F92B68002B40D052460821D00084
:1058E00008229847061E04D003004246083B1D606C
:1058F0005A603000E0BCBA46B146A846F0BD8A42C4
:1059000019D354452CD0544601341168E4001419BD
:1059100021602100160008315B1A1100DB10636062
:1059200008363C60434648464B600D60FFF7C8F9B7
:10593000DFE70E4D95E713000833CB1ADB105360F9
:105940005045EFD954465346E4430133DB00CB18AE
:1059500020185860106818601360E3E70026C8E755
:105960001600136811003B600836DBE724110120A4
:10597000F0B5170089B008220D001E00FFF768FF80
:10598000041E23D00E9B441905930F9B0197069389
:105990000023029003940496079372B6D025BE2686
:1059A0002D067600AB59002BFCD0BFF35F8F01A80A
:1059B000FDF70EFE074B0021C362002303630400C2
:1059C000FDF776FCBFF35F8FAD5162B6200009B0E2
:1059D000F0BDC046315B0020000000000000000068
:1059E00010B5040082B0012928D110680378722B09
:1059F0001CD01849FAF72CFC00281FD11649D023D7
:105A00001B061A68154B92009B185B680020DB6828
:105A1000134A9B680091B62101948900FFF7A8FF03
:105A2000002811D0FEF79CF802B010BD4378742B0B
:105A3000DFD18378002BDCD10A49E0E720000A4A55
:105A40000A49FBF73DFDEFE720000949FBF738FD68
:105A5000EAE7C046D4E70020711B0020E0100120D7
:105A6000B4FF0020511B0020CCE70020D0E2002032
:105A7000DCE7002000000000000000000000000043
:105A8000F0B5C6460838436800B50733DB08436005
:105A9000142302689846150004000C35904472B631
:105AA000D026BE2736067F00F359002BFCD0BFF36B
:105AB0005F8F4046FFF72CF8BFF35F8FF65162B659
:105AC0002B001A689D4201D0A34203D2002A03D0C2
:105AD000944201D31300F4E7226062681C60013233
