:020000042000DA
:10000000000204206D020020F16C00206F0200202D
:100010006F0200206F0200206F0200206F0200209C
:100020006F0200206F0200206F0200206F0200208C
:100030006F0200206F0200206F0200206F0200207C
:10004000F14200203143002071430020A1430020F1
:100050006F0200206F0200206F0200206F0200205C
:100060006F0200206F0200206F0200206F0200204C
:100070006F0200206F0200206F020020116D00202F
:10008000416D00206F0200206F0200206F020020EF
:100090006F0200206F0200206F0200206F0200201C
:1000A0006F0200206F0200206F0200206F0200200C
:1000B0006F0200206F0200206F0200206F020020FC
:1000C0006F020020D14200206F0200206F0200204A
:1000D0006F0200206F0200206F0200206F020020DC
:1000E0006F0200206F0200206F0200206F020020CC
:1000F0006F0200206F0200206F0200206F020020BC
:100100006F0200206F0200206F0200206F020020AB
:100110006F0200206F0200206F0200206F0200209B
:1001200072B63E4880F308883D4880F30A883D480F
:1001300080F309883C4880F30B883C483C490860C0
:10014000022080F31488BFF36F8F04F031F804F0BD
:100150003FF94FF055303249304A91423CBF41F8A7
:10016000040BFAE730492F4A91423CBF41F8040B97
:10017000FAE73049304A314B9A423EBF51F8040BFE
:1001800042F8040BF8E700202D492E4A91423CBF6B
:1001900041F8040BFAE704F043F804F011F82A4C94
:1001A0002A4DAC4203DA54F8041B8847F9E70BF0F8
:1001B00037FE274C274DAC4203DA54F8041B88471E
:1001C000F9E704F005B800BF72B6234880F3088849
:1001D000224880F30988022080F31488BFF36F8FD0
:1001E00012481349086003F0FBFF04F001F84FF0D8
:1001F00055301B49184A914202DA08600431FAE787
:100200001849164A914202DA08600431FAE703F00D
:10021000F7FF0BF03DFE14490847000000020420E0
:10022000000004200004042000020420000000203C
:1002300008ED00E0E0ED0020E0ED0020BCEE002045
:10024000C0EE0020B000012020010020200100208D
:1002500020010020200100200012042000140420AE
:1002600000100420001204201142002058E700F082
:1002700000F8FEE7F0B544464D4656465F46F0B4FA
:100280006B46CB60C3689D46F0BCA046A946B2460B
:10029000BB46F0BD06F06CFD62B6281CA0470020EE
:1002A00004F086FCFEE704F08BFB024A024B13606D
:1002B000FEE7C04604ED00E000000080844641EA0D
:1002C000000313F0030349D1403A23D30B680360C2
:1002D0004B6843608B688360CB68C3600B690361C4
:1002E0004B6943618B698361CB69C3610B6A0362AC
:1002F0004B6A43628B6A8362CB6AC3620B6B036394
:100300004B6B43638B6B8363CB6BC3634030403178
:10031000403ADBD230320BD30B6803604B6843604A
:100320008B688360CB68C36010301031103AF3D211
:100330000C3205D351F8043B40F8043B043AF9D29F
:10034000043208D0D2071CBF11F8013B00F8013B72
:1003500001D30B8803806046704700BF082A13D37F
:100360008B07B1D010F00303AED0C3F10403D21A4F
:10037000DB071CBF11F8013B00F8013BA4D331F8A7
:10038000023B20F8023B9FE7043AD9D3013A11F827
:10039000013B00F8013BF9D20B7803704B784370B6
:1003A0008B7883706046704780EA010C1CF0030F65
:1003B00037D110F0030C20F0030021F0030150F8B6
:1003C000042B08BF51F8043B0ED08CF0030C6FF0E7
:1003D0007F434FEACC0C23FA0CFC51F8043B42EA71
:1003E0000C0243EA0C0300BFA2F1013C9A4201BF98
:1003F0002CEA020C1CF0803F50F8042B51F8043B0F
:10040000F2D04FEA02604FEA1222012828BFB0EB77
:10041000036F08BF1B0AF4D003F0FF03000EC01ADD
:10042000704710F0030F0AD010F8012B11F8013BB0
:10043000012A28BF9A42F4D0A2EB030070474DF87E
:10044000045D50F8042B01F0030521F0030151F87D
:10045000043B022D26D04DD822F07F45B5EB132F5B
:10046000A2F1013C2CEA020C0DD11CF0803C08BF2B
:1004700051F8043B0AD185EA0205B5EB036F0CD1B4
:1004800050F8042BE8E74FEA13235BE03CF07F4C85
:1004900054D10B784FEA126554E04FEA126503F02D
:1004A000FF034FE04FEA0245A2F1013C4FEA154538
:1004B0002CEA020CB5EB134F18D11CF0803C08BF9E
:1004C00051F8043B07D185EA0205B5EB034F09D18A
:1004D00050F8042BE6E75FEA0C4C2FD10B884FEA6B
:1004E00012452FE04FEA03434FEA12454FEA134308
:1004F00028E000BF02F0FF05B5EB136FA2F1013C4D
:100500002CEA020C0DD11CF0803C08BF51F8043BD2
:100510000AD185EA0205B5EB032F0AD150F8042B66
:10052000E8E74FEA13630DE012F0FF0F06D051F831
:10053000043B4FEA122523F07F4303E04FF0000015
:1005400020BC704705F0FF0203F0FF00012828BF20
:10055000904204BF2D0A1B0AF4D0A2EB000020BC7D
:10056000704700BF00000000000000000000000015
:10057000014B986A704700BF00000B40000000006C
:10058000054A031D42F82310012303FA00F0D0634B
:10059000136C18431064704700000B40000000000B
:1005A00003490B6C0122824023EA02030B6470476B
:1005B00000000B40000000000000000000000000F0
:1005C0000430024B43F82010704700BF00000B407E
:1005D000064B03600123037100238360C360036142
:1005E00043618361C361036243627047E8EA0020AC
:1005F0000901C9B2074A131883F8001300F01F015C
:10060000400901238B4000F1600142F8213042F89B
:100610002030704700E100E0000000000000000012
:1006200010B5064C2046FFF7D3FF054BA362054AE1
:10063000136843F48003136010BD00BFC0EE0020B8
:1006400000400340000002400000000000000000E5
:1006500008B5FFF7E5FF08BD00000000000000003E
:10066000C26893081B0103F01003D108490101F08F
:1006700020010B43110A890201F480610B43910AA6
:10068000490201F400710B435109090201F4807120
:100690000B439109490101F020010B43520AD20199
:1006A000D2B21343826A9363704700BF0000000018
:1006B00010B4844600201AE0DCF80C3013F0040F6C
:1006C00005D0DCF82820936B43F010039363DCF82B
:1006D0000C3013F4007F12D0DCF82820936B43F029
:1006E000400393630BE01B6801F8013B0130DCF829
:1006F00028309C6914F0100FDED19042F3D310BC67
:10070000704700BF00000000000000000000000073
:1007100008B572B64FF05043D3F87C31002BF9D0B6
:10072000BFF35F8FFFF7C4FFBFF35F8F4FF05043FE
:10073000C3F87C3162B608BD000000000000000074
:1007400010B4844600200DE0DCF80C2012F0080FF5
:1007500010D09A6B42F020029A630BE011F8014B23
:100760001C600130DCF828309C6914F0200FEBD1BC
:100770009042F3D310BC704700000000000000005E
:1007800008B572B64FF05043D3F87C31002BF9D046
:10079000BFF35F8FFFF7D4FFBFF35F8F4FF050437E
:1007A000C3F87C3162B608BD000000000000000004
:1007B0000346826A1068C0B2926912F0100F00D12D
:1007C0007047DA6812F0040F04D0996A8A6B42F01D
:1007D00010028A63DA6812F4007FF1D09A6A936B90
:1007E00043F040039363EBE70000000000000000CB
:1007F000836A1960836A9A6912F0200F07D0C26871
:1008000012F0080F03D09A6B42F020029A637047EF
:100810000020704700000000000000000000000001
:1008200029B108B5012905D0FFF7F2FF03E06FF009
:1008300013007047002008BD000000000000000009
:100840000A4A136823F040031360084B9B6813F0B7
:10085000400FFAD0054A136823F400731360034B6A
:100860009B6813F4007FFAD0704700BF000002407D
:10087000064B0622DA6200225A601A601A615A6137
:100880009A61DA611A640F22DA63704700000B4044
:1008900008B5002304E0054A002142F82310013383
:1008A000032BF8D9FFF7E4FF08BD00BF18F00020C4
:1008B00008B5044B03EBC002516853F83000FFF752
:1008C00097FE08BDB4E20020000000000000000018
:1008D00008B5FFF7EDFF08BD0000000000000000B4
:1008E0004FF050431A68334B03EB82035A6810F001
:1008F000010F0DD01168002301E0013309688A421D
:10090000FBD1516801E0013B49688A42FBD15BBBE6
:1009100010F0020F31D010B41469002301E001334C
:10092000246802F11001A142F9D1526901E0013BB2
:1009300052689142FBD1CBB910F0040F18D01D4B77
:100940001A69002301E0013312681B498A42FAD177
:10095000A1F11002526901E0013B526816498A4236
:10096000FAD143B9002004E001207047012000E0E3
:10097000002010BC70470120FBE710F0040F14D0DA
:100980000C4B1A69002301E0013312680A498A42BC
:10099000FAD1A1F11002526901E0013B5268064907
:1009A0008A42FAD11BB9002070470020704701200D
:1009B000704700BF40EF002050EF00200000000013
:1009C000EFF3108010F0010F17D1EFF30583C3F39D
:1009D00008034BB172B64FF05043D3F87C31002B73
:1009E000F9D0BFF35F8F704772B64FF05043D3F822
:1009F0007C31002BF9D0BFF35F8F704700000000FF
:100A0000024A936903439361704700BF40EF00209F
:100A100000230360704700BF0000000000000000DA
:100A200070B54FF050431A68074B03EB82035E68C2
:100A3000FFF79EFDD6E90A45031B181945F1000191
:100A4000C6E90A0170BD00BF40EF002000000000B1
:100A50004FF050431A68064B03EB82035B68DA6879
:100A60001B6898689368984294BF002001207047E3
:100A700040EF002000000000000000000000000027
:100A8000FEE700BF000000000000000000000000C2
:100A90004B6843618B688361CB6883600223037773
:100AA000002343778B699BB103610023C362036317
:100AB00000F138028263CA68C2648364436401231C
:100AC00083770B68036200F13C03C36303647047E0
:100AD0004FF050431A68034B03EB82035B680361DA
:100AE000E3E700BF40EF002000000000000000002E
:100AF00010B50C46FFF7CCFF8269243AC260216929
:100B00001161C26861695161C2680649116200F1F0
:100B10002401054A02F11004446254698462216090
:100B2000516110BD9502002040EF00200000000040
:100B300010B50446806821465038FFF7A9FFA0F1A0
:100B40002402C260216940F8141C616940F8101C3D
:100B5000064940F8041C00F12401054A02F1100482
:100B60004462546984622160516110BD9502002085
:100B700040EF002000000000000000000000000026
:100B800008B572B64FF05043D3F87C31002BF9D042
:100B9000BFF35F8F837F013B8377C36903F0FF134C
:100BA0000F2B07D0BFF35F8F4FF05043C3F87C315A
:100BB00062B608BD826A436A1360826A5A60BFF3F4
:100BC0005F8F4FF05043C3F87C3162B6C36A002B8D
:100BD000EFD09847EDE700BF0000000000000000E4
:100BE00072B64FF05043D3F87C31002BF9D0BFF3ED
:100BF0005F8F437F63F07F034377BFF35F8F4FF0D7
:100C00005043C3F87C3162B6704700BF000000005B
:100C100000604060704700BF00000000000000005E
:100C20004FF0FF330360002343608360C360002202
:100C30000023C0E90423704700000000000000000A
:100C4000014B9B6A8360704700000B40000000006E
:100C50000D4B9B6A0D4AD168C2680132C26082683E
:100C60009B1A5B1A836002694169D21841F1000145
:100C7000026141614268934200D943600268934235
:100C800000D20360704700BF00000B4040EF00201F
:100C900072B64FF05043D3F87C31002BF9D0BFF33C
:100CA0005F8F084B1B69A3F1240013F8062C013257
:100CB00003F8062CBFF35F8F4FF05043C3F87C312D
:100CC00062B6704740EF0020000000000000000006
:100CD00010B572B64FF05043D3F87C31002BF9D0E9
:100CE000BFF35F8F436A0B4A934211D0A3F12404F0
:100CF00013F8062C013203F8062CBFF35F8F4FF078
:100D00005043C3F87C3162B6FFF73AFF204610BD6E
:100D10000024F2E750EF0020000000000000000077
:100D20000060406000238360704700BF0000000047
:100D30004FF050431A68074B03EB82035B68DB6894
:100D400082680AB10020704783609A6CC260986420
:100D50000120704740EF002000000000000000006C
:100D600008B572B64FF05043D3F87C31002BF9D060
:100D7000BFF35F8FFFF7DCFFBFF35F8F4FF0504390
:100D8000C3F87C3162B608BD00000000000000001E
:100D900000604060704700BF0000000000000000DD
:100DA000006070470000000000000000000000002C
:100DB00030B44FF050442568074C04EB850CDCF848
:100DC0000440E46805680D6001604C608A600022A0
:100DD000CA600B6130BC704740EF0020000000008B
:100DE00010B572B64FF05044D4F87C41002CF9D0C5
:100DF000BFF35F8FFFF7DCFFBFF35F8F4FF0504310
:100E0000C3F87C3162B610BD000000000000000095
:100E100072B64FF05043D3F87C31002BF9D0BFF3BA
:100E20005F8F03461A461B68984203D08B42F9D164
:100E30000B681360BFF35F8F4FF05043C3F87C31F2
:100E400062B67047000000000000000000000000D3
:100E50004FF050431A68054B03EB82035B68DA6876
:100E6000536C23EA000151641840704740EF0020A2
:100E700008B572B64FF05043D3F87C31002BF9D04F
:100E8000BFF35F8FFFF7E4FFBFF35F8F4FF0504377
:100E9000C3F87C3162B608BD00000000000000000D
:100EA00072B64FF05043D3F87C31002BF9D0BFF32A
:100EB0005F8F4FF050431968064A02EB8102526877
:100EC000D268516C08435064BFF35F8FC3F87C3124
:100ED00062B6704740EF00200000000000000000F4
:100EE00070B506460D46002400E001346DB125FAC8
:100EF00004F313F0010FF8D00123A34025EA030502
:100F000056F8243020469847EFE770BD00000000F7
:100F100010B4844604E000231846C3B90CF1080C51
:100F2000DCF80040B4F1FF3F10D0DCF80430013BA6
:100F30002344501E0818EED28C4203D8834203D2B9
:100F40000023E9E70023E7E70123E5E7002010BCE1
:100F5000704700BF0000000000000000000000001B
:100F600008B5014601220248FFF7D2FF08BD00BFC5
:100F7000A4E20020000000000000000000000000CB
:100F8000024B034A1A60034A5A60704738EF002048
:100F9000B00001200000042000000000000000005C
:100FA00010B4094B5C68201A49420840821A1B6839
:100FB0009A4205D3A24205D8034B5A6010BC704731
:100FC0000020FBE70020F9E738EF002000000000D8
:100FD00008B572B64FF05043D3F87C31002BF9D0EE
:100FE000BFF35F8FFFF7DCFFBFF35F8F4FF050431E
:100FF000C3F87C3162B608BD0000000000000000AC
:10100000034B1A6802605B689B1A4360704700BF1D
:1010100038EF002000000000000000000000000089
:1010200010B5074C2046074B40F8043BFFF7E8FF9C
:101030000023E360236104F11400FFF771FE10BD8B
:1010400084EF0020D10F002000000000000000000D
:1010500008B50346006810B102681A6008BDDA6876
:10106000002AFBD0996858689047F7E70000000015
:1010700003680B6001607047000000000000000082
:1010800010B444680368013B8818034004EBC30CA8
:1010900054F8330000E00068604506D003698B42D5
:1010A000F9D143699342F6D100E0002010BC7047AB
:1010B00008B503681A1D02601B68984708BD00BF89
:1010C00008B50268131D0360116802F1080303608C
:1010D0005068884708BD00BF000000000000000005
:1010E00010B503460068011D1960046800F108028C
:1010F0001A60406801F108021A604968A04710BDF3
:1011000038B503460268111D0160156802F1080434
:10111000046050680C321A60496804F108021A60D1
:101120006268A84738BD00BF000000000000000052
:1011300070B503460068011D1960066800F10802D9
:101140001A60406801F108051D60496802F1080451
:101150001C60526805F108041C606B68B04770BDE4
:1011600008B50022FFF71CFF08BD00BF000000000B
:1011700010B40822047801300C700131013A0CB12E
:10118000002AF7D110BC70470000000000000000EA
:1011900002460B4618461B688B4202D09342F9D197
:1011A00000E00020704700BF0000000000000000C9
:1011B0000346006802681A60704700BF0000000024
:1011C00072B64FF050431A68034B03EB82035B681F
:1011D000024AC3F8D820FEE740EF00201CC20020DE
:1011E00010B50446006BFFF773FB4FF050430C2221
:1011F0001A65236B3BB9094BF02283F80F234FF498
:1012000000421A6010BD012BFCD1044BF02283F880
:1012100010234FF480321A60F4E700BF00E100E0D1
:1012200010F10F0F1ED010B572B64FF05043D3F827
:101230007C31002BF9D0BFF35F8FEFF30984A4F169
:10124000200383F309884FF0807344F8043CFFF7D0
:10125000FFFB18B1044B44F8083C10BD034B44F8A5
:10126000083CFAE7704700BFA7020020AA0200204E
:101270000020704700000000000000000000000097
:1012800008B50520FFF7F4FF104B1860104A1368EB
:1012900023F0020313600E4B9B6813F0020FFAD089
:1012A0000B4A136823F400231360094B9B6813F463
:1012B000002FFAD0064A136823F480231360044BEE
:1012C0009B6813F4802FFAD008BD00BFECEE00201D
:1012D00000000240000000000000000000000000CC
:1012E00010B504468368002B2ED02379012B2ED015
:1012F0000620FFF7BDFFC000A3681B68B0FBF3F03A
:10130000C20900F07F0001304008A36A5A62A36A54
:101310009862A3685B68A26A23F00103D362A368A2
:101320009B68A26A23F4417323F003031363A36A47
:10133000DA6B5A64A3689B68A26A43F4407343F073
:1013400001031363002010BD0A4B8360CDE70A4BF5
:101350009C42CDD1094A136823F480031360074BE4
:101360009B6813F4800FFAD003212120FFF740F986
:10137000BEE700BFE8E20020C0EE0020000002400F
:101380000C4B03EB800253F8203083F0400303F052
:10139000C00302F5805CCCF80030C00000F1804052
:1013A00000F52030416002F540524FF48073136025
:1013B000704700BF048003400000000000000000F0
:1013C00030B51C4603B90C4600F10B0E734608E01D
:1013D00001F1370C03F801CDB5FBF2F1B4FBF2F4E7
:1013E00054B10D46B1FBF2FC02FB1C1101F1300CB3
:1013F000BCF1390FEEDDEBE7AEEB030C19780133EE
:1014000001700130BCF1010CF8D130BD00000000CA
:1014100008B50023FFF7D4FF08BD00BF000000009F
:101420002DE9F04F87B0064689460192002705E076
:101430003368DB68304698470137A9464D4615F8B2
:10144000011B002900F083802529F1D12B782D2B59
:1014500046D04FF0000B2B782B2B46D0002095F870
:1014600000A0BAF1300F43D04FF0200A2B782A2B7E
:1014700040D1019B1A1D01921C6805F102096B788D
:101480002E2B47D000226C2B67D04C2B65D0A3F1BC
:101490004101C9B219298CBF00210121A3F14405E2
:1014A000342D00F2CE80DFE805F082CCCCCCCC82AB
:1014B000CCCCCCCCCC5EC5CCCCCCCCA2CCCCC5CC12
:1014C000CCCCCCCCCCCCCCCCCC6082CCCCCCCC825C
:1014D000CCCCCCCCCC5EC5CCCC6CCCA2CCCCC5001E
:1014E00009F102054FF0010BB5E701350120B6E720
:1014F0000135BBE70024A94619F8013B3BB3A3F132
:101500003002D2B2092ABBD804EB840402EB4404B3
:101510004D46F0E7494611F8013BC3B12A2B08D1EB
:10152000019B1A1D01921A6899F8013009F102090C
:10153000A9E70022A3F13005EDB2092D0BD802EB8B
:10154000820205EB420211F8013B002BF2D1384632
:1015500007B0BDE8F08F894695E719F8013B002BED
:10156000F5D001219AE7082242E0019B1A1D019261
:101570001B688DF80C304FF0200A03AD0DF10D0003
:101580003FE0019B191D01911D6815B162B128460C
:1015900002E0424DFAE701300378002B57D0013AC0
:1015A000F9D54FF0200A2CE047F6FF72EFE761B162
:1015B000019B1A1D0192196800290BDBA8B12B238E
:1015C0008DF80C300DF10D000AE0019B1A1D0192FF
:1015D0001968F1E72D238DF80C3049420DF10D000B
:1015E0000A22FFF715FF03AD0BE003A8F8E70A2274
:1015F00011B3019B191D0191196803A8FFF708FF9A
:1016000003ADA0EB0508B4EB080423D4BBF1000F35
:1016100000D16442002C32DA29782D291CD02B29E4
:101620001AD03368DB685146304698470137013499
:10163000F7D124E01022DBE7019B191D0191196805
:10164000DBE78DF80C3003AD0DF10D00D9E74FF05D
:10165000200AD6E70024D9E7BAF1300FE1D10135ED
:101660003368DB6830469847013708F1FF38D8E720
:101670003368DB6815F8011B304698470137B8F12D
:101680000108F5D506E03368DB68514630469847D7
:101690000137013C002CF6D1D0E600BF2CC200205F
:1016A00010B50446034B586A0368DB68E1B29847FB
:1016B000204610BD5CEF002000000000000000008C
:1016C000024B03F11002DA60704700BF5CEF0020AC
:1016D00010B50446FFF7F4FF054B00225A7163680A
:1016E00003B19847E3689847A36803B1984710BDD2
:1016F0005CEF00200000000000000000000000007F
:10170000034A01235371137190601846704700BF5C
:101710005CEF00200000000000000000000000005E
:1017200030B51D4603B90D4600F10B04234608E011
:101730000CF1370E03F801ED91FBF2F195FBF2F598
:101740004DB191FBF2FC02FB1C1C0CF1300EBEF102
:10175000390FEFDDECE7A4EB030C197801330170CE
:101760000130BCF1010CF8D130BD00BF0000000019
:1017700008B50023FFF7D4FF08BD00BF000000003C
:1017800008B5024B1B6A03B1984708BD5CEF002007
:1017900010B5054C03E014F8010BFFF7F1FF034B04
:1017A000DB68A342F7D810BD6CEF00205CEF00208F
:1017B00010B5044602E0FFF7E3FF0134207800286B
:1017C000F9D110BD00000000000000000000000082
:1017D00010B5002403E02D20FFF7D2FF01344B2C7D
:1017E000F9D90248FFF7E4FF10BD00BFE8D100209F
:1017F00010B5002403E03D20FFF7C2FF01344B2C5D
:10180000F9D90248FFF7D4FF10BD00BFE8D100208E
:101810002DE9F04786B0804601910026D5E0FFF71C
:10182000AFFF0136A846D0E008F102054FF0010AEB
:10183000DAE001350120DCE00135E2E00024A846D1
:1018400018F8013B43B3A3F13002D2B2092A00F2E7
:10185000E38004EB840402EB44044546EFE7414691
:1018600011F8013BC3B12A2B08D1019B1A1D01922B
:101870001A6898F8013008F10208D1E00022A3F1BB
:101880003005EDB2092D0BD802EB820205EB4202C6
:1018900011F8013B002BF2D1304606B0BDE8F087CD
:1018A0008846BDE018F8013B002BF5D00121C4E0CB
:1018B000082242E0019B1A1D01921B688DF80C3032
:1018C0004FF0200903AD0DF10D003FE0019B191D04
:1018D00001911D6815B162B1284602E08F4DFAE70B
:1018E00001300378002B56D0013AF9D54FF020098A
:1018F0002CE047F6FF72EFE761B1019B1A1D0192E0
:10190000196800290BDBA8B12B238DF80C300DF1E1
:101910000D000AE0019B1A1D01921968F1E72D23C1
:101920008DF80C3049420DF10D000A22FFF720FF1F
:1019300003AD0BE003A8F8E70A2209B3019B191DC8
:101940000191196803A8FFF713FF03AD471BE41BC0
:1019500024D4BAF1000F00D16442002C2BDA28788D
:101960002D2801D02B2802D1B9F1300F18D04846CC
:10197000FFF706FF01360134F9D11CE01022DCE745
:10198000019B191D01911968DCE78DF80C3003AD3E
:101990000DF10D00DAE74FF02009D7E70024D8E772
:1019A0000135FFF7EDFE0136013FE0E715F8010BC9
:1019B000FFF7E6FE0136013FF8D504E04846FFF7A1
:1019C000DFFE0136013C002CF8D1454615F8010B2D
:1019D00000283FF461AF25287FF421AF2B782D2B11
:1019E0003FF422AF4FF0000A2B782B2B3FF421AFAE
:1019F000002095F80090B9F1300F3FF41DAF4FF083
:101A000020092B782A2B7FF419AF019B1A1D019214
:101A10001C6805F102086B782E2B3FF420AF0022E2
:101A20006C2B3FF43FAF4C2B3FF43CAFA3F1410193
:101A3000C9B219298CBF00210121A3F14405342D1D
:101A4000A3D801A757F825F0F91800208B1900201A
:101A50008B1900208B1900208B190020F918002009
:101A60008B1900208B1900208B1900208B19002066
:101A70008B190020B11800207D1900208B1900203F
:101A80008B1900208B1900208B1900203919002098
:101A90008B1900208B1900207D1900208B19002044
:101AA0008B1900208B1900208B1900208B19002026
:101AB0008B1900208B1900208B1900208B19002016
:101AC0008B190020B5180020F91800208B19002070
:101AD0008B1900208B1900208B190020F918002089
:101AE0008B1900208B1900208B1900208B190020E6
:101AF0008B190020B11800207D1900208B190020BF
:101B00008B190020CD1800208B19002039190020D6
:101B10008B1900208B1900207D1900202CC2002079
:101B200010B5002400E00134042C07D8044B53F80E
:101B300024000028F7D0FFF753F8F4E710BD00BFEA
:101B400020F800200000000000000000000000005D
:101B5000034B01221A6072B672B672B662B6704753
:101B60005CEF00200000000000000000000000000A
:101B700010B5054B01221A60FEF7FAFC0446FEF789
:101B8000F7FC8442FBD010BD5CEF00200000000099
:101B9000014B00221A60704734F80020000000005A
:101BA00008B50248FFF7BCF808BD00BFF0ED002003
:101BB00008B50348FFF7B4F80248FFF7B1F808BDCD
:101BC000F0ED002000EE002000000000000000000A
:101BD00008B50248FFF7A4F808BD00BFF0ED0020EB
:101BE00008B50348FFF7D4F80248FFF799F808BD95
:101BF000E0ED0020F0ED00200000000000000000FB
:101C000008B50348FFF7C4F80248FFF789F808BD94
:101C1000E0ED0020F0ED00200000000000000000DA
:101C200008B50548FFF7B4F80448FFF779F8044809
:101C3000FFF776F808BD00BFE0ED0020F0ED0020D2
:101C400000EE002000000000000000000000000086
:101C500008B54FF0FF30FFF70BF908BD000000009A
:101C600008B54FF0FF30FFF703F908BD0000000092
:101C700008B54FF0FF30FFF7FBF808BD000000008B
:101C800008B54FF0FF30FFF7F3F808BD0000000083
:101C900008B54FF0FF30FFF7EBF808BD000000007B
:101CA00008B54FF0FF30FFF7E3F80348FFF778F887
:101CB0000248FFF775F808BDE8ED0020ECED0020C4
:101CC000704700BF0000000000000000000000009E
:101CD00008B50248FFF724F808BD00BFECEF00206C
:101CE000F8B506460C4615460769974200D93D46A9
:101CF0004FF050431A680D4B03EB82035B68611988
:101D0000186BFEF75DFCFEF733FC041BA54203D9FC
:101D10003369BB4204D3F8BD01373D460446E7E7CB
:101D200037610120FEF76CFEF5E700BF40EF0020B1
:101D300038B54FF050431A68204B03EB82035C68C0
:101D4000236998420FD042680368136042685A6062
:101D50000268816893680B449360002303604FF02E
:101D6000FF33A36138BD04F1100504F110021968B6
:101D7000216113464A60002202602269934212D018
:101D8000816893680B449360FEF7F2FB0146E369B8
:101D9000C01A226992688242E4D95B1A1A44284622
:101DA000FFF79EFFDEE74FF050431A68034B03EB4B
:101DB00082035B68186BFEF7F3FBD3E740EF00206C
:101DC0002DE9F041044616461D46C2608B6048600E
:101DD00003680B6059600160D0F81080454500D25F
:101DE00045464FF050431A68E168144B03EB8203F9
:101DF0005B682944186BFEF7C3FBFEF7B9FB074687
:101E0000831B9D4204D92369434511D3BDE8F0816A
:101E100008F101054FF050431A68084B03EB8203A9
:101E20005B687119186BFEF7CBFBA8463E46E4E7EA
:101E3000C4F810800120FEF7E3FDE7E740EF002043
:101E4000F8B505460E461746FEF792FB2B689D42F5
:101E500009D0EC68041B3C1900D33C469B68A342A4
:101E600008D82B680EE03B46024631462846FFF76D
:101E7000A7FF16E03A4601462846FFF731FFF0E794
:101E8000A41A1B689A689442FAD8B46033605A68FE
:101E9000726016605E609A68121B9A604FF0FF33A2
:101EA000AB60F8BD00000000000000000000000072
:101EB00038B54FF050442568074C04EB850CDCF82E
:101EC00004400361C260002343610A46014604F1F5
:101ED0001000FFF7B5FF38BD40EF00200000000004
:101EE0002DE9F0474FF050431A68404B03EB820353
:101EF0005E6806F1100715E0BFF35F8F4FF05043A7
:101F0000C3F87C3162B6E36821692046984772B60F
:101F10004FF05043D3F87C31002BF9D0BFF35F8FE3
:101F2000636903BB3469FEF723FBF369C21AA56832
:101F300095424AD81D44F56162682368136062685F
:101F40005A600023236006F1100833699845D3D105
:101F50004FF050431A68254B03EB82035B68186B04
:101F6000FEF71EFBC8E7FEF703FB8246A0EB050960
:101F700062694A450BD32B1A1344326990450BD042
:101F800013EB090900D24B46D8F800200CE00220E0
:101F9000FEF736FD0023F0E7524621463846FFF7AC
:101FA0000FFF20E05B1A126891688B42FAD8A36099
:101FB0002260516861600C6054609168CB1A936034
:101FC0004FF0FF33C8F80830ACE706F11002316972
:101FD0008A4208D0F0611B1AA2681A44A260014626
:101FE0003846FFF77DFEBDE8F08700BF40EF0020D8
:101FF00008B5FFF775FF08BD0000000000000000F5
:102000000023037703691B68996882689142FAD2BA
:1020100003605A684260106058607047000000001A
:1020200008B5084672B64FF05043D3F87C31002B08
:10203000F9D0BFF35F8F037F0C2B1DD8DFE803F0CF
:10204000071C1C0F17131C171C1C1C1C1700BFF3AC
:102050005F8F4FF05043C3F87C3162B618E0436B9A
:1020600000221A6008E0426B936801339360426873
:102070000368136042685A604FF0FF334363FFF711
:10208000BFFFBFF35F8F4FF05043C3F87C3162B6A0
:1020900008BD00BF000000000000000000000000BC
:1020A00008B502694FF0504319680A4B03EB8103EE
:1020B0005B689A420AD04FF050431B6D13F0020F39
:1020C00004D04FF050434FF0FF325A65FFF798FFAE
:1020D00008BD00BF40EF002000000000000000002D
:1020E00008B5FEF705FDFFF7DBFF08BD00000000A7
:1020F00008B50346006820B100221A604163FFF76B
:10210000CFFF08BD0000000000000000000000003C
:10211000F8B5856A2F6CAE6B002F00F091800446F5
:1021200017F4F06F1DD040236B6426F4F06672B68E
:102130004FF05043D3F87C31002BF9D0BFF35F8FC1
:10214000012104F11800FFF7D3FF012104F11C0065
:10215000FFF7CEFFBFF35F8F4FF05043C3F87C31E2
:1021600062B617F0400F30D026F04006A36A9B6994
:1021700013F0100F14D172B64FF05043D3F87C31E6
:10218000002BF9D0BFF35F8F002104F11800FFF797
:10219000AFFFBFF35F8F4FF05043C3F87C3162B69F
:1021A00072B64FF05043D3F87C31002BF9D0BFF317
:1021B0005F8F002104F11C00FFF79AFFBFF35F8FD0
:1021C0004FF05043C3F87C3162B617F0100F18D0AF
:1021D00040236B6426F0100672B64FF05043D3F8DC
:1021E0007C31002BF9D0BFF35F8F002104F1180080
:1021F000FFF77EFFBFF35F8F4FF05043C3F87C3192
:1022000062B617F0200F16D026F0200672B64FF0F7
:102210005043D3F87C31002BF9D0BFF35F8F0021FE
:1022200004F12000FFF764FFBFF35F8F4FF05043CE
:10223000C3F87C3162B6AE6323690BB12046984780
:10224000F8BD00BF0000000000000000000000001A
:1022500008B503460068834205D002681A605360DF
:102260004163FFF71DFF08BD0000000000000000F3
:1022700038B504460D4605E0036823605C6045639D
:10228000FFF70EFF20688442F6D138BD0000000041
:1022900038B504461546816006E0606843686360AF
:1022A0001C60FFF7FDFE45632368A342F5D138BDEE
:1022B000826801328260002A00DD704708B503465B
:1022C000006802681A60536000234363FFF7E8FE6A
:1022D00008BD00BF0000000000000000000000007A
:1022E00038B505460C4600E0013C002C0DDDAB681E
:1022F0000133AB60002BF7DC286803682B605D605E
:10230000FFF7CEFE00234363EEE738BD0000000078
:1023100010B501464FF050431A68124B03EB82038D
:102320005B68DC68C368A3640268824217D0E06C13
:1023300000E0DB683BB11A689342FAD092689042A1
:10234000F7D21046F5E7A060086803680B60596093
:102350008860836CCB608164FFF7A2FE10BD002310
:102360008360FBE740EF0020000000000000000059
:1023700008B503460068834206D002681A605360BD
:1023800000234363FFF78CFE08BD00BF0000000080
:1023900010B5044607E0036823605C60FFF780FE29
:1023A0006FF00103436320688442F4D110BD00BF85
:1023B00008B5436C19434164037F0A2B02D00B2BF1
:1023C00008D008BD426B1142F9D000234363FFF7E8
:1023D00067FEF6E7436B8B43F3D1F6E7000000009E
:1023E00070B506460D46046804E0A1686068FFF712
:1023F000DFFF2468B44208D0E3682B43E360002D7C
:10240000F3D023692B42F4D0EFE770BD0000000049
:102410000023037703691B68996882689142FAD8A0
:1024200003605A6842601060586070470000000006
:1024300010B54FF050431A68094B03EB82035B68F9
:10244000D8681C6822681A60536001222277DC6019
:10245000FFF7D6FD01462046FDF70CFF10BD00BF7B
:1024600040EF00200000000000000000000000001D
:1024700008B54FF050431A68064B03EB82035B68C4
:10248000D9681B689A688B689A4201D3FFF7D0FF1E
:1024900008BD00BF40EF0020000000000000000069
:1024A00008B572B64FF05043D3F87C31002BF9D009
:1024B000BFF35F8FFFF7DCFFBFF35F8F4FF0504339
:1024C000C3F87C3162B608BD0000000000000000C7
:1024D00010B50446FFF7E4FFFFF7E2FFFFF7E0FF68
:1024E000FFF7DEFF2368043323604FF050431A6880
:1024F000044B03EB82035B68DB6893F91D30002B10
:10250000E8DA10BD40EF00200000000000000000ED
:1025100010B54FF050431A68094B03EB82035B6818
:10252000D8681C6822681A60536001222277DC6038
:10253000FFF76EFF01462046FDF79CFE10BD00BF71
:1025400040EF00200000000000000000000000003C
:1025500008B54FF050431A68074B03EB82035B68E2
:10256000D9680877186802681A60536001220277F8
:10257000D860FDF77FFE08BD40EF0020000000009E
:1025800030B587B004464FF050431A680D4B03EB4B
:1025900082035B68DD68B1F1FF3F0FD02B460A4A2A
:1025A0006846FFF785FC2046FFF7D2FF009B13B17A
:1025B0006846FFF7BDFB686B07B030BDFFF7C8FF8B
:1025C000F9E700BF40EF00202120002000000000BC
:1025D00010B5044672B64FF05043D3F87C31002B4F
:1025E000F9D0BFF35F8FFDF7C3FF211A02D0082097
:1025F000FFF7C6FFBFF35F8F4FF05043C3F87C3146
:1026000062B610BD000000000000000000000000E5
:1026100008B54FF050431A68074B03EB82035B6821
:10262000DB6829B1036058630320FFF7A9FF08BDE9
:102630004FF0FF30FBE700BF40EF0020000000003C
:1026400038B504460D4672B64FF05043D3F87C318E
:10265000002BF9D0BFF35F8FA36A1B6C13F4F06FEC
:1026600016D10022A36A9B6913F0100F07D02946E8
:1026700004F11800FFF7CCFF02460028F2D0BFF3A8
:102680005F8F4FF05043C3F87C3162B6104638BDBF
:10269000BFF35F8F4FF05043C3F87C3162B6012225
:1026A000F4E700BF00000000000000000000000090
:1026B0002DE9F04107460D4616469846002406E0EF
:1026C000321B29463846FEF723F804440544B44239
:1026D00005D241463846FFF7B3FF0028F0D0204628
:1026E000BDE8F081000000000000000000000000D4
:1026F00008B54FF0FF33FFF7DBFF08BD0000000017
:1027000008B5FFF7D5FF08BD00000000000000007D
:1027100010B504464FF0FF31FFF792FF00B110BD36
:102720002046FEF745F8FAE7000000000000000030
:1027300010B50446FFF784FF00B110BD2046FEF738
:1027400037F8FAE700000000000000000000000079
:1027500038B504460D4672B64FF05043D3F87C317D
:10276000002BF9D0BFF35F8F0022A36A9B6913F09F
:10277000200F07D0294604F12000FFF749FF024649
:102780000028F2D0BFF35F8F4FF05043C3F87C3185
:1027900062B6104638BD00BF000000000000000017
:1027A0002DE9F04107460D4616469846002406E0FE
:1027B000321B29463846FDF7E3FF04440544B44282
:1027C00005D241463846FFF7C3FF0028F0D0204627
:1027D000BDE8F081000000000000000000000000E3
:1027E00008B54FF0FF33FFF7DBFF08BD0000000026
:1027F00008B5FFF7D5FF08BD00000000000000008D
:1028000070B504460D464FF0FF31FFF7A1FF0646B5
:1028100008B1304670BD29462046FDF7E9FFF8E7CC
:1028200070B504460D461146FFF792FF064608B103
:10283000304670BD29462046FDF7DAFFF8E700BFB5
:1028400008B54FF050431A68084B03EB82035B68EE
:10285000DB6841B1186042685A601360436004202D
:10286000FFF78EFE08BD4FF0FF30FBE740EF002082
:1028700008B58268531E8360002B01DB002008BD71
:1028800089B14FF050431A68094B03EB82035B6830
:10289000DB685863186042685A6013604360052023
:1028A000FFF76EFEEBE782604FF0FF30E7E700BF17
:1028B00040EF0020000000000000000000000000C9
:1028C00008B572B64FF05043D3F87C31002BF9D0E5
:1028D000BFF35F8FFFF7CCFFBFF35F8F4FF0504325
:1028E000C3F87C3162B608BD0000000000000000A3
:1028F00010B50446FFF7BCFF20B904F10C00FEF749
:10290000A7FB10BD0020FCE7000000000000000055
:1029100070B505464FF050431A681D4B03EB820318
:102920005B68DE6872B64FF05043D3F87C31002B01
:10293000F9D0BFF35F8F746C2C4011D141B9BFF354
:102940005F8F4FF05043C3F87C3162B60C4614E001
:1029500075630A20FFF714FE002810DB746C2C400E
:1029600063421C40736C23EA04037364BFF35F8FFC
:102970004FF05043C3F87C3162B6204670BDBFF3C0
:102980005F8F4FF05043C3F87C3162B6F5E700BF6C
:1029900040EF0020000000000000000000000000E8
:1029A00070B505464FF050431A681C4B03EB820389
:1029B0005B68DE6872B64FF05043D3F87C31002B71
:1029C000F9D0BFF35F8F746C2C4011D141B9BFF3C4
:1029D0005F8F4FF05043C3F87C3162B60C4612E073
:1029E00075630A20FFF7CCFD00280EDB746C2C40C9
:1029F000736C23EA04037364BFF35F8F4FF050439B
:102A0000C3F87C3162B6204670BDBFF35F8F4FF0D4
:102A10005043C3F87C3162B6F5E700BF40EF0020B9
:102A200038B504464FF050431A681C4B03EB820341
:102A30005B68DD6872B64FF05043D3F87C31002BF1
:102A4000F9D0BFF35F8F6B6C34EA03030FD041B949
:102A5000BFF35F8F4FF05043C3F87C3162B6084636
:102A600011E06C630B20FFF78BFD00280CDB6B6C17
:102A700023EA04036B64BFF35F8F4FF05043C3F846
:102A80007C3162B6204638BDBFF35F8F4FF05043B4
:102A9000C3F87C3162B60020F5E700BF40EF0020AC
:102AA00010B54FF050431A680F4B03EB82035B687D
:102AB000DC68606304F13803A06B834205D1A37F17
:102AC00043B10F20FFF744FD10BD0368A363FFF778
:102AD000E7FAEFE7E36A002BF3D1A26A636A1360B7
:102AE000A26A5A60EDE700BF40EF0020000000003E
:102AF00010B5044672B64FF05043D3F87C31002B2A
:102B0000F9D0BFF35F8F00210348FFF769FC20462F
:102B1000FFF7C6FF10BD00BF14F00020000000004A
:102B20008368013B8360002B01DB0020704710B5F8
:102B30004FF050431A68084B03EB82035B68DC6874
:102B400060632060436863601C6044600520FFF799
:102B5000FFFC606B10BD00BF40EF002000000000D4
:102B600010B5044604F13000FFF7DAFF216ACA68A5
:102B70008B689360CA68DA604A6A22F00100486292
:102B80000B6A013B0B6212F0100F16D0BFF35F8F80
:102B90004FF05043C3F87C3162B622234B62236C62
:102BA00001222046984772B64FF05043D3F87C314B
:102BB000002BF9D0BFF35F8FD4E710F0020F05D0E0
:102BC0004B680A681A600B684A685A6000234B62B7
:102BD000084610BD000000000000000000000000DA
:102BE000F8B504464FF050431A682F4B03EB8203AD
:102BF0005B68DD688068002851D08268AB689A42C3
:102C000007D28360037F062B15D0072B2AD0002B19
:102C10003DD023461B689C4203D09968AA68914224
:102C2000F8D22B605A686A6015605D606C6306209C
:102C3000FFF78EFCF8BD476B0646426803681360D9
:102C400042685A603B461B689F4203D09968B2684D
:102C50009142F8D233605A68726016605E60436BCE
:102C60009868CAE7476B0646426803681360426883
:102C70005A603B461B689F4203D09968B2689142F4
:102C8000F8D233605A68726016605E60C1E74268CD
:102C90000368136042685A60FFF702FAB9E7A5605B
:102CA000AB6CE360AC64C5E740EF002000000000BF
:102CB00008B572B64FF05043D3F87C31002BF9D0F1
:102CC000BFF35F8FFFF78CFFBFF35F8F4FF0504371
:102CD000C3F87C3162B608BD0000000000000000AF
:102CE000F8B505460F464FF050410A68144B03EB08
:102CF00082025268D4680A6803EB82035B68DB686F
:102D00009E6C3046FFF704FB65632B461B689D42B3
:102D100003D0A26899689142F8D223605A68626031
:102D200014605C6039460720FFF72AFC0446B0F1C6
:102D3000FF3F01D12046F8BD3046FFF751FFF9E7CC
:102D400040EF002000000000000000000000000034
:102D500008B572B64FF05043D3F87C31002BF9D050
:102D6000BFF35F8FFFF7BCFFBFF35F8F4FF05043A0
:102D7000C3F87C3162B608BD00000000000000000E
:102D800070B505464FF050410A68124B03EB8202C2
:102D90005268D4680A6803EB82035B68DB689E6C48
:102DA0003046FFF7B5FA65632B461B689D4203D09A
:102DB0009968A2689142F8D223605A6862601460F0
:102DC0005C600720FFF7C4FB646B3046FFF708FF29
:102DD000204670BD40EF0020000000000000000011
:102DE00008B572B64FF05043D3F87C31002BF9D0C0
:102DF000BFF35F8FFFF7C4FFBFF35F8F4FF0504308
:102E0000C3F87C3162B608BD00000000000000007D
:102E100038B504464FF050431A68134B03EB820356
:102E20005B68DD6872B64FF05043D3F87C31002BFD
:102E3000F9D0BFF35F8F6B6C23400DD05842184020
:102E40006B6C23EA00036B64BFF35F8F4FF050435A
:102E5000C3F87C3162B638BD6C630A20FFF778FB9B
:102E60006B6C2340EAE700BF40EF00200000000049
:102E700038B504464FF050431A68134B03EB8203F6
:102E80005B68DD6872B64FF05043D3F87C31002B9D
:102E9000F9D0BFF35F8F6B6C13EA04000BD06B6C3F
:102EA00023EA00036B64BFF35F8F4FF05043C3F816
:102EB0007C3162B638BD6C630A20FFF749FB6B6C4E
:102EC00003EA0400EBE700BF40EF00200000000031
:102ED00038B504464FF050431A68124B03EB820397
:102EE0005B68DD6872B64FF05043D3F87C31002B3D
:102EF000F9D0BFF35F8F6B6C34EA03030CD16B6CBA
:102F000023EA04036B64BFF35F8F4FF05043C3F8B1
:102F10007C3162B6204638BD6C630B20FFF718FB8E
:102F2000EDE700BF40EF00200000000000000000BF
:102F300010B54FF050431A68134B03EB82035B68E4
:102F4000DC6872B64FF05043D3F87C31002BF9D0D7
:102F5000BFF35F8F616300F13C032360036C636028
:102F60001C600464037F0E2B0BD00C20FFF7F0FADB
:102F7000606BBFF35F8F4FF05043C3F87C3162B694
:102F800010BDFFF78DF8F0E740EF002000000000D3
:102F900010B504464121FFF7CBFF42212046FFF741
:102FA000C7FF43212046FFF7C3FF44212046FFF718
:102FB000BFFF10BD00000000000000000000000086
:102FC00038B54FF050431A680A4B03EB82035B6835
:102FD000DD682C4654F83C3FA34206D0E86B0368FA
:102FE000EB635C600D23037738BD0E20FFF7B0FA6A
:102FF000F4E700BF40EF00200000000000000000E8
:1030000010B54FF050431A680D4B03EB82035B6819
:10301000DC6872B64FF05043D3F87C31002BF9D006
:10302000BFF35F8F0320FFF793FA636B002BF9D098
:10303000BFF35F8F4FF05043C3F87C3162B610BDD1
:1030400040EF002000000000000000000000000031
:1030500038B504464FF050431A68154B03EB820312
:103060005D68E868616323699D420ED04FF050436C
:103070001B6D13F0020F04D04FF050434FF0FF329E
:103080005A652046FEF7BCFF38BDA26883689A42A5
:1030900009D9FFF7BDF9014601232377EC602046EB
:1030A000FDF7E8F8F0E72046FEF7AAFFECE700BFDF
:1030B00040EF0020000000000000000000000000C1
:1030C00008B50346006818B100221A60FFF7C0FF78
:1030D00008BD00BF0000000000000000000000006C
:1030E00008B572B64FF05043D3F87C31002BF9D0BD
:1030F000BFF35F8FFFF7E4FFBFF35F8F4FF05043E5
:10310000C3F87C3162B608BD00000000000000007A
:1031100008B5024672B64FF05043D3F87C31002B0D
:10312000F9D0BFF35F8F1068824205D00368136047
:103130005A600021FFF78CFFBFF35F8F4FF05043C1
:10314000C3F87C3162B608BD00000000000000003A
:1031500008B572B64FF05043D3F87C31002BF9D04C
:10316000BFF35F8FFFF774FFBFF35F8F4FF05043E4
:10317000C3F87C3162B608BD00000000000000000A
:1031800010B572B64FF05043D3F87C31002BF9D014
:10319000BFF35F8FFFF714FFBFF35F8F4FF0504215
:1031A000C2F87C2162B6446B2146FFF7D1FF002CA8
:1031B000E7D110BD0000000000000000000000008A
:1031C0000EB400B582B003AA52F8041B0192FEF7B8
:1031D00027F902B05DF804EB03B07047000000006F
:1031E00038B505460C4604E004492846FFF7E8FFD9
:1031F00008342268002AF7D138BD00BF34C200204D
:10320000F0B583B00E46174604680D4617E0214915
:103210002046FFF7D5FF01203AE0B5420FD02368E2
:10322000DB680821204698472368DB682021204678
:1032300098472368DB68082120469847013D2368AA
:103240009B6801220DF1070120469847F8B19DF8CF
:1032500007100429DBD00829DFD07F29DDD00D2914
:103260000ED01F29EBD97B1E3344AB42E7D923682C
:10327000DB68204698479DF8073005F8013BDEE7FC
:1032800005492046FFF79CFF0020287000E0012040
:1032900003B0F0BD38C20020E8D1002000000000DB
:1032A00008B5002903DC0020FFF722FC08BD024A14
:1032B0000249FFF785FFF9E73CC2002044C2002025
:1032C00010B582B0044600292BDC184A1849FFF7D4
:1032D00077FF184A18492046FFF772FF174A184926
:1032E0002046FFF76DFF174A17492046FFF768FF92
:1032F000164A17492046FFF763FF164A164920462B
:10330000FFF75EFF154A16492046FFF759FF154B98
:103310000093154B154A16492046FFF751FF02B09E
:1033200010BD144A1449FFF74BFFF8E758C20020BC
:1033300060C2002074C2002094C20020A8C20020F5
:10334000B0C20020C4C20020D0C20020E4C20020CD
:1033500004C3002018C3002008D1002020C300208F
:1033600034C3002070C3002048C300204CC3002099
:1033700058C3002050C2002044C2002000000000BA
:1033800008B5012904D0054A0549FFF719FF08BD12
:1033900012680449FFF714FFF9E700BF7CC300205F
:1033A00044C20020B0D00020000000000000000057
:1033B00010B50446002907DCFDF7DAF80246054996
:1033C0002046FFF7FDFE10BD034A0449FFF7F8FE53
:1033D000F9E700BF94C300208CC3002044C2002042
:1033E000F0B587B00646002906DC1949FFF7E8FE6C
:1033F000FDF74EFC044617E0164A1749FFF7E0FEBA
:1034000007B0F0BD0595CDF810E0CDF80CC00291E5
:103410000197009011493046FFF7D2FE2046FDF794
:1034200057FC04460028EBD023691A6B6369E068F7
:103430002746A17F0139D4F808C094F81CE0084D54
:1034400055F82EE0256A002DDCD1064DDAE700BFE5
:103450009CC30020C0E0002044C20020E0C3002044
:10346000A8EA002080D0002000000000000000003A
:103470000FB400B583B004A951F8040B0191FEF715
:10348000C7F903B05DF804EB04B07047000000001A
:10349000F8B5264B01221A60254D26492846FFF72C
:1034A000E7FF254C25492046FFF7E2FF244928463F
:1034B000FFF7DEFF23492046FFF7DAFF22492846BF
:1034C000FFF7D6FF21492046FFF7D2FF20492846C3
:1034D000FFF7CEFF1F492046FFF7CAFF1E492846C7
:1034E000FFF7C6FF1D4F04213846FFF7C1FF1C4EF2
:1034F00031462046FFF7BCFF1A492846FFF7B8FFC0
:1035000008213846FFF7B4FF31462046FFF7B0FFE9
:1035100015492846FFF7ACFF08213846FFF7A8FFFA
:1035200031462046FFF7A4FFF8BD00BF5CEF002046
:1035300038C400200CC40020B0D00020A8C2002055
:103540003CC40020C4C2002068C4002074C2002013
:1035500094C40020E4C20020C0C40020ECC40020B9
:1035600080D00020F0C400201CC500200000000016
:10357000F8B5224B01221A60214C22492046FFF760
:1035800077FF214D21492846FFF772FF204F002188
:103590003846FFF76DFF1F4E31462046FFF768FFA4
:1035A0001D492846FFF764FF1C492046FFF760FFCE
:1035B0001B492846FFF75CFF08213846FFF758FFF4
:1035C00031462046FFF754FF16492846FFF750FFC3
:1035D00000213846FFF74CFF31462046FFF748FFF1
:1035E00011492846FFF744FF00213846FFF740FF06
:1035F00031462046FFF73CFFF8BD00BF5CEF0020DE
:10360000B0D0002048C5002038C400207CC5002070
:10361000ECC4002080D00020A8C5002058C20020A3
:10362000D4C5002000C600202CC6002000000000E9
:103630002DE9F0414FF00108D04BC3F80080D04F86
:10364000D0493846FFF714FFCF4E41463046FFF7CA
:103650000FFFCE4DCE4C29462046FFF709FFCD493E
:103660003846FFF705FF00213046FFF701FF2946E6
:103670002046FFF7FDFEC8493846FFF7F9FE202136
:103680003046FFF7F5FE29462046FFF7F1FEC34915
:103690003846FFF7EDFEC2493046FFF7E9FE2946FE
:1036A0002046FFF7E5FEBF493846FFF7E1FE20213F
:1036B0003046FFF7DDFE29462046FFF7D9FEBA491E
:1036C0003846FFF7D5FE20213046FFF7D1FE2946C8
:1036D0002046FFF7CDFEB5493846FFF7C9FE142155
:1036E0003046FFF7C5FE29462046FFF7C1FEB04928
:1036F0003846FFF7BDFE00213046FFF7B9FE2946E8
:103700002046FFF7B5FEAB493846FFF7B1FE002172
:103710003046FFF7ADFE29462046FFF7A9FEA64931
:103720003846FFF7A5FE41463046FFF7A1FE294681
:103730002046FFF79DFEA1493846FFF799FE414616
:103740003046FFF795FE29462046FFF791FE9C493B
:103750003846FFF78DFE41463046FFF789FE294681
:103760002046FFF785FE97493846FFF781FE414620
:103770003046FFF77DFE29462046FFF779FE924945
:103780003846FFF775FE41463046FFF771FE294681
:103790002046FFF76DFE8D493846FFF769FE41462A
:1037A0003046FFF765FE29462046FFF761FE88494F
:1037B0003846FFF75DFE00213046FFF759FE2946E7
:1037C0002046FFF755FE83493846FFF751FE414634
:1037D0003046FFF74DFE29462046FFF749FE7E4959
:1037E0003846FFF745FE00213046FFF741FE2946E7
:1037F0002046FFF73DFE79493846FFF739FE41463E
:103800003046FFF735FE29462046FFF731FE744962
:103810003846FFF72DFE41463046FFF729FE294680
:103820002046FFF725FE6F493846FFF721FE414647
:103830003046FFF71DFE29462046FFF719FE6A496C
:103840003846FFF715FE41463046FFF711FE294680
:103850002046FFF70DFE65493846FFF709FE414651
:103860003046FFF705FE29462046FFF701FE604976
:103870003846FFF7FDFD00213046FFF7F9FD2946E8
:103880002046FFF7F5FD5B493846FFF7F1FD41465D
:103890003046FFF7EDFD29462046FFF7E9FD564982
:1038A0003846FFF7E5FD00213046FFF7E1FD2946E8
:1038B0002046FFF7DDFD51493846FFF7D9FD0021CD
:1038C0003046FFF7D5FD29462046FFF7D1FD4C498C
:1038D0003846FFF7CDFD00213046FFF7C9FD2946E8
:1038E0002046FFF7C5FD47493846FFF7C1FD0021D7
:1038F0003046FFF7BDFD29462046FFF7B9FD424996
:103900003846FFF7B5FDFF213046FFF7B1FD2946E8
:103910002046FFF7ADFD3D493846FFF7A9FD802160
:103920003046FFF7A5FD29462046FFF7A1FD38499F
:103930003846FFF79DFD00213046FFF799FD2946E7
:103940002046FFF795FD33493846FFF791FD0021EA
:103950003046FFF78DFD29462046FFF789FD2E49A9
:103960003846FFF785FD00213046FFF781FD2946E7
:103970002046FFF77DFDBDE8F08100BF5CEF002031
:1039800038C4002058C60020ECC4002080D000209D
:10399000B0D0002084C60020B0C60020DCC60020C5
:1039A00040420F0008C7002034C7002060C7002035
:1039B0008CC70020B8C70020E4C7002010C8002032
:1039C0003CC8002068C8002094C80020C0C800205F
:1039D000ECC8002018C9002044C9002070C900208C
:1039E0009CC90020C8C90020F4C9002020CA0020BA
:1039F0004CCA002078CA0020A4CA0020D0CA0020E7
:103A0000FCCA002028CB002054CB002080CB002013
:103A1000ACCB0020D8CB002004CC0020000000005C
:103A20002DE9F843DFF81C810123C8F80030464F28
:103A300046493846FFF71CFD454EE0213046FFF76A
:103A400017FD444D444C29462046FFF711FD022343
:103A5000C8F8003041493846FFF70AFD502130468A
:103A6000FFF706FD29462046FFF702FD0323C8F8AD
:103A700000303B493846FFF7FBFC18213046FFF782
:103A8000F7FC29462046FFF7F3FC4FF00409C8F87D
:103A9000009034493846FFF7EBFC0C213046FFF725
:103AA000E7FC29462046FFF7E3FC0523C8F8003071
:103AB0002D493846FFF7DCFC10213046FFF7D8FCD3
:103AC00029462046FFF7D4FC0623C8F800302749D2
:103AD0003846FFF7CDFC08213046FFF7C9FC2946E0
:103AE0002046FFF7C5FC0723C8F8003020493846B8
:103AF000FFF7BEFC49463046FFF7BAFC2946204690
:103B0000FFF7B6FC0823C8F800301A493846FFF71B
:103B1000AFFC14213046FFF7ABFC29462046FFF7E7
:103B2000A7FC0923C8F8003013493846FFF7A0FC6A
:103B300028213046FFF79CFC29462046FFF798FCD9
:103B4000BDE8F8835CEF002038C4002030CC0020B2
:103B5000ECC4002040CC0020B0D0002048CC002095
:103B600058CC002068CC002078CC002088CC0020E5
:103B700098CC0020A8CC0020B8CC00200000000089
:103B8000F8B5264B01221A60254D26492846FFF735
:103B90006FFC254C25492046FFF76AFC244928463E
:103BA000FFF766FC23492046FFF762FC22492846BE
:103BB000FFF75EFC21492046FFF75AFC20492846C2
:103BC000FFF756FC1F492046FFF752FC1E492846C6
:103BD000FFF74EFC1D4F04213846FFF749FC1C4EF1
:103BE00031462046FFF744FC1A492846FFF740FCBF
:103BF00008213846FFF73CFC31462046FFF738FCE9
:103C000015492846FFF734FC08213846FFF730FCF9
:103C100031462046FFF72CFCF8BD00BF5CEF0020CA
:103C200038C400200CC40020B0D00020A8C200205E
:103C30003CC40020C4C2002068C4002074C200201C
:103C400094C40020E4C20020C0C40020ECC40020C2
:103C500080D00020F0C400201CC50020000000001F
:103C60002DE9F0414FF00108224BC3F80080224CAF
:103C700022492046FFF7FCFB214D22492846FFF749
:103C8000F7FB214F00213846FFF7F2FB1F4E31466C
:103C90002046FFF7EDFB1E492846FFF7E9FB1D49CB
:103CA0002046FFF7E5FB1C492846FFF7E1FB4146AC
:103CB0003846FFF7DDFB31462046FFF7D9FB1749B1
:103CC0002846FFF7D5FB04213846FFF7D1FB3146E4
:103CD0002046FFF7CDFB12492846FFF7C9FB00211C
:103CE0003846FFF7C5FB31462046FFF7C1FBBDE86C
:103CF000F08100BF5CEF0020B0D00020C8CC0020D5
:103D000038C400207CC50020ECC4002080D00020F6
:103D1000A8C50020FCCC0020D4C5002000C600208F
:103D20002CC6002000000000000000000000000081
:103D30002DE9F0414FF00108704BC3F80080704F3F
:103D400070493846FFF794FB6F4E41463046FFF707
:103D50008FFB6E4D6E4C29462046FFF789FB6D495F
:103D60003846FFF785FB41463046FFF781FB294681
:103D70002046FFF77DFB68493846FFF779FB41464F
:103D80003046FFF775FB29462046FFF771FB634974
:103D90003846FFF76DFB00213046FFF769FB2946E7
:103DA0002046FFF765FB5E493846FFF761FB414659
:103DB0003046FFF75DFB29462046FFF759FB59497E
:103DC0003846FFF755FB41463046FFF751FB294681
:103DD0002046FFF74DFB54493846FFF749FB414663
:103DE0003046FFF745FB29462046FFF741FB4F4988
:103DF0003846FFF73DFB41463046FFF739FB294681
:103E00002046FFF735FB4A493846FFF731FB41466C
:103E10003046FFF72DFB29462046FFF729FB454991
:103E20003846FFF725FB41463046FFF721FB294680
:103E30002046FFF71DFB40493846FFF719FB414676
:103E40003046FFF715FB29462046FFF711FB3B499B
:103E50003846FFF70DFB08213046FFF709FB2946DE
:103E60002046FFF705FB36493846FFF701FB414680
:103E70003046FFF7FDFA29462046FFF7F9FA3149A7
:103E80003846FFF7F5FA41463046FFF7F1FA294682
:103E90002046FFF7EDFA2C493846FFF7E9FA41468C
:103EA0003046FFF7E5FA29462046FFF7E1FA2749B1
:103EB0003846FFF7DDFA41463046FFF7D9FA294682
:103EC0002046FFF7D5FA22493846FFF7D1FA414696
:103ED0003046FFF7CDFA29462046FFF7C9FA1D49BB
:103EE0003846FFF7C5FA41463046FFF7C1FA294682
:103EF0002046FFF7BDFABDE8F08100BF5CEF00206F
:103F000038C4002004CD0020ECC4002080D0002064
:103F1000B0D0002030CD00205CCD002088CD002026
:103F2000B4CD0020E0CD00200CCE002038CE002003
:103F300064CE002090CE0020BCCE0020E8CE002031
:103F400014CF002040CF00206CCF002098CF00205D
:103F5000C4CF0020F0CF00200000000000000000CF
:103F600070B506460D460C6800E02468AC4207D0E8
:103F700008223146A01808F0DFF80028F5D100E04B
:103F80000024204670BD00BF0000000000000000BB
:103F900008B5FFF7E5FF034610B142680132426001
:103FA000184608BD000000000000000000000000EE
:103FB00038B50D4600B128602C68A4B10F492046E1
:103FC00008F012F904442378222B0ED00B49204626
:103FD00008F0EEF828602B681BB15A1C2A600022FA
:103FE0001A70237843B1204638BD0134222120467F
:103FF00008F03CF82860EEE70024F4E71CD000202D
:10400000F8B504460F4615461E4600E00834206801
:1040100058B12946FCF7C8F90028F7D16368069A19
:10402000314638469847002000E00120F8BD00BF27
:104030002DE9F04198B00646056847684FF05043B7
:104040001A684E4B03EB82035B68DB684C4A1A62CA
:104050004C492846FFF7B4F84B492846FFF7B0F81B
:1040600025E048492846FFF7ABF848492846FFF7BE
:10407000A7F80020FEF73CFD18B0BDE8F08118AAB3
:1040800002EB840141F8583C013417A90020FFF7E6
:104090008FFF034650B3032CF1DD3D492846FFF75F
:1040A0008FF818AB03EB8404002344F8583C4FF01E
:1040B00050431A68314B03EB82035B68DB6893F96A
:1040C0001D30002BD5DB33492846FFF779F8002354
:1040D000402207A93046FFF793F80028C1D117A95D
:1040E00007A8FFF765FF80460024CEE7002218AB43
:1040F00003EB840343F8582CB8F1000FD7D02649BE
:104100004046FCF751F9C8B9002C11DC2349284678
:10411000FFF756F822492846FFF762F81FB13946E3
:104120002846FFF75DF817492846FFF749F8BEE72C
:10413000194A1C492846FFF743F8B8E702AB009339
:104140002346424629461648FFF75AFF0028AED0BC
:104150004FB102AB00932346424629463846FFF74B
:104160004FFF0028A3D042460F492846FFF728F802
:104170000E492846FFF724F899E700BF40EF0020DA
:1041800020D00020E8D1002028D0002044D00020FA
:104190004CD000203CD0002064D000206CD0002007
:1041A00068EA002044C2002038C400207CD00020EF
:1041B000704700BF00000000000000000000000089
:1041C000704700BF00000000000000000000000079
:1041D000FEE700BF0000000000000000000000003B
:1041E000704700BF00000000000000000000000059
:1041F000704700BF00000000000000000000000049
:10420000704700BF00000000000000000000000038
:10421000FEE700BF000000000000000000000000FA
:104220000B4A11E050F8041B43F8041B91689942B3
:10423000F8D802E0002143F8041BD1689942F9D86C
:104240001032044B9A4202D210685368EEE770476E
:104250005CE50020DCE5002000000000000000001C
:1042600008B5FDF70DF8FCF7EBFAFCF7F1F9FCF7F0
:104270000FFB08BD0000000000000000000000006F
:1042800038B5044672B64FF05043D3F87C31002B5A
:10429000F9D0BFF35F8FA1602046FDF721F80546F6
:1042A00080B90223237140F2FC73E3602046FCF7DF
:1042B000D7F9BFF35F8F4FF05043C3F87C3162B63C
:1042C000284638BD01232371EDE700BF0000000040
:1042D00010B574460348FDF71BFF2046FCF7A0FF0E
:1042E00010BD00BFC0EE0020000000000000000074
:1042F00010B574460C4B0122DA6372B64FF050438E
:10430000D3F87C31002BF9D0BFF35F8FFDF770FE3F
:10431000BFF35F8F4FF05043C3F87C3162B6204645
:10432000FCF77EFF10BD00BF00000B400000000046
:1043300010B574460C4B0222DA6372B64FF050434C
:10434000D3F87C31002BF9D0BFF35F8FFDF750FE1F
:10435000BFF35F8F4FF05043C3F87C3162B6204605
:10436000FCF75EFF10BD00BF00000B400000000026
:1043700010B57446054B0422DA63054B9B680BB1FC
:10438000022098472046FCF74BFF10BD00000B4071
:1043900018F00020000000000000000000000000F5
:1043A00010B57446054B0822DA63054BDB680BB188
:1043B000032098472046FCF733FF10BD00000B4058
:1043C00018F00020000000000000000000000000C5
:1043D000704700BF00000000000000000000000067
:1043E000024B1B788342FBD1704700BF40EF002097
:1043F00008B54FF050431A68064B03EB82035B6825
:10440000D9681B689A688B689A4201D9FEF780F8D0
:1044100008BD00BF40EF00200000000000000000C9
:1044200010F0010F17D108B5EFF30583C3F30803AC
:104430003BB1BFF35F8F4FF05043C3F87C3162B69E
:1044400008BDFFF7D5FFBFF35F8F4FF05043C3F8B0
:104450007C3162B6F4E77047000000000000000005
:1044600008B572B64FF05043D3F87C31002BF9D029
:10447000BFF35F8FBFF35F8F4FF05043C3F87C31C2
:1044800062B672B64FF05043D3F87C31002BF9D0AE
:10449000BFF35F8FFCF794FAFFF7C2FFBFF35F8FA4
:1044A0004FF05043C3F87C3162B608BD00000000F5
:1044B00010B54FF050431A68104B03EB82035B6852
:1044C000DA6872B64FF05043D3F87C31002BF9D044
:1044D000BFF35F8FD46C9368A34201D0834200D2B4
:1044E0009060D064FFF784FFBFF35F8F4FF05043BD
:1044F000C3F87C3162B6204610BD00BF40EF0020FB
:1045000008B572B64FF05043D3F87C31002BF9D088
:10451000BFF35F8FFDF7BCFEFFF76AFFBFF35F8F4E
:104520004FF05043C3F87C3162B608BD0000000074
:1045300008B56FF0010200210148FFF7E1FF08BD57
:10454000FCEF002000000000000000000000000060
:1045500038B502460C4672B64FF05043D3F87C3162
:10456000002BF9D0BFF35F8F936801339360002B6A
:104570000FDDA368013BA360002B13DBFFF738FFBF
:104580000020BFF35F8F4FF05043C3F87C3162B619
:1045900038BD1068036813605A60FDF781FD002381
:1045A0004363E6E74FF050431A68084B03EB82037E
:1045B0005B68DD682C6063686B601D6065606C63C0
:1045C0000520FDF7C5FF686BDBE700BF40EF00206B
:1045D00010B501464FF050431A681B4B03EB8203A2
:1045E0005B68DC6872B64FF05043D3F87C31002B27
:1045F000F9D0BFF35F8FCB68A3640A688A4220D0EA
:10460000E06C00E0DB683BB11A689342FAD0926834
:104610009042F7D21046F5E7A060086803680B6087
:1046200059608860836CCB608164FDF739FDFFF7CA
:10463000DFFEBFF35F8F4FF05043C3F87C3162B6AB
:1046400010BD00238B60F4E740EF00200000000065
:104650002DE9F84305460F46914600F120084046F3
:10466000FEF726FB6E682C68341B2B69E41AA14503
:1046700000D84C4623442B61A868361AB44215D39F
:10468000B4421BD932463946FBF718FEA4EB0609A3
:104690004A46B9192868FBF711FE2B684B44AB60FA
:1046A0004046FFF795FF2046BDE8F883224639468D
:1046B000FBF704FEAB682344AB60F1E722463946C2
:1046C000FBF7FCFD2B68AB60EAE700BF00000000D1
:1046D0002DE9F84305460F46144600F120084046F0
:1046E000FEF7E6FA2B699C4200D91C461B1B2B6186
:1046F0006E68E968761AB44215D3B4421BD93246C3
:104700003846FBF7DBFDA4EB06094A462968B819D1
:10471000FBF7D4FD2B684B44EB604046FFF758FF96
:104720002046BDE8F88322463846FBF7C7FDEB6814
:104730002344EB60F1E722463846FBF7BFFD2B68C8
:10474000EB60EAE70000000000000000000000004D
:1047500010B54FF050431A68104B03EB82035B68AF
:10476000DC68A36C5BB917E002681A60536098605C
:10477000826CDA608364FDF793FCA36C43B1A36C95
:10478000DA68A26418688342EED100229A60F4E7E6
:10479000E36CA360FFF72CFE10BD00BF40EF0020CC
:1047A00008B572B64FF05043D3F87C31002BF9D0E6
:1047B000BFF35F8FFFF7CCFFBFF35F8F4FF0504326
:1047C000C3F87C3162B608BD0000000000000000A4
:1047D00008B572B64FF05043D3F87C31002BF9D0B6
:1047E000BFF35F8FFDF7D4FDFFF702FEBFF35F8FCE
:1047F0004FF05043C3F87C3162B608BD00000000A2
:1048000008B572B64FF05043D3F87C31002BF9D085
:10481000BFF35F8FFDF7CCFDFFF7EAFDBFF35F8FBE
:104820004FF05043C3F87C3162B608BD0000000071
:1048300008B572B64FF05043D3F87C31002BF9D055
:10484000BFF35F8FFDF7CCFDFFF7D2FDBFF35F8FA6
:104850004FF05043C3F87C3162B608BD0000000041
:1048600070B504460E461546237D2BBB636822684F
:104870009B1A2069B0EBA30F08D1294604F1180058
:10488000FDF7DEFF03460028EED017E0A3681A1DEF
:10489000A2601E60A26863689A4201D32368A36085
:1048A000236901332361002104F12000FDF7D0FCCE
:1048B000FFF79EFD002301E06FF00103184670BD75
:1048C00070B504460D461646237D23BB63682068F9
:1048D0001A1A2169B1EBA20F08D1314604F1180070
:1048E000FDF7AEFF03460028EED016E0E268043A7A
:1048F000E260824201D2043BE360E3681D60236909
:1049000001332361002104F12000FDF7A1FCFFF732
:104910006FFD002301E06FF00103184670BD00BF7A
:1049200070B504460E461546237D0BBB236943B97B
:10493000294604F12000FDF783FF03460028F3D049
:1049400018E0E3681A1DE2601B683360E268636880
:104950009A4201D32368E3602369013B236100216C
:1049600004F11800FDF774FCFFF742FD002301E09D
:104970006FF00103184670BD000000000000000049
:1049800008B572B64FF05043D3F87C31002BF9D004
:10499000BFF35F8F8368002B09DDFFF729FDBFF3AD
:1049A0005F8F4FF05043C3F87C3162B608BDFDF70E
:1049B0007FFCF2E7000000000000000000000000A3
:1049C00010B54FF050431A68094B03EB82035B6844
:1049D000D8681C6822681A60536001222277DC6064
:1049E000FDF716FD01462046FBF744FC10BD00BF55
:1049F00040EF002000000000000000000000000068
:104A00002DE9F04188B004460E464FF050431B6834
:104A1000DFF8A08008EB8302506003634163FCF77A
:104A2000DFFB246064600025A56004F110072761A6
:104A30007F604FF0FF33BB60FD6014233B61FBF7E9
:104A400097FD02462B46C7E90623C4F8D8501A4BF7
:104A5000019373680293B3680393802304930595CD
:104A60000695079401A904F18800FCF711F8E060AD
:104A700000F1240308F110024262D8F81420826287
:104A80001360C8F81430E268012313770B4A0192CF
:104A9000F2680292326903920493094B05930695DA
:104AA000079401A904F13800FDF71AFB08B0BDE82E
:104AB000F08100BF40EF002084D000208CD0002087
:104AC000810A00200000000000000000000000003B
:104AD00010B572B64FF05043D3F87C31002BF9D0AB
:104AE000BFF35F8FFCF724F804460021FEF7B0FA0D
:104AF000BFF35F8F4FF05043C3F87C3162B620465E
:104B000010BD00BF00000000000000000000000019
:104B100070B588B01D460C9E431820490191029043
:104B200003930492059506964FF0504211681C4A73
:104B300002EB81025268079201A9A3F15000FBF732
:104B4000A7FF0446A0F12402C26040F8145C40F8BC
:104B5000106C144B40F8043C72B64FF05043D3F83D
:104B60007C31002BF9D0BFF35F8F04F124020C4B92
:104B700003F1100161625969A1620A605A61002162
:104B80002046FEF765FABFF35F8F4FF05043C3F83E
:104B90007C3162B6204608B070BD00BF94D00020C2
:104BA00040EF0020950200200000000000000000FF
:104BB00008B572B64FF05043D3F87C31002BF9D0D2
:104BC000BFF35F8FFDF76CFF08BD00BF0000000062
:104BD00008B5FFF7EDFF08BD000000000000000071
:104BE00038B504464FF050431A68124B03EB82036A
:104BF0005B68DA6872B64FF05043D3F87C31002B13
:104C0000F9D0BFF35F8F237F0F2B05D0A36B136009
:104C1000A2630920FDF79CFC656BBFF35F8F4FF02B
:104C20005043C3F87C3162B62046FBF7A9FF284603
:104C300038BD00BF40EF0020000000000000000071
:104C400010B5002400E00134042C0BD8064B53F8B7
:104C500024000028F7D0FFF7C3FF034B002243F8DE
:104C60002420F0E710BD00BF20F800200000000065
:104C700008B5FFF7E5FF08BD0000000000000000D8
:104C800008B5FFF7DDFF08BD0000000000000000D0
:104C900008B5FFF7D5FF08BD0000000000000000C8
:104CA00008B5014672B64FF05043D3F87C31002B63
:104CB000F9D0BFF35F8F0820FDF762FCBFF35F8F71
:104CC0004FF05043C3F87C3162B608BD00000000CD
:104CD0002DE9F04105464C48FEF7CAFB296800293A
:104CE00049D04A48FEF7C4FB494C2046FEF7C0FBBA
:104CF00048494948FEF7BCFB48494948FEF7B8FB1C
:104D000048494948FEF7B4FB2046FEF7B1FB474946
:104D1000474BC91A4748FEF7ABFB4749474BC91AEF
:104D20004748FEF7A5FB4749474BC91A4748FEF7D6
:104D30009FFB4749474BC91A4748FEF799FB324842
:104D4000FEF796FB4FF00008444B83F804806B6835
:104D50004FEA880653F82830002B43D0FCF748FD73
:104D600008F101086B689B591A6841463C48FEF7F8
:104D70007FFB002406E03B48FEF77AFBB4E73A48A5
:104D8000FEF776FB6B689B595B68A70053F82430ED
:104D9000002BDCD0FCF71CFD01346B689B595B6871
:104DA000DB591B68224641463048FEF761FB30481C
:104DB000FFF776FF6B689B595B68D859FCF788FC56
:104DC000264B5B79002BDAD0244FBB68294A39681F
:104DD0002948FEF74DFBFCF7DBFCB9682748FEF7D6
:104DE00047FBCFE7FCF7F4FC0748FEF741FB1B4B02
:104DF0001B793BB122492348FEF73AFB174B187940
:104E0000BDE8F0812049F6E7E8D10020ACD00020D1
:104E1000CCD00020D4D00020ECD0002018C300203B
:104E200004D1002020C300201CD100201CC200207F
:104E30002001002034D10020E0ED00201CC2002021
:104E400054D10020BCEE0020E0ED002074D1002001
:104E5000B0000120C0EE002094D100205CEF0020C3
:104E6000B4D10020B8D0002014D20020D0D100202E
:104E7000400D030080D00020ECD1002008D200209B
:104E8000A4D000202CD200209CD0002000000000E4
:104E900008B5044B5862044A1A620846FFF718FF27
:104EA00008BD00BF5CEF0020A1160020000000003C
:104EB00008B50249FFF7ECFF08BD00BF2CEA00204F
:104EC00008B50249FFF7E4FF08BD00BF2CE500204C
:104ED00008B50120FFF7E4FE72B64FF05043D3F857
:104EE0007C31002BF9D0BFF35F8FFBF741FBBFF3A1
:104EF0005F8F4FF05043C3F87C3162B608BD00BFEE
:104F000070B50546FFF7E4FF064600240121284658
:104F1000FEF70EF80134FBF72BFB801B044B984285
:104F2000F4D900212846FEF703F8204670BD00BFE3
:104F30003F420F00000000000000000000000000E1
:104F400070B582B01B4D01232B604FF050431A689F
:104F5000194B03EB82035B68DB689A6800230093BC
:104F6000164B013A4FF4CC711548FFF7D1FD154BA4
:104F7000186002232B60FFF7C3FF0446FFF760FEB3
:104F800003232B60104E11493046FEF771FA104D85
:104F900021462846FEF76CFA0E493046FEF768FABD
:104FA00061002846FEF764FA0B490C48FEF760FAE8
:104FB00002B070BD5CEF002040EF00208131002086
:104FC00028F0002020F8002038C4002040D2002023
:104FD000ECC4002050D200205CD20020B0D00020D1
:104FE00070B582B01B4D01232B604FF050431A68FF
:104FF000194B03EB82035B68DB689A68002300931C
:10500000164B01324FF4CC711548FFF781FD154B5B
:10501000186002232B60FFF773FF0446FFF710FEB2
:1050200003232B60104E11493046FEF721FA104D34
:1050300021462846FEF71CFA0E493046FEF718FABC
:1050400061002846FEF714FA0B490C48FEF710FAE7
:1050500002B070BD5CEF002040EF002081310020E5
:1050600028F0002020F8002038C4002040D2002082
:10507000ECC4002050D200205CD20020B0D0002030
:105080002DE9F04782B0DFF810910123C9F8003014
:105090004FF05048D8F80030404C04EB83035B6875
:1050A000DB689A683E4E002700973E4B01324FF472
:1050B000CC713046FFF72CFD3B4D28600223C9F828
:1050C0000030D8F8003004EB83035B68DB689A6833
:1050D000DFF8D8A000975346023A4FF4CC7170180D
:1050E000FFF716FD6860D8F8003004EB83035B68B7
:1050F000DB689A6800975346033A4FF4CC7106F583
:105100004C70FFF705FDA860D8F8003004EB83036E
:105110005B68DB689A6800975346043A4FF4CC7199
:1051200006F59960FFF7F4FCE860D8F8003004EB6E
:1051300083046368DB689A6800975346053A4FF426
:10514000CC7106F5CC60FFF7E3FC28610323C9F8B6
:1051500000302868FFF7D4FE0446FFF771FD0423F2
:10516000C9F80030124E13493046FEF781F9124D4E
:1051700021462846FEF77CF910493046FEF778F9BB
:1051800061002846FEF774F90D490E48FEF770F9E4
:1051900002B0BDE8F08700BF5CEF002040EF0020C8
:1051A00028F000208131002020F80020D14B002081
:1051B00038C4002040D20020ECC4002050D200208F
:1051C0005CD20020B0D000200000000000000000F1
:1051D00070B582B0374E012333604FF050431A68E8
:1051E000354B03EB82035B68DB689A68002500950A
:1051F000324B01324FF4CC713148FFF789FC044641
:10520000304B186002233360FFF762FE064672B629
:105210004FF05043D3F87C31002BF9D0BFF35F8FB0
:1052200000212046FDF714FF00212046FDF710FF66
:1052300000212046FDF70CFF00212046FDF708FF66
:10524000BFF35F8F4FF05043C3F87C3162B6043533
:10525000FBF78EF9801B1C4B9842D8D9154B0322C3
:105260001A6072B64FF05043D3F87C31002BF9D05E
:10527000BFF35F8F4FF0FF312046FDF7E9FEBFF32C
:105280005F8F4FF05043C3F87C3162B6FFF7D8FC14
:10529000084B04221A600D490D48FEF7E9F8690031
:1052A0000C48FEF7E5F80C490C48FEF7E1F802B0AF
:1052B00070BD00BF5CEF002040EF002001300020F7
:1052C00028F0002020F800203F420F0040D20020AC
:1052D00038C40020ECC400205CD20020B0D00020F4
:1052E00070B582B04FF050431A68184B03EB82033D
:1052F0005B68DB689E68013E154B01221A60FFF770
:10530000E7FD0546002400230093124B32464FF47C
:10531000CC711148FFF7FCFBFFF762FC0134FBF78F
:1053200027F9401B0D4B9842EDD9094B02221A6018
:105330000B490C48FEF79CF821460B48FEF798F8FD
:105340000A490B48FEF794F802B070BD40EF002008
:105350005CEF0020D14B002028F000203F420F00DE
:1053600040D2002038C40020ECC4002068D20020C5
:10537000B0D000200000000000000000000000008D
:1053800070B582B04FF050431A68184B03EB82039C
:105390005B68DB689E680136154B01221A60FFF7D7
:1053A00097FD0546002400230093124B32464FF42C
:1053B000CC711148FFF7ACFBFBF7E2FB0134FBF7C4
:1053C000D7F8401B0D4B9842EDD9094B02221A60C9
:1053D0000B490C48FEF74CF821460B48FEF748F8FD
:1053E0000A490B48FEF744F802B070BD40EF0020B8
:1053F0005CEF0020D14B002028F000203F420F003E
:1054000040D2002038C40020ECC4002068D2002024
:10541000B0D00020000000000000000000000000EC
:105420002DE9F04782B0DFF838A10123CAF8003037
:105430004FF05049D9F800304A4D05EB83035B68C3
:10544000DB689A68DFF82081484F002400944346C7
:1054500005324FF4CC713846FFF75AFB444E3060AA
:10546000D9F8003005EB83035B68DB689A68009429
:10547000434604324FF4CC717818FFF749FB706053
:10548000D9F8003005EB83035B68DB689A68009409
:10549000434603324FF4CC7107F54C70FFF738FBED
:1054A000B060D9F8003005EB83035B68DB689A686D
:1054B0000094434602324FF4CC7107F59960FFF730
:1054C00027FBF060D9F8003005EB83056B68DB68DB
:1054D0009A680094434601324FF4CC7107F5CC60D2
:1054E000FFF716FB30610223CAF80030FFF7F0FC2B
:1054F00005466FF0010200211E48FFF701F8013454
:10550000FBF736F8401B1C4B9842F2D9144D03238D
:105510002B60FCF705FB6FF0010200211548FEF738
:10552000EFFFFFF78DFB04232B60144E1449304628
:10553000FDF79EFF134D21462846FDF799FF1249BE
:105540003046FDF795FF04EB440461002846FDF763
:105550008FFF0E490E48FDF78BFF02B0BDE8F087C4
:105560005CEF002040EF0020E159002028F00020EF
:1055700020F8002008F000203F420F0038C400202F
:1055800040D20020ECC4002074D200205CD2002065
:10559000B0D000200000000000000000000000006B
:1055A0002DE9F041224B01221A60FFF791FC0646DB
:1055B000002572B64FF05043D3F87C31002BF9D060
:1055C000BFF35F8FDFF86C801B4F00234246012141
:1055D0003846FCF76DFC194C0023424642F210712C
:1055E0002046FCF765FC3846FCF7A2FB2046FCF79A
:1055F0009FFBBFF35F8F4FF05043C3F87C3162B61F
:105600000135FAF7B5FF801B0D4B9842D1D9084BF5
:1056100002221A600B490C48FDF72AFF69000B486B
:10562000FDF726FF0A490B48FDF722FFBDE8F08190
:105630005CEF0020C11C002038F8002050F800204A
:105640003F420F0040D2002038C40020ECC40020AC
:1056500088D20020B0D00020000000000000000030
:1056600070B51B4B01221A60FFF732FC064600257D
:10567000184C2046FDF71CFB2046FEF7A9FF2046EC
:10568000FDF716FB2046FEF7A3FF2046FDF710FBB3
:105690002046FEF79DFF2046FDF70AFB2046FEF759
:1056A00097FF0135FAF764FF801B0B4B9842DFD957
:1056B000074B02221A6009490948FDF7D9FEA900E3
:1056C0000848FDF7D5FE08490848FDF7D1FE70BD32
:1056D0005CEF0020ECEF00203F420F0040D20020A2
:1056E00038C40020ECC4002094D20020B0D00020A8
:1056F00008B54CF25030FFF7D3FA72B64FF0504372
:10570000D3F87C31002BF9D0BFF35F8F0648FCF74C
:10571000CFFDFEF76DFEBFF35F8F4FF05043C3F830
:105720007C3162B608BD00BFFCEF00200000000025
:1057300010B54CF25030FFF7B3FA044C2046FDF799
:10574000B7FA2046FEF744FF10BD00BFF0ED002081
:1057500010B50E48FFF7A4FA72B64FF05043D3F8D5
:105760007C31002BF9D0BFF35F8F094C2046FDF749
:1057700037FA2046FCF7CCFDFEF73AFEBFF35F8F09
:105780004FF05043C3F87C3162B610BDF0490200BF
:1057900000EE0020000000000000000000000000FB
:1057A00010B504464CF25030FFF77AFA012120463A
:1057B000FFF726F810BD00BF000000000000000049
:1057C00008B500210548FFF733F84CF25030FFF7D9
:1057D00067FA00210248FFF72BF808BDE8ED00202A
:1057E000ECED0020000000000000000000000000C0
:1057F0002DE9F04784B0DFF808A10123CAF8003092
:1058000000230393FFF764FB4FF05049D9F80030B1
:105810003C4C04EB83035B68DB689A683A4F3B4E71
:105820000DF10C08CDF800803B46013A4FF4CC71E5
:105830003046FFF76DF9364D2860D9F8003004EB9B
:1058400083035B68DB689A68CDF800803B46013AC9
:105850004FF4CC717018FFF75BF96860D9F800302D
:1058600004EB83035B68DB689A68CDF800803B46F5
:10587000013A4FF4CC7106F54C70FFF749F9A86076
:10588000D9F8003004EB83035B68DB689A68CDF8D5
:1058900000803B46013A4FF4CC7106F59960FFF762
:1058A00037F9E860D9F8003004EB83046368DB68FB
:1058B0009A68CDF800803B46013A4FF4CC7106F56A
:1058C000CC60FFF725F928610223CAF8003011489F
:1058D000FFF7E6F9FCF724F9FFF7B2F90323CAF85A
:1058E00000300D490D48FDF7C3FD03990C48FDF745
:1058F000BFFD0C490C48FDF7BBFD04B0BDE8F087C7
:105900005CEF002040EF0020D124002028F0002090
:1059100020F8002040420F0040D2002038C4002070
:10592000ECC400205CD20020B0D0002000000000B9
:1059300000604060816070470000000000000000CF
:1059400008B501210148FFF7F3FF08BDFCEF002077
:1059500008B500210148FFF7EBFF08BDFCEF002070
:1059600008B500210148FFF7E3FF08BDFCEF002068
:1059700008B500210148FFF7DBFF08BDFCEF002060
:1059800008B500210148FFF7D3FF08BDFCEF002058
:1059900008B500210148FFF7CBFF08BD08F0002043
:1059A00008B501210148FFF7C3FF08BD08F000203A
:1059B00008B572B64FF05043D3F87C31002BF9D0C4
:1059C000BFF35F8FFDF7ACF8BFF35F8F4FF050432D
:1059D000C3F87C3162B608BD000000000000000082
:1059E00008B502E00748FFF7E3FF4FF050431A689D
:1059F000054B03EB82035B68DB6893F91D30002BDA
:105A0000F0DA08BD08F0002040EF002000000000A0
:105A100008B5024672B64FF05043D3F87C31002BE4
:105A2000F9D0BFF35F8F936801339360002B07DDDC
:105A3000BFF35F8F4FF05043C3F87C3162B608BDAF
:105A40001068036813605A600021FDF701FBEFE75F
:105A500010B5044C2046FFF7ABFF2046FFF7D8FFF8
:105A600010BD00BFFCEF002000000000000000009F
:105A700070B51B4B01221A60FFF72AFA0646002573
:105A8000184C2046FFF794FF2046FFF7C1FF204641
:105A9000FFF78EFF2046FFF7BBFF2046FFF788FF8A
:105AA0002046FFF7B5FF2046FFF782FF2046FFF7AD
:105AB000AFFF0135FAF75CFD801B0B4B9842DFD935
:105AC000074B02221A6009490948FDF7D1FCA900D9
:105AD0000848FDF7CDFC08490848FDF7C9FC70BD32
